:020000040800F2
:1000000000400020890400087304000875040008FB
:1000100077040008790400087B0400080000000051
:100020000000000000000000000000007D04000847
:100030007F04000800000000810400088304000819
:10004000D9040008D9040008D9040008D90400081C
:10005000D9040008D9040008D9040008D90400080C
:10006000D9040008D9040008D9040008D9040008FC
:10007000D9040008D9040008D9040008D9040008EC
:10008000D9040008D9040008D9040008D9040008DC
:1000900000000000D9040008D9040008D9040008B1
:1000A000D9040008D9040008D9040008D9040008BC
:1000B000D9040008D9040008D9040008D9040008AC
:1000C000D9040008D9040008D9040008D90400089C
:1000D000D9040008D9040008D9040008D90400088C
:1000E000D9040008D9040008D9040008D90400087C
:1000F000D90400080000000000000000D904000836
:10010000D9040008D9040008D9040008D90400085B
:10011000D9040008D9040008D9040008D90400084B
:10012000D9040008D9040008D9040008D90400083B
:10013000D9040008D904000810B5054C237833B958
:10014000044B13B10448AFF300800123237010BDAA
:100150000C000020000000005814000808B5034BF4
:100160001BB103490348AFF3008008BD0000000045
:10017000100000205814000830B521F003010E4D86
:10018000034601444FF0FF308B4200D130BD9A78D6
:100190005C78120442EA04221C782243DC7842EAAA
:1001A00004625040202200284FEA4000B8BF684057
:1001B000013AF8D10433E7E7B71DC10430B585B083
:1001C0000C46054600F082FA0C4B9A6942F0404218
:1001D0009A6105F178454CF2FA3204F2FF741A6123
:1001E00069460223ED0AE40A01A8019302950394EB
:1001F00000F0FEFA00F07CFA05B030BD0040005877
:1002000000B59BB04422002109A801F0F9F818229A
:10021000002102A801F0F4F8154A136823F4C06322
:1002200043F480631360136803F4C0630193019B7C
:100230002023012108936022002308A8CDE9101390
:10024000CDE9122300F062FD014608B172B6FEE767
:100250004F23CDE90230CDE90400CDE9060002A824
:1002600000F0EEFF08B172B6FEE71BB05DF804FBCC
:10027000000400582DE9F043764D87B000F07AF97C
:10028000FFF7BEFF2A68744B9A4240F09980EB68F2
:10029000012B40F095806968B1F5604F00F29080C5
:1002A0006E48FFF769FFAB68984240F08980DFF83D
:1002B000B091DFF8B081032772B64FF46041484631
:1002C000FFF77CFF6C6800F001FAD8F8183043F0B3
:1002D0004043C8F8183007344CF2FA3324F00704CE
:1002E000C8F810300026B4420BD800F001FA62B60C
:1002F00069684846FFF740FFAC68231A5C425C41DE
:100300000FE006F1006101F58833D3E9002301F520
:100310004051012000F026FAC8B100F0E9F962B6B8
:100320000024013F15D0002CC6D04A484FF400618C
:10033000FFF744FFBFF34F8F4B494C4BCA6802F4A1
:10034000E0621343CB60BFF34F8F00BFFDE7083679
:10035000C9E7002CE9D14FF0B0434FF48875DA6C4F
:1003600042F00102DA64DB6C059403F001030093B0
:10037000009B01A901234FF09040CDE90344CDE952
:10038000015300F083FA224629464FF0904000F0D6
:1003900029FB01224FF480714FF0904000F022FBC6
:1003A0004FF4967000F00EF900224FF480714FF078
:1003B000904000F017FB4FF4967000F003F9E8E767
:1003C000274B1D685C6872B6264B1A6822F40072CF
:1003D0001A601A6842F400621A601A6822F4006215
:1003E0001A601A6842F400721A601A6822F4806275
:1003F0001A601A6842F480521A601A6822F4805215
:100400001A601A6842F480621A604FF0FF310022CD
:10041000930003F1604303F561430132082AC3F8F6
:100420008010C3F88011F3D100F078FB00F056F88B
:100430004FF0E02300221A615A619A61084AC3F81A
:10044000082DBFF34F8FBFF36F8F85F3088862B617
:10045000A047FEE700F001083143414D00100108BC
:10046000003000080040005800ED00E00400FA05EC
:100470007047FEE7FEE7FEE7FEE7FEE770477047DE
:10048000704700F08DB870470D488546FFF7FBFFB9
:100490000C480D490D4A002302E0D458C4500433DF
:1004A000C4188C42F9D30A4A0A4C002301E01360B5
:1004B0000432A242FBD300F0ABFFFFF7DBFEFEE706
:1004C00000400020000000200C000020041500085F
:1004D0000C00002044000020FEE770474FF0B043BE
:1004E00010B59A6B4FF0FF329A63D96BDA63002430
:1004F000996B9C63D96BDC63196C1A64196C1C646E
:10050000596C5A64596C5C64996A9A62996A9C62E3
:10051000D96ADA62D96ADC62196B1A631A6B1C63D6
:10052000FFF7DBFF204610BD38B5104C2378054699
:100530000BB9012038BD00F0D9FB22784FF47A7353
:10054000B3FBF2F3B0FBF3F000F094F8044600289C
:10055000EFD10F2DEDD8024629464FF0FF3000F0C5
:1005600057F8034B20461D60E4E700BF040000205D
:100570000800002010B5032000F038F800F0B6FBAA
:10058000064B18600F20FFF7CFFF044618B9FFF79E
:100590006FFF204610BD0124FBE700BF00000020D4
:1005A000034A044B11681B780B441360704700BF6B
:1005B0002800002004000020014B1868704700BF8D
:1005C0002800002038B50446FFF7F6FF631C1CBF67
:1005D000054B1B78054618BFE418FFF7EDFF431BDA
:1005E000A342FAD338BD00BF040000200749CA68FF
:1005F00022F4E0620302120403F4E063120C1343DA
:1006000043F0BF6343F40033CB60704700ED00E07C
:10061000164B30B5DC68C4F30224C4F10703251D72
:10062000042B28BF0423062D4FF0FF358CBF033C5D
:10063000002405FA03F321EA0303A54022EA050298
:10064000A340002843EA0203ACBF00F16040084A1F
:100650004FEA0313B8BF00F00F00DBB2AABF00F5EA
:100660006140135480F8003330BD00BF00ED00E05E
:1006700014ED00E00138B0F1807F0BD24FF0E023A1
:10068000054A5861F02182F8231000200722986162
:100690001A6170470120704700ED00E00A4A536973
:1006A00043F4802330B55361EFF3108472B6002316
:1006B000CD58C5500433B3F5807FF9D11369DB03FE
:1006C000FCD484F3108830BD00400058064B5A69B2
:1006D000002ABFBF054A9A6002F188329A60BABF09
:1006E0005869C00F0020704700400058230167453B
:1006F000044B5A6942F000425A615869C043C00F26
:10070000704700BF0040005870B50546FFF754FF22
:10071000124E04463369D90313D43369DA0744BF50
:10072000012232614CF2FA32134011D10B4E306982
:1007300010F480200BD0FFF73FFF001BA842F6D338
:1007400004E0FFF739FF001BA842E3D3032070BD8C
:10075000024A1361024A01205360F8E70040005842
:100760002C0000202DE9F041184D98462B78012BE4
:1007700006460C46174626D001232B704FF47A709C
:1007800000236B60FFF7C0FFA0B9012E16D1104AFD
:10079000536943F0010353612760BFF36F8FC4F8BF
:1007A00004804FF47A70FFF7AFFF094A536923EAD8
:1007B0000603536100232B70BDE8F08139462046C3
:1007C000FFF76CFFEDE70220F6E700BF2C000020EA
:1007D00000400058054A536923F47E7343EAC00081
:1007E00040F4803040F002005061704700400058F3
:1007F0002DE9F041234F3B78012B054688463FD039
:1008000001233B704FF47A7000237B60FFF77CFF7D
:10081000044688B92B68042B13D11B4A536943F44F
:10082000803343F0040353614FF47A70FFF76CFF99
:100830000446154B1A681B6800233B702046BDE830
:10084000F0814FF0FF33C8F800306E68D5E901320F
:100850001344B3420AD93046FFF7BCFF4FF47A7015
:10086000FFF752FF50B1C8F800600446064A5369CA
:1008700023F47E7323F002035361DAE70136E5E7E0
:100880000224DBE72C000020004000582DE9F04F47
:10089000524C00234FF00F090A6832FA03F501D1D8
:1008A000BDE8F08F012505FA03F818EA020200F00E
:1008B0008E804E68032706F003054FEA430E07FAC1
:1008C0000EFC6F1E012F6FEA0C0C32D8876807EA06
:1008D0000C0ACF6807FA0EF747EA0A0787604768ED
:1008E00027EA0808C6F300179F4047EA0807476051
:1008F000C76807EA0C088F6807FA0EF747EA080787
:10090000022DC76017D14FEAD30800EB880803F027
:10091000070AD8F820704FEA8A0A09FA0AFB27EA80
:100920000B0B0F6907FA0AF747EA0B07C8F82070A4
:1009300001E0032DDCD1076805FA0EF507EA0C0784
:100940003D4316F4403F056041D023F0030707F113
:10095000804707F5803703F0030CBD684FEA8C0C25
:100960004FF0070E0EFA0CFEB0F1904F25EA0E0E76
:100970002FD01B4DA8422ED005F58065A84214BF8C
:100980000725022505FA0CF545EA0E05BD60256828
:10099000D74316F4801F0CBF3D40154325606568A2
:1009A00016F4001F0CBF3D4015436560D4F880501D
:1009B00016F4803F0CBF3D401543C4F88050D4F876
:1009C0008450B60354BF3D401543C4F884500133EE
:1009D00062E70025D6E70125D4E700BF00080058EC
:1009E000000400480AB181617047816270470000CD
:1009F000024A136843F48073136070470004005880
:100A0000024B186800F4C060704700BF0004005833
:100A10004FF0B0431868C0F3404070474FF0B04308
:100A20001868C0F3400070474FF0B042536823F499
:100A30007F4343EA0023536070474FF0B043186888
:100A4000C0F34060704700007FB54FF0B0432C4AC0
:100A5000D3F80831C0F3031003F00F0352F820401D
:100A6000284A52F82330B4FBF3F4FFF7C9FF264BB2
:100A7000054693E80700B5F5007F04AB03E90700DE
:100A800010D0224B9C4218D303F5B70303F67F53D3
:100A90009C4229D903F5741303F510639C4225D8B1
:100AA00002230BE01A4B9C4207D91A4B9C421BD9DC
:100AB00003F5370303F5D853F0E7002304AA02EB4C
:100AC000830353F80C4C144D2B6823F00703234386
:100AD0002B60FFF771FD06462B6803F007039C426D
:100AE00006D1002004B070BD0123E7E70024EAE747
:100AF000FFF762FD801B0228EED90320F2E700BF5A
:100B00007C140008BC14000870140008C0CF6A00F0
:100B1000BFEA21013F9334020040005870B5FFF74F
:100B20004BFD4FF0B0420446136843F001031360DD
:100B3000FFF774FF002848D04FF0B044002023682E
:100B400023F0F00343F060032360FFF76DFF636859
:100B500023F0FE4343F080436360FFF72DFD002345
:100B60000546A36041F28836A36813F00C0F33D119
:100B70002268224B13402360FFF71EFD0446FFF757
:100B800047FF78BB4FF0B042136823F400131360A3
:100B9000FFF712FD0446FFF750FF48BB4FF0B0438C
:100BA000174ADA604FF0FF3298611A624FF4403210
:100BB000C3F80821134B144A1A60144B1868FFF746
:100BC000B3FC003818BF012005E0FFF7F5FC001B5F
:100BD0000228ADD9032070BDFFF7EEFC401BB042E8
:100BE000C2D9F7E7FFF7E8FC001B6428C7D9F1E793
:100BF000FFF7E2FC001B0A28CDD9EBE7FFF4EEFE7D
:100C0000000104220000002000093D00080000202F
:100C10004FF0B04310B59A68D96812F00C0205D0B5
:100C20000C2A4AD101F00303012B51D14FF0B041FE
:100C30002B480B6813F0080306D00B6813F0080369
:100C400037D1D1F8941007E00C68240756BFD1F8CB
:100C500094300968C3F3032350F82330002A0CBFF3
:100C6000184600204FF0B0418A6802F00C020C2AAE
:100C70001ED1CA6802F00302022A2ED0032A06D12E
:100C80000B68184A13F4801F174B18BF13464FF018
:100C9000B042D068D168D268C0F306205843C1F38F
:100CA00002130133B0FBF3F0530F0133B0FBF3F049
:100CB00010BD0B68C3F30313CEE7042A05D0082A3E
:100CC00006D11B6813F4801305D006480023C9E73A
:100CD00000231846C6E70448C4E7024BD7E700BF25
:100CE0007C1400080024F4000048E80108B5FFF770
:100CF0008FFF4FF0B043044A9B68C3F3031352F8CD
:100D00002330B0FBF3F008BDBC1400082DE9F0411E
:100D10000446002853D04FF0B0439D68DE68036856
:100D20009B0605F00C0506F0030668D5026A1DB1A6
:100D30000C2D46D1012E44D1002A40D04FF0B043B3
:100D4000A16A1A68170756BFD3F894301B681B09AD
:100D500003F0F00399421FD90846FFF775FE0028FB
:100D60002DD14FF0B042136843F0080313601368AD
:100D7000A16A23F0F0030B431360606AFFF754FE8F
:100D8000FFF7B4FFAB4B1860AB4B1868FFF7CCFB19
:100D9000002834D0BDE8F0814FF0B042136843F032
:100DA00008031360136823F0F0030B431360606AB9
:100DB000FFF73AFE0846FFF747FE0028E0D0012083
:100DC000E8E74FF0B043002A54D01A6842F001021D
:100DD0001A60FFF7F1FB0746FFF720FE002842D01C
:100DE0004FF0B042136843F0080313601368A16A20
:100DF00023F0F0030B431360606AFFF715FE2368CE
:100E0000D80748D42368990700F18C8023681E070F
:100E100040F1FA80A3694FF0B046002B00F0E1806A
:100E2000D6F89430E16903F01002914200F0C480DA
:100E300003F00302022AC2D0D80740F1B380D6F8EB
:100E4000943023F00103C6F89430FFF7B5FB074652
:100E5000D6F89430990740F1A580FFF7ADFBC31B8E
:100E6000112BF5D904E0FFF7A7FBC01B0228B3D96B
:100E700003208FE71A6822F001021A60FFF79CFB3B
:100E80000746FFF7CBFD0028B9D0FFF795FBC01B45
:100E90000228F6D9ECE7082D03D00C2D05D1032E3E
:100EA00003D16368002BADD189E74FF0B043A1684F
:100EB0001A6822F480120A431A606268B2F5803F11
:100EC00010D11A6842F480321A60FFF775FB0746AA
:100ED000FFF79EFD002895D1FFF76EFBC01B64282D
:100EE000F6D9C5E7B2F5041F04D11A6842F400121E
:100EF0001A60E6E7196821F480311960196821F455
:100F000000111960002AE0D1FFF756FB0746FFF7F2
:100F10007FFD00283FF476AFFFF74EFBC01B64282F
:100F2000F5D9A5E7042D236903D00C2D0ED1022E8F
:100F30000CD1002B3FF443AF4FF0B04261695368CE
:100F400023F0FE4343EA016353605FE74FF0B0468E
:100F5000BBB1336843F480733360FFF72DFB074662
:100F600033685A0505D4FFF727FBC31B022BF7D9BB
:100F70007EE77368626923F0FE4343EA02637360AD
:100F800044E7336823F480733360FFF715FB0746AB
:100F900033685B057FF53AAFFFF70EFBC31B022BEF
:100FA000F6D965E74FF0B042E169D2F8943023F00A
:100FB00010030B43C2F894304FF0B047D7F8943089
:100FC00043F00103C7F89430FFF7F6FA0646D7F866
:100FD00094309A0718D4FFF7EFFA831B112BF6D938
:100FE00046E7D6F8943023F00103C6F89430FFF7B3
:100FF000E3FA0746D6F894309B0705D5FFF7DCFAED
:10100000C31B112BF6D933E72368580754D50B4F70
:101010003B68D90514D4FFF7EBFCFFF7CDFA064681
:101020003B68DA050CD4FFF7C7FA831B022BF7D90C
:101030001EE700BF00000020080000200004005848
:10104000E3684FF0B046002B58D023F08003052B07
:1010500002BFD6F8903043F00403C6F890304FF04A
:10106000B046FFF7A9FAD6F8903043F001030746DF
:10107000C6F8903041F28838D6F890309B0705D4F6
:10108000FFF79AFAC31B4345F6D9F1E6E36823F06C
:101090000403812B1BD1FFF78FFAD6F8903043F071
:1010A0008003C6F8903007464FF0B04641F28838CA
:1010B000D6F89030180504D5E36A002B4AD10020F9
:1010C00068E6FFF779FAC01B4045F1D9D0E6FFF793
:1010D00073FAD6F8903023F08003C6F890300746B4
:1010E0004FF0B04641F28838D6F890301905E3D574
:1010F000FFF762FAC01B4045F6D9B9E6FFF75CFA84
:10110000D6F8903023F080030746C6F8903041F2BD
:101110008838D6F890301A0516D4FFF74DFAD6F86D
:10112000903023F00103C6F8903007464FF0B048E6
:1011300041F28836D8F890309B07BDD5FFF73CFACE
:10114000C31BB342F6D993E6FFF736FAC01B4045FE
:10115000DFD98DE60C2D4ED0022B4FF0B0431A682C
:1011600022F080721A6033D1FFF726FA0546FFF7A6
:1011700064FC38BBD4E90C314FF0B0420B43D0686B
:101180002D4901400B43E16B0B43216C0B43616C18
:101190000B43A16B43EA0123D360136843F08073D0
:1011A0001360D36843F08053D360FFF705FA044619
:1011B000FFF743FC002882D1FFF7FEF9001B0A2845
:1011C000F6D955E6FFF7F8F9401B0A28CFD94FE6C4
:1011D000FFF7F2F90446FFF730FC30B94FF0B042A8
:1011E000164BD1680B40D36069E7FFF7E5F9001BA8
:1011F0000A28F0D93CE6012B3FF4E1AD4FF0B043B3
:10120000D868236B00F003029A427FF4D8AD626B7A
:1012100000F0700393427FF4D2ADA26B00F4FE4362
:10122000B3EB022F7FF4CBAD636C00F06040C01ACB
:1012300018BF0120AEE500BF8C80C111FCFFFEEE9F
:101240002DE9F0410D46044610B90120BDE8F081BA
:10125000684E336803F007038B4216D323689A075E
:1012600027D54FF0B047A268BB6823F0F0031343C3
:10127000BB60FFF7A1F90646BB68DB0319D4FFF793
:101280009BF9831B022BF7D911E0336823F0070386
:101290000B433360FFF790F90746336803F0070309
:1012A000AB42DBD0FFF788F9C01B0228F5D9032039
:1012B000CCE72368580617D54FF0B0476269D7F8D6
:1012C000083123F00F0343EA1213C7F80831FFF780
:1012D00073F90646D7F80831D90305D4FFF76CF93E
:1012E000831B022BF6D9E2E723685A0713D54FF088
:1012F000B047E268BB6823F4E0631343BB60FFF7C9
:101300005BF90646BB689B0305D4FFF755F9831BC1
:10131000022BF7D9CBE72368180714D54FF0B04755
:101320002269BB6823F4605343EAC203BB60FFF742
:1013300043F90646BB68590305D4FFF73DF9831B03
:10134000022BF7D9B3E72368DA070FD4294C2368B7
:1013500003F00703AB4239D8FFF7C8FC264B1860EF
:10136000264BBDE8F0411868FFF7DEB86268022A34
:101370001DD1FFF74DFB00283FF467AF4FF0B0469B
:1013800041F28838B36823F003031343B360FFF7D7
:1013900013F90746B368626803F00C03B3EB820FDE
:1013A000D4D0FFF709F9C01B4045F3D97FE7032AE2
:1013B00002D1FFF742FBDEE712B9FFF72FFBDAE7B6
:1013C0004FF0B0431B685B05D8D43EE7236823F099
:1013D00007032B432360FFF7EFF80646236803F06B
:1013E0000703AB42B8D0FFF7E7F8801B0228F5D916
:1013F0005DE700BF0040005800000020080000200A
:1014000002440346934200D1704703F8011BF9E7F9
:1014100070B50D4D0D4C641BA4100026A64209D1D9
:101420000B4D0C4C00F018F8641BA4100026A642CB
:1014300005D170BD55F8043B98470136EEE755F8E5
:10144000043B98470136F2E7FC140008FC1400083E
:10145000FC14000800150008F8B500BFF8BC08BC73
:101460009E467047F8B500BFF8BC08BC9E46704762
:10147000000000000100000002000000A086010042
:10148000400D0300801A060000350C0040420F009A
:1014900080841E0000093D0000127A000024F40040
:1014A00000366E010048E801006CDC02000000001C
:1014B000000000000000000000000000010000002B
:1014C0000300000005000000010000000100000012
:1014D000060000000A0000002000000002000000DA
:1014E00004000000080000001000000040000000A0
:1014F0008000000000010000000200005D01000803
:101500003901000800093D00010000001000000042
:103000000040002055560008714E0008734E00081D
:10301000754E0008774E0008794E00080000000049
:103020000000000000000000000000007B4E0008CF
:103030007D4E0008000000007F4E0008814E000811
:10304000A5560008A5560008A5560008A556000874
:10305000A5560008A5560008A5560008C14E000850
:10306000A5560008A5560008A5560008A556000854
:10307000A5560008A5560008A5560008854E00086C
:10308000A5560008A5560008A5560008A556000834
:1030900000000000A5560008A5560008A556000827
:1030A000A5560008A5560008A5560008A556000814
:1030B000A5560008A5560008A5560008A556000804
:1030C000A5560008A5560008A5560008A5560008F4
:1030D000914E00089D4E0008A5560008A556000810
:1030E000A5560008A5560008A94E0008A5560008D8
:1030F000A55600080000000000000000A5560008CA
:10310000A5560008A5560008B54E0008A5560008AB
:10311000A5560008A5560008A5560008A5560008A3
:10312000A5560008A5560008A5560008A556000893
:08313000A5560008A556000891
:1031400010B5054C237833B9044B13B10448AFF3E1
:1031500000800123237010BD8C00002000000000BF
:1031600090CC000808B5034B1BB103490348AFF3EB
:10317000008008BD000000009000002090CC0008F6
:10318000034613F8012B002AFBD1181A01387047A7
:1031900001F0FF01102A2BDB10F0070F08D010F808
:1031A000013B013A8B422DD010F0070F42B3F6D10C
:1031B000F0B441EA012141EA014122F007047FF025
:1031C00000070023F0E80256083C85EA010586EA7C
:1031D000010685FA47F5A3FA87F586FA47F6A5FAB8
:1031E00087F68EB9EED1F0BC01F0FF0102F00702C4
:1031F00032B110F8013B013A83EA010313B1F8D16F
:103200000020704701387047002D06BF354603384F
:10321000073815F0010F07D1013015F4807F02BF88
:10322000013015F4C03F0130F0BC0138704700BFD9
:1032300053B94AB9002908BF00281CBF4FF0FF311D
:103240004FF0FF3000F06AB9ADF1080C6DE904CE23
:1032500000F006F8DDF804E0DDE9022304B0704771
:103260002DE9F047089D0C46002B4ED194468C4525
:103270008646B2FA82F262D94AB1C2F12003914085
:1032800020FA03F30CFA02FC194300FA02FE4FEA9B
:103290001C471FFA8CF6B1FBF7F44FEA1E4307FBFD
:1032A000141143EA014304FB06F199420AD91CEBCD
:1032B000030304F1FF3080F01281994240F20F8144
:1032C000023C6344591A1FFA8EF3B1FBF7F007FB77
:1032D000101143EA014300FB06F69E420AD91CEB9B
:1032E000030300F1FF3180F0FC809E4240F2F98040
:1032F000634402389B1B40EA044000211DB1D340C7
:103300000022C5E90032BDE8F0878B4205D90DB136
:10331000C5E9000100210846F5E7B3FA83F1002969
:1033200046D1A34202D39042C0F0F080861A64EBEB
:1033300003030120002DE6D0C5E90063E3E7002A7E
:1033400040F09080A1EB0C044FEA1C481FFA8CF768
:103350000121B4FBF8F64FEA1E4308FB164443EA8A
:10336000044307FB06F0984208D91CEB030306F15F
:10337000FF3402D2984200F2CD8026461C1A1FFA72
:103380008EF3B4FBF8F008FB104443EA044300FB5F
:1033900007F79F4208D91CEB030300F1FF3402D268
:1033A0009F4200F2B0802046DB1B40EA0640A5E7C2
:1033B000C1F120068B4022FA06F71F4320FA06FCD3
:1033C00004FA01F343EA0C03F44000FA01F8380C64
:1033D0004FEA1349B4FBF0FE1FFA87FC00FB1E44C2
:1033E00049EA04440EFB0CF9A14502FA01F20AD99C
:1033F0003C190EF1FF3A80F08480A14540F28180B3
:10340000AEF1020E3C44A4EB09041FFA83F9B4FBAD
:10341000F0F300FB134449EA044403FB0CFCA4450D
:1034200007D93C1903F1FF3067D2A44565D9023BA7
:103430003C4443EA0E40A0FB0293A4EB0C049C42E4
:10344000CE469C4651D34ED055B1B8EB0E0364EB3B
:103450000C0404FA06F6CB401E43CC40C5E90064D8
:10346000002150E7C2F1200320FA03F10CFA02FC1C
:1034700024FA03F394400C434FEA1C4800FA02FE7E
:103480001FFA8CF7B3FBF8F008FB1031230C43EA6A
:10349000014300FB07F1994208D91CEB030300F13B
:1034A000FF362CD299422AD9023863445B1AA4B25F
:1034B000B3FBF8F108FB113344EA034401FB07F3C3
:1034C000A34208D91CEB040401F1FF3613D2A34236
:1034D00011D902396444E41A41EA004139E704464B
:1034E000F0E6084606E7C845AED2B9EB020E63EB3C
:1034F000070C0138A8E73146EDE7034699E7304667
:10350000D4E7D6467FE7634402384DE706462346B4
:1035100008460FE7023E634430E700BF704700BF34
:10352000F7B5154606460F4603F0BEFA154B16488A
:103530004FF400421A6106F17842D30A022102EBED
:10354000C502C0E90013C3EBD223DB0A013301A992
:10355000836003F041FB044680B9083FAC4206EBB0
:10356000C40103DB03F0B2FA002009E0F7E902230B
:10357000012003F0EBFA08B90134EFE703F0B2FAE7
:1035800003B0F0BD00400058B4000020520092B2D9
:1035900000EB8202091A904200D1704703680B5079
:1035A0000430F8E710B5094B0446B3F8E000084BC7
:1035B000ADF5FA6D13FA80F0FA2269468002FFF742
:1035C000E5FF1DF904000DF5FA6D10BD0075FF1F34
:1035D000FEFF410010B5094B0446B3F8E000084B6C
:1035E000ADF5FA6D13FA80F0FA2269468002FFF712
:1035F000CDFF5DF804000DF5FA6D10BD0075FF1FDD
:10360000FEFF4100F0B50E4F0E4E0446B7F8E00045
:10361000ADF2D47D16FA80F00D46FA22694680029A
:10362000FFF7B4FF0DF80450B7F8E00016FA80F089
:10363000FA2269468002FFF773FF0DF2D47DF0BDD8
:103640000075FF1FFEFF4100F0B50E4F0E4E044601
:10365000B7F8E000ADF2D47D16FA80F00D46FA22FC
:1036600069468002FFF792FF4DF80450B7F8E0007A
:1036700016FA80F0FA2269468002FFF751FF0DF238
:10368000D47DF0BD0075FF1FFEFF410013B5044659
:1036900003F00AFA0A4B0B484FF400421A6104F196
:1036A000784402230360E40A012301A94460836093
:1036B00003F092FA08B103F015FA02B010BD00BF92
:1036C00000400058A80000201248134A08B54FF0E7
:1036D0008043C0E900230422002342610122C0E9A3
:1036E0000233C0E90933C0E90C33036103838376F5
:1036F000C26180F8203080F82C30836380F83C3041
:10370000C36402F013FE18B1BDE8084000F0F2BF38
:1037100008BD00BFC00000200024014010B50446D1
:1037200088B01422002103A808F028FE22681A4B52
:103730009A422FD14FF0B04318481A6E42F40072EB
:103740001A661A6E02F400720292029ADA6C42F061
:103750000202DA64DA6C02F002020192019ADA6C77
:1037600042F00102DA64DB6C03F001030093009B7A
:103770000324042303A9CDE9033403F07BFA4FF4B7
:103780008063CDE9033403A900234FF090400593F3
:1037900003F070FA08B010BD002401400004004896
:1037A000F8B50546174608F0FEFD044660B1461B15
:1037B0002846FFF7E5FCC6F1010201360244214626
:1037C000A81908F0C1FD2770F8BDF8B516460746E0
:1037D0000C461D46FFF7D4FCB04211D37319834247
:1037E0000EDCB81900239D4205DC25EAE5750023AF
:1037F00063552046F8BD10F8012BE2540133F2E77F
:103800000024F6E770B50E4614460025A54205DBF8
:103810000CD10378002B08BF002070BD314608F0A2
:10382000B5FD0028F9D001300135EFE70020F4E7BD
:103830002DE9F043B14C89B03C220021204608F02C
:103840009DFD01F067FD1E233C222146AC4805F09A
:10385000ABFD0025AB4984F83B50204608F0A3FDA2
:10386000074688B1A84EA6480123337004F0A0FE95
:10387000204601F03BF935703C222946204609B02C
:10388000BDE8F04308F07ABD2B21204608F07EFD0C
:10389000064678B3031B022B10D8FFF771FCC31C3C
:1038A0003C2B05460AD802463146A01C08F04CFDC8
:1038B00025444123237054236370AF7093498F488C
:1038C00008F071FD0646D8B10024914B22462146EE
:1038D000CDE90044022007F091FF0A2001F07AFBB5
:1038E0008C4B1B6800938C4B22462146022007F02C
:1038F00085FF29E0894941222046FFF751FFDDE796
:1039000087497E4808F04FFD054640B331465020B8
:10391000FFF79AFE834BB3F8E000834B13FA80F075
:103920008002FFF7B3FE314604465020FFF78CFEBD
:1039300074B97E4B22462146012007F05FFFC82064
:1039400001F048FB02F056FE3C2200216B4896E74E
:10395000774B32463146012007F050FFF4E77549B6
:10396000664808F020FD064690B1734B2A4629466A
:10397000012007F043FF3C222946604808F0FEFC86
:10398000642001F027FB09B0BDE8F04302F032BE2D
:103990006A495A4808F007FD054638B35748FFF70B
:1039A000EFFB3D210546554808F0F0FC021BAB1A21
:1039B000013B013205A95148FFF707FF05A808F0B0
:1039C0008FFB044618B15E4B421F9A420BD821462A
:1039D0004FF49670FFF738FE4E4B1C604E4B009430
:1039E0000022114682E7574B3246ECE056494348E5
:1039F00008F0D9FC064658B1464B1B680093464B6D
:103A00002A462946022007F0F9FE3C2229469DE776
:103A10004E493A4808F0C7FC054620B33748FFF73F
:103A2000AFFB3D210546354808F0B0FC021BAB1A40
:103A3000013B013205A93148FFF7C7FE05A808F090
:103A40004FFB044618B13E4B421F9A4209D821460B
:103A50004FF49670FFF7F8FD2E4B1C603C4B009422
:103A6000BEE73C4BC0E73C49244808F09CFC0646B6
:103A700020B1284B1B680093354BC1E737491F48DD
:103A800008F091FC054660B31C48FFF779FB3D2127
:103A900005461A4808F07AFC021BAB1A013B0132BA
:103AA00005A91648FFF791FE05A808F019FB441E6A
:103AB000072C14D8E1B26420FFF7A4FD6420FFF7BF
:103AC00071FD84427FF440AF0130254B009000220D
:103AD0001146022007F092FE4FF47A7030E7214B36
:103AE00082E72149054808F05EFC00283ED06420AA
:103AF000FFF758FD01301A4B009081E724010020A8
:103B00003C120020DBCC000884110020E0CC00082F
:103B1000EBCC0008B015002018CD0008FECE000840
:103B200023CD00080075FF1FFEFF41002CCD0008CB
:103B300036CD000843CD00084CCD000856CD000816
:103B40007B51010061CD00086FCD000879CD0008E0
:103B500087CD000895CD0008A6CD0008B3CD00089C
:103B6000BACD0008C1CD0008CBCD0008A949AA48AC
:103B700008F019FC50B3A848FFF702FB3D210546A9
:103B8000A54808F003FC021BAB1A013B013205A952
:103B9000A148FFF71AFE05A808F0A2FA4FF6FE7337
:103BA000421E9A4204460CD801466C20FFF74CFD99
:103BB0006C20FFF70FFD84427FF4C6AE0094974B54
:103BC0000EE7974B002211460220C5E69549924820
:103BD00008F0E9FB054620B16C20FFF7FBFC0090E4
:103BE000EDE791498C4808F0DEFB50B38A48FFF7B7
:103BF000C7FA3D210646884808F0C8FB021BB31AE5
:103C0000013B013205A98448FFF7DFFD05A808F054
:103C100067FA0428044606D9844B2A46294602201E
:103C200007F0ECFDF1E6C1B20820FFF7EBFC08203D
:103C3000FFF7B8FCA04202D17D4B009047E77B4BD9
:103C4000C0E77C49744808F0AEFB064640B37248B2
:103C5000FFF796FA3D2105466F4808F097FB021BD7
:103C6000AB1A013B6C48013205A9FFF7AEFD9DF888
:103C70001440A4F14103022B10D821460C20FFF779
:103C8000C1FC0C20FFF78EFC412CC0B202D16A4B64
:103C90000090A5E6432C7FF457AEF8E7674B91E719
:103CA00067495D4808F07FFB054640B10C20FFF7EF
:103CB00079FC614BC0B200903246314616E661494C
:103CC000554808F070FB0746002848D05248FFF7D7
:103CD00057FA3D210646504808F058FB021BB31A1C
:103CE000013B05A901324C48FFF76FFD2A462C2104
:103CF00005A8FFF787FD08F0F3F9012207462C21FC
:103D000005A8FFF77FFD08F0EBF9022206462C21FB
:103D100005A8FFF777FD08F0E3F9F9B2044614208F
:103D2000FFF770FCF1B21820FFF76CFCE1B21C2029
:103D3000FFF768FC1420FFF735FC04461820FFF756
:103D400031FC06461C20FFF72DFC3F4B0094CDE9CB
:103D500001602A462946022007F050FD55E63B49FE
:103D60002D4808F020FB0646A0B11420FFF71AFCEE
:103D700004461820FFF716FC05461C20FFF712FC2E
:103D8000314B0094CDE901503A463946022007F004
:103D900035FDD9E52E49204808F005FB05460028E9
:103DA0005AD01D48FFF7ECF93D2105461A4808F0A6
:103DB000EDFA021BAB1A013B013205A91648FFF7C9
:103DC00004FD32462C2105A8FFF71CFD08F088F9F8
:103DD00001222C21054605A8FFF714FD08F080F903
:103DE000E9B204462420FFF72FFC21462820FFF7E4
:103DF0002BFC2420FFF7EEFB04462820FFF7EAFB0C
:103E0000CDE90040134B32463146022007F0F6FC64
:103E10009AE500BFD1CD000824010020DCCD0008C8
:103E2000E7CD0008F5CD0008FFCD000808CE00085A
:103E300014CE00081DCE000827CE000831CE0008A1
:103E40003ECE000847CE000853CE000865CE0008DD
:103E500070CE00087BCE0008A549A64808F0A3FA5A
:103E6000064658B3A348FFF78BF93D210646A14803
:103E700008F08CFA021BB31A013B05A901329D48D8
:103E8000FFF7A3FC2A462C2105A8FFF7BBFC08F08E
:103E900027F9C1B21820FFF7B5FB1820FFF782FB06
:103EA000954B00902A462946022007F0A7FC4FF4C4
:103EB0007A7001F08FF802F09DFBA6E58F498D48DE
:103EC00008F071FA28B11820FFF76CFB8A4B0090BC
:103ED000F2E68B49874808F066FA00B38548FFF799
:103EE0004FF93D210546834808F050FA021BAB1AF2
:103EF000013B013205A97F48FFF767FC2C21002216
:103F000005A8FFF77FFC08F0EBF8C1B26020FFF7CF
:103F100079FB6020FFF746FB7A4B009060E57A4919
:103F2000744808F040FA05460028F2D177497148F4
:103F300008F039FA064678B12420FFF74BFB044617
:103F40002820FFF747FBCDE90040714B2A46294660
:103F5000022007F053FC58E56E49664808F023FA42
:103F6000054600283DD06348FFF70AF93D21054684
:103F7000604808F00BFA021BAB1A013B013205A99D
:103F80005C48FFF722FC32462C2105A8FFF73AFCDB
:103F900008F0A6F801222C21044605A8FFF732FC00
:103FA00008F09EF8C1B2FE20FFF72CFBFE20FFF7C1
:103FB000F9FA594BA4F596629A4205460FD8214664
:103FC000FA20FFF741FBFA20FFF704FB84427FF45D
:103FD000BBACCDE90045514B3246314615E7504B5D
:103FE00002E55049434808F0DEF9074650B1FA208F
:103FF000FFF7F0FA0446FE20FFF7D4FA474BCDE96D
:104000000040A3E748493B4808F0CDF906460028A0
:104010005ED00C20FFF7C6FA04460820FFF7C2FA6C
:1040200081461420FFF7BEFA05461820FFF7BAFABA
:1040300006461C20FFF7B6FAE4B23C4B00943A4621
:1040400039468046022007F0D9FB5FFA89F0042840
:1040500096BF374BDFF8DC9053F820906420FFF7D1
:10406000A1FA04466020FFF79DFA07466C20FFF78F
:10407000B1FA00221146304B0090022007F0BEFB3F
:10408000002211462D4BCDF80090022007F0B6FB20
:104090000134002211462A4B0094022007F0AEFBA7
:1040A0000022184B00971146022007F0A7FB3C2284
:1040B0000021104808F062F90022CDE90168214B87
:1040C00000951146022007F099FB09B0BDE8F08386
:1040D0001D49084808F067F9054618B11B4B3246E0
:1040E000314671E52378002BEFD0194B95E500BFE1
:1040F00089CE00082401002090CE000897CE000849
:104100009DCE0008A7CE0008B1CE0008BACE0008A8
:104110007BCE0008C4CE000850BD0100CDCE000803
:10412000D9CE0008E5CE0008EDCE000827CE000865
:1041300020CF0008D5CC0008DCCD0008F4CE000864
:10414000BACD000853CE0008FDCE000832CD0008DD
:104150000DCE00084FF0B04307B59A6C42F0040250
:104160009A649A6C02F004020192019A9A6C42F0ED
:1041700001029A649B6C03F0010300930022022168
:104180000F20009B02F0E4F90F2003B05DF804EB70
:1041900002F010BA08B502F087FC10B16FF004000D
:1041A00008BD064B9A6942F040429A614CF2FA32DD
:1041B0001A6102F08BFC0028F2D0EFE700400058B3
:1041C000F0B585B000230D4600930646A8B3FFF76F
:1041D000E1FF044670BB02F067FC88BB1A481B4A2B
:1041E00002230193D0F8E01506F1784302EA812119
:1041F000B3FBF1F701FB1733DB0A0293D0F8E005BC
:1042000005F178410139314402EA8022B1FBF2F034
:1042100002FB1011C3EBD1230133694601A80393BC
:1042200002F0DAFC20B1022814BF6FF0010401246F
:1042300002F04CFC204605B0F0BD6FF00504F9E734
:104240006FF00404F6E700BF0070FF1F00FCFF03DF
:10425000014B186000207047600100202DE9F04FED
:10426000B0F1006F89B006460F469046C0F0C0809E
:10427000DFF89091644DD9F8E03505EA832303F126
:104280000063013B984200F2B380002900F0B38044
:1042900040EA02035B0740F0AE80FFF77BFF044675
:1042A00090BB02F001FC002840F0A880D9F8E0158E
:1042B000009705EA812106F17842B2FBF1F301FB98
:1042C000132208F17843013B3344B3FBF1F001FBC7
:1042D0001033DB0A01334FEAD22AA3EBD222012AA0
:1042E000039388BFC6F30A050AF58037C6F10803B1
:1042F0008CBFC5F500654546FF02B3460693039B98
:104300009A4505D302F0E2FB204609B0BDE8F08FE4
:10431000A6F10803069A1A4495421CD8009B0495FE
:104320000193CDF814B04FF00009059B09EB030190
:10433000049B99453DD3009BAB442B44A8EB05055A
:10434000B5F5006F009328BF4FF400650AF1010A2C
:1043500007F50067D3E753F8081F5A68B2F1FF3F2B
:1043600008BFB1F1FF3FD5D0284B186810B96FF0E6
:104370000504C7E727B14FF40062394607F044FB54
:10438000DFF888900099D9F80030CBF30A00184480
:10439000AAB207F039FB4FF400613846FFF710FF6F
:1043A00000BBD9F8003001934FF4006305970493E4
:1043B000B9E7019B07914B4402930120D3E9002305
:1043C00002F0C4FB88B90799019BD1E9000259F8B2
:1043D0000310029B5B689A4208BF884205D109F12D
:1043E0000809A2E76FF001048CE76FF0030489E786
:1043F0004FF0FF3488E76FF0050485E76FF00404A1
:1044000082E700BF0070FF1F00FCFF036001002077
:10441000B0F1006F10B40DD3084BD3F8E045084B52
:1044200003EA842303F10063013B984202D810BCE5
:10443000FFF7C6BE4FF0FF3010BC70470070FF1F83
:1044400000FCFF034FF0B04382B0DA6C0243DA6441
:10445000DB6C03400193019B02B070472DE9F041F2
:1044600086B01422002101A807F088FF0220FFF780
:10447000E9FF304EDFF8C0800120FFF7E3FF0420A2
:10448000FFF7E0FF41F218113046002202F012FD62
:10449000002260214FF0904002F00CFD00224046C7
:1044A0004FF4005102F006FD002401254FF48C73F7
:1044B00001A93046CDE901350227CDE9034402F0D8
:1044C000D9FB4FF4881301A94FF09040CDE9017357
:1044D000039402F0CFFB602301A94FF09040CDE997
:1044E0000135CDE9034402F0C5FB4FF48053CDE91B
:1044F000013501A9032330460493039402F0BAFB6B
:1045000001A94FF400534046CDE90135CDE90344FC
:1045100002F0B0FB094B0720DF6002F091F8224661
:104520002146072002F014F8072002F043F806B0F5
:10453000BDE8F08100040048000800480008005869
:104540000268154B9A4210B50C4611D1134B1980D5
:1045500013490B78782B15D84B78042B06D0062BF3
:104560000DD0032B04D100F069F901E000F0DAF975
:10457000BDE810400A490B48402205F085B900F01B
:10458000E3F8F5E72246084807F050FF074B1C8088
:10459000074B01221A70EBE7003801406604002047
:1045A00068040020D0120020660100206401002071
:1045B000041600200368074A93420AD108221A62AF
:1045C00002221A6204221A6203490448402205F0BA
:1045D0005BB970470038014068040020D012002009
:1045E00000B59BB04822002108A807F0C7FE18229A
:1045F000002102A807F0C2FE02F076FC4FF0B042A4
:10460000B021D2F8903023F01803C2F89030D2F8DD
:10461000003423F4C06343F40073C2F80034D2F8CA
:104620000034129103F4C0630193019B2C2308937F
:10463000812301220B9308A80023CDE91023CDE9A3
:104640000E23139302F0C8FD08B172B6FEE74F23A4
:10465000CDE90230CDE90400CDE90600022102A82F
:1046600003F054F808B172B6FEE71BB05DF804FB26
:1046700008B51B4B1B4A9A6062B601F00BFEFFF7B0
:10468000AFFFFFF7EBFE01F00EF800F0DFFDFFF7E4
:104690001BF800220121242001F05AFF242001F000
:1046A00089FF00220221322001F052FF0020FFF793
:1046B000CFFD0D480122082102F0FCFB00224FF43F
:1046C0008071094802F0F6FB0A2000F083FC0749DC
:1046D0000748402205F0D8F800F0ECFFFCE700BFE7
:1046E00000ED00E0003000080004004868040020ED
:1046F000D012002072B6FEE7014B23F8101070476D
:10470000A8040020014B23F810107047A8040020D3
:10471000034B0A1423F81020013023F810107047BF
:10472000A8040020064A074B11785278197062F0ED
:104730007F029870032118465A7001F0B3B800BF89
:10474000680400206602002038B5384D60202C78BF
:10475000FEF728FFC0B2844205D16B78062B04D047
:104760000120FFF7DFFF002038BD6B88AC885BBA03
:1047700064BA9BB2A4B2072B55D8DFE803F004104B
:104780001531373D4349631EFE2B01D90320E8E76D
:10479000274BE1B219706020FEF734FF0FE0022CC6
:1047A000F4D8E1B2FE20F7E7A4F596639BB24DF68C
:1047B00050429342EAD82146FA20FEF745FF1D48B1
:1047C0002B780370AB788370EB78C3702B7903710F
:1047D00006216B794170437101F064F80120C3E751
:1047E000012CD3D8E1B24FF48570D5E7012CCDD898
:1047F000E1B24FF48770CFE7022CC7D8E1B24FF493
:104800008970C9E7022CC1D8E1B24FF48B70C3E7BD
:10481000631E032BBAD921464FF49670FEF714FF9E
:10482000054B1C60CBE702209BE700BF680400201B
:104830000000002066020020B01500202DE9F84F8E
:10484000344D60202C78FEF7ADFEC0B284423ED1DC
:10485000FA20FEF7BFFE8146FE20FEF7A3FE824649
:104860006020FEF79FFE83464FF48570FEF79AFEA8
:1048700080464FF48770FEF795FE07464FF4897027
:10488000FEF790FE06464FF48B70FEF78BFE224B30
:10489000A9881A68214C4FF6FF73934228BF13462C
:1048A00049BAE38189B26B88A4F800B04A1E5BBAAA
:1048B000072AA4F802A0A4F80490A4F8068027818F
:1048C0006681A0819BB205D90320FFF72BFF002052
:1048D000BDE8F88F5818013880B2072801D90220A6
:1048E000F3E70F4A2E786D78167049009170557075
:1048F0000321984202F1020204DA094800F0D2FFD3
:104900000120E5E734F8135095702E0A56700231F5
:104910000133EEE768040020B015002002000020FB
:10492000660200202DE9F047364E30787588B6F8DB
:10493000048001F063F8B0F1000916DB324F3378E0
:104940003B70324B1C689CB9314A012122F814108B
:104950000A34962CFAD198FA98F292B2511E89B282
:104960007C2925D90320FFF7DDFE0020BDE8F08774
:104970004FF44062544300F025FB00238446254950
:104980002548DFF898E09A4611F8012B3AB15EF815
:104990002320ACEB0202944238BF01F801AC013392
:1049A00011F8012CC2810F2B00F11400ECD1D2E7D9
:1049B0000A2303FB09F968BA19FA80F01318B3F552
:1049C000FA7F01D90220CEE7154B3C781C70747831
:1049D0005C7054009C70104C04EB4000002430F8D4
:1049E000025B1D7101342E0AA5B29542DE7003F1FF
:1049F0000203F4D349000A48053100F053FF0120B7
:104A0000B4E700BF6804002000000020B0150020BB
:104A1000B6040020B4150020A8040020C41500200E
:104A20006602002070B5FF23074D084E01441C4666
:104A3000814202D143EA042070BD10F8012B5A4094
:104A4000AB5C6340B45CF3E734D0000834CF0008BB
:104A500070B5134B134D1860D5F88830202B0446E1
:104A600005D0284603F0A4FD2023C5F88830204651
:104A7000FEF786FBC82382B221460A4804F042FCB6
:104A800068B120232046C5F88830FEF779FB21461F
:104A900082B2BDE870400348C82304F033BC70BD47
:104AA000140000203C12002030B521F003010E4D0F
:104AB000034601444FF0FF308B4200D130BD9A785D
:104AC0005C78120442EA04221C782243DC7842EA31
:104AD00004625040202200284FEA4000B8BF6840DE
:104AE000013AF8D10433E7E7B71DC1042DE9F04FCF
:104AF000814DD5F88C30202B95B0044605D0284642
:104B000003F09EFD2023C5F88C3020463D2107F0A0
:104B10003DFC044628B9794815B0BDE8F04FFFF7D1
:104B200097BF00210A22013007F0D0FB2C21054657
:104B3000204607F02BFC0028EDD010220021013088
:104B400007F0C4FB6B1EB3F5604F009002D215F066
:104B5000030701D06A48DFE76A4E6B4801234FF430
:104B600060413370FFF754FC30B16848FFF770FFC5
:104B7000377015B0BDE8F08F6548DFF898B1FFF7E2
:104B800067FFBA463C46B846A5EB0809B9F1F40FF1
:104B900028BF4FF0F40958484FF47A631FFA89F29E
:104BA0000BEB040104F000FC019020B15A48FFF720
:104BB0004FFF002312E04C44B4F5006FC84419D3F2
:104BC0000AF100604FF40062594600F58830FFF7A3
:104BD00045FB28B15148FFF73BFF019B3370C8E705
:104BE0004F49A4F500642246A1F500600AF5006A69
:104BF00007F0AAFB4B4A4346302108A807F070FB98
:104C000008A8FFF725FF4545BED8B4B1FF2314F02F
:104C100007080ED10AF100603E49224600F58830AF
:104C2000FFF71CFB48B13D48FFF712FF86F80080F4
:104C30009FE70BF804300134E9E73022002108A88F
:104C400007F09CFBDFF8B08000246423012204A954
:104C5000404604F0A9FB90B99DF8102004F15001E2
:104C6000631C0DEB01040A2A04F8302C0DD12E49E7
:104C700008A807F098FB044650B12C4897E7013785
:104C8000322FF4D823461C46DFE72F2BFBD1EEE76B
:104C90001D482946FFF708FF009B984204D024488E
:104CA000FFF7D6FE347064E7224B2348CDE9043584
:104CB000009B06934FF4006101230793FFF7A8FBC5
:104CC00008B11E4873E710221B480DEB0201FFF7E5
:104CD000C5FA04460028F4D11948FFF7B9FE194A6D
:104CE0000394039B934202D901F084FC41E700BF87
:104CF000039B01330393F4E73C12002034D10008F6
:104D000047D10008841100200010010858D1000884
:104D10006AD100089008002077D100088BD10008E4
:104D2000901000209DD10008ABD10008B7D1000839
:104D3000C6D100083143414D00F00108D6D100082A
:104D4000E7D10008BF27090000B58DB02C22002153
:104D500001A807F013FB1748174B03601F2383605C
:104D60004FF080420023C0E90433C0E90723836188
:104D70004FF48073436202F06FFF08B1FFF7BAFC93
:104D80000C4803F095F808B1FFF7B4FC4FF000535E
:104D900000220793074808924FF4807301A90292FA
:104DA00006920B9302F0B8FF08B1FFF7A3FC0DB019
:104DB0005DF804FB881100200028004010B504466F
:104DC00090B03822002102A807F0D8FA2268154BCB
:104DD0009A4224D14FF48033029302A84FF4007317
:104DE0000F9302F0B7FD08B1FFF784FC4FF0B0431A
:104DF0002A20D3F8902042F40042C3F890209A6D04
:104E000042F480629A659B6D002203F480630193F3
:104E10001146019B01F09CFB2A2001F0CBFB10B056
:104E200010BD00BF002800407047000008B501F029
:104E300053FA044B0120C3F88800BDE8084002F093
:104E4000ABB800BF0004005801F04DBA08B501F03E
:104E50004AFABDE8084000F0BDBB08B501F03CFAD5
:104E6000BDE808400121002002F046B870477047B5
:104E7000FEE7FEE7FEE7FEE7FEE770477047704794
:104E800001F01EBA014801F09FBD00BFDC110020F7
:104E9000014803F083BC00BFD0120020014803F09A
:104EA0007DBC00BF3C120020014802F05BBE00BF89
:104EB00088110020014803F03ABA00BFC011002059
:104EC000022002F005B80000054808B50823036079
:104ED00003F04AF818B1BDE80840FFF70BBC08BD65
:104EE000C01100204FF0B04307B55A6E42F00102E6
:104EF0005A665B6E002203F00103019311463220D3
:104F0000019B01F025FB322003B05DF804EB01F0BA
:104F100051BB00000CB407B5054A05AB1021019345
:104F200006F0BCFF03B05DF804EB02B0704700BFB1
:104F300010D2000830B585B0044602A80D4606F030
:104F40003BFEBDF90C30064A00931021029B20461F
:104F5000FFF7E0FF2046FEF713F9288005B030BDCB
:104F600010D200084FF0B04210B5936823F400430C
:104F7000936006F047FE0C4B01241C7000F030F8E3
:104F800006F0D2FB094806F0E9FB022006F0ECFB34
:104F900006F0E4FC2146204606F000FD21462046AE
:104FA000BDE8104006F0E4BCCC110020354F0008ED
:104FB00006F00ABD0121022006F0DABC0021022021
:104FC00006F0D6BC024B187808B100F08BB87047D9
:104FD000CC11002082B00190019802B000F01EB9FF
:104FE00070B586B001F086F901F08CF901F092F904
:104FF000012302930323049300244FF0B04303944E
:105000000594DA6C0B4D42F00202DA64DB6C03F0BB
:10501000020300934FF4805601A92846009B019695
:1050200001F028FE22463146284601F043FF06B033
:1050300070BD00BF000400480B4A116810B503465C
:1050400009B90A491160106809490A4C0344091B4F
:105050008B4206D907F0BEF90C2303604FF0FF30F6
:1050600010BD1360FCE700BFD0110020501C0020D1
:105070000040002000080000014B1868704700BF86
:10508000D41100200320704708B501464FF47A720E
:1050900000238002890DFEF7CBF808BD4FF47A7328
:1050A000A0FB0303800A40EA83507047034B9868D3
:1050B0009A689042FBD1C043704700BF002800406F
:1050C00008B5FFF7F3FF014B186008BDD4110020AD
:1050D00008B5FFF7EBFF024B1B68C01A08BD00BF05
:1050E000D4110020024B187808B1FFF7DFBF7047DA
:1050F000D811002010B5074B074C0122DA654FF498
:105100008071204602F0F4FC4FF0FF33236300204F
:1051100010BD00BF00280040881100200246002179
:10512000014802F0ECBE00BF8811002002460121B8
:10513000014802F0E4BE00BF8811002010B58CB019
:105140002C220021044601A807F018F9FFF7D2FF2E
:105150000C4B0D481B681C440023089306934FF02A
:105160000053E443079301224FF4807301A9029492
:105170000B9302F0D1FD08B1FFF7BCFA00200CB090
:1051800010BD00BFD41100208811002038B505469D
:10519000FFF78CFF02210446074802F0B7FEC4F374
:1051A00009024FF47A71A2FB0121920AA30A2A8014
:1051B00043EA805038BD00BF88110020014800211B
:1051C00002F0A4BE881100200148012102F09EBE19
:1051D00088110020F8B50F4D2E78CEB90E4C4FF047
:1051E000FF372763FFF7B0FDFFF784FF4FF48071AF
:1051F000204602F07DFC2046276302F03BFE32464B
:105200002046022102F07BFEFFF75AFF01232B709C
:105210000020F8BDD811002088110020014610B5EB
:105220004FF47A7200238002890DFEF701F80146DF
:10523000FFF73CFF0446FFF739FF031B8B4200D307
:1052400010BD00BFF7E706F0E5BD000038B52E49F8
:105250002E4C4FF41653C4E900130C220023C4E96A
:105260000233C4E90523C4E90733236163620823D9
:10527000A36220464FF40043A36304F033F908B15E
:10528000FFF738FA2148002104F0BEFA08B1FFF711
:1052900031FA1E48002104F0D7FA08B1FFF72AFAC4
:1052A0001A4804F096FA08B1FFF724FAFA20FEF73C
:1052B00091F90546FE20FEF775F9154BA5F59662A6
:1052C0009A4288BF4FF41655031E18BF01231B03D3
:1052D00002286560A36012D0012814BF00234FF498
:1052E000C06323610823A36208484FF40043A3630B
:1052F00004F0F8F830B1BDE83840FFF7FBB94FF4DF
:105300008063EEE738BD00BF00380140D0120020B6
:1053100050BD01001648174A08B54FF46133C0E983
:10532000002300230C22C0E90233C0E90523C0E9B1
:105330000733C0E90933036104F0D4F808B1FFF77B
:10534000D9F90B48002104F05FFA08B1FFF7D2F950
:105350000748002104F078FA08B1FFF7CBF90448B8
:1053600004F017FA18B1BDE80840FFF7C3B908BD4B
:105370003C1200200044004070B5142298B006464C
:1053800000210DEB020006F0F9FF382200210AA8E7
:1053900006F0F4FF3368434A934235D101254FF4B8
:1053A00040330AA8CDE90A5302F0D4FA08B1FFF756
:1053B000A1F94FF0B043C0241A6E3B4842F480423A
:1053C0001A661A6E02F480420292029ADA6C42F075
:1053D0000202DA64DB6C03F002030193019B0223F7
:1053E000CDE9054305A9002407230993CDE9074426
:1053F00001F040FC24202246214601F0A9F8242097
:1054000001F0D8F818B070BD284A9342FAD10223AF
:105410000A930AA84FF440230C9302F09BFA08B1B8
:10542000FFF768F94FF0B04300259A6D204C42F425
:1054300000329A659A6D02F400320492049ADA6C92
:1054400042F00102DA64DB6C03F001030393039B77
:105450000C220223CDE905230323CDE9075305A937
:1054600007234FF09040099301F004FC1149256295
:105470001423C4E900131023C4E902352046802315
:10548000C4E90435C4E9065501F028F908B1FFF76D
:1054900031F92520F46700220221A66201F058F8B4
:1054A0002520ADE7003801400004004800440040DA
:1054B000DC110020580002400368144A934210B5E2
:1054C00004460ED14FF0B0421148136E23F48043CE
:1054D0001366C02101F07AFC2420BDE8104001F0E1
:1054E00077B80C4A93420FD14FF0B0420C21936D24
:1054F00023F4003393654FF0904001F067FCE06FB8
:1055000001F05EF92520E8E710BD00BF003801403A
:10551000000400480044004008B50A46014602481D
:1055200003F004F8002008BD3C12002013B5114B15
:10553000114C18604FF40013009302AB13E90600FE
:10554000204604F0CAF82368DA69D103FCD4DA698A
:105550005202FCD59A68084842F480029A6004F02E
:1055600002F906490448012204F070F8002002B054
:1055700010BD00BF641300203C1200206C130020FB
:1055800008B5074B1860FEF7E5FDFFF7C3FE054AB7
:10559000D2F8803043F00063C2F88030002008BDAC
:1055A000681300200008005808B54FF0B0430848C1
:1055B0009A6B42F400329A639A6B22F400329A6337
:1055C000FFF77AFF0F2001F003F8002008BD00BFAD
:1055D0003C12002008B5074803F084FF08B1FFF72C
:1055E00089F8054801F07AF818B1BDE80840FFF7DE
:1055F00081B808BD3C120020DC1100200268044B79
:105600009A4203D1034B00201B681847704700BF24
:10561000004400406813002002680B4B9A4210B50A
:1056200004460FD1094B1B682BB1D0F8902012B95A
:1056300007480121984720460549BDE8104001224E
:1056400004F004B810BD00BF004400406413002003
:105650006C1300200D48854600F0F5FD0C480D49FF
:105660000D4A002302E0D458C4500433C4188C42BD
:10567000F9D30A4A0A4C002301E013600432A24223
:10568000FBD306F0ADFEFEF7F3FFFEE7004000207F
:10569000000000208C0000202CDA00088C00002084
:1056A0004C1C0020FEE708B5FFF75CFCBDE8084095
:1056B00000F09ABC10B50B4C237863B100220A4B62
:1056C0001146012006F09AF800232370074B084882
:1056D000197800F02DF9BDE810404FF0FF3006F0CA
:1056E000D7B900BF041600206CD200086401002066
:1056F0006601002008B500221146064B012006F085
:105700007DF8054B02221A70BDE8084000210120F7
:1057100006F086B979D200088E150020024B0120D0
:105720000021187006F07CB98E150020002210B5FB
:1057300011460A4B012006F061F8094B00241C7049
:10574000084B04221A70084B20465B6B9847214691
:105750000120BDE8104006F063B900BF85D2000803
:10576000AC1500208E15002048D70008084B10B556
:1057700000241C70074B03221A70074B20465B6BFA
:10578000984721460120BDE8104006F049B900BF06
:10579000AC1500208E15002048D7000870B51546BE
:1057A0000D4A13700D4B0C46064600210C4819702B
:1057B000FF2206F0E3FD0B4BFF2C1C8004D80848A9
:1057C0002246314606F032FE074B1D70BDE87040A0
:1057D0000021012006F024B98C1300208E15002032
:1057E0008F1400208E1300208D13002010B50E4C56
:1057F00023787BB910210D48012201F05BFB0123C6
:105800002370C8210A4806F0EDFABDE810400848A8
:1058100006F0AEBA10210548002201F04BFB002330
:1058200023704FF42F61EDE76D1300200004004852
:1058300074130020022808B508D1FDF7F9FFBDE870
:10584000084003480022102101F034BB08BD00BF0E
:105850000004004800B5114BD3F88025D3F88435F7
:1058600089B0D1B20791C2F307210691C2F3074173
:10587000120E0492DAB20392C3F307220292C3F328
:10588000074201921B0E0022059100931146044B22
:10589000022005F0B3FF09B05DF804FB0070FF1FA4
:1058A00093D2000870B58EB20C4631460546FFF71C
:1058B000B9F828552C44000A60700B4C0122204690
:1058C0004FF4807101F0F6FAB21C294692B20748F3
:1058D00040F6B83303F016FD20460022BDE87040C4
:1058E0004FF4807101F0E6BA00040048D0120020A5
:1058F00070B50D4E04460D4601224FF480713046BE
:1059000001F0D8FA0120FFF765FBAAB2214607484B
:1059100040F6B83303F0F6FC30460022BDE8704094
:105920004FF4807101F0C6BA00040048D012002084
:10593000F0B5124BC1B005466C461E8801222046C8
:105940006F1E531E9BB2994207D80D4B03221A704B
:105950000C4B9B6A984741B0F0BD9142BB5CC4BF01
:1059600015F802C043EA0C23734091422370C4BF70
:105970001B0A637002320234E3E700BF22000020FA
:105980008E15002048D7000870B5184B184E93F9B3
:10599000005086B0AC238DF811302B0E04468DF8E4
:1059A00010008DF81230052133788DF8143004A8DA
:1059B0008DF81350FFF736F8030A8DF8163096F974
:1059C00000308DF815000022CDE901531146094B36
:1059D0000094012005F012FF074B0122072104A8C3
:1059E0001A70FFF7A5FF06B070BD00BF8D13002031
:1059F0008C130020CAD20008AC150020084B1B787D
:105A0000C3EB031301339BB2984205D303F10E029B
:105A1000824201DBC01A70474FF0FF30704700BF71
:105A2000001600202DE9F04F8029A5B00C4675D84E
:105A3000AB4B04ADB3F800C0CFB2012229462E46CD
:105A400000F1FF3E531EDBB29F421FD8032C65D9E5
:105A5000A4F1020804F1900308F190026A446B4437
:105A600012F8807C13F8813C1FFA88F1284647EA37
:105A70000327FEF7D7FF87421AD0CDE90070994B74
:105A800000221146012005F0B9FE47E094421EF8BD
:105A90000230C4BF10F8028043EA08238CEA0303F3
:105AA00094420B70C4BF1B0A4B7002320231C9E72B
:105AB0009DF810709DF811908B4B00221146CDE996
:105AC0000079012005F09AFE3846FFF797FF00287D
:105AD0002EDA782F25D9854BDFF814821C8000221E
:105AE000844B00941146012005F088FE002715F82C
:105AF000013B009300220137434611460120BFB20B
:105B000005F07CFEBC42F2D1002211467A4B012006
:105B100005F074FE21463046FFF7EAFE25B0BDE8E9
:105B2000F08F764B1B780133CDE90073744BA7E7F8
:105B3000B9F10A0F35D0B9F10B0F5DD0B9F1010FF2
:105B400040F0CB80002402230DE003F190026A4470
:105B50005D1C12F8802CEDB2B2B94FF6FF71FEF762
:105B6000D1FD01342B469A1CD2B29045A0B203DD80
:105B7000B4F5FA7FE9D12046624B0090002211462D
:105B8000012005F03BFEC9E72A460333DDB202F1EE
:105B900090036B4413F8801C13F87F3C43EA012107
:105BA000DDE70D2CBAD90022574B00941146012095
:105BB00005F024FE4E4F002615F8013B009300220D
:105BC00001363B4611460120B6B205F017FEB4423D
:105BD000F2D10022484B1146012005F00FFE9DF83E
:105BE00010509DF8113002932846FFF707FF061E5C
:105BF0001BDA464B0095C1E70D2C8FD90022444B90
:105C000000941146012005F0F9FD394F002615F8E2
:105C1000013B0093002201363B4611460120B6B2FB
:105C200005F0ECFDB442F2D1D3E7FFF7CBF9394BE5
:105C300043F82600384B01229A55384ABDF81A30ED
:105C400092F900A0364A02999DF812B0DDF813705F
:105C5000BDF8188006EB86046400A4B29DF81760B6
:105C600093FA93F9204692F900300393FEF744FD2E
:105C7000601C06F07F0180B2FEF73EFDA01C80B2E2
:105C80005946FEF739FD98FAB8F8E01C414680B253
:105C9000FEF732FD201D80B20FFA89F1FEF72CFDD0
:105CA000601D514680B2FEF727FDA01D039980B20A
:105CB000FEF722FDE01D002180B2FEF71DFD3FBA78
:105CC00004F1080080B23946FEF722FDF6093FF4E0
:105CD00025AF2846FFF758FE20E7124B00974DE707
:105CE00022000020EDD2000812D300080216002086
:105CF00058D300083FD30008E5D100080016002063
:105D00005ED3000883D30008AAD30008C3D30008D9
:105D1000E2D30008C4150020B41500208D13002024
:105D20008C130020F9D3000813B51D4C2378042BE5
:105D300034D8DFE803F0031C1C2B2500194B1B781B
:105D400063B3194B198849B3184B194800221A70CC
:105D5000FFF768FE174B1B7803F0FF01F3B903232D
:105D60000120237002B0BDE8104005F059BE0022AA
:105D7000114B1146012002B0BDE8104005F03EBDB8
:105D800000220E4B1146012005F038FD0C4B5B6BD9
:105D90000193002002B0BDE81040184702B010BDCA
:105DA0008E150020180000208E13002004160020FD
:105DB0008F140020AC15002013D4000824D4000850
:105DC00048D70008042807D8072905D8034B01EB5A
:105DD000C00153F821007047002070474CD50008DF
:105DE00037B5FA20FDF7F6FB0446FE20FDF7DAFB97
:105DF000714BA4F596649C42C5B204D94FF4165178
:105E0000FA20FDF721FC022D03D90021FE20FDF729
:105E1000F9FB6020FDF7C6FBC0B2431EDBB2FD2BD1
:105E2000664C00F2A38020702278531EDBB2F62B62
:105E3000634B00F2A1801A704FF48570FDF7B2FB3E
:105E400004464FF48770FDF7ADFBE4B2012CC5B2F8
:105E500004D900214FF48570FDF7D4FB012D04D93E
:105E600000214FF48770FDF7CDFB4FF48970FDF7EB
:105E700099FB04464FF48B70FDF794FBE4B2022CBF
:105E8000C5B204D900214FF48970FDF7BBFB022D88
:105E900004D900214FF48B70FDF7B4FB1820FDF7F7
:105EA00081FBC0B20528474C6CD820702378642051
:105EB000C3F10C032370FDF775FBC4B20820FDF796
:105EC00071FB072CC5B204D900216420FDF79AFBB1
:105ED00000243D4B052D1C7010D903210820FDF72F
:105EE00091FB43210C20FDF78DFB00211420FDF7D1
:105EF00089FB00211C20FDF785FB03252146284650
:105F0000FFF760FF314B18606C20FDF763FB80B238
:105F1000431E9BB24FF6FD7293422D4B38D818802A
:105F20007020FDF757FB013003D100217020FDF7F1
:105F30008BFB4FF49670FDF74DFB431C254C2ED187
:105F40004FF4967108462160FDF77EFB22682249D6
:105F5000224B002A18BF0B46CDE900230022204B1C
:105F60001146022005F04AFC03B030BD012160203B
:105F70002170FDF747FB57E7012160201970FDF7FD
:105F800041FB59E7052118202170FDF73BFB8DE708
:105F900040F257416C201980FDF756FBC0E7114BCA
:105FA000984204D8431E032B01D92060CEE74FF45A
:105FB00096732360CAE700BF50BD010000000020B7
:105FC0002000002019000020001600201C000020E6
:105FD00022000020B0150020E6D1000837D40008C8
:105FE00050D40008805101002DE9F04E8CB0FEF72E
:105FF00035FA674D08241021284600F060FF642020
:10600000FEF7E8FF013CF6D122462146614B624E85
:10601000DFF88891624F0220012505F0EFFB4FF079
:10602000050A224621465F4B022005F0E7FB224687
:106030002146CDE9005A5C4B0294022005F0DEFBBC
:10604000032322462146CDE900530295574B0220F7
:1060500005F0D4FBFFF7FEFB2246C821544B009409
:10606000544805F0D9FD534805F082FE5248534B81
:106070000360534B8360534B4360534BC360534B9C
:1060800003613368984773699847800DC9F8000029
:10609000FFF7A6FEF3683868984722462146414B31
:1060A000022005F0ABFB22462146494B022005F0B9
:1060B000A5FB3B68009322462146464B464F0220F3
:1060C00005F09CFB7D23009322462146434B022092
:1060D00005F094FB3B78009322462146404B02207A
:1060E00005F08CFB3F4B1B880093224621463E4B1C
:1060F000022005F083FB224621462A4B022005F0B0
:106100007DFB4FF0080B40F6B833CDE90743CDE9EE
:106110000544CDE90345CDE9015B3B780093F36984
:106120000B93DDF82CC02346224628461621E04773
:10613000CDE90845CDE90644CDE90445CDE902A401
:10614000CDE9004BB3690B933A780B9F2B46214660
:106150002846B847736D2846FF2198472146FF22FD
:10616000224806F00BF9D9F8003000932246214668
:106170001F4B284605F042FB2046736B98471D4A8B
:10618000214628460CB0BDE8F04E05F005BD00BF25
:106190000004004868D4000848D7000870130020A5
:1061A0001C0000208CD400089ED40008BFD4000836
:1061B000ED57000874130020901500206D5700085B
:1061C0009D5700082D5700081D570008F556000878
:1061D000E0D40008EED400081900002003D5000820
:1061E00019D50008220000202DD5000890130020AA
:1061F0003FD50008295D000808B5044800224FF487
:10620000005100F057FE002008BD00BF0008004804
:1062100008B50238012898BF0122044888BF00222F
:106220004FF4005100F046FE002008BD0008004871
:1062300002207047012070470120704700280CBFE2
:106240000F2016207047704738B5104C237805464C
:106250000BB9012038BD00F0AFFF22784FF47A73FC
:10626000B3FBF2F3B0FBF3F000F0D6F904460028DC
:10627000EFD10F2DEDD8024629464FF0FF3000F048
:1062800067F9034B20461D60E4E700BF28000020AB
:106290002C00002010B5032000F048F900F08CFF1E
:1062A000064B18600F20FFF7CFFF044618B9FEF722
:1062B000DEFD204610BD0124FBE700BF24000020C6
:1062C000034A044B11681B780B441360704700BFEE
:1062D00008160020280000204FF0E022136923F068
:1062E0000203136170474FF0E022136943F0020389
:1062F00013617047024A536823F0010353607047EB
:10630000002004E0024A536823F002035360704700
:10631000002004E0024A536823F0040353607047EE
:10632000002004E08068C0F380007047F7B50023C8
:1063300001930446002800F0E980856D25B9FDF73A
:10634000EDF9E56584F8545023689A68D00040F16F
:10635000A1809A68D10000F1B480A26D42F01002D1
:10636000A265E26D42F00102E26501251846FFF7E1
:10637000D9FFA26D02F01002024340F0C980A26D65
:10638000206922F4817242F00202A2659A68D20763
:106390005DD4226BA67E94F82CC0003A18BF01226F
:1063A0001703D4E902120A43217E42EA8132617E58
:1063B00042EAC13242EA4632002842EA4C02B4BF05
:1063C00020F000414FF400113A430A4394F82010A2
:1063D000012903D1002E76D142F48032616A21B1C5
:1063E000A66A01F4E07131430A43D968E66C21F4EE
:1063F000FE3121F4FF711143D96094F83C206168AB
:10640000012A01F0404C4CEA060609D1D4E91027D4
:106410003A433243A66C324342EA0C0242F0010690
:106420001F693E4A3A4032431A6121F00042B2F1FC
:10643000804F0CD0B1F1004F09D0394ED6F8082763
:1064400001F4701122F470120A43C6F808275A6941
:10645000666BA16B22F0070232435A615A6922F03F
:10646000700242EA01125A61002835D19A6A62F03C
:106470000F029A625B6903F007039E423CD100233E
:10648000E365A36D23F0030343F00103A3652846EE
:1064900003B0F0BD9A68234922F0104222F017029F
:1064A00042F080529A60204A1268B2FBF1F2013247
:1064B00052000192019A002A3FF44BAF019A013A2F
:1064C000F7E7002552E7A16D41F02001A165E16DDC
:1064D00041F00101E16581E7B0F5001FCAD19A6A78
:1064E000E269013A92006FF00F0102F01C0201FA1A
:1064F00002F2216E0A43BCE7A36D23F0120343F0BE
:106500001003A365E36D43F00103E3650125BEE7D6
:10651000A36D43F01003A365F8E700BF02FCFF1F63
:1065200000200140400D0300240000200749CA68F4
:1065300022F4E0620302120403F4E063120C13433A
:1065400043F0BF6343F40033CB60704700ED00E0DD
:10655000164B30B5DC68C4F30224C4F10703251DD3
:10656000042B28BF0423062D4FF0FF358CBF033CBE
:10657000002405FA03F321EA0303A54022EA0502F9
:10658000A340002843EA0203ACBF00F16040084A80
:106590004FEA0313B8BF00F00F00DBB2AABF00F54B
:1065A0006140135480F8003330BD00BF00ED00E0BF
:1065B00014ED00E0002807DB044A4109012300F044
:1065C0001F00834042F82130704700BF00E100E027
:1065D00000280CDB4309064900F01F00203301228C
:1065E000824041F82320BFF34F8FBFF36F8F704776
:1065F00000E100E0BFF34F8F0549064BCA6802F483
:10660000E0621343CB60BFF34F8F00BFFDE700BFD5
:1066100000ED00E00400FA050138B0F1807F0BD2F4
:106620004FF0E023054A5861F02182F82310002042
:10663000072298611A6170470120704700ED00E061
:10664000002808DB4309044900F01F0001226033E1
:10665000824041F82320704700E100E070B5D0E9A6
:1066600013456560446D14B1D0E916456560D0E905
:10667000105404F01C060124B4406C60046863608C
:106680008368102B0BBFA260A160E160E26070BD67
:106690000268416CD3B210B5083B1424B3FBF4F389
:1066A0000B4CA24288BF0B4A21F0030199BF01F1B4
:1066B000804202F50232521807338264064AC264ED
:1066C00003F01F03012202FA03F3036510BD00BFAC
:1066D000070402401C0802408008024038B5002828
:1066E0005CD002682E4B9A424FF014014AD82D4BD1
:1066F0001344B3FBF1F32C499B00C0E910130223B0
:1067000080F825301368056923F4FF4323F07003F4
:106710001360D0E9024323432B43456911682B439F
:1067200085692B43C5692B43056A2B430B431360D3
:10673000FFF7AEFFB4F5804F04BF0023436043680A
:10674000816C03F07F020A60D0E91314013B032B34
:106750004C601ED8154B1649816513449B000121DE
:10676000013A01FA02F200214365C2651960114B3A
:106770005A6400230122C36380F8243080F8252066
:10678000184638BD0C4B1344B3FBF1F30B499B0087
:10679000B3E70023C0E91533C365EAE70120F0E75A
:1067A00007040240F8FFFDBF000002403F820010D6
:1067B0004009024000090240F8FBFDBF000402400E
:1067C00038B5002841D00268136823F00103136034
:1067D0001F4B9A424FF0140130D81E4B1344B3FBA9
:1067E000F1F31D499B00C0E91013012403F01C03C1
:1067F00004FA03F3002515604B60FFF749FF836C33
:1068000041681D60D0E913325A604A1E032A06D837
:10681000124B0B449B0094401D60114B5C640023A1
:10682000C363C0E91533C0E90B33C0E90D33C36559
:1068300080F8253080F82430184638BD094B1344C1
:10684000B3FBF1F308499B00CDE70120F5E700BF5A
:1068500007040240F8FFFDBF000002403F82001025
:1068600000090240F8FBFDBF0004024070B590F83B
:106870002450012D04463BD090F825600125AE42FE
:1068800080F824504FF000062CD1022580F82550C6
:106890000568C6632E6826F001062E60FFF7DEFE4F
:1068A000036BBBB12B6843F00E032B60A36C1A681B
:1068B000D20342BF1A6842F480721A60636D1BB142
:1068C0001A6842F480721A602B6843F001032B604F
:1068D000002070BD2B6823F004032B602B6843F06D
:1068E0000A03E2E78023C36380F824602846F0E7C8
:1068F0000220EEE7034640B190F82520022A06D098
:106900000422C263002280F824200120704702681C
:10691000806C116821F00E011160016821F4807112
:106920000160116821F001011160D3E9100202F049
:106930001C0101228A404260D3E9132151605A6D43
:1069400032B1116821F480711160D3E916215160D0
:106950000122002083F8252083F82400704708B521
:1069600090F82530022B03D00423C363012008BD17
:1069700003681A6822F00E021A601A6822F00102F7
:106980001A60826C136823F480731360D0E91013CB
:1069900003F01C02012393404B60D0E913325A608C
:1069A000436D33B11A6822F480721A60D0E916324E
:1069B0005A60012380F82530002380F82430836B4F
:1069C00003B198470020D2E770B4426C046C0368AE
:1069D00026681D6802F01C020421914031420FD04C
:1069E00015F0040F0CD01A6892065EBF1A6822F0E8
:1069F00004021A60036B6160002B33D070BC18472F
:106A000002219140314217D015F0020F14D01A68BC
:106A1000940606D41A6822F00A021A60012280F84D
:106A20002520114A93428CBF104B114B5960002313
:106A300080F82430C36ADFE708219140314211D049
:106A400029070FD5196821F00E011960012303FAF7
:106A500002F26260C36380F82530002380F824309E
:106A6000436BC9E770BC70478000024000040240DD
:106A700000000240C06B70470A4A536943F4802308
:106A800030B55361EFF3108472B60023CD58C55072
:106A90000433B3F5807FF9D11369DB03FCD484F3AD
:106AA000108830BD00400058064B5A69002ABFBF0D
:106AB000054A9A6002F188329A60BABF5869C00FDD
:106AC000002070470040005823016745044B5A6975
:106AD00042F000425A615869C043C00F704700BF7E
:106AE00000400058014B5868704700BF0C1600204A
:106AF00070B50546FEF766FA124E04463369D903AF
:106B000013D43369DA0744BF012232614CF2FA32FE
:106B1000134011D10B4E306910F480200BD0FEF7DA
:106B200051FA001BA842F6D304E0FEF74BFA001B13
:106B3000A842E3D3032070BD024A1361024A012038
:106B40005360F8E7004000580C1600202DE9F04192
:106B5000184D98462B78012B06460C46174626D032
:106B600001232B704FF47A7000236B60FFF7C0FF96
:106B7000A0B9012E16D1104A536943F001035361A5
:106B80002760BFF36F8FC4F804804FF47A70FFF76B
:106B9000AFFF094A536923EA0603536100232B70B0
:106BA000BDE8F08139462046FFF766FFEDE7022099
:106BB000F6E700BF0C16002000400058054A536954
:106BC00023F47E7343EAC00040F4803040F00200BA
:106BD00050617047004000582DE9F041234F3B7849
:106BE000012B054688463FD001233B704FF47A7055
:106BF00000237B60FFF77CFF044688B92B68042BD9
:106C000013D11B4A536943F4803343F004035361A7
:106C10004FF47A70FFF76CFF0446154B1A681B6837
:106C200000233B702046BDE8F0814FF0FF33C8F8E9
:106C300000306E68D5E901321344B3420AD93046B8
:106C4000FFF7BCFF4FF47A70FFF752FF50B1C8F85E
:106C500000600446064A536923F47E7323F002035E
:106C60005361DAE70136E5E70224DBE70C16002082
:106C7000004000582DE9F04F524C00234FF00F090F
:106C80000A6832FA03F501D1BDE8F08F012505FA53
:106C900003F818EA020200F08E804E68032706F01F
:106CA00003054FEA430E07FA0EFC6F1E012F6FEA31
:106CB0000C0C32D8876807EA0C0ACF6807FA0EF77F
:106CC00047EA0A078760476827EA0808C6F30017FB
:106CD0009F4047EA08074760C76807EA0C088F68C3
:106CE00007FA0EF747EA0807022DC76017D14FEAE7
:106CF000D30800EB880803F0070AD8F820704FEAA1
:106D00008A0A09FA0AFB27EA0B0B0F6907FA0AF746
:106D100047EA0B07C8F8207001E0032DDCD10768B3
:106D200005FA0EF507EA0C073D4316F4403F0560EF
:106D300041D023F0030707F1804707F5803703F0C0
:106D4000030CBD684FEA8C0C4FF0070E0EFA0CFED8
:106D5000B0F1904F25EA0E0E2FD01B4DA8422ED039
:106D600005F58065A84214BF0725022505FA0CF534
:106D700045EA0E05BD602568D74316F4801F0CBF99
:106D80003D4015432560656816F4001F0CBF3D406B
:106D900015436560D4F8805016F4803F0CBF3D4029
:106DA0001543C4F88050D4F88450B60354BF3D4016
:106DB0001543C4F88450013362E70025D6E7012566
:106DC000D4E700BF0008005800040048374A2DE906
:106DD000F04F00234FF0010A4FF0070B4FF00F095F
:106DE00031FA03F401D1BDE8F08F0AFA03FC1CEA82
:106DF000010654D023F0030404F1804404F58034E8
:106E000003F00307A568BF000BFA07F8B0F1904F35
:106E100008EA050E45D0264DA84244D005F5806508
:106E2000A8420CBF02250725BD40754517D1D2F8F1
:106E3000805025EA0605C2F88050D2F8845025EA31
:106E40000605C2F88450156825EA060515605568E0
:106E500025EA06055560A56825EA0805A5600568C8
:106E600003265C0006FA04F423FA06F6254300EB39
:106E70008606056003F00705376AAD0009FA05F5D7
:106E800027EA05073762856825EA040585604568B5
:106E900025EA0C054560C56825EA0404C460013391
:106EA0009EE70025C0E70125BEE700BF00080058A7
:106EB000000400480AB181617047816270474369EC
:106EC00001EA030221EA030141EA024181617047BC
:106ED000044AD168014208B502D0D060FEF7AAFC8E
:106EE00008BD00BF00080058024A136843F48073CD
:106EF00013607047000400580D4B10B55B690C46D9
:106F000028B99A0507D500F027F820B110BD9B05D8
:106F100001D400F019F8074A1369012C23F0040387
:106F2000136101D130BFF1E740BF20BF20BFEDE7C3
:106F30000004005800ED00E0024B186800F4C06047
:106F4000704700BF00040058024A136843F48043AE
:106F500013607047000400580C4A136823F4804300
:106F600013600B4B1B6832214B430A49B3FBF1F30F
:106F70005169890500D533B9536913F4007F14BFF3
:106F8000032000207047013BF2E700BF00040058D7
:106F90002400002040420F000B4A136823F007032F
:106FA00043F002031360094B1A69012842F00402FE
:106FB0001A6105D130BF1A6922F004021A617047C4
:106FC00040BF20BF20BFF6E70004005800ED00E0FE
:106FD0004FF0B0431868C0F3404070474FF0B043E3
:106FE0001868C0F3400070474FF0B042536823F474
:106FF0007F4343EA0023536070474FF0B043186863
:10700000C0F34060704700007FB54FF0B0432C4A9A
:10701000D3F80831C0F3031003F00F0352F82040F7
:10702000284A52F82330B4FBF3F4FFF785FF264BD0
:10703000054693E80700B5F5007F04AB03E90700B8
:1070400010D0224B9C4218D303F5B70303F67F53AD
:107050009C4229D903F5741303F510639C4225D88B
:1070600002230BE01A4B9C4207D91A4B9C421BD9B6
:1070700003F5370303F5D853F0E7002304AA02EB26
:10708000830353F80C4C144D2B6823F00703234360
:107090002B60FDF797FF06462B6803F007039C4221
:1070A00006D1002004B070BD0123E7E70024EAE721
:1070B000FDF788FF801B0228EED90320F2E700BF0E
:1070C000ECD500084CD60008A8CC0008C0CF6A0058
:1070D000BFEA21013F933402004000584FF0B04313
:1070E00010B59A68D96812F00C0205D00C2A4AD162
:1070F00001F00303012B51D14FF0B0412B480B6835
:1071000013F0080306D00B6813F0080337D1D1F849
:10711000941007E00C68240756BFD1F89430096832
:10712000C3F3032350F82330002A0CBF1846002075
:107130004FF0B0418A6802F00C020C2A1ED1CA68D6
:1071400002F00302022A2ED0032A06D10B68184A45
:1071500013F4801F174B18BF13464FF0B042D0688E
:10716000D168D268C0F306205843C1F3021301333B
:10717000B0FBF3F0530F0133B0FBF3F010BD0B681D
:10718000C3F30313CEE7042A05D0082A06D11B68EF
:1071900013F4801305D006480023C9E700231846DE
:1071A000C6E70448C4E7024BD7E700BFECD50008A8
:1071B0000024F4000048E80108B5FFF78FFF4FF006
:1071C000B043044A9B68C3F3031352F82330B0FB67
:1071D000F3F008BD4CD600082DE9F0410446002824
:1071E00053D04FF0B0439D68DE6803689B0605F0FE
:1071F0000C0506F0030668D5026A1DB10C2D46D1B8
:10720000012E44D1002A40D04FF0B043A16A1A6841
:10721000170756BFD3F894301B681B0903F0F0031F
:1072200099421FD90846FFF7EFFE00282DD14FF0F5
:10723000B042136843F0080313601368A16A23F097
:10724000F0030B431360606AFFF7CEFEFFF7B4FF55
:10725000AB4B1860AB4B1868FEF7F6FF002834D034
:10726000BDE8F0814FF0B042136843F008031360AB
:10727000136823F0F0030B431360606AFFF7B4FE5A
:107280000846FFF7C1FE0028E0D00120E8E74FF0F4
:10729000B043002A54D01A6842F001021A60FDF788
:1072A00091FE0746FFF79AFE002842D04FF0B04209
:1072B000136843F0080313601368A16A23F0F00316
:1072C0000B431360606AFFF78FFE2368D80748D42A
:1072D0002368990700F18C8023681E0740F1FA802B
:1072E000A3694FF0B046002B00F0E180D6F894304F
:1072F000E16903F01002914200F0C48003F0030240
:10730000022AC2D0D80740F1B380D6F8943023F0D7
:107310000103C6F89430FDF755FE0746D6F89430C1
:10732000990740F1A580FDF74DFEC31B112BF5D940
:1073300004E0FDF747FEC01B0228B3D903208FE706
:107340001A6822F001021A60FDF73CFE0746FFF7BB
:1073500045FE0028B9D0FDF735FEC01B0228F6D93E
:10736000ECE7082D03D00C2D05D1032E03D1636863
:10737000002BADD189E74FF0B043A1681A6822F421
:1073800080120A431A606268B2F5803F10D11A6811
:1073900042F480321A60FDF715FE0746FFF718FE2B
:1073A000002895D1FDF70EFEC01B6428F6D9C5E76D
:1073B000B2F5041F04D11A6842F400121A60E6E71D
:1073C000196821F480311960196821F400111960DD
:1073D000002AE0D1FDF7F6FD0746FFF7F9FD00288A
:1073E0003FF476AFFDF7EEFDC01B6428F5D9A5E7A5
:1073F000042D236903D00C2D0ED1022E0CD1002BAD
:107400003FF443AF4FF0B0426169536823F0FE434D
:1074100043EA016353605FE74FF0B046BBB13368A6
:1074200043F480733360FDF7CDFD074633685A059A
:1074300005D4FDF7C7FDC31B022BF7D97EE77368A0
:10744000626923F0FE4343EA0263736044E73368F2
:1074500023F480733360FDF7B5FD074633685B05A1
:107460007FF53AAFFDF7AEFDC31B022BF6D965E7FA
:107470004FF0B042E169D2F8943023F010030B438F
:10748000C2F894304FF0B047D7F8943043F001037E
:10749000C7F89430FDF796FD0646D7F894309A0762
:1074A00018D4FDF78FFD831B112BF6D946E7D6F8CC
:1074B000943023F00103C6F89430FDF783FD0746AE
:1074C000D6F894309B0705D5FDF77CFDC31B112B27
:1074D000F6D933E72368580754D50B4F3B68D905D5
:1074E00014D4FFF701FDFDF76DFD06463B68DA0594
:1074F0000CD4FDF767FD831B022BF7D91EE700BFF5
:10750000240000202C00002000040058E3684FF005
:10751000B046002B58D023F08003052B02BFD6F8CD
:10752000903043F00403C6F890304FF0B046FDF7BA
:1075300049FDD6F8903043F001030746C6F8903075
:1075400041F28838D6F890309B0705D4FDF73AFD14
:10755000C31B4345F6D9F1E6E36823F00403812B0E
:107560001BD1FDF72FFDD6F8903043F08003C6F80D
:10757000903007464FF0B04641F28838D6F8903048
:10758000180504D5E36A002B4AD1002068E6FDF710
:1075900019FDC01B4045F1D9D0E6FDF713FDD6F823
:1075A000903023F08003C6F8903007464FF0B04685
:1075B00041F28838D6F890301905E3D5FDF702FD81
:1075C000C01B4045F6D9B9E6FDF7FCFCD6F8903073
