:020000040800F2
:100000000040002021260008B51F0008B71F000887
:10001000B91F0008BB1F0008BD1F0008000000003A
:10002000000000000000000000000000BF1F0008EA
:10003000C11F000800000000C31F0008C51F000802
:100040007126000871260008C91F000871260008E3
:10005000712600087126000871260008D51F0008C7
:100060007126000871260008712600087126000814
:10007000712600087126000871260008DD1F00089F
:1000800071260008712600087126000871260008F4
:100090000000000071260008712600087126000883
:1000A00071260008712600087126000871260008D4
:1000B00071260008712600087126000871260008C4
:1000C00071260008712600087126000871260008B4
:1000D00071260008E91F0008712600087126000833
:1000E0007126000871260008F51F00087126000817
:1000F00071260008000000000000000071260008C2
:1001000071260008712600080120000871260008E9
:100110007126000871260008712600087126000863
:100120007126000871260008712600087126000853
:08013000712600087126000889
:1001400010B5054C237833B9044B13B10448AFF311
:1001500000800123237010BD7C00002000000000FF
:10016000C8A8000808B5034B1BB103490348AFF307
:10017000008008BD0000000080000020C8A8000822
:10018000034613F8012B002AFBD1181A01387047D7
:1001900001F0FF01102A2BDB10F0070F08D010F838
:1001A000013B013A8B422DD010F0070F42B3F6D13C
:1001B000F0B441EA012141EA014122F007047FF055
:1001C00000070023F0E80256083C85EA010586EAAC
:1001D000010685FA47F5A3FA87F586FA47F6A5FAE8
:1001E00087F68EB9EED1F0BC01F0FF0102F00702F4
:1001F00032B110F8013B013A83EA010313B1F8D19F
:100200000020704701387047002D06BF354603387F
:10021000073815F0010F07D1013015F4807F02BFB8
:10022000013015F4C03F0130F0BC0138704700BF09
:1002300080F0004002E000BF81F0004142001FBF9B
:100240005FEA410392EA030F7FEA226C7FEA236CA4
:100250006AD04FEA1262D2EB1363C1BFD218414099
:1002600048404140B8BF5B42192B88BF704710F02F
:10027000004F40F4000020F07F4018BF404211F0D2
:10028000004F41F4000121F07F4118BF494292EA3A
:10029000030F3FD0A2F1010241FA03FC10EB0C0066
:1002A000C3F1200301FA03F100F0004302D54942F3
:1002B00060EB4000B0F5000F13D3B0F1807F06D3A0
:1002C00040084FEA310102F10102FE2A51D2B1F198
:1002D000004F40EBC25008BF20F0010040EA03008D
:1002E0007047490040EB0000013A28BFB0F5000F0D
:1002F000EDD2B0FA80FCACF1080CB2EB0C0200FAC3
:100300000CF0AABF00EBC25052421843BCBFD04011
:100310001843704792F0000F81F4000106BF80F48B
:1003200000000132013BB5E74FEA41037FEA226C4E
:1003300018BF7FEA236C21D092EA030F04D092F019
:10034000000F08BF0846704790EA010F1CBF00204D
:10035000704712F07F4F04D1400028BF40F00040AA
:10036000704712F100723CBF00F50000704700F0CA
:10037000004343F0FE4040F4000070477FEA2262F1
:1003800016BF08467FEA23630146420206BF5FEAC2
:10039000412390EA010F40F4800070474FF00003C2
:1003A00004E000BF10F0004348BF40425FEA000C89
:1003B00008BF704743F0964301464FF000001CE031
:1003C00050EA010208BF70474FF000030AE000BF87
:1003D00050EA010208BF704711F0004302D54042C5
:1003E00061EB41015FEA010C02BF84460146002037
:1003F00043F0B64308BFA3F18053A3F50003BCFA52
:100400008CF2083AA3EBC25310DB01FA02FC6344FE
:1004100000FA02FCC2F12002BCF1004F20FA02F205
:1004200043EB020008BF20F00100704702F12002F8
:1004300001FA02FCC2F1200250EA4C0021FA02F259
:1004400043EB020008BF20EADC7070474FF0FF0C5E
:100450001CEAD0521EBF1CEAD15392EA0C0F93EA59
:100460000C0F6FD01A4480EA010C400218BF5FEAFB
:1004700041211ED04FF0006343EA501043EA51116E
:10048000A0FB01310CF00040B1F5000F3EBF490068
:1004900041EAD3715B0040EA010062F17F02FD2A6C
:1004A0001DD8B3F1004F40EBC25008BF20F001004F
:1004B000704790F0000F0CF0004C08BF49024CEA66
:1004C000502040EA51207F3AC2BFD2F1FF0340EAF8
:1004D000C250704740F400004FF00003013A5DDC69
:1004E00012F1190FDCBF00F000407047C2F10002AA
:1004F000410021FA02F1C2F1200200FA02FC5FEA97
:10050000310040F1000053EA4C0308BF20EADC70E0
:10051000704792F0000F00F0004C02BF400010F452
:10052000000F013AF9D040EA0C0093F0000F01F0FF
:10053000004C02BF490011F4000F013BF9D041EA21
:100540000C018FE70CEAD15392EA0C0F18BF93EA23
:100550000C0F0AD030F0004C18BF31F0004CD8D14D
:1005600080EA010000F00040704790F0000F17BFD4
:1005700090F0004F084691F0000F91F0004F14D01A
:1005800092EA0C0F01D142020FD193EA0C0F03D172
:100590004B0218BF084608D180EA010000F0004075
:1005A00040F0FE4040F40000704740F0FE4040F450
:1005B000400070474FF0FF0C1CEAD0521EBF1CEAEF
:1005C000D15392EA0C0F93EA0C0F69D0A2EB03020D
:1005D00080EA010C49024FEA402037D04FF08053A7
:1005E00043EA111143EA10130CF000408B4238BF6C
:1005F0005B0042F17D024FF4000C8B4224BF5B1A7A
:1006000040EA0C00B3EB510F24BFA3EB510340EAC7
:100610005C00B3EB910F24BFA3EB910340EA9C0075
:10062000B3EBD10F24BFA3EBD10340EADC001B01E5
:1006300018BF5FEA1C1CE0D1FD2A3FF650AF8B4289
:1006400040EBC25008BF20F0010070470CF0004C96
:100650004CEA50207F32C2BFD2F1FF0340EAC250C1
:10066000704740F400004FF00003013A37E792F082
:10067000000F00F0004C02BF400010F4000F013AE0
:10068000F9D040EA0C0093F0000F01F0004C02BFDB
:10069000490011F4000F013BF9D041EA0C0195E744
:1006A0000CEAD15392EA0C0F08D142027FF47DAFDD
:1006B00093EA0C0F7FF470AF084676E793EA0C0FCD
:1006C00004D14B023FF44CAF08466EE730F0004CCB
:1006D00018BF31F0004CCAD130F000427FF45CAF5B
:1006E00031F000437FF43CAF5FE700BF4FF0FF3CC9
:1006F00006E000BF4FF0010C02E000BF4FF0010C1C
:100700004DF804CD4FEA40024FEA41037FEA226CE4
:1007100018BF7FEA236C11D001B052EA530C18BF06
:1007200090EA010F58BFB2EB030088BFC81738BF6B
:100730006FEAE17018BF40F0010070477FEA226C59
:1007400002D15FEA402C05D17FEA236CE4D15FEA55
:10075000412CE1D05DF8040B704700BF8446084689
:100760006146FFE70FB5FFF7C9FF002848BF10F14A
:10077000000F0FBD4DF808EDFFF7F4FF0CBF01208F
:1007800000205DF808FB00BF4DF808EDFFF7EAFF19
:1007900034BF012000205DF808FB00BF4DF808EDD4
:1007A000FFF7E0FF94BF012000205DF808FB00BFC9
:1007B0004DF808EDFFF7D2FF94BF012000205DF84F
:1007C00008FB00BF4DF808EDFFF7C8FF34BF01205C
:1007D00000205DF808FB00BF4FEA4002B2F1FE4F77
:1007E0000FD34FF09E03B3EB12620DD94FEA0023F3
:1007F00043F0004310F0004F23FA02F018BF4042CC
:1008000070474FF00000704712F1610F01D14202B2
:1008100005D110F0004008BF6FF0004070474FF066
:100820000000704742000ED2B2F1FE4F0BD34FF0E2
:100830009E03B3EB126209D44FEA002343F0004356
:1008400023FA02F070474FF00000704712F1610F79
:1008500001D1420202D14FF0FF3070474FF000004B
:10086000704700BF53B94AB9002908BF00281CBF10
:100870004FF0FF314FF0FF3000F06AB9ADF1080CD6
:100880006DE904CE00F006F8DDF804E0DDE90223AE
:1008900004B070472DE9F047089D0C46002B4ED15F
:1008A00094468C458646B2FA82F262D94AB1C2F1C8
:1008B0002003914020FA03F30CFA02FC194300FADA
:1008C00002FE4FEA1C471FFA8CF6B1FBF7F44FEA21
:1008D0001E4307FB141143EA014304FB06F199424E
:1008E0000AD91CEB030304F1FF3080F01281994216
:1008F00040F20F81023C6344591A1FFA8EF3B1FB98
:10090000F7F007FB101143EA014300FB06F69E4295
:100910000AD91CEB030300F1FF3180F0FC809E42FA
:1009200040F2F980634402389B1B40EA04400021F6
:100930001DB1D3400022C5E90032BDE8F0878B42EB
:1009400005D90DB1C5E9000100210846F5E7B3FA64
:1009500083F1002946D1A34202D39042C0F0F08037
:10096000861A64EB03030120002DE6D0C5E900637D
:10097000E3E7002A40F09080A1EB0C044FEA1C480A
:100980001FFA8CF70121B4FBF8F64FEA1E4308FB6F
:10099000164443EA044307FB06F0984208D91CEBCF
:1009A000030306F1FF3402D2984200F2CD802646BE
:1009B0001C1A1FFA8EF3B4FBF8F008FB104443EA4C
:1009C000044300FB07F79F4208D91CEB030300F127
:1009D000FF3402D29F4200F2B0802046DB1B40EA87
:1009E0000640A5E7C1F120068B4022FA06F71F4317
:1009F00020FA06FC04FA01F343EA0C03F44000FA7F
:100A000001F8380C4FEA1349B4FBF0FE1FFA87FCDB
:100A100000FB1E4449EA04440EFB0CF9A14502FA0E
:100A200001F20AD93C190EF1FF3A80F08480A14509
:100A300040F28180AEF1020E3C44A4EB09041FFA9F
:100A400083F9B4FBF0F300FB134449EA044403FBCD
:100A50000CFCA44507D93C1903F1FF3067D2A4452B
:100A600065D9023B3C4443EA0E40A0FB0293A4EB51
:100A70000C049C42CE469C4651D34ED055B1B8EBA7
:100A80000E0364EB0C0404FA06F6CB401E43CC4084
:100A9000C5E90064002150E7C2F1200320FA03F108
:100AA0000CFA02FC24FA03F394400C434FEA1C486E
:100AB00000FA02FE1FFA8CF7B3FBF8F008FB1031C6
:100AC000230C43EA014300FB07F1994208D91CEBD0
:100AD000030300F1FF362CD299422AD9023863442D
:100AE0005B1AA4B2B3FBF8F108FB113344EA0344E8
:100AF00001FB07F3A34208D91CEB040401F1FF3604
:100B000013D2A34211D902396444E41A41EA0041E4
:100B100039E70446F0E6084606E7C845AED2B9EB29
:100B2000020E63EB070C0138A8E73146EDE70346F8
:100B300099E73046D4E7D6467FE7634402384DE76D
:100B40000646234608460FE7023E634430E700BFEF
:100B5000704700BFF7B5154606460F4603F0D2FBB7
:100B6000154B16484FF400421A6106F17842D30A39
:100B7000022102EBC502C0E90013C3EBD223DB0A5A
:100B8000013301A9836003F055FC044680B9083F96
:100B9000AC4206EBC40103DB03F0C6FB002009E016
:100BA000F7E90223012003F0FFFB08B90134EFE766
:100BB00003F0C6FB03B0F0BD00400058A4000020C5
:100BC000520092B200EB8202091A904200D17047A3
:100BD00003680B500430F8E710B5ADF5FA6D044624
:100BE000FA2204486946FFF7EBFF1DF904000DF5F2
:100BF000FA6D10BD00F8010810B5ADF5FA6D0446A8
:100C0000FA2204486946FFF7DBFF5DF804000DF5A2
:100C1000FA6D10BD00F8010870B50A4EADF5FA6D19
:100C200004460D4630466946FA22FFF7C9FFFA220C
:100C3000694630460DF80450FFF78CFF0DF5FA6D4C
:100C400070BD00BF00F8010870B50A4EADF5FA6D31
:100C500004460D4630466946FA22FFF7B1FFFA22F4
:100C6000694630464DF80450FFF774FF0DF5FA6DF4
:100C700070BD00BF00F8010813B5044603F042FB45
:100C80000A4B0B484FF400421A6104F178440223E6
:100C90000360E40A012301A94460836003F0CAFBF6
:100CA00008B103F04DFB02B010BD00BF004000587A
:100CB000980000201148124A08B50023C0E900231B
:100CC000042242610122C0E90233C0E90933C0E9CC
:100CD0000C33036103838376C26180F8203080F88F
:100CE0002C30836380F83C30C36402F023FD18B1DC
:100CF000BDE8084001F034B808BD00BFB0000020D6
:100D00000024014010B596B004461422002103A827
:100D100009F048F93822002108A809F043F92268AF
:100D2000184B9A422BD14FF48043089308A84FF0F8
:100D30008053139304F0B8FD08B101F011F84FF09F
:100D4000B04303A91A6E42F400721A661A6E02F4D6
:100D500000720292029ADA6C42F00102DA64DB6CF1
:100D600003F001030193019B4FF480620323CDE95B
:100D700003234FF090400023059303F0A9FB16B026
:100D800010BD00BF002401402DE9F04F9A468BB002
:100D90000023012813600E460192AAF8003040F0AB
:100DA000A480994214BF6FF09E036FF00503009377
:100DB000DFF8A49146F2BF034CF2F0774FF0200B1E
:100DC00008BF1F460024CDE908444FF0B045042277
:100DD000EB6C624843F00103EB64EB6C03F001033E
:100DE0000393039BEB6C43F00203EB64EB6C0794FF
:100DF00003F002030293029B05A90323CDE9052317
:100E00004FF0010803F064FB602305A94FF0904008
:100E1000CDE90538CDE9074403F05AFB22462021ED
:100E20004FF0904003F074FC224640214FF0904078
:100E300003F06EFC42464FF400414FF0904003F047
:100E400067FC0A2001F068F94FF09040324659469D
:100E500003F05EFCA64214BF32200A2001F05CF9C8
:100E6000CDE9054407942B6EDFF8F48043F400735A
:100E70002B662B6E03F400730493049B2B6C43F4DA
:100E800000732B642B6C23F400732B64C8F8584058
:100E9000FFF710FF05A94046CDE90594079402F03D
:100EA000A7FD054698B300252C46002259464FF071
:100EB000904003F02DFCA5B142F2107207FB04F341
:100EC000B3FBF2F3009AAAF80040134423EAE37359
:100ED000002E3DD046F2A8129342A8BF1346019AB5
:100EE000136028460BB0BDE8F08F002914BF6FF0E7
:100EF000A4036FF00603009346F2B3034CF6080711
:100F0000DFF8609008BF1F464FF0400B5AE74FF0E4
:100F100008090446404602F0CBFE90B964214046E1
:100F200002F008FD28B9404602F05EFD0135044498
:100F3000EDB2404609F1FF3902F01CFF19F0FF093C
:100F4000E8D1002DAFD0B4FBF5F40125A4B2ACE795
:100F500042F6F822C0E700BF10000010000400486D
:100F6000B000002040000018F8B50546174609F00B
:100F70002EF8044660B1461B2846FFF701F9C6F17A
:100F80000102013602442146A81908F0F1FF27703A
:100F9000F8BDF8B5164607460C461D46FFF7F0F8B3
:100FA000B04211D3731983420EDCB81900239D425D
:100FB00005DC25EAE575002363552046F8BD10F8E9
:100FC000012BE2540133F2E70024F6E770B50E4638
:100FD00014460025A54205DB0CD10378002B08BF81
:100FE000002070BD314608F0E5FF0028F9D001303F
:100FF0000135EFE70020F4E7994803682DE9F04355
:101000000822022504274FF001091A621D621F629F
:10101000C3F820909A69934C42F008029A618DB00F
:1010200014233C22214606F08BF82378002B00F095
:1010300029848D4941222046FFF796FF204601F082
:1010400095FF8A49204608F0C2FFD8B13846FFF71D
:10105000D3FD00221146864B0646284608F05AFA70
:101060000A2001F059F80022824B009611462846CA
:1010700008F050FA3C22002120460DB0BDE8F043B4
:1010800008F090BF7C49204608F0A1FF10B101F0A4
:1010900059FFEFE77949204608F099FF10B101F0B8
:1010A00099FFE7E77649204608F091FFA8B13D2176
:1010B000204608F07FFF70B1013008F09DFE012846
:1010C00004D101F0CDFF6F4B00221BE318B901F0F2
:1010D000F1FF6D4BF8E76D4BF6E76D49204608F0E0
:1010E00076FF0646E8B13D21204608F063FF10B1C7
:1010F000013008F081FEA0F164024EF6FC139A4222
:10110000044601D9634BDFE70022634B11460220FE
:1011100008F000FA204601F0D7FF52483C22002197
:10112000ABE75E49204608F052FFB0B1314650208F
:10113000FFF78AFD5A48FFF79FFD314604465020CD
:10114000FFF782FD34B9574B22461146484608F056
:10115000E1F9E2E7544B3246F7E75449204608F0FC
:1011600036FF064640B32046FFF70AF83D21064603
:10117000204608F01FFF021BB31A013B013209A9E8
:101180002046FFF706FF09A808F036FE484B421F2D
:101190009A4204460ED801463846FFF755FD3846B8
:1011A000FFF72AFD434B84421860B6D1314B0090C3
:1011B00000223BE0404B87E74049204608F007FF0C
:1011C00038B13846FFF718FD2A4B009032463146B9
:1011D0004DE73B49204608F0FAFE40B10022394B6A
:1011E0001146022008F096F901F09AFF95E736497A
:1011F0001C4808F0ECFE30B16420FFF7EDFC013034
:10120000324B0090D4E73249164808F0E0FE00283F
:101210006CD00820FFF7E0FC04281ED8DFE800F0BF
:1012200003090D15190000222A4B009211460220D5
:1012300008E001230093284BBAE702200022274B45
:101240000090114608F066F967E703230093244BEA
:10125000AEE704230093234BAAE7234B34E700BFF8
:101260006C0200201401002016AC000828A9000818
:1012700033A9000861A900086CA9000877A9000833
:101280007DA9000888A900089AA90008A6A9000855
:10129000B4A90008BBA90008C5A90008D3A9000883
:1012A00000F80108DCA90008E6A90008F3A9000875
:1012B0007B51010004000020FEA900080CAA0008D0
:1012C00016AA00081CAA000828AA00082EAA0008CE
:1012D00035AA00083DAA000849AA000855AA000836
:1012E00061AA00086DAA000879AA0008AE49AF48B3
:1012F00008F06DFE064640B3AC48FEF741FF3D21C5
:101300000546AA4808F056FE021BAB1A013BA74847
:10131000013209A9FFF73DFE9DF82440A4F14103E5
:10132000022B10D821460C20FFF776FC0C20FFF78B
:1013300053FC412CC0B202D19D4B009038E7432CA6
:101340007FF4EBAEF8E79A4BBEE69A49974808F06F
:101350003EFE054640B10C20FFF73EFC944BC0B268
:1013600000903246314662E79349904808F02FFEDC
:101370000746002848D08D48FEF702FF3D2106466B
:101380008A4808F017FE021BB31A013B013209A973
:101390008648FFF7FEFD2A462C2109A8FFF716FE16
:1013A00008F02AFD01222C21074609A8FFF70EFEAE
:1013B00008F022FD022206462C2109A8FFF706FEAE
:1013C00008F01AFDF9B204461420FFF725FCF1B22B
:1013D0001820FFF721FCE1B21C20FFF71DFC1420B0
:1013E000FFF7FAFB04461820FFF7F6FB06461C2021
:1013F000FFF7F2FBCDE90160704B00942A462946C5
:10140000022008F087F888E66D49684808F0DFFD9B
:10141000064688B11420FFF7DFFB04461820FFF7CB
:10142000DBFB05461C20FFF7D7FB644B0094CDE99E
:1014300001503A463946E3E762495C4808F0C7FD87
:10144000054628B11820FFF7C7FB5F4B009088E7DF
:101450005E49564808F0BBFD064698B35348FEF770
:101460008FFE3D210646514808F0A4FD021BB31A29
:10147000013B013209A94D48FFF78BFD2A462C217B
:1014800009A8FFF7A3FD08F0B7FC441E772C03D989
:101490004F4B2A46294648E14E4BC1B26020197095
:1014A000FFF7BAFB0F236420B4FBF3F1C9B2FFF7D7
:1014B000B3FB6020FFF790FBC0B2474B00902A4679
:1014C0002946B4E64549394808F081FD30B160202D
:1014D000FFF782FBC0B2404B009042E740493348DF
:1014E00008F075FDB8B33148FEF74AFE3D210546C8
:1014F0002E4808F05FFD021BAB1A013B013209A91F
:101500002A48FFF746FD00222C2109A8FFF75EFDBF
:1015100008F072FC01222C21054609A8FFF756FDB0
:1015200008F06AFCE9B204462420FFF78DFB21464F
:101530002820FFF789FB2420FFF75EFB04462820C4
:10154000FFF75AFBCDE90040264B0022114602204E
:1015500007F0E0FFE1E52449144808F038FD0028D1
:101560007AD012483D2108F025FD60B14378522B16
:1015700023F020043ED0722B3CD0472B3AD0672B6F
:1015800038D04F2C52D0194B9EE510214FF090408F
:1015900003F0BEF800224FF480714FF0904003F04A
:1015A000B7F8134B90E500BF85AA0008140100208E
:1015B0008FAA000899AA0008A2AA0008AEAA0008EB
:1015C000C0AA0008CBAA0008D1AA0008D8AA00081F
:1015D000E2AA000810000020EFAA0008F9AA0008FB
:1015E00002AB00080DAB00081BAB00083AAB0008CB
:1015F00023AB000801224FF400414FF0904003F06C
:1016000087F8142000F088FD522C4FF00102BCD165
:101610004FF480714FF0904003F07AF800221021CF
:101620004FF0904003F074F8A04B4DE500224FF4CA
:1016300080714FF0904003F06BF8002210214FF0C2
:10164000904003F065F800224FF400414FF09040C5
:1016500003F05EF8964B37E59649974808F0B7FCDB
:101660000546002850D094483D2108F0A3FC0028EE
:1016700039D0437803F0DF030022492B0992ADF8FB
:101680001E2032D0562B3CD1144607AB08AA214667
:101690000120FFF779FB09AA064621460DF11E033A
:1016A0000220FFF771FB002205464FF400414FF086
:1016B000904003F02DF8D6B10DB3BDF81E20049272
:1016C000BDF81C200392099A0292002C089A0CBFC4
:1016D00056234923CDE900320022784B11460220DF
:1016E00007F018FF19E53F23C4E70124CDE7744B49
:1016F000744A002D08BF13460093734B58E5734B93
:10170000FAE7734B114610E072496B4808F05FFC32
:10171000064608B1704BBCE67049674808F057FCB4
:10172000054620B16E4B3246314602200FE56D4929
:10173000614808F04CFC064608B16B4BA9E66B49C2
:101740005D4808F044FC054680B3694B694809933D
:1017500009A9CDE90A6602F04BF9002840F0A18002
:10176000644802F0A5FA0446002840F09C806148D5
:10177000642102F0DFF898B95E4802F035F90124DF
:1017800085B25C4802F0F6FA64B140F6E4436B437C
:1017900040F6FF72B3FBF2F3CDE90053564BD4E6AB
:1017A0002546EEE7554B0093554B01E55549424818
:1017B00008F00DFC814660B12420FFF71DFA0446B5
:1017C0002820FFF719FA504BCDE900402A46294658
:1017D000BDE64E49384808F0FAFB0546002854D0CB
:1017E0000C20FFF7F9F904460820FFF7F5F9054644
:1017F0001420FFF7F1F906461820FFF7EDF9074628
:101800001C20FFF7E9F9E4B2414B00944A464946EF
:101810008046022007F07EFEE8B2042896BF3D4BCA
:10182000DFF8F49053F820906420FFF7D5F90546CF
:101830006020FFF7D1F900221146384BCDF8009017
:101840000446022007F066FE013500221146344BA3
:101850000095022007F05EFEE4B20022314B0094B6
:101860001146022007F056FE3C220021124808F0E3
:1018700099FB0022CDE901782B4B009611460220FE
:1018800007F048FE0DB0BDE8F08328490A4808F08B
:101890009EFB08B1264BFCE52378002BF2D0254BAC
:1018A00012E4254B7FE7254B7DE700BF2AAB0008FC
:1018B00031AB000849AB00081401002054AB00080C
:1018C00011A900080DA900086BAB00080FA90008BA
:1018D0007EAB000891AB00089FAB0008AEAB0008E0
:1018E000BAAB0008C7AB0008D0AB0008DBAB000800
:1018F00040000018B0000020E2AB000813A9000867
:10190000EDAB0008FBAB00080DAB000805AC000810
:101910008FAA000838AC000818A900080CAC000811
:101920002EAA0008EFAA0008AEAA000815AC00080D
:10193000E2A90008E8AA000824A900081EA90008D6
:1019400010B5064C70202168FFF77EF9044B226821
:101950001A6000F0D9FB034B186010BD580100203D
:10196000540100205001002008B50C4B19680C4BA5
:101970001868FEF761FC0B4920F00040FEF718FFE5
:1019800018B1BDE80840FFF7DBBF00F0BDFB064B18
:101990001B68C01A054B9842F3D808BD54010020BB
:1019A000580100200000404050010020FFFFA2022B
:1019B000064B0748196810B5FEF73EFC00210446A7
:1019C000FEF7E2FE00B10024204610BD58010020C1
:1019D0000070944610B5FFF7EBFF0E49FEF7EAFDE5
:1019E0000D49FEF733FD00210446FEF7CDFE68B930
:1019F00009492046FEF7E6FE50B94FF07C512046DB
:101A0000FEF71CFCFEF70EFFC0B210BD0024F4E789
:101A1000014CF2E7007094460000C84238B500213E
:101A20000446FEF7B1FE00B10024084D08492046E7
:101A3000FEF7C0FD0749FEF709FD2968FEF7FEFB2A
:101A40002860BDE83840FFF78FBF00BF5801002075
:101A5000000061450000A0404FF0B04307B59A6C0C
:101A600042F004029A649A6C02F004020192019A14
:101A70009A6C42F001029A649B6C03F0010300939C
:101A8000002202210F20009B02F0A4F90F2003B0D6
:101A90005DF804EB02F0D0B9014B186000207047EC
:101AA0005C0100204FF0B04382B0DA6C0243DA648C
:101AB000DB6C03400193019B02B070472DE9F041BC
:101AC00086B01422002101A808F06CFA0220FFF76A
:101AD000E9FF0120FFF7E6FFDFF8A8802A4F042086
:101AE000FFF7E0FF48F2101100224FF0904002F0A3
:101AF0000FFE404600224FF4805102F009FE002202
:101B000038464FF4005102F003FE002402264FF441
:101B1000881301A94FF090400125CDE9016303949A
:101B200002F0D6FC48F2101301A94FF09040CDE925
:101B30000135CDE9034402F0CBFC4FF48053CDE9ED
:101B4000013501A9032340460493039402F0C0FC2D
:101B500001A94FF400533846CDE90135CDE90344DE
:101B600002F0B6FC094B0720DE6002F099F922462C
:101B70002146072002F02EF9072002F05DF906B099
:101B8000BDE8F08100040048000800480008005843
:101B900008B51248124A134BC0E900230023012262
:101BA000C0E90232C0E90433C0E90633036202F03F
:101BB00047FF08B100F0D4F80848002103F0F2F81C
:101BC00008B100F0CDF80548002103F011F918B173
:101BD000BDE8084000F0C4B808BD00BF60010020A7
:101BE00000540040885D801010B596B00446142261
:101BF000002103A808F0D6F93822002108A808F02F
:101C0000D1F92268184B9A422BD14023089308A897
:101C10004FF440330D9303F047FE08B100F0A0F8F5
:101C20004FF0B044C022E36C104843F00203E36479
:101C3000E36C03F002030293029B1223CDE903231A
:101C40000023CDE9053303A90423079302F040FCE8
:101C5000A36D43F40013A365A36D03F40013019374
:101C6000019B16B010BD00BF0054004000040048A6
:101C700008B50268094B9A420FD14FF0B0420848AC
:101C8000936D23F400139365402102F0CDFCBDE871
:101C900008400348802102F0C7BC08BD0054004042
:101CA0000004004800B59BB04822002108A808F0B5
:101CB00079F91822002102A808F074F903F0BEF89F
:101CC0004FF0B0428121D2F8903023F01803C2F8CF
:101CD0009030D2F8003423F4C06343F40073C2F8A8
:101CE0000034D2F8003403F4C0630193019B26232F
:101CF00008934FF48073CDE90B1301231093402315
:101D00000D93B022002308A8CDE91132139303F0FC
:101D10000DFA08B172B6FEE74F23CDE90230CDE9E6
:101D20000400CDE90600022102A803F099FC08B1E5
:101D300072B6FEE71BB05DF804FB08B501F0AEFC1F
:101D4000FFF7B0FFFFF7BAFE00F093FCFEF7B2FF1B
:101D5000FFF71EFF0020FFF79FFE00F091FCFCE75D
:101D600072B6FEE770B5FF23074D084E01441C46CE
:101D7000814202D143EA042070BD10F8012B5A4081
:101D8000AB5C6340B45CF3E74CAD00084CAC0008BE
:101D900000B58DB02C22002101A808F003F91748E6
:101DA000174B03601F2383604FF080420023C0E97C
:101DB0000433C0E9072383614FF48073436203F067
:101DC000F5FE08B1FFF7CCFF0C4804F01BF808B192
:101DD000FFF7C6FF4FF00053002207930748089211
:101DE0004FF4807301A9029206920B9303F03EFF19
:101DF00008B1FFF7B5FF0DB05DF804FBB40100209A
:101E00000028004010B5044690B03822002102A8F6
:101E100008F0C8F82268194B9A422CD14FF480334D
:101E2000029302A84FF480730F9303F03DFD08B1B5
:101E3000FFF796FF4FF0B0430220D3F8902042F412
:101E40000042C3F890209A6D42F480629A659B6DBF
:101E5000002203F4806311460193019B01F0BAFF55
:101E6000022001F0E9FF00222A20114601F0B2FF12
:101E70002A2001F0E1FF10B010BD00BF0028004093
:101E8000014B002019707047EC010020F0B587B0BD
:101E9000164F8DF80F101C460A230093154639780B
:101EA00001230DF10F02064602F038FED0B99DF86D
:101EB0000F30E02B18D0F62B14BF0A20052000F0BD
:101EC0002BF90A2300933978062304AA304602F03E
:101ED000D1FE38B9BDF810305BBA2B80BDF8133095
:101EE0005BBA238007B0F0BD0220E8E7EC010020D8
:101EF00008B5FEF757FA0549FEF7A8FA0449FEF7B8
:101F000059FB0449FEF798F908BD00BF00002F43B4
:101F100000FF7F470000344208B5FEF743FA054949
:101F2000FEF794FA0449FEF745FB0449FEF784F9ED
:101F300008BD00BF0000FA4200FF7F470000C0401C
:101F400073B516461D4601AA0DF10603FFF79EFF65
:101F5000044648B9BDF80400FFF7CAFF3060BDF879
:101F60000600FFF7D9FF2860204602B070BD704719
:101F700008B501F0B5FB044B0120C3F88800BDE8AB
:101F8000084002F0B3BF00BF0004005801F0AFBB2F
:101F900008B501F0ACFBBDE8084000F001BB08B596
:101FA00001F09EFBBDE808400121002002F04EBF79
:101FB00070477047FEE7FEE7FEE7FEE7FEE7704783
:101FC0007047704701F080BB014803F041BF00BF7C
:101FD000B4010020022002F0A1BB0000014802F081
:101FE00023B900BF0C020020014804F0F5BA00BF7D
:101FF0006C020020014803F05FBD00BFB401002067
:10200000014804F04EB900BFF0010020054808B5B2
:102010000823036003F062FF18B1BDE80840FFF732
:102020009FBE08BDF00100204FF0B04307B55A6EC7
:1020300042F001025A665B6E002203F00103019335
:1020400011463220019B01F0C5FE322003B05DF83D
:1020500004EB01F0F1BE00000CB407B5054A05AB76
:102060001021019307F0A6FD03B05DF804EB02B068
:10207000704700BF64AE000830B585B0044602A8C2
:102080000D4607F025FCBDF90C30064A00931021DF
:10209000029B2046FFF7E0FF2046FEF771F82880FC
:1020A00005B030BD64AE00084FF0B04210B5936883
:1020B00023F40043936007F031FC0C4B01241C70A7
:1020C00000F030F807F0BCF9094807F0D3F9022016
:1020D00007F0D6F907F0CEFA2146204607F0EAFAD3
:1020E00021462046BDE8104007F0CEBAFC01002092
:1020F0007920000807F0F4BA0121022007F0C4BAE1
:102100000021022007F0C0BA024B187808B100F095
:1021100071B87047FC01002082B00190019802B0B4
:1021200000F004B9074A08B5D2F8903043F4804370
:10213000C2F8903001F0E2FA01F0E8FABDE8084098
:1021400001F0ECBA000800580B4A116810B50346BC
:1021500009B90A491160106809490A4C0344091B6E
:102160008B4206D907F04AFF0C2303604FF0FF3083
:1021700010BD1360FCE700BF00020020700C0020BF
:102180000040002000080000014B1868704700BFA5
:10219000040200200320704708B501464FF47A720C
:1021A00000238002890DFEF75DFB08BD4FF47A73B2
:1021B000A0FB0303800A40EA83507047034B9868F2
:1021C0009A689042FBD1C043704700BF002800408E
:1021D00008B5FFF7F3FF014B186008BD04020020AB
:1021E00008B5FFF7EBFF024B1B68C01A08BD00BF24
:1021F00004020020024B187808B1FFF7DFBF7047D8
:102200000802002010B5074B074C0122DA654FF495
:102210008071204603F016FC4FF0FF33236300204B
:1022200010BD00BF00280040B4010020024600217C
:10223000014803F01EBE00BFB40100200246012188
:10224000014803F016BE00BFB401002010B58CB0E9
:102250002C220021044601A807F0A4FEFFF7D2FFBC
:102260000C4B0D481B681C440023089306934FF049
:102270000053E443079301224FF4807301A90294B1
:102280000B9303F0F3FC08B1FFF76AFD00200CB0DC
:1022900010BD00BF04020020B401002038B505467F
:1022A000FFF78CFF02210446074803F0E9FDC4F361
:1022B00009024FF47A71A2FB0121920AA30A2A8033
:1022C00043EA805038BD00BFB4010020014800211E
:1022D00003F0D6BDB40100200148012103F0D0BDB8
:1022E000B4010020F8B50F4D2E78CEB90E4C4FF04A
:1022F000FF372763FFF74CFDFFF784FF4FF4807132
:10230000204603F09FFB2046276303F05DFD324625
:102310002046022103F0ADFDFFF75AFF01232B7089
:102320000020F8BD08020020B4010020014610B5CD
:102330004FF47A7200238002890DFEF793FA01466A
:10234000FFF73CFF0446FFF739FF031B8B4200D326
:1023500010BD00BFF7E707F0E9BB000010B5064C61
:102360000221204603F08CFD0221421C2046BDE8DC
:10237000104003F07EBD00BFB40100201648174A8C
:1023800008B54FF46133C0E9002300230C22C0E9F3
:102390000233C0E90523C0E90733C0E9093303610B
:1023A00004F06CFF08B1FFF7DBFC0B48002105F0DF
:1023B000DCF808B1FFF7D4FC0748002105F0F5F878
:1023C00008B1FFF7CDFC044805F0AFF818B1BDE83F
:1023D0000840FFF7C5BC08BD6C0200200044004067
:1023E00070B596B006461422002103A807F0DAFD66
:1023F0003822002108A807F0D5FD3268284B9A4200
:102400004BD10223089308A84FF440230A9303F00A
:102410004BFA08B1FFF7A4FC4FF0B04300259A6DCA
:10242000204C42F400329A659A6D02F40032029216
:10243000029ADA6C42F00102DA64DB6C03F0010309
:102440000193019B0C220223CDE903230323CDE951
:10245000055303A907234FF09040079302F038F883
:10246000114925621423C4E900131023C4E902357D
:1024700020468023C4E90435C4E9065501F05EFD19
:1024800008B1FFF76DFC2520F46700220221A66247
:1024900001F0A0FC252001F0CFFC16B070BD00BFFC
:1024A000004400400C0200205800024002680C4B1F
:1024B0009A4210B5044612D14FF0B0420C21936DF0
:1024C00023F4003393654FF0904002F0ADF8E06FD5
:1024D00001F0A6FDBDE81040252001F0BBBC10BDF9
:1024E0000044004008B50A460146024803F0D8FF00
:1024F000002008BD6C02002013B5114B114C186070
:102500004FF40013009302AB13E90600204604F0D9
:10251000B0FF2368DA69D103FCD4DA695202FCD532
:102520009A68084842F480029A6004F0E8FF06497D
:102530000448012204F056FF002002B010BD00BF85
:10254000000300206C0200200803002008B5074BA0
:102550001860FFF781FAFFF711FF054AD2F88030C3
:1025600043F00063C2F88030002008BD040300205F
:102570000008005808B54FF0B04308489A6B42F481
:1025800000329A639A6B22F400329A63FFF78EFF4F
:102590000F2001F05FFC002008BD00BF6C0200208E
:1025A00008B5074804F06AFE08B1FFF7D9FB0548F3
:1025B00001F0C4FC18B1BDE80840FFF7D1BB08BD6D
:1025C0006C0200200C0200200268044B9A4203D1E6
:1025D000034B00201B681847704700BF00440040B1
:1025E0000403002002680B4B9A4210B504460FD139
:1025F000094B1B682BB1D0F8902012B90748012174
:10260000984720460549BDE81040012204F0EABE83
:1026100010BD00BF0044004000030020080300205C
:102620000D48854601F013F80C480D490D4A00236A
:1026300002E0D458C4500433C4188C42F9D30A4A77
:102640000A4C002301E013600432A242FBD307F0DE
:10265000DBFCFFF772FBFEE70040002000000020DB
:102660007C0000200CB700087C000020700C0020CB
:10267000FEE708B5FFF718FDBDE8084000F05ABEB8
:102680004FF0FF3007F090B80E4B18684FF47A7394
:102690005843312810B513D90B490B6883EA4333EB
:1026A00083EA534383EA43130B603222B0FBF2F216
:1026B00051000131801AB3FBF1F401FB14331844CB
:1026C00010BD00BF040000204C0400202DE9F041A3
:1026D000374B044618889CB00D460022AA4234D3DA
:1026E0000022344B00951146012006F013FF324FB3
:1026F0006619B44246D100221146304BDFF8B8804B
:10270000012006F007FF00222D4B00951146012005
:1027100006F000FF03AE00243746AC423CD1002255
:102720001146264B012006F0F5FE0022254B0093B2
:102730001146254B012006F0EDFE244B21469B6AF5
:10274000384698471CB0BDE8F081511CA942B8BF7B
:10275000A618A35CBCBF767843EA0623A94202F11F
:102760007006B8BF70316E4483EA0003B8BF694495
:1027700006F8643C02F10202BCBF1B0A01F8643C8B
:10278000D2B2ABE714F8013B009300223B4611465E
:10279000012006F0BFFEACE716F8013B00930022D3
:1027A00043461146012006F0B5FE0134B5E700BFEF
:1027B00012000020C0AE0008CFAE0008CEB3000863
:1027C000D5AE0008E4AE0008F7AB000828B4000856
:1027D000F0B585B001224FF400414FF09040002544
:1027E0000295039501F094FFFFF7D2F98821234861
:1027F000234EFFF745FB0A20FFF78EFC03AB02AA2E
:10280000FD211E48FFF79CFB00224FF400410446C7
:102810004FF0904001F07CFF184802F066F91CBBB5
:10282000039F29463846FDF7AFFFA0B10395154930
:102830000298FDF70BFEFDF7CFFF134B11491880EF
:102840000398FDF703FEFDF7EDFF104B1880002302
:10285000337005B0F0BD0B4C38462146FDF7B2FF92
:102860000028E4D00394E2E70123002233701146EC
:10287000074B0094022006F04DFEEAE760010020BD
:10288000000000200000C842480400204604002048
:10289000FAAE0008024B01200021187006F04CBF70
:1028A0002804002073B5224D2B7803F0FF0473B188
:1028B0000022204B1146022006F02CFE00232B7034
:1028C0001D4BDB6A019302B0BDE8704018471B4BFB
:1028D0001A7802F0FF0512B3194A1C7013781649D2
:1028E000012BCD6A0ED91378013BDBB21370154B67
:1028F00001261E70A8470021012002B0BDE87040EB
:1029000006F01ABF104B14701A78002AF2D01C700F
:1029100022460E4B2146022006F0FCFDEAE701228A
:1029200029460B4B104606F0F5FD2946E4E700BFAB
:102930001F04002017AF000828B40008200400205E
:1029400011040020100400202404002023AF0008FC
:102950002CAF000808B50122054B0021104606F0F7
:10296000D9FDBDE808400021012006F0E5BE00BF0A
:102970003AAF000813B5134B1B786BB10022124B12
:102980001146022006F0C6FD104B00205B6B019340
:1029900002B0BDE8104018470D4B1B7803F0FF0450
:1029A0001BB10A4B4FF4FA60F0E701222146094BB4
:1029B000104606F0AFFD2146012002B0BDE81040F0
:1029C00006F0BABE1F04002048AF000828B4000873
:1029D0002004002055AF000837B5134B134D1B786A
:1029E00033B16B6B0193002003B0BDE83040184752
:1029F0000F4B19780F4B1B7851EA03040BD00E4B89
:102A000001224FF080401A70FFF708F86B6B0193BA
:102A10004FF4FA60E8E7EB6A98472146012003B0DB
:102A2000BDE8304006F088BE1F04002028B400082E
:102A300024040020120400202004002030B5164B8E
:102A40001B7885B02BB1154905B0BDE8304007F0C3
:102A500001BB134BB3F90050124B85EAE5721C8899
:102A60006421A2EBE572B4FBF1F392B201FB1344D3
:102A7000CDE90234B2FBF1F301FB1322CDE90032C0
:102A8000094A0A4B5A2133EA250328BF1346084A4C
:102A900007F03AFA05B030BD0000002063AF00082F
:102AA000480400204604002061AF0008CFB30008AE
:102AB0009AAF0008F0B55B4B1A789BB0B2B1002416
:102AC00059481C7006F092FFFFF7DEFD014656489C
:102AD00007F014F8544806F0D7FF544B1B680093D6
:102AE0002246534B2146022006F014FD514B1A7822
:102AF00002F0FF009AB100221A704F4B1B78C3F10D
:102B00000303009311464D4B022006F003FD4C4B8E
:102B10004C4819781BB0BDE8F040FFF7D7BD4A4AD2
:102B20004A4C117801F0FF03002961D01070484A27
:102B30000123137023702378002B57D02378454E40
:102B4000434F013BDBB223703378002B66D03B78D8
:102B5000002B14BF01230323374A03AC1370FFF784
:102B600037FE2046FFF76AFF00223B4B00941146D8
:102B7000012006F0CFFC06F0F5FE4FF47A73B0FBAF
:102B8000F3F5364B2F4C1B7823700A236370FEF746
:102B900021FF0023E3702B0C23712B0A63713B7818
:102BA000A070A571002B3BD13378003B18BF0123E7
:102BB000DB012B4A234812781343E371294BB3F905
:102BC000002093F901302372274B62721B88E37255
:102BD0001A0A0C21A272FFF7C5F8194B2073000ADC
:102BE00060730E2117481970FFF770FD1BB0F0BD20
:102BF0001E4A117800299ED01370154A0A48137096
:102C00000123237006F0F2FEFFF73EFD0146064861
:102C100006F074FF044806F037FF8CE701239BE7BA
:102C20008023C6E7260400202C0400200400002096
:102C3000E0AF0008100400201104002000B00008DC
:102C40000F0400201D03002025040020270400207D
:102C500024040020120400200DB000081000002001
:102C60000000002048040020460400202804002022
:102C70002DE9F04F9846974B1B788BB004460D46D4
:102C80001646002B6DD00829934F4BD190F800A029
:102C9000BAF1A50F40F01B8190F80190B9F15A0FDD
:102CA00040F0158183784A2B40F01181C378492B7D
:102CB00040F00D810379472B40F009810621B0F8DF
:102CC00006B0FFF74FF8834540F001810022834DA5
:102CD000834B1146CDE90068022006F01BFC44231B
:102CE000AB705523EB7054232B7163796B71C6F372
:102CF0000723AB710A21002328466B7285F800A0D8
:102D000085F80190EE7185F80880FFF72BF8BB6A13
:102D1000A872000AE8720C21284607930BB0BDE8A0
:102D2000F04F1847C1B1012D017818D0022D6378FA
:102D300013D9A2780095CDE903320022CDE90161D3
:102D4000684B1146022006F0E5FB7B6B07930020E1
:102D50000BB0BDE8F04F18470B460022EAE700230E
:102D6000FBE7614F3B7803F0FF09002B5AD007299E
:102D70001BD15E4B08A91D8801220846661E072A42
:102D8000B35C1CBF14F802C043EA0C236B40072A53
:102D90000B7010D10521BDF82540FEF7E3FF544B21
:102DA0009DF820201B789A420AD04B4B4FF4FA60D2
:102DB0005B6B984733E01B0A4B7002320231DEE74F
:102DC0009DF82130AC2BF0D1A042EED1494B00222E
:102DD0001A70494B1978C9B148481A700388BDF870
:102DE000221001339BB2C9BA03809DF924000491DB
:102DF00043490590097803910A200121CDE901108A
:102E0000009311463F4B022006F084FB324B002416
:102E1000DB6A3C7098472146012006F08DFC0BB020
:102E2000BDE8F08F0122384B4946104606F072FB90
:102E30000122364B49461046CDE9006806F06AFB90
:102E4000334B344883F80080DE22494607F0AAF865
:102E5000314BDE2D1D8004D82E482A46214607F02E
:102E600001F92E4B2E4F1E7001222E4B0095002192
:102E7000104606F04FFB01222B4B264D2B4E002116
:102E8000104606F047FB002415F8013B0093002292
:102E900033461146012006F03DFB04F00F030F2BD3
:102EA00005D100223B461146012006F033FB0134D8
:102EB000402CE9D100221146194B012006F02AFBD3
:102EC000002101200BB0BDE8F04F06F035BC2178A1
:102ED0002CE700BF1F04002028B4000813040020C2
:102EE00010B000081AB000082004002012000020D2
:102EF00010000020110400202404002022040020DF
:102F00000800002036B0000855B0000860B0000886
:102F100050040020320500205204002051040020FB
:102F200093B0000882B0000896B00008A9B000086D
:102F3000034B1B781BB1022801D1FEF75DB8704727
:102F40004504002010B59AB003ACFFF741FC2046C1
:102F5000FFF774FD0022044B00941146012006F097
:102F6000D9FA1AB010BD00BF0DB0000838B5164927
:102F700007F02DF858B1154C811D012204FB02F514
:102F8000B5F1553F11F8013F02D83A2B09D038BDB1
:102F9000A3F13005092D04D923F02003413B052B73
:102FA000F5D80132122AE9D1094BC21D1946173052
:102FB00052F8044B43F8044B8242F9D112781A704C
:102FC00000234B74E3E700BFACB00008ABAAAAAA89
:102FD000090300202DE9F04F1C4B1D4AD3F8805502
:102FE000D3F8844511781B4B89B0002918BF1346CC
:102FF0000022114600930220174B06F08BFA4FEA8D
:1030000015290A20FFF788F84FEA15485FFA89F377
:10301000270A260C4FEA156B4FEA146A0693002222
:103020005FFA88F3EDB2E4B2FFB2F6B2CDE904B3D1
:10303000CDE900A6094B079503940297114602209B
:1030400006F068FA09B0BDE8F08F00BF0070FF1FFE
:1030500009030020B4B00008BCB00008C6B00008E6
:1030600007B50E4B1B7803F0FF023BB90C4B114622
:10307000022003B05DF804EB06F04CBA094806F0F4
:10308000B5FC094B01221A70084B00201870084B40
:103090005B6B019303B05DF804EB18474404002018
:1030A000F5B000082C0400201F040020200400209C
:1030B00028B40008024B00221A70024BDB6A184742
:1030C0001F04002028B4000813B50F4B1B780446DA
:1030D00003F0FF023BB90D4B1146022002B0BDE8E0
:1030E000104006F017BA0A4806F080FC094B01228E
:1030F0001A70094B00221A70084B5B6B0193204633
:1031000002B0BDE8104018474404002006B1000892
:103110002C0400201F0400202004002028B40008F4
:1031200013B51A4B1B7803F0FF023BB9184B11463D
:10313000022002B0BDE8104006F0ECB91548164C6C
:1031400006F054FC154B01221A70A52323705A2354
:1031500063704423A3705523E370542323710A2121
:10316000002320466371A371E37123726372FEF73B
:10317000F9FD0B4BA0729B6A0193000AE0720C21CF
:10318000204602B0BDE81040184700BF44040020AC
:1031900013B100082C040020130400201F04002099
:1031A00028B4000800B5114BD3F88025D3F8843536
:1031B00089B0D1B20791C2F307210691C2F307414A
:1031C000120E0492DAB20392C3F307220292C3F3FF
:1031D000074201921B0E0022059100931146044BF9
:1031E000022006F097F909B05DF804FB0070FF1F9C
:1031F00020B10008042807D8072905D8034B01EBA4
:10320000C00153F821007047002070472CB200081D
:10321000F8B56020FDF7E0FCC0B2431E772B3E4FAF
:103220005ED838701820FDF7D7FCC0B205283B4C9B
:103230005CD8207023786420C3F10C032370FDF761
:10324000CBFCC6B20820FDF7C7FC072EC5B204D9D7
:1032500000216420FDF7E0FC00263C780F23013CB0
:1032600094FBF3F4E4B2A64203D021466420FDF7B8
:10327000D3FC052D10D903210820FDF7CDFC4121F9
:103280000C20FDF7C9FC00211420FDF7C5FC00212E
:103290001C20FDF7C1FC032521462846FFF7AAFFA5
:1032A0001F4B18601C20FDF797FC431E58425841E5
:1032B0001C4B18700420FDF79FFC1B4B421F9A42C9
:1032C0001A4B19D818606C20FDF796FC80B2431E8B
:1032D0009BB24FF6FD729342154B14D81880F8BD7F
:1032E000012160203970FDF797FC9BE7052118202C
:1032F0002170FDF791FC9DE74FF496710420196051
:10330000FDF7A2FCDFE740F2574119806C20BDE8D1
:10331000F840FDF799BC00BF100000200800002015
:103320000C000020120400207B510100040000204A
:10333000120000202DE9F04E8CB0FEF7BFFB60209C
:10334000FDF74AFC5F4B604E604F012500220024D0
:103350001D7011464FF0050A5D4B022006F0DAF8A9
:1033600022462146CDE901A45A4B0095022006F0E1
:10337000D1F8032322462146CDE900530295564B4E
:10338000022006F0C7F8FFF70DFF5448544B0360C6
:10339000544B8360544B4360544BC360544B0361A4
:1033A00033689847D6F81490C847FFF731FFF368A1
:1033B00038689847224621464E4B022006F0AAF86C
:1033C000224621464C4B022006F0A4F83B680093AD
:1033D00022462146494B4A4F022006F09BF87D23A6
:1033E000009322462146474B022006F093F83B7893
:1033F000009322462146444B022006F08BF82246D9
:1034000021463C4B022006F085F84FF0080B47F2AE
:103410003053CDE90743CDE90544CDE90345CDE976
:10342000015B3B780093F3690B93DDF82CC02346D6
:10343000224628461621E047CDE90845CDE9064455
:10344000CDE90445CDE902A4CDE9004BB3690B9366
:103450003A780B9F2B4621462846B847776C542173
:103460004FF4E860B847A42140F24170B847736D4B
:103470002846DE2198472146DE22244806F092FDA8
:10348000F36A98472146224A284606F011FAC847AF
:10349000204B002808BF4FF0A5301860FFF7F4F864
:1034A0002A4601461C4B00941C4806F041FA1C4B6E
:1034B0001D701C4B2246214602200CB0BDE8F04E88
:1034C00006F028B84504002028B400080C000020AD
:1034D00057B1000882B10008A3B10008100600200F
:1034E000D9290008712C000855290008A5280008D2
:1034F00075290008C4B10008D6B10008E4B100087D
:1035000008000020F9B100080FB2000854040020A0
:10351000B52A00084C040020952800082C0400203F
:103520004404002023B2000800F00AB800F04AB8B2
:1035300000F082B800F082B800F082B800F082B8E3
:103540002DE9F04186B000244FF0B0430594DA6CC9
:103550001B4D42F00402DA64DB6C039403F00403B5
:103560000093009B10270123CDE9017301A90323D8
:10357000284604934FF4005800F0AAFF01A92846FA
:103580008026CDF8048000F0A3FF01A94FF0904001
:10359000019600F09DFF22464146284601F0B8F80A
:1035A00022463946284601F0B3F8224631464FF00C
:1035B000904001F0ADF8204606B0BDE8F08100BFB4
:1035C0000008004808B5032814D8DFE800F0021509
:1035D0001D2A002280214FF0904001F099F800222E
:1035E0001448102101F094F8002212484FF40051C1
:1035F00001F08EF8002008BD012280214FF090409C
:1036000001F086F80122EBE7012280214FF0904083
:1036100001F07EF801220748102101F079F801221B
:10362000E3E7012280214FF0904001F071F8002281
:10363000F1E700BF000800480220704701207047F2
:1036400001207047002814BF16200F2070477047D4
:1036500038B5104C237805460BB9012038BD01F070
:1036600055FD22784FF47A73B3FBF2F3B0FBF3F01D
:1036700000F002FC04460028EFD10F2DEDD80246E1
:1036800029464FF0FF3000F0A5FB034B20461D609C
:10369000E4E700BF180000201C00002010B5032044
:1036A00000F086FB01F032FD064B18600F20FFF79B
:1036B000CFFF044618B9FEF77CFC204610BD01245C
:1036C000FBE700BF14000020034A044B11681B787D
:1036D0000B441360704700BF2C0600201800002028
:1036E0004FF0E022136923F00203136170474FF09B
:1036F000E022136943F0020313617047024A5368E2
:1037000043F0010353607047002004E0024A53680D
:1037100043F0020353607047002004E0024A5368FC
:1037200043F0040353607047002004E08068C0F356
:1037300080007047F7B5002301930446002800F08D
:10374000E980856D25B9FDF7DDFAE56584F854500B
:1037500023689A68D00040F1A1809A68D10000F1F6
:10376000B480A26D42F01002A265E26D42F0010247
:10377000E26501251846FFF7D9FFA26D02F010029D
:10378000024340F0C980A26D206922F4817242F0A8
:103790000202A2659A68D2075DD4226BA67E94F8D5
:1037A0002CC0003A18BF01221703D4E902120A43C1
:1037B000217E42EA8132617E42EAC13242EA4632E9
:1037C000002842EA4C02B4BF20F000414FF400113F
:1037D0003A430A4394F82010012903D1002E76D1F0
:1037E00042F48032616A21B1A66A01F4E07131438A
:1037F0000A43D968E66C21F4FE3121F4FF711143CC
:10380000D96094F83C206168012A01F0404C4CEAF0
:10381000060609D1D4E910273A433243A66C324355
:1038200042EA0C0242F001061F693E4A3A40324326
:103830001A6121F00042B2F1804F0CD0B1F1004F7B
:1038400009D0394ED6F8082701F4701122F470120D
:103850000A43C6F808275A69666BA16B22F0070273
:1038600032435A615A6922F0700242EA01125A61E7
:10387000002835D19A6A62F00F029A625B6903F000
:1038800007039E423CD10023E365A36D23F00303AD
:1038900043F00103A365284603B0F0BD9A682349AD
:1038A00022F0104222F0170242F080529A60204A21
:1038B0001268B2FBF1F2013252000192019A002A21
:1038C0003FF44BAF019A013AF7E7002552E7A16DAB
:1038D00041F02001A165E16D41F00101E16581E761
:1038E000B0F5001FCAD19A6AE269013A92006FF0FE
:1038F0000F0102F01C0201FA02F2216E0A43BCE73A
:10390000A36D23F0120343F01003A365E36D43F0AE
:103910000103E3650125BEE7A36D43F01003A36532
:10392000F8E700BF02FCFF1F00200140400D03002C
:1039300014000020F8B54569082D04460E460AD04B
:103940000368DB68D80705D5A36D43F02003A365A2
:103950000120F8BD0425FEF7D7FB074623681A6847
:103960002A4220D0A26D42F40072A265DA6812F4F5
:10397000406F14D1A27E92B91A6812070FD518466B
:10398000FFF7D4FE20BB5A6822F00C025A60A26DE9
:1039900022F4807222F0010242F00102A265227E2E
:1039A000FAB10020D5E7711CD9D0FEF7ADFBC01BE2
:1039B000B04201D8002ED1D123681B682B40CDD155
:1039C000A26D84F8543042F00402A2650320C0E7DF
:1039D000A26D42F02002A265E26D42F00102E265B2
:1039E000DDE70C221A60DCE70368186C7047000002
:1039F000F7B50023019390F85430012B044600F0F2
:103A0000C08005680269012380F854302846FFF71A
:103A10008DFE002840F0AF80D1E90030022822F06E
:103A200004027ED0B2F1004FC3F3110E35D1AA6A61
:103A300042EA0E02AA628A68686902EA032222F058
:103A40007C4222F0FF0220EA03210A43002B6A6134
:103A50001DDA4D4A4D4DD2F80817AB4201F0E07027
:103A600043D10D0213D4D2F8083723F0E073034397
:103A700043F40003C2F80837454B1A68454BB2FBC4
:103A8000F3F20C2302FB03330193019B53BB002091
:103A9000002384F8543003B0F0BD226E00F01F07FD
:103AA0004FF00F0C0CFA07FC6FEA0C0622EA0C0C24
:103AB000BEF1000F11D1C3F38462BA4042EA0C0296
:103AC00022668008E26901309042B4D8A86AC3F344
:103AD0008362BA4006403243ACE793FAA3F2B2FAEB
:103AE00082F2EAE7019B013BCEE72B4DAB420BD1C3
:103AF000C901CCD4D2F8083723F0E073034343F074
:103B00008073C2F80837C2E7244DAB42BFD14B02E5
:103B1000BDD4D2F8083723F0E073034343F48003A5
:103B2000EFE7B2F1004F01BFAA6AC3F311018A4364
:103B3000AA62002BABDA154813498342D1F8082753
:103B400009D1D1F8083702F0A07223F0E0731A43CC
:103B5000C1F808279BE71048834204D1D1F8083701
:103B600002F44002F1E70D48834290D1D1F80837C2
:103B700002F0C072E9E7A26D42F02002A265184689
:103B800086E7022087E700BF00200140001000B058
:103B900014000020400D0300004000B8002000B4D5
:103BA000026838B504461046FFF7C0FD08B900208A
:103BB00038BD9368990707D4936823F0004323F036
:103BC000170343F010039360FEF79EFA054623683F
:103BD0009B685B07EBD5FEF797FA401B0228F6D9E6
:103BE00023689B685A07F2D5A36D43F01003A365C1
:103BF000E36D43F00103E3650120D9E773B50023CA
:103C0000026801939368DD07044602D5002002B0E4
:103C100070BD9168214B194209D0A36D43F0100388
:103C2000A365E36D43F00103E3650120EFE79368CB
:103C300023F0004323F0170343F001039360184B74
:103C4000D3F8083718021CD4637E012BDED0FEF7B0
:103C50005BFA144E054622681368DB07D6D49368D6
:103C6000D9075FBF9368334043F001039360FEF7C9
:103C70004BFA401B0228EED923681B68DA07EAD406
:103C8000CBE7094B094A1B68B3FBF2F301330193FD
:103C9000019B002BD8D0019B013BF8E71700008067
:103CA00000200140E8FFFF7F14000020400D0300CA
:103CB00038B504460068FFF739FD054620BB94F887
:103CC0005430012B20D0012384F854302046FFF7D4
:103CD00095FFB0B9A36D226823F4706323F001034C
:103CE00043F48073A3651C23E065136084F85400DB
:103CF000936823F0004323F0170343F00403936019
:103D000038BD84F85450FBE70220F9E7026838B563
:103D1000936891680446C80701D4002038BD99070C
:103D2000FBD4936803F00503012B19D1936823F0AA
:103D3000004323F0170343F002039360032313604F
:103D4000FEF7E2F9054623689B68DB07E5D5FEF739
:103D5000DBF9401B0228F6D923689B68DA07F2D505
:103D6000A36D43F01003A365E36D43F00103E36526
:103D70000120D3E710B590F85430012B044615D03C
:103D8000012380F85430FFF70BFF58B92046FFF7A6
:103D9000BDFF38B9A36D23F4807323F0010343F012
:103DA0000103A365002384F8543010BD0220FCE712
:103DB0000749CA6822F4E0620302120403F4E063D4
:103DC000120C134343F0BF6343F40033CB607047DE
:103DD00000ED00E0164B30B5DC68C4F30224C4F1FA
:103DE0000703251D042B28BF0423062D4FF0FF35A4
:103DF0008CBF033C002405FA03F321EA0303A5402A
:103E000022EA0502A340002843EA0203ACBF00F106
:103E10006040084A4FEA0313B8BF00F00F00DBB25E
:103E2000AABF00F56140135480F8003330BD00BFD5
:103E300000ED00E014ED00E0002807DB044A410932
:103E4000012300F01F00834042F82130704700BF7B
:103E500000E100E000280CDB4309064900F01F00E8
:103E600020330122824041F82320BFF34F8FBFF35C
:103E70006F8F704700E100E00138B0F1807F0BD216
:103E80004FF0E023054A5861F02182F8231000200A
:103E9000072298611A6170470120704700ED00E029
:103EA000002808DB4309044900F01F0001226033A9
:103EB000824041F82320704700E100E070B5D0E96E
:103EC00013456560446D14B1D0E916456560D0E9CD
:103ED000105404F01C060124B4406C600468636054
:103EE0008368102B0BBFA260A160E160E26070BD2F
:103EF0000268416CD3B210B5083B1424B3FBF4F351
:103F00000B4CA24288BF0B4A21F0030199BF01F17B
:103F1000804202F50232521807338264064AC264B4
:103F200003F01F03012202FA03F3036510BD00BF73
:103F3000070402401C0802408008024038B50028EF
:103F40005CD002682E4B9A424FF014014AD82D4B98
:103F50001344B3FBF1F32C499B00C0E91013022377
:103F600080F825301368056923F4FF4323F07003BC
:103F70001360D0E9024323432B43456911682B4367
:103F800085692B43C5692B43056A2B430B4313609B
:103F9000FFF7AEFFB4F5804F04BF002343604368D2
:103FA000816C03F07F020A60D0E91314013B032BFC
:103FB0004C601ED8154B1649816513449B000121A6
:103FC000013A01FA02F200214365C2651960114B02
:103FD0005A6400230122C36380F8243080F825202E
:103FE000184638BD0C4B1344B3FBF1F30B499B004F
:103FF000B3E70023C0E91533C365EAE70120F0E722
:1040000007040240F8FFFDBF000002403F8200109D
:104010004009024000090240F8FBFDBF00040240D5
:1040200038B5002841D00268136823F001031360FB
:104030001F4B9A424FF0140130D81E4B1344B3FB70
:10404000F1F31D499B00C0E91013012403F01C0388
:1040500004FA03F3002515604B60FFF749FF836CFA
:1040600041681D60D0E913325A604A1E032A06D8FF
:10407000124B0B449B0094401D60114B5C64002369
:10408000C363C0E91533C0E90B33C0E90D33C36521
:1040900080F8253080F82430184638BD094B134489
:1040A000B3FBF1F308499B00CDE70120F5E700BF22
:1040B00007040240F8FFFDBF000002403F820010ED
:1040C00000090240F8FBFDBF0004024070B590F803
:1040D0002450012D04463BD090F825600125AE42C6
:1040E00080F824504FF000062CD1022580F825508E
:1040F0000568C6632E6826F001062E60FFF7DEFE17
:10410000036BBBB12B6843F00E032B60A36C1A68E2
:10411000D20342BF1A6842F480721A60636D1BB109
:104120001A6842F480721A602B6843F001032B6016
:10413000002070BD2B6823F004032B602B6843F034
:104140000A03E2E78023C36380F824602846F0E78F
:104150000220EEE7034640B190F82520022A06D05F
:104160000422C263002280F82420012070470268E4
:10417000806C116821F00E011160016821F48071DA
:104180000160116821F001011160D3E9100202F011
:104190001C0101228A404260D3E9132151605A6D0B
:1041A00032B1116821F480711160D3E91621516098
:1041B0000122002083F8252083F82400704708B5E9
:1041C00090F82530022B03D00423C363012008BDDF
:1041D00003681A6822F00E021A601A6822F00102BF
:1041E0001A60826C136823F480731360D0E9101393
:1041F00003F01C02012393404B60D0E913325A6054
:10420000436D33B11A6822F480721A60D0E9163215
:104210005A60012380F82530002380F82430836B16
:1042200003B198470020D2E770B4426C046C036875
:1042300026681D6802F01C020421914031420FD013
:1042400015F0040F0CD01A6892065EBF1A6822F0AF
:1042500004021A60036B6160002B33D070BC1847F6
:1042600002219140314217D015F0020F14D01A6884
:10427000940606D41A6822F00A021A60012280F815
:104280002520114A93428CBF104B114B59600023DB
:1042900080F82430C36ADFE708219140314211D011
:1042A00029070FD5196821F00E011960012303FABF
:1042B00002F26260C36380F82530002380F8243066
:1042C000436BC9E770BC70478000024000040240A5
:1042D000000002400A4A536943F4802330B5536119
:1042E000EFF3108472B60023CD58C5500433B3F5F4
:1042F000807FF9D11369DB03FCD484F3108830BDCF
:1043000000400058064B5A69002ABFBF054A9A6010
:1043100002F188329A60BABF5869C00F0020704716
:104320000040005823016745044B5A6942F000429F
:104330005A615869C043C00F704700BF0040005821
:10434000014B5868704700BF3006002070B5054625
:10435000FDF7DAFE124E04463369D90313D43369EC
:10436000DA0744BF012232614CF2FA32134011D114
:104370000B4E306910F480200BD0FDF7C5FE001BFA
:10438000A842F6D304E0FDF7BFFE001BA842E3D32A
:10439000032070BD024A1361024A01205360F8E70E
:1043A00000400058300600202DE9F041184D984695
:1043B0002B78012B06460C46174626D001232B707E
:1043C0004FF47A7000236B60FFF7C0FFA0B9012E95
:1043D00016D1104A536943F0010353612760BFF3BC
:1043E0006F8FC4F804804FF47A70FFF7AFFF094A6B
:1043F000536923EA0603536100232B70BDE8F08163
:1044000039462046FFF766FFEDE70220F6E700BFDA
:104410003006002000400058054A536923F47E739B
:1044200043EAC00040F4803040F002005061704721
:10443000004000582DE9F041234F3B78012B054601
:1044400088463FD001233B704FF47A7000237B6095
:10445000FFF77CFF044688B92B68042B13D11B4A55
:10446000536943F4803343F0040353614FF47A708B
:10447000FFF76CFF0446154B1A681B6800233B705E
:104480002046BDE8F0814FF0FF33C8F800306E6879
:10449000D5E901321344B3420AD93046FFF7BCFFD5
:1044A0004FF47A70FFF752FF50B1C8F8006004462D
:1044B000064A536923F47E7323F002035361DAE75B
:1044C0000136E5E70224DBE7300600200040005813
:1044D0002DE9F04F524C00234FF00F090A6832FAD1
:1044E00003F501D1BDE8F08F012505FA03F818EABC
:1044F000020200F08E804E68032706F003054FEAA3
:10450000430E07FA0EFC6F1E012F6FEA0C0C32D817
:10451000876807EA0C0ACF6807FA0EF747EA0A0726
:104520008760476827EA0808C6F300179F4047EAF4
:1045300008074760C76807EA0C088F6807FA0EF794
:1045400047EA0807022DC76017D14FEAD30800EBEE
:10455000880803F0070AD8F820704FEA8A0A09FA97
:104560000AFB27EA0B0B0F6907FA0AF747EA0B0762
:10457000C8F8207001E0032DDCD1076805FA0EF5BC
:1045800007EA0C073D4316F4403F056041D023F095
:10459000030707F1804707F5803703F0030CBD6878
:1045A0004FEA8C0C4FF0070E0EFA0CFEB0F1904F54
:1045B00025EA0E0E2FD01B4DA8422ED005F58065A2
:1045C000A84214BF0725022505FA0CF545EA0E0599
:1045D000BD602568D74316F4801F0CBF3D401543CE
:1045E0002560656816F4001F0CBF3D4015436560EB
:1045F000D4F8805016F4803F0CBF3D401543C4F8FA
:104600008050D4F88450B60354BF3D401543C4F8DD
:104610008450013362E70025D6E70125D4E700BFC7
:104620000008005800040048374A2DE9F04F0023E5
:104630004FF0010A4FF0070B4FF00F0931FA03F466
:1046400001D1BDE8F08F0AFA03FC1CEA010654D040
:1046500023F0030404F1804404F5803403F00307DD
:10466000A568BF000BFA07F8B0F1904F08EA050EF5
:1046700045D0264DA84244D005F58065A8420CBF20
:1046800002250725BD40754517D1D2F8805025EA8F
:104690000605C2F88050D2F8845025EA0605C2F813
:1046A0008450156825EA06051560556825EA060553
:1046B0005560A56825EA0805A560056803265C0025
:1046C00006FA04F423FA06F6254300EB8606056095
:1046D00003F00705376AAD0009FA05F527EA050773
:1046E0003762856825EA04058560456825EA0C057A
:1046F0004560C56825EA0404C46001339EE70025CF
:10470000C0E70125BEE700BF0008005800040048CC
:104710000AB181617047816270470000044AD16824
:10472000014208B502D0D060FEF702FC08BD00BF10
:104730000008005803689A69910744BF00229A62F2
:104740009A69D2075EBF9A6942F001029A61704786
:1047500030B5039D04682B4343EA0243064A606870
:10476000C1F309010B4342EA555223F0004320EA0A
:1047700002000343636030BDFF63FF0303682DE95C
:10478000F0419C6914F0100405460F4616466FD0A0
:1047900010220024DA61A0462B689A69900661D441
:1047A000B8F1000F35D044F0040401202E68B3693D
:1047B000D90541BF4FF48072F26144F00104012039
:1047C0005A0541BF4FF4806244F00804F2610120B1
:1047D0009B054FD54FF4007344F00204F361284663
:1047E000FFF7A8FF736823F0FF7323F48B3323F4E0
:1047F000FF7323F0010373606B6C23436B6420230E
:1048000085F84130002385F8423085F8403001209A
:1048100032E07A1CC1D0FDF777FC801BB84201D88A
:10482000002FB9D12B68596895F842209869000487
:10483000D2B20AD5490408D4202A06D05A6842F4D4
:1048400080425A60FDF760FC06462B689B699B0618
:10485000A2D4FDF759FC801B1928F6D920244FF06B
:10486000010899E7B8F1000F9DD12022DA619AE79B
:1048700020469BE70028B2D1BDE8F08170B5044620
:104880000D46164623689B699B0701D500201FE053
:10489000324629462046FFF771FFC0B96A1CF1D0A5
:1048A000FDF732FC801BA84201D8002DEAD1236815
:1048B0009B6913F00203E5D1626C84F8403042F04A
:1048C00020026264202284F8412084F842300120D2
:1048D00070BD2DE9F041DDF8188004460F461646FC
:1048E0001D4623689B6937EA03030CBF012300239D
:1048F000B34201D0002025E0424629462046FFF77A
:104900003DFFF0B96B1CECD0FDF7FEFBA0EB0800FF
:10491000A84201D8002DE4D123689B6937EA03033C
:104920000CBF01230023B342DBD1636C43F02003AF
:104930006364202384F84130002384F8423084F8F3
:1049400040300120BDE8F08170B504460D461646A2
:1049500023689B699B0601D500201DE0324629464D
:104960002046FFF70BFFB0B9FDF7CEFB801BA84236
:1049700001D8002DECD123689B6913F02003E7D107
:10498000626C84F8403042F020026264202284F895
:10499000412084F84230012070BD00002DE9F84329
:1049A000DFF8989005460E46174600244FF0100891
:1049B0002B689B695B0700D414B12046BDE8F883DF
:1049C0003A4631462846FFF7D9FE2B689A690446D5
:1049D00090060CD4003C18BF0124FDF795FBC01BCA
:1049E000B04201D8002EE3D1D4B10124E0E79CB954
:1049F0009A699A69D10611D504222021C3F81C8036
:104A00006A64D9615A6802EA09025A6085F841105D
:104A100085F8404085F842400124DEE76C64DCE71D
:104A20002B689B695A07C3D46B6C85F8404043F0F0
:104A300020036B64202385F84130D6E700E800FEB0
:104A400010B5044600284ED090F8413003F0FF0224
:104A50001BB980F84020FDF7C7F8242384F84130C3
:104A600023681A6822F001021A60626822F07062FC
:104A70001A619A6822F400429A60D4E9022101295D
:104A800006D142F400429A605A6822F4006207E0BC
:104A900042F4044202299A60F6D15A6842F4006254
:104AA0005A605A6842F0007242F400425A60DA6872
:104AB00022F40042DA60D4E904210A43A16942EAFF
:104AC0000122DA60D4E907210A431A601A6842F029
:104AD00001021A6000202023606484F841302063C2
:104AE00084F8420010BD0120FCE710B5044698B1DF
:104AF0000268242380F84130136823F00103136017
:104B0000FDF7B6F80020606484F8400084F84100A6
:104B1000206384F8420010BD0120FCE72DE9F34733
:104B2000994690F841300A9F202B04460E46904645
:104B300040F09C8090F84030012B00F097804FF0BF
:104B4000010A80F840A0FDF7DFFA1923054600901E
:104B500052464FF400412046FFF7BBFE18B101203A
:104B600002B0BDE8F087212384F84130102384F897
:104B700042306064A4F82A90638DC4F824809BB20C
:104B8000FF2B98BF628D606395BF92B2FF224FF0FA
:104B900000734FF0807322859AB14146D4F800C06B
:104BA00011F8010BCCF828006162618D013989B2DE
:104BB000013A618592B22E49228501320091D2B22A
:104BC00001E02B49009131462046FFF7C1FD638D7E
:104BD0009BB22A4639462046BBB9FFF7B5FE0028EE
:104BE000BDD123682021D9615A6822F0FF7222F4D6
:104BF0008B3222F4FF7222F001025A6084F84110D5
:104C000084F8400084F84200AAE7FFF737FE002846
:104C1000A5D1636A226813F8011B91626362638DF8
:104C2000228D013B9BB26385638D013A92B29BB2A8
:104C30002285002BCBD0002AC9D100953B4680218C
:104C40002046FFF746FE002889D1638D9BB2FF2BDB
:104C500005D9FF2222854FF080730090B3E7628D63
:104C600092B222854FF000730090A8E7022077E708
:104C7000002000802DE9F347984690F841300A9FC4
:104C8000202B04460E46914640F0878090F8403035
:104C9000012B00F082804FF0010A80F840A0FDF760
:104CA00033FA19230546009052464FF4004120463E
:104CB000FFF70FFE18B1012002B0BDE8F0872223F4
:104CC00084F84130102384F842306064A4F82A80CC
:104CD000638DC4F824909BB2FF2B6063304B26D9C0
:104CE000FF22228500934FF0807331462046FFF764
:104CF0002FFD638D9BB22A4639462046FBB9FFF74C
:104D000023FE0028D7D123682021D9615A6822F0D8
:104D1000FF7222F48B3222F4FF7222F001025A60F9
:104D200084F8411084F8400084F84200C4E7628DA2
:104D300092B2228500934FF00073D2B2D5E7FFF70D
:104D40002DFE0028B7D123685A6A636A1A70636A15
:104D5000228D01336362638D013B9BB26385638D5A
:104D6000013A92B29BB22285002BC2D0002AC0D158
:104D700000953B4680212046FFF7ABFD00289AD1E5
:104D8000638D9BB2FF2B03D9FF2222850090AAE7F7
:104D9000628D92B222850090CDE702208CE700BFA1
:104DA0000024008010B590F84120202A0346D4B298
:104DB0001CD190F84020012A18D0242280F84120EC
:104DC0000268106820F001001060106820F4805024
:104DD00010601068014311601168002041F001016A
:104DE000116083F8414083F8400010BD0220FCE7C9
:104DF00010B590F84120202A0346D4B21BD190F878
:104E00004020012A17D0242280F84120026810682F
:104E100020F001001060106820F4706040EA012169
:104E200011601168002041F00101116083F84140D8
:104E300083F8400010BD0220FCE70000024A13681E
:104E400043F4807313607047000400580D4B10B595
:104E50005B690C4628B99A0507D500F027F820B100
:104E600010BD9B0501D400F019F8074A1369012C05
:104E700023F00403136101D130BFF1E740BF20BF2D
:104E800020BFEDE70004005800ED00E0024B186879
:104E900000F4C060704700BF00040058024A136865
:104EA00043F4804313607047000400580C4A1368B1
:104EB00023F4804313600B4B1B6832214B430A4998
:104EC000B3FBF1F35169890500D533B9536913F484
:104ED000007F14BF032000207047013BF2E700BFB2
:104EE000000400581400002040420F000B4A1368D1
:104EF00023F0070343F002031360094B1A690128EA
:104F000042F004021A6105D130BF1A6922F004028E
:104F10001A61704740BF20BF20BFF6E70004005869
:104F200000ED00E04FF0B0431868C0F34040704718
:104F30004FF0B0431868C0F3400070474FF0B042E4
:104F4000536823F47F4343EA0023536070474FF0D4
:104F5000B0431868C0F34060704700007FB54FF061
:104F6000B0432C4AD3F80831C0F3031003F00F0309
:104F700052F82040284A52F82330B4FBF3F4FFF7EC
:104F800085FF264B054693E80700B5F5007F04AB87
:104F900003E9070010D0224B9C4218D303F5B70356
:104FA00003F67F539C4229D903F5741303F510636C
:104FB0009C4225D802230BE01A4B9C4207D91A4B7E
:104FC0009C421BD903F5370303F5D853F0E70023C0
:104FD00004AA02EB830353F80C4C144D2B6823F006
:104FE000070323432B60FDF78FF806462B6803F079
:104FF00007039C4206D1002004B070BD0123E7E7FF
:105000000024EAE7FDF780F8801B0228EED9032090
:10501000F2E700BFCCB200082CB30008E0A80008FB
:10502000C0CF6A00BFEA21013F933402004000581C
:105030004FF0B04310B59A68D96812F00C0205D051
:105040000C2A4AD101F00303012B51D14FF0B0419A
:105050002B480B6813F0080306D00B6813F0080305
:1050600037D1D1F8941007E00C68240756BFD1F867
:1050700094300968C3F3032350F82330002A0CBF8F
:10508000184600204FF0B0418A6802F00C020C2A4A
:105090001ED1CA6802F00302022A2ED0032A06D1CA
:1050A0000B68184A13F4801F174B18BF13464FF0B4
:1050B000B042D068D168D268C0F306205843C1F32B
:1050C00002130133B0FBF3F0530F0133B0FBF3F0E5
:1050D00010BD0B68C3F30313CEE7042A05D0082ADA
:1050E00006D11B6813F4801305D006480023C9E7D6
:1050F00000231846C6E70448C4E7024BD7E700BFC1
:10510000CCB200080024F4000048E80108B5FFF71D
:105110008FFF4FF0B043044A9B68C3F3031352F868
:105120002330B0FBF3F008BD2CB300082DE9F041AB
:105130000446002853D04FF0B0439D68DE680368F2
:105140009B0605F00C0506F0030668D5026A1DB142
:105150000C2D46D1012E44D1002A40D04FF0B0434F
:10516000A16A1A68170756BFD3F894301B681B0949
:1051700003F0F00399421FD90846FFF7EFFE00281D
:105180002DD14FF0B042136843F008031360136849
:10519000A16A23F0F0030B431360606AFFF7CEFEB1
:1051A000FFF7B4FFAB4B1860AB4B1868FEF750FA33
:1051B000002834D0BDE8F0814FF0B042136843F0CE
:1051C00008031360136823F0F0030B431360606A55
:1051D000FFF7B4FE0846FFF7C1FE0028E0D001202B
:1051E000E8E74FF0B043002A54D01A6842F00102B9
:1051F0001A60FCF789FF0746FFF79AFE002842D0A5
:105200004FF0B042136843F0080313601368A16ABB
:1052100023F0F0030B431360606AFFF78FFE2368EF
:10522000D80748D42368990700F18C8023681E07AB
:1052300040F1FA80A3694FF0B046002B00F0E18006
:10524000D6F89430E16903F01002914200F0C48076
:1052500003F00302022AC2D0D80740F1B380D6F887
:10526000943023F00103C6F89430FCF74DFF074655
:10527000D6F89430990740F1A580FCF745FFC31B91
:10528000112BF5D904E0FCF73FFFC01B0228B3D96E
:1052900003208FE71A6822F001021A60FCF734FF3E
:1052A0000746FFF745FE0028B9D0FCF72DFFC01BCD
:1052B0000228F6D9ECE7082D03D00C2D05D1032EDA
:1052C00003D16368002BADD189E74FF0B043A168EB
:1052D0001A6822F480120A431A606268B2F5803FAD
:1052E00010D11A6842F480321A60FCF70DFF0746AD
:1052F000FFF718FE002895D1FCF706FFC01B6428B5
:10530000F6D9C5E7B2F5041F04D11A6842F40012B9
:105310001A60E6E7196821F480311960196821F4F0
:1053200000111960002AE0D1FCF7EEFE0746FFF7F6
:10533000F9FD00283FF476AFFCF7E6FEC01B6428B9
:10534000F5D9A5E7042D236903D00C2D0ED1022E2B
:105350000CD1002B3FF443AF4FF0B042616953686A
:1053600023F0FE4343EA016353605FE74FF0B0462A
:10537000BBB1336843F480733360FCF7C5FE074666
:1053800033685A0505D4FCF7BFFEC31B022BF7D9BF
:105390007EE77368626923F0FE4343EA0263736049
:1053A00044E7336823F480733360FCF7ADFE0746AF
:1053B00033685B057FF53AAFFCF7A6FEC31B022BF3
:1053C000F6D965E74FF0B042E169D2F8943023F0A6
:1053D00010030B43C2F894304FF0B047D7F8943025
:1053E00043F00103C7F89430FCF78EFE0646D7F869
:1053F00094309A0718D4FCF787FE831B112BF6D93B
:1054000046E7D6F8943023F00103C6F89430FCF751
:105410007BFE0746D6F894309B0705D5FCF774FE53
:10542000C31B112BF6D933E72368580754D50B4F0C
:105430003B68D90514D4FFF701FDFCF765FE06466D
:105440003B68DA050CD4FCF75FFE831B022BF7D90F
:105450001EE700BF140000201C00002000040058BC
:10546000E3684FF0B046002B58D023F08003052BA3
:1054700002BFD6F8903043F00403C6F890304FF0E6
:10548000B046FCF741FED6F8903043F001030746E2
:10549000C6F8903041F28838D6F890309B0705D492
:1054A000FCF732FEC31B4345F6D9F1E6E36823F06F
:1054B0000403812B1BD1FCF727FED6F8903043F074
:1054C0008003C6F8903007464FF0B04641F2883866
:1054D000D6F89030180504D5E36A002B4AD1002095
:1054E00068E6FCF711FEC01B4045F1D9D0E6FCF799
:1054F0000BFED6F8903023F08003C6F890300746B4
:105500004FF0B04641F28838D6F890301905E3D50F
:10551000FCF7FAFDC01B4045F6D9B9E6FCF7F4FDEF
:10552000D6F8903023F080030746C6F8903041F259
:105530008838D6F890301A0516D4FCF7E5FDD6F871
:10554000903023F00103C6F8903007464FF0B04882
:1055500041F28836D8F890309B07BDD5FCF7D4FDD2
:10556000C31BB342F6D993E6FCF7CEFDC01B404502
:10557000DFD98DE60C2D4ED0022B4FF0B0431A68C8
:1055800022F080721A6033D1FCF7BEFD0546FFF7AA
:10559000DEFC38BBD4E90C314FF0B0420B43D0688D
:1055A0002D4901400B43E16B0B43216C0B43616CB4
:1055B0000B43A16B43EA0123D360136843F080736C
:1055C0001360D36843F08053D360FCF79DFD04461D
:1055D000FFF7BDFC002882D1FCF796FD001B0A28CE
:1055E000F6D955E6FCF790FD401B0A28CFD94FE6C7
:1055F000FCF78AFD0446FFF7AAFC30B94FF0B04231
:10560000164BD1680B40D36069E7FCF77DFD001BAA
:105610000A28F0D93CE6012B3FF4E1AD4FF0B0434E
:10562000D868236B00F003029A427FF4D8AD626B16
:1056300000F0700393427FF4D2ADA26B00F4FE43FE
:10564000B3EB022F7FF4CBAD636C00F06040C01A67
:1056500018BF0120AEE500BF8C80C111FCFFFEEE3B
:105660002DE9F0410D46044610B90120BDE8F08156
:10567000684E336803F007038B4216D323689A07FA
:1056800027D54FF0B047A268BB6823F0F00313435F
:10569000BB60FCF739FD0646BB68DB0319D4FCF799
:1056A00033FD831B022BF7D911E0336823F0070386
:1056B0000B433360FCF728FD0746336803F007030C
:1056C000AB42DBD0FCF720FDC01B0228F5D903203C
:1056D000CCE72368580617D54FF0B0476269D7F872
:1056E000083123F00F0343EA1213C7F80831FCF71F
:1056F0000BFD0646D7F80831D90305D4FCF704FDA5
:10570000831B022BF6D9E2E723685A0713D54FF023
:10571000B047E268BB6823F4E0631343BB60FCF767
:10572000F3FC0646BB689B0305D4FCF7EDFC831B2A
:10573000022BF7D9CBE72368180714D54FF0B047F1
:105740002269BB6823F4605343EAC203BB60FCF7E1
:10575000DBFC0646BB68590305D4FCF7D5FC831B6C
:10576000022BF7D9B3E72368DA070FD4294C236853
:1057700003F00703AB4239D8FFF7C8FC264B18608B
:10578000264BBDE8F0411868FDF762BF6268022A47
:105790001DD1FFF7C7FB00283FF467AF4FF0B046BD
:1057A00041F28838B36823F003031343B360FCF776
:1057B000ABFC0746B368626803F00C03B3EB820FDF
:1057C000D4D0FCF7A1FCC01B4045F3D97FE7032AE6
:1057D00002D1FFF7BCFBDEE712B9FFF7A9FBDAE75E
:1057E0004FF0B0431B685B05D8D43EE7236823F035
:1057F00007032B432360FCF787FC0646236803F06E
:105800000703AB42B8D0FCF77FFC801B0228F5D918
:105810005DE700BF00400058140000201C0000207D
:1058200008B5FFF773FC4FF0B043044A9B68C3F31D
:10583000022352F82330D84008BD00BF0CB3000843
:1058400008B5FFF763FC4FF0B043044A9B68C3F30D
:10585000C22352F82330D84008BD00BF0CB3000863
:105860004FF0B043D3F89000C0F3400070474FF0C2
:10587000B0410209D1F8883002F47F22000123EA06
:10588000020300F47F200343C1F8883070474FF0D3
:10589000B041020CD1F88830120423EA020343EA33
:1058A0000040C1F8880070470368DA0370B5044609
:1058B00039D5FFF7C3FAFCF727FC614E054633687C
:1058C000DB0532D54FF0B043616BD3F8902002F482
:1058D000407291421DD0D3F89010D3F8902042F43A
:1058E0008032C3F89020D3F8902021F4407022F445
:1058F00080328D07C3F89020C3F8900009D5FCF7DB
:1059000003FC41F288360546FFF7AAFF012840F064
:1059100090804FF0B042616BD2F8903023F4407326
:105920000B43C2F89030002605E0FCF7EDFB401B6E
:105930000228C4D903262568E8070AD54FF0B041EC
:105940006268D1F8883023EA124392B21343C1F857
:105950008830A9070AD54FF0B041A268D1F8883045
:1059600023EA124392B21343C1F88830AA0609D53C
:105970004FF0B0422169D2F8883023F440630B43E2
:10598000C2F88830AB0502D5206AFFF780FF6805B2
:1059900002D5606AFFF77BFF290502D5A06AFFF7F1
:1059A00076FF6A0602D56069FFF761FF2B0602D514
:1059B000A069FFF75CFFE80502D5E069FFF757FF34
:1059C000E90610D54FF0B042E168D2F8883023F4F0
:1059D00040730B43C2F88830B1F5807F02BFD368B3
:1059E00043F08073D3602A040ED54FF0B042216B90
:1059F000D2F8883023F040430B43C2F8883019B9FD
:105A0000D36843F08073D3606B0410D54FF0B0427D
:105A1000E16AD2F8883023F040530B43B1F1005FC4
:105A2000C2F8883003D1D36843F48033D360304662
:105A300070BDFCF769FB401BB0427FF665AF79E7AC
:105A40000004005830B590F82C30012B02464FF07E
:105A5000020022D0174B82F82D00CA24012582F8BB
:105A60002C505C6253245C62B1F5807F146B9969A1
:105A700014D121F488519961596C24F0010421F06A
:105A8000004159641463DD650A4BFF21596200200F
:105A9000012382F82D3082F82C0030BD21F408510A
:105AA0009961D96C24F0020421F00041D964146397
:105AB000D865E9E70028004070B50B4E036B756DA3
:105AC0001D40EA07044603D50123F365FCF743FCB8
:105AD000AB0704D50223F365204600F0C9F9012382
