:020000040800F2
:1000000000400020711000081109000813090008C1
:100010001509000817090008190900080000000068
:100020000000000000000000000000001B090008A4
:100030001D090008000000001F0900082109000830
:10004000C1100008C110000825090008C1100008EF
:10005000C1100008C1100008C1100008C11000083C
:10006000C1100008C1100008C1100008C11000082C
:10007000C1100008C1100008C110000831090008B3
:10008000C1100008C1100008C1100008C11000080C
:1000900000000000C1100008C1100008C1100008D5
:1000A000C1100008C1100008C1100008C1100008EC
:1000B000C1100008C1100008C1100008C1100008DC
:1000C000C1100008C1100008C1100008C1100008CC
:1000D0003D09000849090008C1100008C1100008C6
:1000E000C1100008C110000855090008C11000081F
:1000F000C11000080000000000000000C11000084E
:10010000C1100008C110000861090008C1100008F2
:10011000C1100008C1100008C1100008C11000087B
:10012000C1100008C1100008C1100008C11000086B
:08013000C1100008C110000815
:1001400010B5054C237833B9044B13B10448AFF311
:1001500000800123237010BD9800002000000000E3
:10016000709E000808B5034B1BB103490348AFF369
:10017000008008BD000000009C000020709E000868
:1001800010F8012B11F8013B012A28BF9A42F7D041
:10019000D01A7047034613F8012B002AFBD1181A16
:1001A000013870470000000000000000000000005F
:1001B00001F0FF01102A2BDB10F0070F08D010F818
:1001C000013B013A8B422DD010F0070F42B3F6D11C
:1001D000F0B441EA012141EA014122F007047FF035
:1001E00000070023F0E80256083C85EA010586EA8C
:1001F000010685FA47F5A3FA87F586FA47F6A5FAC8
:1002000087F68EB9EED1F0BC01F0FF0102F00702D3
:1002100032B110F8013B013A83EA010313B1F8D17E
:100220000020704701387047002D06BF354603385F
:10023000073815F0010F07D1013015F4807F02BF98
:10024000013015F4C03F0130F0BC0138704700BFE9
:1002500053B94AB9002908BF00281CBF4FF0FF312D
:100260004FF0FF3000F06AB9ADF1080C6DE904CE33
:1002700000F006F8DDF804E0DDE9022304B0704781
:100280002DE9F047089D0C46002B4ED194468C4535
:100290008646B2FA82F262D94AB1C2F12003914095
:1002A00020FA03F30CFA02FC194300FA02FE4FEAAB
:1002B0001C471FFA8CF6B1FBF7F44FEA1E4307FB0D
:1002C000141143EA014304FB06F199420AD91CEBDD
:1002D000030304F1FF3080F01281994240F20F8154
:1002E000023C6344591A1FFA8EF3B1FBF7F007FB87
:1002F000101143EA014300FB06F69E420AD91CEBAB
:10030000030300F1FF3180F0FC809E4240F2F9804F
:10031000634402389B1B40EA044000211DB1D340D6
:100320000022C5E90032BDE8F0878B4205D90DB146
:10033000C5E9000100210846F5E7B3FA83F1002979
:1003400046D1A34202D39042C0F0F080861A64EBFB
:1003500003030120002DE6D0C5E90063E3E7002A8E
:1003600040F09080A1EB0C044FEA1C481FFA8CF778
:100370000121B4FBF8F64FEA1E4308FB164443EA9A
:10038000044307FB06F0984208D91CEB030306F16F
:10039000FF3402D2984200F2CD8026461C1A1FFA82
:1003A0008EF3B4FBF8F008FB104443EA044300FB6F
:1003B00007F79F4208D91CEB030300F1FF3402D278
:1003C0009F4200F2B0802046DB1B40EA0640A5E7D2
:1003D000C1F120068B4022FA06F71F4320FA06FCE3
:1003E00004FA01F343EA0C03F44000FA01F8380C74
:1003F0004FEA1349B4FBF0FE1FFA87FC00FB1E44D2
:1004000049EA04440EFB0CF9A14502FA01F20AD9AB
:100410003C190EF1FF3A80F08480A14540F28180C2
:10042000AEF1020E3C44A4EB09041FFA83F9B4FBBD
:10043000F0F300FB134449EA044403FB0CFCA4451D
:1004400007D93C1903F1FF3067D2A44565D9023BB7
:100450003C4443EA0E40A0FB0293A4EB0C049C42F4
:10046000CE469C4651D34ED055B1B8EB0E0364EB4B
:100470000C0404FA06F6CB401E43CC40C5E90064E8
:10048000002150E7C2F1200320FA03F10CFA02FC2C
:1004900024FA03F394400C434FEA1C4800FA02FE8E
:1004A0001FFA8CF7B3FBF8F008FB1031230C43EA7A
:1004B000014300FB07F1994208D91CEB030300F14B
:1004C000FF362CD299422AD9023863445B1AA4B26F
:1004D000B3FBF8F108FB113344EA034401FB07F3D3
:1004E000A34208D91CEB040401F1FF3613D2A34246
:1004F00011D902396444E41A41EA004139E704465B
:10050000F0E6084606E7C845AED2B9EB020E63EB4B
:10051000070C0138A8E73146EDE7034699E7304676
:10052000D4E7D6467FE7634402384DE706462346C4
:1005300008460FE7023E634430E700BF704700BF44
:100540001148124A08B50023C0E900230422426181
:100550000122C0E90233C0E90933C0E90C33036169
:1005600003838376C26180F8203080F82C30836367
:1005700080F83C30C36402F0C7FF18B1BDE8084002
:1005800000F0A2B808BD00BFB40000200024014064
:1005900010B596B004461422002103A808F098FF75
:1005A0003822002108A808F093FF2268184B9A42CD
:1005B0002BD14FF48043089308A84FF08053139336
:1005C00004F0C0FB08B100F07FF84FF0B04303A97E
:1005D0001A6E42F400721A661A6E02F400720292E7
:1005E000029ADA6C42F00102DA64DB6C03F0010378
:1005F0000193019B4FF480620323CDE903234FF065
:1006000090400023059303F041FD16B010BD00BFDC
:10061000002401404FF0B04307B59A6C42F0040249
:100620009A649A6C02F004020192019A9A6C42F068
:1006300001029A649B6C03F00103009300220221E3
:100640000F20009B03F0B0FA0F2003B05DF804EB1D
:1006500003F0DCBA014B186000207047180100203D
:100660004FF0B04382B0DA6C0243DA64DB6C0340D3
:100670000193019B02B0704710B586B0142200218F
:1006800001A808F025FF0220FFF7EAFF0D4C01202A
:10069000FFF7E6FF0420FFF7E3FF4FF48051204609
:1006A000002203F013FE4FF480520123CDE9012311
:1006B00000210323CDE90313204601A903F0E6FC42
:1006C00006B010BD0004004808B5044904484FF4C2
:1006D0007A73362205F080FF72B6FEE7B59E0008F9
:1006E0006402002000B59BB04822002108A808F051
:1006F000EFFE1822002102A808F0EAFE03F0ECFD4C
:100700004FF0B0428121D2F8903023F01803C2F8A4
:100710009030D2F8003423F4C06343F40073C2F87D
:100720000034D2F8003403F4C0630193019B262304
:1007300008934FF48073CDE90B13012310934023EA
:100740000D93B022002308A8CDE91132139303F0D2
:100750003BFF08B1FFF7B8FF4F23CDE90230CDE9E9
:100760000400CDE90600022102A804F0C7F9002820
:10077000F0D11BB05DF804FB08B50B4B4FF00062E5
:100780009A6062B602F074FEFFF7ACFFFFF774FFE9
:1007900000F097FCFFF7D4FE00F098FA0020FFF776
:1007A00059FF00F095FCFCE700ED00E070B5FF2379
:1007B000074D084E01441C46814202D143EA042001
:1007C00070BD10F8012B5A40AB5C6340B45CF3E79A
:1007D000EC9F0008EC9E000800B58DB02C22002193
:1007E00001A808F075FE1748174B03601F238360AC
:1007F0004FF080420023C0E90433C0E9072383613E
:100800004FF48073436204F01FFC08B1FFF75CFFF4
:100810000C4804F045FD08B1FFF756FF4FF00053B8
:1008200000220793074808924FF4807301A90292AF
:1008300006920B9304F068FC08B1FFF745FF0DB07A
:100840005DF804FB1C0100200028004010B50446A0
:1008500090B03822002102A808F03AFE2268194B15
:100860009A422CD14FF48033029302A84FF4807344
:100870000F9304F067FA08B1FFF726FF4FF0B0437B
:100880000220D3F8902042F40042C3F890209A6DE1
:1008900042F480629A659B6D002203F480631146E6
:1008A0000193019B03F080F9022003F0AFF90022CD
:1008B0002A20114603F078F92A2003F0A7F910B096
:1008C00010BD00BF002800407047000008B502F0CE
:1008D000F1FD044B0120C3F88800BDE8084003F097
:1008E00053BD00BF0004005802F0EBBD08B502F094
:1008F000E8FDBDE8084000F07BBB08B502F0DAFD7A
:10090000BDE808400121002003F0EEBC70477047AD
:10091000FEE7FEE7FEE7FEE7FEE770477047704739
:1009200002F0BCBD014804F0E1BC00BF1C01002086
:10093000014803F055BB00BF70010020014805F0DD
:1009400097B800BF64020020014805F091B800BFCD
:10095000D0010020014804F0FDBA00BF1C010020B6
:10096000014804F0ECBE00BF54010020054808B562
:100970000823036004F000FD18B1BDE80840FFF74C
:10098000A3BE08BD540100204FF0B04307B55A6E16
:1009900042F001025A665B6E002203F001030193EC
:1009A00011463220019B03F0FFF8322003B05DF8BE
:1009B00004EB03F02BB900000CB407B5054A05ABF6
:1009C0001021019308F06CFB03B05DF804EB02B05A
:1009D000704700BF04A1000830B585B0044602A8E6
:1009E0000D4608F0EBF9BDF90C30064A00931021D2
:1009F000029B2046FFF7E0FF2046FFF7CBFB288055
:100A000005B030BD04A100084FF0B04210B59368A6
:100A100023F40043936008F0F7F90C4B01241C7099
:100A200000F030F807F082FF094807F099FF022034
:100A300007F09CFF08F094F82146204608F0B0F833
:100A400021462046BDE8104008F094B8600100201F
:100A5000D909000808F0BAB80121022008F08AB8C4
:100A60000021022008F086B8024B187808B100F087
:100A700069B870476001002082B00190019802B00F
:100A800000F0FCB808B502F023FD02F029FDBDE836
:100A9000084002F02DBD00000B4A116810B5034656
:100AA00009B90A491160106809490A4C0344091B35
:100AB0008B4206D908F05CFD0C2303604FF0FF3039
:100AC00010BD1360FCE700BF64010020B00B0020E4
:100AD0000040002000080000014B1868704700BF6C
:100AE000680100200320704708B501464FF47A7270
:100AF00000238002890DFFF7ABFB08BD4FF47A732A
:100B0000A0FB0303800A40EA83507047034B9868B8
:100B10009A689042FBD1C043704700BF0028004054
:100B200008B5FFF7F3FF014B186008BD680100200E
:100B300008B5FFF7EBFF024B1B68C01A08BD00BFEA
:100B400068010020024B187808B1FFF7DFBF70473B
:100B50006C01002010B5074B074C0122DA654FF4F9
:100B60008071204604F0BCF94FF0FF33236300206E
:100B700010BD00BF002800401C01002002460021DB
:100B8000014804F0C4BB00BF1C0100200246012143
:100B9000014804F0BCBB00BF1C01002010B58CB0A4
:100BA0002C220021044601A808F092FCFFF7D2FF96
:100BB0000C4B0D481B681C440023089306934FF010
:100BC0000053E443079301224FF4807301A9029478
:100BD0000B9304F099FA08B1FFF776FD00200CB0F2
:100BE00010BD00BF680100201C01002038B505467B
:100BF000FFF78CFF02210446074804F08FFBC4F383
:100C000009024FF47A71A2FB0121920AA30A2A80F9
:100C100043EA805038BD00BF1C010020014800217C
:100C200004F07CBB1C0100200148012104F076BBCC
:100C30001C010020F8B50F4D2E78CEB90E4C4FF0A8
:100C4000FF372763FFF7C8FDFFF784FF4FF480717C
:100C5000204604F045F92046276304F003FB3246A2
:100C60002046022104F053FBFFF75AFF01232B70AB
:100C70000020F8BD6C0100201C010020014610B5C9
:100C80004FF47A7200238002890DFFF7E1FA0146E2
:100C9000FFF73CFF0446FFF739FF031B8B4200D3ED
:100CA00010BD00BFF7E708F0B7B9000010B5064C5B
:100CB0000221204604F032FB0221421C2046BDE8FE
:100CC000104004F024BB00BF1C0100201648174A46
:100CD00008B54FF4E133C0E9002300230C22C0E93A
:100CE0000233C0E90523C0E90733C0E909330361D2
:100CF00005F0F9FC08B1FFF7E7FC0B48002105F00F
:100D000085FE08B1FFF7E0FC0748002105F09EFED4
:100D100008B1FFF7D9FC044805F05DFE18B1BDE845
:100D20000840FFF7D1BC08BD640200200038014034
:100D30001648174A08B54FF4E133C0E900230023F1
:100D40000C22C0E90233C0E90523C0E90733C0E93A
:100D50000933036105F0C7FC08B1FFF7B5FC0B4888
:100D6000002105F053FE08B1FFF7AEFC0748002153
:100D700005F06CFE08B1FFF7A7FC044805F00BFE78
:100D800018B1BDE80840FFF79FBC08BDD0010020A6
:100D90000044004070B5142298B0064600210DEBC7
:100DA000020008F095FB382200210AA808F090FB09
:100DB0003368434A934235D101254FF440330AA8A2
:100DC000CDE90A5303F0BEFF08B1FFF77DFC4FF0F9
:100DD000B043C0241A6E3B4842F480421A661A6E31
:100DE00002F480420292029ADA6C42F00202DA6461
:100DF000DB6C03F002030193019B0223CDE9054361
:100E000005A9002407230993CDE9074403F03EF91F
:100E100024202246214602F0C7FE242002F0F6FEDE
:100E200018B070BD284A9342FAD102230A930AA847
:100E30004FF440230C9303F085FF08B1FFF744FC07
:100E40004FF0B04300259A6D204C42F400329A6571
:100E50009A6D02F400320492049ADA6C42F00102B4
:100E6000DA64DB6C03F001030393039B0C2202237F
:100E7000CDE905230323CDE9075305A907234FF047
:100E80009040099303F002F9114925621423C4E943
:100E900000131023C4E9023520468023C4E9043539
:100EA000C4E9065502F026FF08B1FFF70DFC252026
:100EB000F46700220221A66202F076FE2520ADE74B
:100EC0000038014000040048004400407001002048
:100ED000580002400368144A934210B504460ED1EC
:100EE0004FF0B0421148136E23F480431366C021C3
:100EF00003F078F92420BDE8104002F095BE0C4ABA
:100F000093420FD14FF0B0420C21936D23F4003384
:100F100093654FF0904003F065F9E06F02F05CFFDD
:100F20002520E8E710BD00BF00380140000400485C
:100F30000044004008B50A460146024804F0FEFCA1
:100F4000002008BDD001002013B5114B114C1860D2
:100F50004FF40013009302AB13E90600204605F09E
:100F6000BEFC2368DA69D103FCD4DA695202FCD5ED
:100F70009A68084842F480029A6005F0F6FC064937
:100F80000448012205F064FC002002B010BD00BF3F
:100F9000F8020020D00100200003002008B5074B14
:100FA0001860FFF737FBFFF7C3FE054AD2F8803021
:100FB00043F00063C2F88030002008BDFC0200202E
:100FC0000008005808B54FF0B04308489A6B42F447
:100FD00000329A639A6B22F400329A63FFF77AFF29
:100FE0000F2002F021FE002008BD00BFD00100202C
:100FF00008B5074805F077FB08B1FFF765FB054822
:1010000002F078FE18B1BDE80840FFF75DBB08BDEF
:10101000D0010020700100200268044B9A4203D1E5
:10102000034B00201B681847704700BF0044004076
:10103000FC02002002680B4B9A4210B504460FD107
:10104000094B1B682BB1D0F8902012B90748012139
:10105000984720460549BDE81040012205F0F8BB3D
:1010600010BD00BF00440040F80200200003002033
:101070000D48854602F0D5F90C480D490D4A00236C
:1010800002E0D458C4500433C4188C42F9D30A4A3D
:101090000A4C002301E013600432A242FBD308F0A3
:1010A0006DFAFFF769FBFEE700400020000000201A
:1010B0009800002068BA000898000020B00B0020BB
:1010C000FEE708B5FFF7A0FCBDE8084001F088BFC7
:1010D00008B502F0A5F8BDE808404FF0FF3007F072
:1010E000D9BD4FF0B04382B0DA6C0243DA64DB6CF6
:1010F00003400193019B02B070470000C31F012B06
:1011000006D9044A012303FA00F01368184310605B
:10111000704700BF140400202DE9F042264B274EF3
:101120001A78274B274F1B7803EBC203264A52F845
:101130002300264B1860264B1B78C3F10C038AB0A2
:101140003B70F3689847002401254FF0080947F2E7
:101150003053CDE90743CDE90544CDE90345CDE959
:1011600001593B78D6F81CC00093224623462846F6
:101170000E21E0470523CDE90845CDE90644CDE938
:101180000445CDE90193039400943A782B46214617
:101190002846B469A047736D2846DE219847746CD1
:1011A00054214FF4E860A047A42140F24170234647
:1011B0000AB0BDE8F04218472D00002084B70008AF
:1011C0004E0500202400002088B5000828000020DB
:1011D0002C0000207047F0B500241470013825461B
:1011E00010F8016F171916B900233B70F0BD2C2EB3
:1011F00003D18D42F8D00135F2E78D42F0D103F1F1
:10120000FF3CA44584BF01343E70E9E700B5114BB3
:10121000D3F88025D3F8843589B0D1B20791C2F3D1
:1012200007210691C2F30741120E0492DAB203922B
:10123000C3F307220292C3F3074201921B0E00225E
:10124000059100931146044B022007F0D9FB09B029
:101250005DF804FB0070FF1F60A10008064A1178CA
:10126000012339B100211170044A137000210120BB
:1012700007F0D8BC024AF8E74603002045030020E7
:101280001804002038B5094C0546204607F024FE16
:10129000074B1D70074B01222046C8211A7007F02A
:1012A000A3FE2046BDE8384007F064BE1C040020C1
:1012B0004403002046030020022810B50BD0032869
:1012C00017D001282DD1002217484FF4806102F079
:1012D000FDFF012206E0002213484FF4806102F076
:1012E000F5FF002210484FF4005102F0EFFF0122F9
:1012F0000CE00D4800224FF4806102F0E7FF00226D
:1013000009484FF4005102F0E1FF00224FF09040F5
:101310004FF4007102F0DAFFBDE810403220FFF711
:10132000ABBB0122D0E700BF0004004810B5114C50
:10133000012220464FF4806102F0C8FF20460122BE
:101340004FF4005102F0C2FF01224FF400714FF040
:10135000904002F0BBFF00221146074B022007F02D
:101360004FFB0022BDE81040044B1146022007F05D
:1013700047BB00BF0004004897A10008A4A10008D3
:1013800010B50C4C0C4AA52323705A2363704A23D2
:10139000A3704923E3704723237113786371591CA9
:1013A000117020460621FFF701FAA071000AE071D2
:1013B00010BD00BF3E0500204C0500200C2910B5D3
:1013C00016D10278A52A13D142785A2A10D18278F0
:1013D000442A0DD1C278552A0AD10279542A07D15C
:1013E0000A214489FFF7E2F9031B5842584110BD16
:1013F0000020FCE70FB400B5ABB02CABA02153F834
:10140000042B019302A808F055F8002809DB9F2857
:10141000A8BF9F2082B24FF47A73044802A905F056
:10142000DBF82BB05DF804EB04B0704764020020D9
:10143000013810B50C460A2861D8DFE800F0060E26
:101440001A241F292E303C4146002D48FFF7D2FFB9
:101450000020BDE81040FFF751BE2A48FFF7CAFF41
:1014600029482146FFF7C6FF0120FFF747FE02206B
:10147000EFE72648FFF7BEFF0320EAE72448FFF71F
:10148000B9FF0520E5E72348FFF7B4FF0620E0E7B2
:101490002148BDE81040FFF7ADBF2048F9E72048DC
:1014A000FFF7A8FF1F482146FFF7A4FF0920FFF719
:1014B00025FE0A20CDE71C48FFF79CFF1020C8E757
:1014C0001A48FFF797FF0B20C3E71948FFF792FF71
:1014D00018482146FFF78EFF17482146FFF78AFF7D
:1014E00016482146FFF786FF0C20FFF707FE0D2068
:1014F000FFF704FE0E20FFF701FE0F20A9E710BD45
:10150000ADA10008BEA10008CFA10008E0A100081D
:10151000F1A1000802A2000813A2000824A20008FA
:1015200035A2000846A2000858A200086AA20008D6
:101530007CA200088EA20008A0A20008B2A20008A7
:1015400013B5114B114C002A18BF1C46104B5B5CA5
:1015500093B1104B53F8213000944FF47A71B3FBE0
:10156000F1F201FB12330A21B3FBF1F301460A4801
:10157000FFF740FF02B010BD01460848224602B006
:10158000BDE81040FFF736BFD0A50008C4A2000890
:101590005803002060030020C6A20008DCA2000857
:1015A0007FB500210220CDE90411FFF79AFD10223A
:1015B00003230391044801A9CDE9012302F066FD4C
:1015C00007B05DF804FB00BF0004004838B5104CBC
:1015D000236808221A6202221A6204221A62012275
:1015E0001A629A6942F008029A610A4B002529465C
:1015F00080221846C4F8905007F06AFF064A014658
:10160000158020467F22BDE8384005F03FBA00BF74
:10161000D0010020BE040020BC04002038B5104CCE
:10162000236808221A6202221A6204221A62012224
:101630001A629A6942F008029A610A4B002529460B
:1016400080221846C4F8905007F042FF064A01462F
:10165000158020467F22BDE8384005F017BA00BF4C
:10166000640200203A0400203804002037B5124CF0
:10167000124D2378032B12D104232370FFF7F4F9C2
:101680000F4A034610680F4A034413600E4B0022B2
:101690001A706B6B019303B0BDE830401847EB6ADA
:1016A00098470022094B22701146022003B0BDE882
:1016B000304007F0A5B900BF4D05002084B70008F1
:1016C000200000204805002046050020EFA2000869
:1016D000914213B504460BDA00920A4601460848C7
:1016E000FFF788FE204602B0BDE81040FFF706BDB8
:1016F0000A460146034802B0BDE81040FFF77ABE33
:10170000F8A200081AA30008F0B5154685B000221B
:10171000CDE90222234B0A602B604FF0B0430190C9
:101720000E46196E204F41F400711966196E01F4CE
:10173000007100910099196C41F400711964196CE1
:1017400021F400711964BA65FEF7FAFEFFF728FF6D
:10175000164B2B6001A9384602F034F818B100246A
:10176000204605B0F0BD124B2B60384602F08AF9D6
:1017700004460028F3D10F4B2B606421384601F05A
:10178000C3FF58B9384602F019F840F6E44358430D
:10179000012440F6FF73B0FBF3F03060024802F022
:1017A000D3F9DDE72AA30008B40000202EA3000827
:1017B00032A3000838A30008564BF0B5441E187039
:1017C000E3B20A2B96BF544A544952F823105448A6
:1017D00087B0FFF70FFE0A2C00F29A80DFE804F0D2
:1017E0000612191B2072777C9881830000224D4BD2
:1017F0001146022007F004F94B4807B0BDE8F0405D
:1018000007F06ABB494B00221146022007F0F8F8A6
:1018100025E0474BF7E70120FFF74EFD454BF2E788
:101820000020FFF749FD0022424B434F11460220A2
:1018300007F0E6F82820FFF71FF9FFF715F9002554
:1018400006462C46FFF710F9831BB3F52F7F14D300
:101850003A4E0127F5B93A48FFF7CCFD37703248C8
:1018600007F03AFB40F6B8312F4807F0BDFB2E4891
:1018700007B0BDE8F04007F07DBB05AA04A93846D3
:10188000FFF742FF0028DDD0049B9C4238BF1C4676
:101890000125D7E72B4B35781C602B4B2B481F704D
:1018A0004FF47A730A21B4FBF3F203FB1243B3FB48
:1018B000F1F327490094002D18BF01462548FFF792
:1018C00099FDCCE70220FFF7F7FC234B9BE70320B1
:1018D000FFF7F2FC214B96E70020FFF7EDFC204BD1
:1018E00091E7204B8FE7104807F0F6FA1E4B40F6C1
:1018F000B8321A60FFF744FD1C4B1D4803221A70D2
:101900001C4B9B6A0393082107B0BDE8F0401847C1
:1019100007B0F0BD3404002044B500083DA3000822
:101920004AA3000859A300081C04002063A3000870
:101930006AA3000876A30008400000188003002076
:1019400082A30008940300209003002042A3000813
:1019500047A30008A8A30008CFA30008DCA3000841
:10196000E9A30008F1A30008200000204D05002095
:101970003E05002084B70008F0B585B0B74803AA3B
:1019800002A9FFF7C1FE002840F00082B44BB54821
:101990009A684FF0B041D1F88830096800910399F6
:1019A000FFF728FD1020FFF7A9FBAF48AF4CB04E62
:1019B000B04DFFF71FFDB04BB04A1978B048002971
:1019C0000CBF11461946FFF715FDAE4BAE4819780E
:1019D00000290CBF21461946FFF70CFDAB4BAC4864
:1019E000197800290CBF21461946FFF703FDA948C5
:1019F000A94CFFF7FFFC3368A84813F0200F0CBF79
:101A000029462146FFF7F6FCA548FFF7F3FCA54859
:101A1000FFF7F0FCA448FFF7EDFCA448FFF7EAFC51
:101A2000A34B1B78002B40F0DB81A24B1B78002BD3
:101A300014BF29462146A0488E4F974C9F4DFFF773
:101A4000D9FC95499E48FFF7D5FC9E48FFF7D2FC8C
:101A500073889D4813F0010F0CBF39462146FFF7EC
:101A6000C9FC2B78002B00F0BD81336813F4704F54
:101A700014BF214639469548954CFFF7BBFC954865
:101A8000FFF7B8FC9248FEF785FB00221346984208
:101A900000F2AA81012840F2B1818D490B787B2B9D
:101AA00040F0AC81084410F8013C7D2B40F0A68149
:101AB000D30700F1A3818848FFF79CFC8748FFF714
:101AC00099FC002211468648FFF73AFD854800221E
:101AD0000121FFF735FD844800220221FFF730FD88
:101AE000012203218148FFF72BFD7A48FFF782FC92
:101AF0007F48FFF77FFC7F4800220421FFF720FD8D
:101B00007D4800220521FFF71BFD7C4800220621AD
:101B1000FFF716FD012207217948FFF711FD6D48F7
:101B2000FFF768FC7748FFF765FC774B1B78002BC5
:101B300000F06881754B76481A686423B2FBF3F1B4
:101B400003FB1122FFF756FC6248FFF753FC714874
:101B5000FFF750FC704B1B78002B00F057816F4B48
:101B60006F481A684FF47A73B2FBF3F103FB11224A
:101B70000A23B2FBF3F2FFF73DFC6A4B1B78002B04
:101B800000F04881684B69481A684FF47A73B2FBD9
:101B9000F3F103FB11220A23B2FBF3F2FFF72AFC55
:101BA0004C48FFF727FC6248FFF724FC414B1B78A9
:101BB000002B00F033815F4B5F481A684FF47A7353
:101BC000B2FBF3F103FB11220A23B2FBF3F2FFF79E
:101BD00011FC4048FFF70EFC5848FFF70BFC584B30
:101BE0001B78002B00F01E81564B57481A684FF4A3
:101BF0007A73B2FBF3F103FB11220A23B2FBF3F277
:101C0000FFF7F8FB3348FFF7F5FB5048FFF7F2FB0F
:101C10002B78002B00F00A814D48FFF7EBFB4D4B72
:101C20004D48B3F90010FFF7E5FB4C4B4C4893F9D6
:101C30000010FFF7DFFB4B48FFF7DCFB4A48FFF7DC
:101C4000D9FB4A4B4448B3F90010FFF7D3FB484B8C
:101C5000434893F90010FFF7CDFB8BE00800000C20
:101C60000024014007A400087BA40008D0A50008B8
:101C70001404002047A300082C03002000000020CB
:101C800086A40008140300209AA40008FC03002086
:101C9000ADA40008C6A4000842A30008D9A4000807
:101CA000ECA4000803A500081FA5000839A500083A
:101CB000800300209003002053A500084803002063
:101CC0006CA5000883A500089BA50008BBA500081B
:101CD0009C03002026A80008D1A50008FFA5000845
:101CE0001EA6000829A6000834A6000840A6000881
:101CF0004CA600086BA6000877A6000883A600087B
:101D00008FA600089BA60008510300205403002062
:101D1000B1A60008E2A60008880300208C0300207A
:101D2000FAA60008810300208403002027A70008EA
:101D300054A70008940300206EA7000897A7000886
:101D40005003002098030020B0A70008DFA7000878
:101D5000F0A700084E030020FEA700084C03002057
:101D600012A8000824A800082DA800084A03002093
:101D7000490300203048FFF73DFB3048FFF73AFBAE
:101D80002F4805B0BDE8F040FFF734BB029C4FF48C
:101D90007A726FF496600A232018B4FBF2F102FB0A
:101DA0001142B2FBF3F240F23E63984213D9254848
:101DB000254BB4F5966F88BF03460093234823460E
:101DC000FFF718FB1020FFF799F9214B1C60214BFE
:101DD00001221A70E9E520482346FFF70BFBF4E7E0
:101DE000214628E6214646E6E15C222902D101325D
:101DF00001334CE65C2908BF0133F9E71748FFF7C8
:101E0000F9FA5BE61648FFF7F5FA9DE61548FFF785
:101E1000F1FAB2E61448FFF7EDFAC1E61348FFF70E
:101E2000E9FAD6E61248FFF7E5FAEBE61148FFF7C4
:101E3000E1FA11489FE700BF3BA800083DA8000851
:101E40003FA8000802A40008FEA300083EA4000862
:101E500098030020500300205FA40008E7A50008B5
:101E6000CBA6000812A700083FA7000884A7000817
:101E7000C9A7000843A8000855A8000870B5054682
:101E8000FFF754FA1B4807F027F81B4B00241C707F
:101E90001A4B1C701A4B1C701A4B1C701A4BDB6AC5
:101EA00098471A4B0C201C70FFF728F90D20FFF7FC
:101EB00025F90E20FFF722F90F20FFF71FF9294619
:101EC0001348FFF797FA29461248FFF793FA294675
:101ED0001148FFF78FFA29461048FFF78BFAFFF7F2
:101EE0004BFD224621460E4BBDE87040022006F015
:101EF00087BD00BF1C04002034040020180400200B
:101F0000460300204503002084B700084D0500204B
:101F10007CA200088EA20008A0A20008B2A20008BD
:101F200066A8000808B50A4BDB6A9847094B0022EF
:101F30001A701146084B022006F062FD074B1B7811
:101F40000B2B04D1BDE808400548FFF797BF08BD3B
:101F500084B700084D05002072A800083404002052
:101F60007CA800082DE9F047A64D2B7896B043B128
:101F700000232B70A44B1B781BB1A44B1878FFF7E0
:101F80001BFCA34E33780BB39F4B002434701A789C
:101F9000E2B11B789F49D8B2013BDBB2092B9CBF51
:101FA0009D4AD45CFFF744FA9C4A1378FF2B07D074
:101FB0000133DBB2032B137002D19948FFF71AFAF1
:101FC000002C40F0E1809748FFF758FF964B1A78B5
:101FD000002A00F0AF8000221A70944B944C1B88AA
:101FE00094489BB27F2B28BF7F231919E254002B02
:101FF00000F09E8011F8012D0A3AD2B2162A05D8B7
:1020000040FA02F212F0010200F0C2808A498848C8
:10201000FEF7B6F8002840F0BF80DFF8EC91DFF85B
:102020001C8299F80030864F13B998F8003073B3CA
:102030008448FFF7DFF9844801224FF4806102F001
:1020400045F9814801224FF4005102F03FF9012285
:102050004FF400714FF0904002F038F90022114621
:102060007A4B022006F0CCFC0024794806F034FFBD
:1020700089F80040DFF8DC913470D9F830303C70DA
:102080002C709847D9F82C30984788F80040724B4C
:10209000724A734800241C70724B34701C704FF0ED
:1020A000FF331360704A3C701360704A2C701360E9
:1020B0006F4A1360594B1C706E4B1C706E4B1C604A
:1020C0006E4B1C706E4B1C706E4B1C606E4B1C700C
:1020D0006E4B1C606E4B1C706E4B1C706E4B1C600C
:1020E0006E4B1C706E4B1C606E4B202221461C7088
:1020F00007F0EEF96C4B6D491C605C606C4B6D48F1
:102100001C606D4B1C706D4B1C806D4B1C706D4BBF
:102110001C806D4B1C706D4B1C7007F055FA2046EF
:10212000FFF7CAF86A48FFF765F90120FFF744FB9B
:10213000FFF774FA674A1378002B00F02E8500230E
:102140001370654A654F14883A49A4B27F2C28BFA2
:102150007F24E2193B555CB112F8013D0A3BDBB22A
:10216000162B05D841FA03F313F0010300F0EC80BD
:10217000DFF8948098F80030002B00F07E83574CF5
:10218000DFF8BC90002701E12046FFF77BF81DE750
:10219000013B9BB2E2542AE751492548072207F048
:1021A000ACF9002840F0AE804E494F48FDF7E8FFFB
:1021B000044698B14D494C48FDF7E2FF68B14C49DF
:1021C0004948FDF7DDFFC0B14A494748FDF7D8FF50
:1021D000A8B14948FFF70EF9AAE701242046013CBF
:1021E000E4B2FFF769F8022C96BF444B3D4953F81F
:1021F00024104348FFF7FEF89AE70224EEE7032491
:10220000ECE700BF45030020340400204403002015
:102210001804002090A8000870B5000847030020AB
:1022200099A80008F5A8000836040020380400200A
:102230003A040020F6FFBFFFF7AC00084D05002070
:1022400046030020FDA800080004004897A10008EC
:102250001C04002084B700082C0300201003002079
:1022600060030020140300200C030020080300205A
:10227000040300200203002014040020FC030020BB
:102280009C030020980300205003002094030020AA
:1022900090030020800300208C030020880300208E
:1022A00084030020810300205803002088A8000830
:1022B0005403002000000020510300204E030020A2
:1022C0004C0300204A03002049030020480300205B
:1022D00039A90008BA040020BC040020BE04002074
:1022E00046A9000882A80008410400204EA9000861
:1022F00054A900085AA9000861A900087CB5000883
:102300008EA9000897499848FDF73AFF074698B903
:102310009648974C06F0E0FD964B1F70FFF706F8C5
:10232000954B37701F70236B2F709847E36A98475F
:10233000924B93481F704DE70022924B0094114638
:10234000022006F05DFBF3E6013CA4B23B5502E738
:1023500000F8017D35E08C490622204607F0CDF8D3
:1023600098B98A48FFF746F80220FEF78BFF0CE089
:1023700087490622204607F0C0F800284ED1854A3A
:102380008548A31D182107F035F834462378002B23
:1023900000F018832246134612F8011B29B10D29BB
:1023A00001D00A29F7D103F8017B1A780D2A1E46BD
:1023B00003F10103F9D00A2AF7D02046FDF7EAFE1F
:1023C0002044844203D010F8013C202BC0D0237855
:1023D000002BDAD099F8003003F0FF02002BD4D1A3
:1023E0006E4B1A7098F80030013B092BCDD801A232
:1023F00052F823F0572300087123000863240008D3
:1024000097240008E52400083B2500086D260008F5
:10241000272700088B23000845280008604906226A
:10242000204607F06AF80028AFD15A4A5D48A31D3C
:10243000182106F0DFFF5B4B564A5B48202106F06F
:10244000D9FF554B594A1978594800290CBF1146F4
:102450001946FEF7CFFF57485249FEF7CBFF03203E
:1024600083E755490822204607F047F800288CD119
:102470000CAA2823022104F10800FEF7ACFE114645
:102480004E48FEF7B7FF434A4D480CAB182106F003
:10249000B1FF052069E74B490B22204607F02DF8D4
:1024A00000287FF472AF4849204607F04BF820B966
:1024B0004649204607F046F870B1454B1B7823B1DA
:1024C0004448FEF797FF06204FE74348FEF792FF88
:1024D0000620FEF713FEF6E7404804F10B01FEF775
:1024E00089FFF5E737490B22204607F006F8002858
:1024F0007FF44BAF04F10B056021264A38482B4688
:1025000006F078FF3049204607F01CF820B92F4923
:10251000204607F017F840B132482946FEF76AFF17
:102520000520FEF7EBFD04201FE72F482946FEF7A4
:1025300061FF274B01221A70F5E72C49072220463C
:1025400006F0DBFF00287FF420AF20461E4906F08E
:10255000F9FF073400284DD025482146FEF74AFFF1
:10256000072002E799A900083A0400201C04002073
:1025700084B7000834040020460300204D050020E5
:10258000A2A90008AEA90008B2A90008B9A90008CC
:10259000D3A90008DAA9000814030020470300208B
:1025A000DDA900082C0300200000002088A80008F6
:1025B000E4A90008F3A9000802AA00080BAA000871
:1025C000FC0300201AAA000826AA00082CAA00086A
:1025D0000203002032AA00084CAA00088AAA0008B8
:1025E0009C030020F1A10008BBAA0008CAAA0008A9
:1025F00013A2000810230DEB030220460121FEF771
:10260000EAFD102308AA02212046FEF7E4FD04A8F3
:1026100006F068FE824608A806F064FE0CAA05468D
:10262000102303212046FEF7D6FD104606F05AFE81
:10263000AE4B4FF47A7418609AFBF4F195FBF4F307
:1026400004FB11A00A2204FB135494FBF2F490FB48
:10265000F2F20094A648FEF7CDFEA649A64BC1F8BB
:1026600008A001229A70CD60DA7079E7A3490722A9
:10267000204606F042FF00287FF487AE2046A0499E
:1026800006F060FF073428B19E482146FEF7B2FEEF
:1026900008206AE610230DEB030201212046FEF715
:1026A0009AFD102308AA02212046FEF794FD04A8F3
:1026B00006F018FE824608A806F014FE0CAA1023A5
:1026C000032105462046FEF786FD104606F00AFE69
:1026D000864B1A689042CCBF831A131A002A01460F
:1026E0000DDB132B0BDC8848FEF784FE8149824BFF
:1026F000C1F818A001229A71CD61DA71C8E74FF4D0
:102700007A740A229AFBF4F195FBF4F304FB11A00E
:1027100004FB135494FBF2F490FBF2F200947B4818
:10272000FEF768FEE2E77A490522204606F0E5FE5C
:10273000002853D1651D77490522284606F0DDFEA5
:1027400010B9754B186008E074490522284606F058
:10275000D4FE38BB704B01221A6071490822204612
:1027600006F0CBFE00287FF410AE2C2104F1080007
:1027700006F0B6FE38B16B4C2368002B03DA01304B
:1027800006F0B0FD2060644B1968002904DB664B3D
:102790001B68013B072B38D964490820FEF748FE27
:1027A0000A20E2E562490522284606F0A6FE10B995
:1027B000594B0222D0E75F490522284606F09DFECC
:1027C00010B9554B0322C7E75B490522284606F09E
:1027D00094FE0028C1D1504B0422BDE75749032283
:1027E000204606F08AFE20B9E01C06F07BFD4D4B2A
:1027F000A8E753490322204606F07FFE0028ACD10B
:10280000E01C06F06FFD484B9CE7464A106805281F
:1028100084BF052010604B48126801704A490B7054
:102820004A4B1A70FEF778FC494BDB6A9847494BD4
:1028300049481968FEF7DEFD484B49481978FEF70C
:10284000D9FDADE747491022204606F056FE20B9D3
:102850004548FEF7CFFD0B2087E544490722204677
:1028600006F04BFE00287FF490AD41490A20FEF7A8
:10287000DFFD4048FFF702FB87E504223E493F4861
:1028800006F03BFE0246002840F0A1803C4B1B783E
:102890002BB13C4B1146022006F0B2F892E03A48C8
:1028A00006F020FD2C210646374806F019FEC0B17F
:1028B000451C284606F016FD2C210446284606F045
:1028C0000FFE002864D0013006F00CFD0346042EF4
:1028D00004D8013C072C01D8052B5CD92B4B0022D6
:1028E000D8E74FF0FF331C46F1E700BF0403002098
:1028F000D2AA00086003002058030020CAAA0008DA
:1029000026AA000824A20008FEAA00084BAB000873
:1029100079AB00087FAB00081003002085AB0008EE
:10292000A5AB0008080300200C030020AEAB000894
:102930008BAB000891AB000897AB00089DAB00087B
:10294000A1AB00082D0000204E0500202C00002027
:1029500084B7000828000020BFAB00082400002036
:10296000CFAB0008E1AB0008F2AB0008FFAB0008FA
:1029700007AC00080FAC000815AC0008BE0400202E
:102980004D0500201AAC0008C204002024AC000849
:102990004FF0FF339BE7824A1670824A1470824AD6
:1029A0001370FEF7B9FB814BDB6A9847804B1B78AD
:1029B0000193804B00221B68009311467E4B02203E
:1029C00006F01EF816B0BDE8F047FEF7FFBD032283
:1029D0007A497B4806F091FD024600BB794E337878
:1029E00003F0FF050BB1784B54E7784806F07AFC0A
:1029F0004EF6FC13A0F164029A42044602D9744BCD
:102A00002A4647E7012333702A46724B29460220A3
:102A100005F0F6FF654B20465B6B9847D2E76E49A1
:102A20006748FDF7ADFB0246A8B9664C237803F072
:102A3000FF050BB1694B2DE7FEF7A2FC0220684BA6
:102A400020702A46294605F0DBFF584B65489B6AF3
:102A500008219847B6E764495948032206F04DFD1E
:102A60008146B8B9614B594918461F2206F057FDF7
:102A70005F21034680F81F9013F8012B0AB95C4BC5
:102A800008E72C2A03D00D2A01D00A2AF4D103F832
:102A9000011CF1E707225749494806F02EFD02467E
:102AA000E0B9FB79303B092B8CD8464C237803F0F6
:102AB000FF050BB1504BEDE6504806F013FC4EF607
:102AC000FC13A0F164029A4201D94D4B98E74D4B9B
:102AD0001860FEF755FC03232370B6E74A493848CF
:102AE000042206F00AFD20B948494948FEF782FC55
:102AF00068E748493248FDF743FB0746C8B92B4C05
:102B0000236B9847E36A98472E4B1F7098F8003064
:102B10006BB1FEF70BFC404806F0DEF93F4B404836
:102B200088F8007037701F702F70FEF763FC3D4B04
:102B3000D5E63D492248FDF723FB024660B9012353
:102B40000521CDE9003102900146384B022005F005
:102B500057FFFEF75BFB35E735491948FDF710FBDA
:102B600008B9344BBBE634491548FDF709FB02466A
:102B700070B90F49134B09781B7802910D49096808
:102B8000CDE9003101462D4B022005F039FF19E750
:102B9000002C3FF417AF0A49A7E716B0BDE8F0874D
:102BA0002D0000204E0500202C00002084B70008D6
:102BB00024000020280000202FAC00083FAC0008B3
:102BC000BE0400204D05002043AC0008C1040020D5
:102BD0004CAC000856AC000864AC000867AC0008B8
:102BE00070AC00083E050020D6A9000800000020B7
:102BF0007CAC0008FFAB000883AC0008C5040020D3
:102C000090AC000820000020CDAA0008C2040020DB
:102C100054A300089CA900081C04002046030020BF
:102C20009EAC0008B7AC0008C1AC0008C5AC0008F9
:102C3000D4AC0008D9AC0008DFAC0008E5AC000853
:102C400070B51D4C1D4B2278DB6A042A28D19847A9
:102C50001B4B002525701D70FEF768FB1948FEF719
:102C6000C9FB1948FEF7C6FB1848FEF7C3FB184816
:102C7000FEF7C0FB0C20FEF741FA0D20FEF73EFAEE
:102C80000E20FEF73BFA0F20FEF738FAFEF774FE2F
:102C9000104B2A46BDE870401146022005F0B0BE38
:102CA0002278012A02D0BDE87040184798470022D8
:102CB000094B2270EEE700BF4D05002084B70008E5
:102CC0003404002000AD000818AD000830AD000845
:102CD00048AD000860AD00086DAD000810B5204C8F
:102CE000204B2278DB6A042A2FD198471E4A002302
:102CF00023701370FEF71AFB1C4B197809B31C489C
:102D0000FEF778FB1B48FEF775FB1B48FEF772FBCE
:102D10001A48FEF76FFB0C20FEF7F0F90D20FEF7C6
:102D2000EDF90E20FEF7EAF90F20FEF7E7F9FEF7BE
:102D300023FE134B0022BDE810401146022005F08F
:102D40005FBE1048FEF756FBDCE72278012A02D06E
:102D5000BDE810401847984700220B4B2270EAE765
:102D60004D05002084B700083404002046050020EB
:102D70007AAD0008C4AD0008DBAD0008F2AD000874
:102D800060AD0008ADAD000809AE00082DE9F047C0
:102D9000DFF8F4A198469AF80030042B88B0044676
:102DA0000E46174640F0BD80FEF708FB054680BB87
:102DB000FDF75AFE754B764A1B68834288BF1D1A81
:102DC0001378962D03F10103137022D9DFF8C4A103
:102DD00004EB060904F1060800274C4501D0A04584
:102DE0000CD16D482B4602AA3146FEF703FB6B4B14
:102DF00028465B6B984708B0BDE8F08702A8C7F18A
:102E00001801384414F8013B524606F0F3FA07441F
:102E1000E3E7624BDB6A9847614B4FF000098AF8A1
:102E2000009083F80090FEF781FA31462046FEF7C5
:102E3000C5FA054600283FD1DFF8589104EB060893
:102E4000A71D444501D0A7422BD105B1013D05F195
:102E500020030DEB0305002402AA3146514805F872
:102E6000184CFEF7C7FA5048FEF7C4FA4F48FEF771
:102E7000C1FA4F48FEF7BEFA0C20FEF73FF90D20CD
:102E8000FEF73CF90E20FEF739F90F20FEF736F970
:102E9000FEF772FD474B22462146022005F0B0FDA9
:102EA000A9E702A8C5F11801284414F8013B4A46D5
:102EB00006F0A0FA0544C4E7E58894F908403E4BC3
:102EC0006DBA29B26FF036020C20FEF701FC2146E4
:102ED0003A4B05220D20FEF7FBFB3946364B6FF0CF
:102EE00036020E20FEF7F4FB41460F20334B05223D
:102EF000FEF7EEFB324B1D80324B1C70324B1F80B5
:102F0000324B83F80080324B01221A70FEF734FDF9
:102F1000304B4A464946022008B0BDE8F04705F06C
:102F20006FBD9AF800201D4B012ADB6A03D008B060
:102F3000BDE8F047184798470025082E8AF800504A
:102F40001ED12378A52B1BD163785A2B18D1A378D7
:102F50004A2B15D1E378492B12D12379472B0FD176
:102F600006212046E688FDF721FCB04208D1CDE9D4
:102F70000078194B00221146022005F041FD3AE786
:102F8000CDE90078154BF5E74D05002048050020F8
:102F90004605002015AE00081BAE000884B70008E7
:102FA000340400204BAE00086EAE000887AE000867
:102FB000A0AE000860AD0008B9AE0008BEAE0008C3
:102FC0004E0300204C0300204A0300204903002048
:102FD00048030020C2AE0008CFAE0008D9AE0008FA
:102FE000F0B58BB0FDF748FB14220DEB0200002179
:102FF000714E06F06DFA0120FEF773F80220FEF71D
:1030000070F84FF480613046012201F05FF93046DC
:1030100001224FF4005101F059F901224FF40071DF
:103020004FF09040002401F051F901254FF48063E6
:1030300005A930460593CDE90654089401F026F819
:103040004FF4005305A9304605934FF4007701F083
:103050001DF805A94FF09040059701F017F82A4692
:103060003946304601F032F92A4630464FF4804165
:1030700001F02CF905A93046059701F007F84FF447
:10308000804305A930464D4E059300F0FFFFFEF743
:1030900087FAFDF71BFE22462146494B494F022085
:1030A00005F0AEFC334622462146022005F0A8FC7E
:1030B0000523CDE9005322462146434B02940220CA
:1030C00005F09EFC032322462146CDE900530295DC
:1030D0003E4B022005F094FCFEF798F82A464FF488
:1030E0007A713B4B0094384605F098FE384605F05F
:1030F00041FF3848384B0360384B8360384B43609E
:10310000384F394BC360394B03613B689847FEF732
:1031100003F8334622462146022005F071FC224680
:103120002146334B022005F06BFC324B1B680093A9
:1031300022462146304B022005F062FC7D2300939D
:10314000224621462D4B022005F05AFC2C4B1B78C1
:103150000093224621462B4B022005F051FC0E2302
:10316000009322462146284B022005F049FC3346B5
:1031700022462146022005F043FC22462146234BED
:10318000022005F03DFCFB6A984721462846204A6C
:1031900005F004FE224640F6B8311E4B00941E484E
:1031A00005F03CFE1D4B1D70FEF710FA0BB0BDE89C
:1031B000F040FEF733BA00BF000400481CAF00081F
:1031C000EDAE0008500500202EAF00084FAF0008FC
:1031D000D5110008680500206D1600088D2D000827
:1031E000251F000884B70008DD2C0008412C0008CA
:1031F00070AF0008280000207EAF000893AF0008E1
:1032000024000020A9AF0008BDAF0008D3AF00081C
:10321000651F00085D1200081C0400203504002012
:1032200008B5254B1A78002A44D101221A70FEF7FE
:10323000F5F92248FEF7DEF82148FEF7DBF82148D1
:10324000FEF7D8F82048FEF7D5F82048FEF7D2F868
:103250001F48FEF7CFF81F48FEF7CCF81E48FEF7D0
:10326000C9F81E48FEF7C6F81D48FEF7C3F81D480A
:10327000FEF7C0F81C48FEF7BDF81C48FEF7BAF888
:103280001B48FEF7B7F81B48FEF7B4F81A48FEF7DC
:10329000B1F81A48FEF7AEF81948FEF7ABF819482E
:1032A000FEF7A8F81848FEF7A5F8BDE8084017484B
:1032B000FEF7A0B808BD00BF01030020DBAF000887
:1032C000F8AF00081FB0000858B0000869B0000847
:1032D0007AB0000890B00008EBB000081EB10008FA
:1032E0005EB1000894B10008CAB10008E2B100085C
:1032F00001B200081EB200085CB200089DB20008CE
:10330000F9B2000846B300086AB300087FB30008AA
:10331000D0F88C30222B0AD00368054A934201D1A1
:10332000FEF77CB9034A934201D1FEF74FB97047CB
:10333000003801400044004003680F4A93420DD119
:103340000E4B1B780BB9FEF741B90D4B19800D4B95
:1033500001221A700021012005F064BC0A4A934240
:1033600008D1064B1B780BB9FEF758B9074B1980EB
:10337000074BEDE7704700BF0044004035040020D4
:10338000BC040020BA0400200038014038040020AA
:103390003604002070B586B04FF0B0430026059685
:1033A000DA6C42F00102DA64DB6C039603F001038D
:1033B0000093009B044630230125CDE9013501A986
:1033C00002234FF09040023C049300F05FFEAC42B9
:1033D0000ED8324610214FF0904000F077FF2A4679
:1033E00020214FF0904000F071FF002006B070BD2A
:1033F0002A4610214FF0904000F068FF3246EFE778
:1034000008B50120FFF7C6FF002008BD0220704765
:10341000012070470120704700280CBF0F201620A4
:103420007047704738B5104C237805460BB901201A
:1034300038BD01F0B9F822784FF47A73B3FBF2F398
:10344000B0FBF3F000F002FC04460028EFD10F2D92
:10345000EDD8024629464FF0FF3000F0A5FB034BA4
:1034600020461D60E4E700BF340000203800002043
:1034700010B5032000F086FB01F096F8064B1860AB
:103480000F20FFF7CFFF044618B9FDF740FA20469A
:1034900010BD0124FBE700BF30000020034A044BAD
:1034A00011681B780B441360704700BF840500202F
:1034B000340000204FF0E022136923F0020313616F
:1034C00070474FF0E022136943F002031361704725
:1034D000024A536823F0010353607047002004E060
:1034E000024A536823F0020353607047002004E04F
:1034F000024A536823F0040353607047002004E03D
:103500008068C0F380007047F7B50023019304463C
:10351000002800F0E980856D25B9FDF739F8E565EB
:1035200084F8545023689A68D00040F1A1809A68CA
:10353000D10000F1B480A26D42F01002A265E26DEC
:1035400042F00102E26501251846FFF7D9FFA26D9E
:1035500002F01002024340F0C980A26D206922F4FB
:10356000817242F00202A2659A68D2075DD4226B92
:10357000A67E94F82CC0003A18BF01221703D4E9A4
:1035800002120A43217E42EA8132617E42EAC1325E
:1035900042EA4632002842EA4C02B4BF20F0004121
:1035A0004FF400113A430A4394F82010012903D143
:1035B000002E76D142F48032616A21B1A66A01F40C
:1035C000E07131430A43D968E66C21F4FE3121F4FD
:1035D000FF711143D96094F83C206168012A01F021
:1035E000404C4CEA060609D1D4E910273A4332434D
:1035F000A66C324342EA0C0242F001061F693E4AC1
:103600003A4032431A6121F00042B2F1804F0CD0AF
:10361000B1F1004F09D0394ED6F8082701F47011E6
:1036200022F470120A43C6F808275A69666BA16B28
:1036300022F0070232435A615A6922F0700242EACC
:1036400001125A61002835D19A6A62F00F029A621B
:103650005B6903F007039E423CD10023E365A36D41
:1036600023F0030343F00103A365284603B0F0BD34
:103670009A68234922F0104222F0170242F0805249
:103680009A60204A1268B2FBF1F2013252000192B4
:10369000019A002A3FF44BAF019A013AF7E700255F
:1036A00052E7A16D41F02001A165E16D41F00101FA
:1036B000E16581E7B0F5001FCAD19A6AE269013A73
:1036C00092006FF00F0102F01C0201FA02F2216E6B
:1036D0000A43BCE7A36D23F0120343F01003A36574
:1036E000E36D43F00103E3650125BEE7A36D43F0FD
:1036F0001003A365F8E700BF02FCFF1F0020014094
:10370000400D030030000020F8B54569082D04463F
:103710000E460AD00368DB68D80705D5A36D43F0D1
:103720002003A3650120F8BD0425FDF79DF9074698
:1037300023681A682A4220D0A26D42F40072A26562
:10374000DA6812F4406F14D1A27E92B91A68120797
:103750000FD51846FFF7D4FE20BB5A6822F00C02A2
:103760005A60A26D22F4807222F0010242F001023E
:10377000A265227EFAB10020D5E7711CD9D0FDF7F1
:1037800073F9C01BB04201D8002ED1D123681B6849
:103790002B40CDD1A26D84F8543042F00402A265D2
:1037A0000320C0E7A26D42F02002A265E26D42F064
:1037B0000102E265DDE70C221A60DCE70368186CA1
:1037C00070470000F7B50023019390F85430012BA7
:1037D000044600F0C08005680269012380F8543077
:1037E0002846FFF78DFE002840F0AF80D1E9003079
:1037F000022822F004027ED0B2F1004FC3F3110E72
:1038000035D1AA6A42EA0E02AA628A68686902EAA7
:10381000032222F07C4222F0FF0220EA03210A4325
:10382000002B6A611DDA4D4A4D4DD2F80817AB42A4
:1038300001F0E07043D10D0213D4D2F8083723F021
:10384000E073034343F40003C2F80837454B1A689A
:10385000454BB2FBF3F20C2302FB03330193019BB4
:1038600053BB0020002384F8543003B0F0BD226E17
:1038700000F01F074FF00F0C0CFA07FC6FEA0C0664
:1038800022EA0C0CBEF1000F11D1C3F38462BA40DE
:1038900042EA0C0222668008E26901309042B4D804
:1038A000A86AC3F38362BA4006403243ACE793FA96
:1038B000A3F2B2FA82F2EAE7019B013BCEE72B4D7D
:1038C000AB420BD1C901CCD4D2F8083723F0E07356
:1038D000034343F08073C2F80837C2E7244DAB427C
:1038E000BFD14B02BDD4D2F8083723F0E0730343B5
:1038F00043F48003EFE7B2F1004F01BFAA6AC3F3BC
:1039000011018A43AA62002BABDA1548134983429E
:10391000D1F8082709D1D1F8083702F0A07223F0B6
:10392000E0731A43C1F808279BE71048834204D18B
:10393000D1F8083702F44002F1E70D48834290D1F4
:10394000D1F8083702F0C072E9E7A26D42F0200218
:10395000A265184686E7022087E700BF00200140E5
:10396000001000B030000020400D0300004000B8FF
:10397000002000B4026838B504461046FFF7C0FDC9
:1039800008B9002038BD9368990707D4936823F0DD
:10399000004323F0170343F010039360FDF764F82E
:1039A000054623689B685B07EBD5FDF75DF8401B78
:1039B0000228F6D923689B685A07F2D5A36D43F015
:1039C0001003A365E36D43F00103E3650120D9E72C
:1039D00073B50023026801939368DD07044602D59E
:1039E000002002B070BD9168214B194209D0A36D2F
:1039F00043F01003A365E36D43F00103E365012089
:103A0000EFE7936823F0004323F0170343F001032B
:103A10009360184BD3F8083718021CD4637E012B2F
:103A2000DED0FDF721F8144E054622681368DB0747
:103A3000D6D49368D9075FBF9368334043F001033E
:103A40009360FDF711F8401B0228EED923681B682C
:103A5000DA07EAD4CBE7094B094A1B68B3FBF2F358
:103A600001330193019B002BD8D0019B013BF8E768
:103A70001700008000200140E8FFFF7F3000002099
:103A8000400D030038B504460068FFF739FD0546D0
:103A900020BB94F85430012B20D0012384F85430FB
:103AA0002046FFF795FFB0B9A36D226823F4706339
:103AB00023F0010343F48073A3651C23E0651360C6
:103AC00084F85400936823F0004323F0170343F075
:103AD0000403936038BD84F85450FBE70220F9E7F3
:103AE000026838B5936891680446C80701D400207D
:103AF00038BD9907FBD4936803F00503012B19D156
:103B0000936823F0004323F0170343F0020393600C
:103B100003231360FCF7A8FF054623689B68DB07B7
:103B2000E5D5FCF7A1FF401B0228F6D923689B6866
:103B3000DA07F2D5A36D43F01003A365E36D43F0FC
:103B40000103E3650120D3E710B590F85430012B51
:103B5000044615D0012380F85430FFF70BFF58B905
:103B60002046FFF7BDFF38B9A36D23F4807323F01F
:103B7000010343F00103A365002384F8543010BD12
:103B80000220FCE70749CA6822F4E062030212043B
:103B900003F4E063120C134343F0BF6343F40033B8
:103BA000CB60704700ED00E0164B30B5DC68C4F325
:103BB0000224C4F10703251D042B28BF0423062D6E
:103BC0004FF0FF358CBF033C002405FA03F321EAD4
:103BD0000303A54022EA0502A340002843EA0203AA
:103BE000ACBF00F16040084A4FEA0313B8BF00F0D1
:103BF0000F00DBB2AABF00F56140135480F8003318
:103C000030BD00BF00ED00E014ED00E0002807DB50
:103C1000044A4109012300F01F00834042F821308B
:103C2000704700BF00E100E000280CDB43090649B3
:103C300000F01F0020330122824041F82320BFF30F
:103C40004F8FBFF36F8F704700E100E00138B0F194
:103C5000807F0BD24FF0E023054A5861F02182F8B3
:103C600023100020072298611A61704701207047D5
:103C700000ED00E070B5D0E913456560446D14B106
:103C8000D0E916456560D0E9105404F01C06012403
:103C9000B4406C60046863608368102B0BBFA26043
:103CA000A160E160E26070BD0268416CD3B210B502
:103CB000083B1424B3FBF4F30B4CA24288BF0B4A1D
:103CC00021F0030199BF01F1804202F5023252183E
:103CD00007338264064AC26403F01F03012202FA1A
:103CE00003F3036510BD00BF070402401C08024037
:103CF0008008024038B500285CD002682E4B9A42FA
:103D00004FF014014AD82D4B1344B3FBF1F32C4967
:103D10009B00C0E91013022380F825301368056961
:103D200023F4FF4323F070031360D0E902432343DD
:103D30002B43456911682B4385692B43C5692B4388
:103D4000056A2B430B431360FFF7AEFFB4F5804FBA
:103D500004BF002343604368816C03F07F020A6064
:103D6000D0E91314013B032B4C601ED8154B1649A8
:103D7000816513449B000121013A01FA02F20021FE
:103D80004365C2651960114B5A6400230122C36365
:103D900080F8243080F82520184638BD0C4B134499
:103DA000B3FBF1F30B499B00B3E70023C0E91533E4
:103DB000C365EAE70120F0E707040240F8FFFDBF12
:103DC000000002403F82001040090240000902400A
:103DD000F8FBFDBF0004024038B5002841D002685E
:103DE000136823F0010313601F4B9A424FF0140134
:103DF00030D81E4B1344B3FBF1F31D499B00C0E9BF
:103E00001013012403F01C0304FA03F300251560CA
:103E10004B60FFF749FF836C41681D60D0E91332A6
:103E20005A604A1E032A06D8124B0B449B0094404A
:103E30001D60114B5C640023C363C0E91533C0E906
:103E40000B33C0E90D33C36580F8253080F824308A
:103E5000184638BD094B1344B3FBF1F308499B00E6
:103E6000CDE70120F5E700BF07040240F8FFFDBFE2
:103E7000000002403F82001000090240F8FBFDBF35
:103E80000004024070B590F82450012D04463BD048
:103E900090F825600125AE4280F824504FF00006CE
:103EA0002CD1022580F825500568C6632E6826F0BF
:103EB00001062E60FFF7DEFE036BBBB12B6843F0FB
:103EC0000E032B60A36C1A68D20342BF1A6842F437
:103ED00080721A60636D1BB11A6842F480721A60B6
:103EE0002B6843F001032B60002070BD2B6823F08A
:103EF00004032B602B6843F00A03E2E78023C363CB
:103F000080F824602846F0E70220EEE7034640B13F
:103F100090F82520022A06D00422C263002280F8ED
:103F20002420012070470268806C116821F00E0186
:103F30001160016821F480710160116821F00101B4
:103F40001160D3E9100202F01C0101228A40426094
:103F5000D3E9132151605A6D32B1116821F4807197
:103F60001160D3E9162151600122002083F8252039
:103F700083F82400704708B590F82530022B03D051
:103F80000423C363012008BD03681A6822F00E02EF
:103F90001A601A6822F001021A60826C136823F416
:103FA00080731360D0E9101303F01C0201239340C7
:103FB0004B60D0E913325A60436D33B11A6822F472
:103FC00080721A60D0E916325A60012380F82530D9
:103FD000002380F82430836B03B198470020D2E798
:103FE00070B4426C046C036826681D6802F01C0201
:103FF0000421914031420FD015F0040F0CD01A6803
:1040000092065EBF1A6822F004021A60036B6160B8
:10401000002B33D070BC184702219140314217D099
:1040200015F0020F14D01A68940606D41A6822F00C
:104030000A021A60012280F82520114A93428CBF9F
:10404000104B114B5960002380F82430C36ADFE71E
:1040500008219140314211D029070FD5196821F06C
:104060000E011960012303FA02F26260C36380F853
:104070002530002380F82430436BC9E770BC7047BB
:104080008000024000040240000002402DE9F04F91
:10409000524C00234FF00F090A6832FA03F501D1A0
:1040A000BDE8F08F012505FA03F818EA020200F0D6
:1040B0008E804E68032706F003054FEA430E07FA89
:1040C0000EFC6F1E012F6FEA0C0C32D8876807EACE
:1040D0000C0ACF6807FA0EF747EA0A0787604768B5
:1040E00027EA0808C6F300179F4047EA0807476019
:1040F000C76807EA0C088F6807FA0EF747EA08074F
:10410000022DC76017D14FEAD30800EB880803F0EF
:10411000070AD8F820704FEA8A0A09FA0AFB27EA48
:104120000B0B0F6907FA0AF747EA0B07C8F820706C
:1041300001E0032DDCD1076805FA0EF507EA0C074C
:104140003D4316F4403F056041D023F0030707F1DB
:10415000804707F5803703F0030CBD684FEA8C0CED
:104160004FF0070E0EFA0CFEB0F1904F25EA0E0E3E
:104170002FD01B4DA8422ED005F58065A84214BF54
:104180000725022505FA0CF545EA0E05BD602568F0
:10419000D74316F4801F0CBF3D401543256065686A
:1041A00016F4001F0CBF3D4015436560D4F88050E5
:1041B00016F4803F0CBF3D401543C4F88050D4F83E
:1041C0008450B60354BF3D401543C4F884500133B6
:1041D00062E70025D6E70125D4E700BF00080058B4
:1041E00000040048374A2DE9F04F00234FF0010A40
:1041F0004FF0070B4FF00F0931FA03F401D1BDE87E
:10420000F08F0AFA03FC1CEA010654D023F00304E1
:1042100004F1804404F5803403F00307A568BF006F
:104220000BFA07F8B0F1904F08EA050E45D0264D7D
:10423000A84244D005F58065A8420CBF0225072599
:10424000BD40754517D1D2F8805025EA0605C2F861
:104250008050D2F8845025EA0605C2F884501568CB
:1042600025EA06051560556825EA06055560A56826
:1042700025EA0805A560056803265C0006FA04F433
:1042800023FA06F6254300EB8606056003F00705D2
:10429000376AAD0009FA05F527EA05073762856830
:1042A00025EA04058560456825EA0C054560C56872
:1042B00025EA0404C46001339EE70025C0E7012518
:1042C000BEE700BF00080058000400480AB1816141
:1042D0007047816270470000024A136843F480739C
:1042E00013607047000400580D4B10B55B690C4615
:1042F00028B99A0507D500F027F820B110BD9B0515
:1043000001D400F019F8074A1369012C23F00403C3
:10431000136101D130BFF1E740BF20BF20BFEDE7FF
:104320000004005800ED00E0024B186800F4C06083
:10433000704700BF00040058024A136843F48043EA
:1043400013607047000400580C4A136823F480433C
:1043500013600B4B1B6832214B430A49B3FBF1F34B
:104360005169890500D533B9536913F4007F14BF2F
:10437000032000207047013BF2E700BF0004005813
:104380003000002040420F000B4A136823F007035F
:1043900043F002031360094B1A69012842F004023A
:1043A0001A6105D130BF1A6922F004021A61704700
:1043B00040BF20BF20BFF6E70004005800ED00E03A
:1043C0004FF0B0431868C0F3404070474FF0B0431F
:1043D0001868C0F3400070474FF0B042536823F4B0
:1043E0007F4343EA0023536070474FF0B04318689F
:1043F000C0F34060704700007FB54FF0B0432C4AD7
:10440000D3F80831C0F3031003F00F0352F8204033
:10441000284A52F82330B4FBF3F4FFF785FF264B0C
:10442000054693E80700B5F5007F04AB03E90700F4
:1044300010D0224B9C4218D303F5B70303F67F53E9
:104440009C4229D903F5741303F510639C4225D8C7
:1044500002230BE01A4B9C4207D91A4B9C421BD9F2
:1044600003F5370303F5D853F0E7002304AA02EB62
:10447000830353F80C4C144D2B6823F0070323439C
:104480002B60FCF7F1FA06462B6803F007039C4209
:1044900006D1002004B070BD0123E7E70024EAE75D
:1044A000FCF7E2FA801B0228EED90320F2E700BFF6
:1044B00028B6000888B60008889E0008C0CF6A00A9
:1044C000BFEA21013F933402004000584FF0B0434F
:1044D00010B59A68D96812F00C0205D00C2A4AD19E
:1044E00001F00303012B51D14FF0B0412B480B6871
:1044F00013F0080306D00B6813F0080337D1D1F886
:10450000941007E00C68240756BFD1F8943009686E
:10451000C3F3032350F82330002A0CBF18460020B1
:104520004FF0B0418A6802F00C020C2A1ED1CA6812
:1045300002F00302022A2ED0032A06D10B68184A81
:1045400013F4801F174B18BF13464FF0B042D068CA
:10455000D168D268C0F306205843C1F30213013377
:10456000B0FBF3F0530F0133B0FBF3F010BD0B6859
:10457000C3F30313CEE7042A05D0082A06D11B682B
:1045800013F4801305D006480023C9E7002318461A
:10459000C6E70448C4E7024BD7E700BF28B60008C7
:1045A0000024F4000048E80108B5FFF78FFF4FF042
:1045B000B043044A9B68C3F3031352F82330B0FBA3
:1045C000F3F008BD88B600082DE9F0410446002844
:1045D00053D04FF0B0439D68DE6803689B0605F03A
:1045E0000C0506F0030668D5026A1DB10C2D46D1F4
:1045F000012E44D1002A40D04FF0B043A16A1A687E
:10460000170756BFD3F894301B681B0903F0F0035B
:1046100099421FD90846FFF7EFFE00282DD14FF031
:10462000B042136843F0080313601368A16A23F0D3
:10463000F0030B431360606AFFF7CEFEFFF7B4FF91
:10464000AB4B1860AB4B1868FEF7ECFE002834D07B
:10465000BDE8F0814FF0B042136843F008031360E7
:10466000136823F0F0030B431360606AFFF7B4FE96
:104670000846FFF7C1FE0028E0D00120E8E74FF030
:10468000B043002A54D01A6842F001021A60FCF7C5
:10469000EBF90746FFF79AFE002842D04FF0B042F0
:1046A000136843F0080313601368A16A23F0F00352
:1046B0000B431360606AFFF78FFE2368D80748D466
:1046C0002368990700F18C8023681E0740F1FA8067
:1046D000A3694FF0B046002B00F0E180D6F894308B
:1046E000E16903F01002914200F0C48003F003027C
:1046F000022AC2D0D80740F1B380D6F8943023F014
:104700000103C6F89430FCF7AFF90746D6F89430A9
:10471000990740F1A580FCF7A7F9C31B112BF5D928
:1047200004E0FCF7A1F9C01B0228B3D903208FE7EE
:104730001A6822F001021A60FCF796F90746FFF7A3
:1047400045FE0028B9D0FCF78FF9C01B0228F6D926
:10475000ECE7082D03D00C2D05D1032E03D163689F
:10476000002BADD189E74FF0B043A1681A6822F45D
:1047700080120A431A606268B2F5803F10D11A684D
:1047800042F480321A60FCF76FF90746FFF718FE13
:10479000002895D1FCF768F9C01B6428F6D9C5E755
:1047A000B2F5041F04D11A6842F400121A60E6E759
:1047B000196821F480311960196821F40011196019
:1047C000002AE0D1FCF750F90746FFF7F9FD002871
:1047D0003FF476AFFCF748F9C01B6428F5D9A5E78C
:1047E000042D236903D00C2D0ED1022E0CD1002BE9
:1047F0003FF443AF4FF0B0426169536823F0FE438A
:1048000043EA016353605FE74FF0B046BBB13368E2
:1048100043F480733360FCF727F9074633685A0581
:1048200005D4FCF721F9C31B022BF7D97EE7736887
:10483000626923F0FE4343EA0263736044E733682E
:1048400023F480733360FCF70FF9074633685B0588
:104850007FF53AAFFCF708F9C31B022BF6D965E7E1
:104860004FF0B042E169D2F8943023F010030B43CB
:10487000C2F894304FF0B047D7F8943043F00103BA
:10488000C7F89430FCF7F0F80646D7F894309A074A
:1048900018D4FCF7E9F8831B112BF6D946E7D6F8B4
:1048A000943023F00103C6F89430FCF7DDF8074696
:1048B000D6F894309B0705D5FCF7D6F8C31B112B0F
:1048C000F6D933E72368580754D50B4F3B68D90511
:1048D00014D4FFF701FDFCF7C7F806463B68DA057C
:1048E0000CD4FCF7C1F8831B022BF7D91EE700BFDD
:1048F000300000203800002000040058E3684FF02A
:10490000B046002B58D023F08003052B02BFD6F809
:10491000903043F00403C6F890304FF0B046FCF7F7
:10492000A3F8D6F8903043F001030746C6F890305C
:1049300041F28838D6F890309B0705D4FCF794F8FC
:10494000C31B4345F6D9F1E6E36823F00403812B4A
:104950001BD1FCF789F8D6F8903043F08003C6F8F5
:10496000903007464FF0B04641F28838D6F8903084
:10497000180504D5E36A002B4AD1002068E6FCF74D
:1049800073F8C01B4045F1D9D0E6FCF76DF8D6F8B6
:10499000903023F08003C6F8903007464FF0B046C1
:1049A00041F28838D6F890301905E3D5FCF75CF869
:1049B000C01B4045F6D9B9E6FCF756F8D6F890305A
:1049C00023F080030746C6F8903041F28838D6F8C5
:1049D00090301A0516D4FCF747F8D6F8903023F03B
:1049E0000103C6F8903007464FF0B04841F28836D0
:1049F000D8F890309B07BDD5FCF736F8C31BB342FF
:104A0000F6D993E6FCF730F8C01B4045DFD98DE6B8
:104A10000C2D4ED0022B4FF0B0431A6822F080725A
:104A20001A6033D1FCF720F80546FFF7DEFC38BBEF
:104A3000D4E90C314FF0B0420B43D0682D4901400E
:104A40000B43E16B0B43216C0B43616C0B43A16B7C
:104A500043EA0123D360136843F080731360D36883
:104A600043F08053D360FBF7FFFF0446FFF7BDFC24
:104A7000002882D1FBF7F8FF001B0A28F6D955E67B
:104A8000FBF7F2FF401B0A28CFD94FE6FBF7ECFFFC
:104A90000446FFF7AAFC30B94FF0B042164BD1687C
:104AA0000B40D36069E7FBF7DFFF001B0A28F0D952
:104AB0003CE6012B3FF4E1AD4FF0B043D868236BE7
:104AC00000F003029A427FF4D8AD626B00F07003ED
:104AD00093427FF4D2ADA26B00F4FE43B3EB022FFE
:104AE0007FF4CBAD636C00F06040C01A18BF0120AA
:104AF000AEE500BF8C80C111FCFFFEEE2DE9F04158
:104B00000D46044610B90120BDE8F081684E3368B7
:104B100003F007038B4216D323689A0727D54FF07B
:104B2000B047A268BB6823F0F0031343BB60FBF7F8
:104B30009BFF0646BB68DB0319D4FBF795FF831B7D
:104B4000022BF7D911E0336823F007030B433360DE
:104B5000FBF78AFF0746336803F00703AB42DBD05D
:104B6000FBF782FFC01B0228F5D90320CCE723689E
:104B7000580617D54FF0B0476269D7F8083123F0CF
:104B80000F0343EA1213C7F80831FBF76DFF06461F
:104B9000D7F80831D90305D4FBF766FF831B022B36
:104BA000F6D9E2E723685A0713D54FF0B047E26819
:104BB000BB6823F4E0631343BB60FBF755FF064675
:104BC000BB689B0305D4FBF74FFF831B022BF7D970
:104BD000CBE72368180714D54FF0B0472269BB68AC
:104BE00023F4605343EAC203BB60FBF73DFF064674
:104BF000BB68590305D4FBF737FF831B022BF7D99A
:104C0000B3E72368DA070FD4294C236803F00703BE
:104C1000AB4239D8FFF7C8FC264B1860264BBDE8DD
:104C2000F0411868FEF7FEBB6268022A1DD1FFF74B
:104C3000C7FB00283FF467AF4FF0B04641F2883819
:104C4000B36823F003031343B360FBF70DFF07467C
:104C5000B368626803F00C03B3EB820FD4D0FBF7A8
:104C600003FFC01B4045F3D97FE7032A02D1FFF7BA
:104C7000BCFBDEE712B9FFF7A9FBDAE74FF0B04360
:104C80001B685B05D8D43EE7236823F007032B435A
:104C90002360FBF7E9FE0646236803F00703AB42F7
:104CA000B8D0FBF7E1FE801B0228F5D95DE700BF15
:104CB00000400058300000203800002008B5FFF701
:104CC00073FC4FF0B043044A9B68C3F3022352F8CD
:104CD0002330D84008BD00BF68B6000808B5FFF70C
:104CE00063FC4FF0B043044A9B68C3F3C22352F8FD
:104CF0002330D84008BD00BF68B600084FF0B0436D
:104D0000D3F89000C0F3400070474FF0B041020963
:104D1000D1F8883002F47F22000123EA020300F474
:104D20007F200343C1F8883070474FF0B041020C38
:104D3000D1F88830120423EA020343EA0040C1F8A4
:104D4000880070470368DA0370B5044639D5FFF769
:104D5000C3FAFBF789FE614E05463368DB0532D5A1
:104D60004FF0B043616BD3F8902002F4407291424F
:104D70001DD0D3F89010D3F8902042F48032C3F8BD
:104D80009020D3F8902021F4407022F480328D07D7
:104D9000C3F89020C3F8900009D5FBF765FE41F2F7
:104DA00088360546FFF7AAFF012840F090804FF0B3
:104DB000B042616BD2F8903023F440730B43C2F8D9
:104DC0009030002605E0FBF74FFE401B0228C4D9B7
:104DD00003262568E8070AD54FF0B0416268D1F88C
:104DE000883023EA124392B21343C1F88830A907EE
:104DF0000AD54FF0B041A268D1F8883023EA1243B7
:104E000092B21343C1F88830AA0609D54FF0B042D8
:104E10002169D2F8883023F440630B43C2F888300C
:104E2000AB0502D5206AFFF780FF680502D5606AEE
:104E3000FFF77BFF290502D5A06AFFF776FF6A0618
:104E400002D56069FFF761FF2B0602D5A069FFF765
:104E50005CFFE80502D5E069FFF757FFE90610D5CA
:104E60004FF0B042E168D2F8883023F440730B432E
:104E7000C2F88830B1F5807F02BFD36843F08073F9
:104E8000D3602A040ED54FF0B042216BD2F888309F
:104E900023F040430B43C2F8883019B9D36843F07C
:104EA0008073D3606B0410D54FF0B042E16AD2F842
:104EB000883023F040530B43B1F1005FC2F88830D3
:104EC00003D1D36843F48033D360304670BDFBF721
:104ED000CBFD401BB0427FF665AF79E70004005878
:104EE00030B590F82C30012B02464FF0020022D052
:104EF000174B82F82D00CA24012582F82C505C62E1
:104F000053245C62B1F5807F146B996914D121F44C
:104F100088519961596C24F0010421F000415964D1
:104F20001463DD650A4BFF2159620020012382F8DA
:104F30002D3082F82C0030BD21F408519961D96CD4
:104F400024F0020421F00041D9641463D865E9E734
:104F50000028004070B50B4E036B756D1D40EA07CD
:104F6000044603D50123F365FBF79DFEAB0704D58B
:104F70000223F365204600F0C9F9012384F82D309F
:104F800070BD00BF0028004038B50A4CE36823F02C
:104F90002003E360FBF768FD0546E3689B0601D547
:104FA000002038BDFBF760FD401BB0F57A7FF4D9D7
:104FB0000320F6E700280040F8B5114DEC6814F026
:104FC000400406461AD1EB6843F08003EB60FBF720
:104FD0004BFD23460746EC6814F0400401D1032B37
:104FE00001D11846F8BDFBF73FFDC01BB0F57A7F35
:104FF000234684BF032386F82D30ECE70023F0E737
:105000000028004038B50F4CE36823F08003E360CC
:10501000A3699B06054606D4FFF7B6FF10B103202F
:1050200085F82D0038BDA36923F02003A361FFF7A5
:10503000ABFF10B1032085F82D00A36943F02003D6
:10504000A361EFE70028004038B5044600284BD0A4
:1050500090F82D3003F0FF021BB980F82C20FBF7ED
:10506000F5FB0223214D84F82D30EB68DB0636D4A6
:10507000CA236B6253236B622046FFF79DFF10B17A
:10508000FF236B6238BDAB6923F08E6323F04003CE
:10509000AB6121696368AA690B431343A269134397
:1050A000AB61D4E9022343EA02432B61D4E909311D
:1050B000EA680B4322F4F8521343EB602046FFF7F3
:1050C000A1FF0028DCD1D4E90713AA690B4322F021
:1050D0006042134362691343AB61FF236B62012398
:1050E00084F82D300020CDE70120CBE700280040D8
:1050F0000023092803D840EA0310C0B270470A38D9
:105100000133C0B2F5E700002DE9F04790F82C30EC
:10511000012B05464FF0020069D0012385F82C30A1
:105120004E4B85F82D00DE6806F44076B6F5807F9C
:1051300078D04C69087891F8019091F802A091F824
:105140002470002A55D19B6913F0400308BFCB702F
:10515000FFF7CEFF80464846FFF7CAFF024650469B
:10516000FFF7C6FF81463846FFF7C2FF0B6ACF78CC
:10517000234343EA875343EA090343EA084343EAE4
:10518000022343EA0063354ACA205062532050622A
:105190008C6A8869B4F5807F946945D124F4885479
:1051A00094610124D465B6F5807F09BFCB6913648F
:1051B0000343536418BF5064284B4A681A672A6B2C
:1051C00042F001022A639A6942F488529A61244AA1
:1051D000D2F8803043F40033C2F880301F4BFF22F6
:1051E0005A620020012385F82D3085F82C00BDE897
:1051F000F087B4F1803F07D0B4F5000F04D09B696D
:1052000013F0400308BFCB700B6ACA781C4344EA12
:105210000A0444EA004343EA092343EA825343EA87
:105220000763B0E70023AEE724F408549461022436
:10523000D465B6F5807F09BFCB6993640343D3641B
:1052400018BFD064054B4A685A672A6B42F00202C5
:105250002A639A6942F40852B8E700BF0028004068
:105260000008005890F82C20012A03464FF0020055
:1052700012D00A4A83F82D00CA215162532151628B
:10528000916941F020019161FF21516200200122CA
:1052900083F82D2083F82C00704700BF00280040C1
:1052A00090F82C20012A03464FF0020019D00D4A35
:1052B00083F82D00CA2151625321516291690A4835
:1052C00041F080019161D0F8801041F48021C0F854
:1052D0008010FF2151620020012283F82D2083F8E5
:1052E0002C0070470028004000080058064B5A6DFB
:1052F000520610B5044603D54022DA65FBF7D6FC0A
:10530000012384F82D3010BD00280040704789002B
:1053100001F1804101F531410A607047890001F1D6
:10532000804101F53141086870470000034AD2F816
:10533000903043F40043C2F89030704700040058A6
:10534000034AD2F8903023F40043C2F890307047FB
:1053500000040058074B1A6822F040021A6040F41B
:1053600041704FF4B85218605A601A6842F0400217
:105370001A6070470000015837B5054600284ED026
:10538000837903F0FF046BB1032C0BD0254B4FF452
:1053900000629A612868FFF7DDFF002401232B716A
:1053A000AC602FE000236B712846FBF7EDFA1E4A34
:1053B000D2F8903043F48053C2F89030002CE5D1FD
:1053C00002234FF0B042AB71D2F8943023F4004383
:1053D000C2F89430154B1B681C214B43DB0C642135
:1053E0004B430193019B93B90124AC60FFF79EFFEF
:1053F0000C4B9A6842F400629A604FF400629A6122
:10540000002CC7D00123AB71204603B030BD019BF7
:10541000013B0193D2F894305B04E3D4E6E7012426
:10542000F2E700BF000400580008005830000020D8
:1054300037B5174D2B6802461C204343DB0C642014
:10544000434314480193019B93B901209060114C90
:1054500021732B681C214B43DB0C64214B430193CC
:10546000019B6BB9012090600A4BDB6803B030BD33
:10547000019B013B019383689C07E4D50020E6E78C
:10548000019B013B0193A368DB07E9D5ECE700BF73
:10549000300000200000015837B5184D2B68024637
:1054A0001C204343DB0C6420434315480193019BBC
:1054B000A3B901209060124CFF2323732B681C2595
:1054C0006B43DB0C64256B430193019B73B9012093
:1054D00090600B4BDB680B7003B030BD019B013B50
:1054E000019383689C07E2D50020E4E7019B013B20
:1054F0000193A368DB07E8D5EBE700BF300000208D
:10550000000001580E4B0F491B681822534382B00C
:105510001B0D6422534301934B69019AC3F380032B
:1055200022B902238360012002B07047019A013A38
:1055300001924A69920701D5002BEDD10020F3E7D3
:10554000300000200004005807B50379012B0FD16B
:105550000A4B1B68182253431B0C0193FFF7F0FE04
:10556000019B013B0193019B002BF9D1FFF7DEFE6C
:1055700003B05DF804EBFFF7C5BF00BF30000020AB
:10558000F8B51E468379012B154604460F46DAB25C
:105590002DD14379012B2AD0022342718371FFF769
:1055A000D3FF0D212046FFF7CBFEFFF741FF390A5D
:1055B0002046FFF73DFFF9B22046FFF739FF2E44A2
:1055C000B5420ED12046FFF7B1FEFFF79BFFA06862
:1055D00001230038A3714FF0000318BF012063714D
:1055E000F8BD15F8011B2046FFF722FFE8E702206F
:1055F000F6E7F8B51E468379012B154604460F469B
:10560000DAB22FD14379012B2CD04271FFF79CFFE6
:105610001D212046FFF794FEFFF70AFF390A2046B6
:10562000FFF706FFF9B22046FFF702FF00212046F0
:10563000FFF7FEFE2E44B5420ED12046FFF776FE60
:10564000FFF760FFA06801230038A3714FF000034B
:1056500018BF01206371F8BD29462046FFF71CFFE3
:105660000135E8E70220F6E7F8B51F468379012BFC
:10567000154604460E46DAB22CD14379012B29D0C7
:105680004271FFF761FF06F0EF03A3F1840253427A
:105690005341237131462046FFF752FEFFF7C8FE03
:1056A0002F44AF4210D1FFF741FE842E02D0204696
:1056B000FFF728FFA06801230038A3714FF0000313
:1056C00018BF01206371F8BD15F8011B2046FFF7D4
:1056D000AFFEE6E70220F6E7F8B51E468379012B18
:1056E000154604460F46DAB227D14379012B24D060
:1056F0004271FFF729FF39462046FFF721FEFFF7E9
:1057000097FE00212046FFF793FE2E44B5420ED1AE
:105710002046FFF70BFEFFF7F5FEA06801230038D7
:10572000A3714FF0000318BF01206371F8BD294633
:105730002046FFF7B1FE0135E8E70220F6E737B56E
:105740000023ADF8043001AA022312210546FFF719
:10575000C3FFBDF80440022364BA1946A4B201AAEB
:105760002846FFF781FFE30702D5284602F0E0FF55
:1057700004F04203022B02D1284602F0DFFF60074B
:1057800002D5284603F004F8210702D5284603F085
:1057900005F8E20602D5284603F006F8A30602D56E
:1057A000284602F0EFFF600602D5284602F0CCFF43
:1057B000210606D514F4807118BF0121284602F095
:1057C000C9FFA20502D5284602F0D4FF630402D522
:1057D000284602F0EFFF03B030BDF8B51E468379CE
:1057E000012B154604460F46DAB227D14379012B27
:1057F00024D04271FFF7A8FE0E212046FFF7A0FD3E
:10580000FFF716FE39462046FFF712FE2E44B5423A
:105810000ED12046FFF78AFDFFF774FEA068012332
:105820000038A3714FF0000318BF01206371F8BD69
:1058300015F8011B2046FFF7FBFDE8E70220F6E71D
:10584000F8B51E468379012B154604460F46DAB299
:105850002BD14379012B28D04271FFF775FE1E2111
:105860002046FFF76DFDFFF7E3FD39462046FFF7C1
:10587000DFFD00212046FFF7DBFD2E44B5420ED1AF
:105880002046FFF753FDFFF73DFEA06801230038D7
:10589000A3714FF0000318BF01206371F8BD2946C2
:1058A0002046FFF7F9FD0135E8E70220F6E7026838
:1058B00052E8003F23F0C00342E8003102680029AB
:1058C000F5D102F1080353E8003F23F4000302F18D
:1058D000080C4CE800310029F3D12023C0F88830AF
:1058E0007047000010B5026852E8003F23F490733F
:1058F00042E8003102680029F5D10F4C02F108039B
:1059000053E8003F234002F1080C4CE80031002925
:10591000F4D1C36E012B07D152E8003F23F01003EE
:1059200042E800310029F7D12023C0F88C30002351
:10593000C366436710BD00BFFEFFFFEFF8B5044626
:105940001346D4F88850202D32D1F1B1EAB1E06F7E
:10595000A4F85620A4F8542000262122C4F8906010
:105960002165C4F88820226888B1124FC762124F9F
:105970000763124F2832C0E90D76FEF783FA30B183
:105980001023C4F89030C4F888500120F8BD236873
:1059900040221A62226802F1080353E8003F43F0F4
:1059A000800302F1080141E800300028F3D1EDE75F
:1059B0000220EBE7C1590008095A0008135A0008F1
:1059C00008B50346806A1B681B6813F0200317D1D3
:1059D000A0F85630026802F1080353E8003F23F0B4
:1059E0008003083242E8003102680029F2D152E80F
:1059F000003F43F0400342E800310029F7D108BDE1
:105A0000FBF70AFBFBE7704708B5806AFFF7FBFF6F
:105A100008BD806A38B50468D0F88830D0F88C505A
:105A2000A268120606D5212B04D10023A0F8563017
:105A3000FFF73DFFA3685B0606D5222D04D10023A6
:105A4000A0F85E30FFF74EFFD0F8903043F010031F
:105A5000C0F89030FDF75CFC38BD08B5806A0023C3
:105A6000A0F85E30A0F85630FDF752FC08BD0000EB
:105A70000368D9691A682DE9F04140F60F063142F2
:105A80009D68044610D18E0640F1978002F02006F2
:105A900005F080573E4300F09080436F002B00F0EC
:105AA0008580BDE8F0411847AB4EAC482E40104011
:105AB000304300F08280CF0709D5D00507D50120FB
:105AC0001862D4F8900040F00100C4F890008F07ED
:105AD00009D5E80707D502201862D4F8900040F0F5
