:020000040800F2
:1000000000000120F5030008DF030008E1030008F9
:10001000E3030008E5030008E70300080000000010
:10002000000000000000000000000000E9030008DC
:10003000EB03000800000000ED030008EF030008D8
:10004000450400084504000845040008450400086C
:10005000450400084504000845040008450400085C
:10006000450400084504000845040008450400084C
:10007000450400084504000845040008450400083C
:10008000450400084504000845040008450400082C
:10009000000000004504000845040008450400086D
:1000A000450400084504000845040008450400080C
:1000B00045040008450400084504000845040008FC
:1000C00045040008450400084504000845040008EC
:1000D00045040008450400084504000845040008DC
:1000E00045040008450400084504000845040008CC
:1000F000450400080000000000000000450400085E
:1001000045040008450400084504000845040008AB
:10011000450400084504000845040008450400089B
:10012000450400084504000845040008450400088B
:10013000450400084504000810B5054C237833B980
:10014000044B13B10448AFF300800123237010BDAA
:100150000C00002000000000C413000808B5034B89
:100160001BB103490348AFF3008008BD0000000045
:1001700010000020C413000830B521F003010E4D1B
:10018000034601444FF0FF308B4200D130BD9A78D6
:100190005C78120442EA04221C782243DC7842EAAA
:1001A00004625040202200284FEA4000B8BF684057
:1001B000013AF8D10433E7E7B71DC10430B585B083
:1001C0000C46054600F038FA0C4B9A6942F0404262
:1001D0009A6105F178454CF2FA3204F2FF741A6123
:1001E00069460223ED0AE40A01A8019302950394EB
:1001F00000F0B4FA00F032FA05B030BD004000580B
:1002000000B59BB04422002109A801F0AFF81822E4
:10021000002102A801F0AAF8154A136823F4C0636C
:1002200043F480631360136803F4C0630193019B7C
:100230002023012108936022002308A8CDE9101390
:10024000CDE9122300F018FD014608B172B6FEE7B1
:100250004F23CDE90230CDE90400CDE9060002A824
:1002600000F0A4FF08B172B6FEE71BB05DF804FB16
:10027000000400582DE9F043534D87B000F030F9E9
:10028000FFF7BEFF2A68514B9A424FD1EB68012B12
:100290004CD16968B1F5E83F48D84D48FFF76CFF8D
:1002A000AB68984242D1DFF82C91DFF82C8103270C
:1002B00072B64FF4E8314846FFF780FF6C6800F0F3
:1002C000BBF9D8F8183043F04043C8F81830073469
:1002D0004CF2FA3324F00704C8F810300026B44278
:1002E0000BD800F0BBF962B669684846FFF744FFD7
:1002F000AC68231A5C425C410FE006F1006101F535
:100300000833D3E9002301F5A041012000F0E0F912
:1003100008B300F0A3F962B60024013F1DD0002C01
:10032000C6D029484FF40061FFF748FF294C2668E2
:10033000656872B600F0A8FB00F086F84FF0E02385
:1003400000221A615A619A61C3F8084D86F3088841
:1003500062B6A847FEE70836C1E7002CE1D14FF0AE
:10036000B0434FF48875DA6C42F00102DA64DB6C5A
:10037000059403F001030093009B01A901234FF0B2
:100380009040CDE90344CDE9015300F035FA22460F
:1003900029464FF0904000F0DBFA01224FF48071C3
:1003A0004FF0904000F0D4FA4FF4967000F0C0F88F
:1003B00000224FF480714FF0904000F0C9FA4FF4E2
:1003C000967000F0B5F8E8E700F003083143414DBE
:1003D0000020020800500008004000587047FEE767
:1003E000FEE7FEE7FEE7FEE770477047704700F064
:1003F0008DB870470D488546FFF7FBFF0C480D4947
:100400000D4A002302E0D458C4500433C4188C426F
:10041000F9D30A4A0A4C002301E013600432A242D5
:10042000FBD300F0ABFFFFF725FFFEE70000012044
:10043000000000200C000020701400080C000020B8
:1004400044000020FEE770474FF0B04310B59A6BB0
:100450004FF0FF329A63D96BDA630024996B9C6387
:10046000D96BDC63196C1A64196C1C64596C5A647E
:10047000596C5C64996A9A62996A9C62D96ADA6278
:10048000D96ADC62196B1A631A6B1C63FFF7DBFF16
:10049000204610BD38B5104C237805460BB9012015
:1004A00038BD00F0D9FB22784FF47A73B3FBF2F336
:1004B000B0FBF3F000F094F804460028EFD10F2DC4
:1004C000EDD8024629464FF0FF3000F057F8034BB5
:1004D00020461D60E4E700BF040000200800002063
:1004E00010B5032000F038F800F0B6FB064B18609A
:1004F0000F20FFF7CFFF044618B9FFF76FFF204624
:1005000010BD0124FBE700BF00000020034A044B9C
:1005100011681B780B441360704700BF280000204F
:1005200004000020014B1868704700BF280000201D
:1005300038B50446FFF7F6FF631C1CBF054B1B785C
:10054000054618BFE418FFF7EDFF431BA342FAD39B
:1005500038BD00BF040000200749CA6822F4E062E9
:100560000302120403F4E063120C134343F0BF636D
:1005700043F40033CB60704700ED00E0164B30B51C
:10058000DC68C4F30224C4F10703251D042B28BF33
:100590000423062D4FF0FF358CBF033C002405FAE1
:1005A00003F321EA0303A54022EA0502A340002841
:1005B00043EA0203ACBF00F16040084A4FEA03136C
:1005C000B8BF00F00F00DBB2AABF00F561401354C2
:1005D00080F8003330BD00BF00ED00E014ED00E016
:1005E0000138B0F1807F0BD24FF0E023054A58610B
:1005F000F02182F823100020072298611A617047C9
:100600000120704700ED00E00A4A536943F480235B
:1006100030B55361EFF3108472B60023CD58C55046
:100620000433B3F5807FF9D11369DB03FCD484F381
:10063000108830BD00400058064B5A69002ABFBFE1
:10064000054A9A6002F188329A60BABF5869C00FB1
:10065000002070470040005823016745044B5A6949
:1006600042F000425A615869C043C00F704700BF52
:100670000040005870B50546FFF754FF124E04467F
:100680003369D90313D43369DA0744BF01223261D5
:100690004CF2FA32134011D10B4E306910F4802025
:1006A0000BD0FFF73FFF001BA842F6D304E0FFF793
:1006B00039FF001BA842E3D3032070BD024A136137
:1006C000024A01205360F8E7004000582C00002047
:1006D0002DE9F041184D98462B78012B06460C4623
:1006E000174626D001232B704FF47A7000236B60DD
:1006F000FFF7C0FFA0B9012E16D1104A536943F08D
:10070000010353612760BFF36F8FC4F804804FF477
:100710007A70FFF7AFFF094A536923EA0603536172
:1007200000232B70BDE8F08139462046FFF76CFFAF
:10073000EDE70220F6E700BF2C0000200040005843
:10074000054A536923F47E7343EAC00040F48030C5
:1007500040F0020050617047004000582DE9F04120
:10076000234F3B78012B054688463FD001233B7041
:100770004FF47A7000237B60FFF77CFF044688B952
:100780002B68042B13D11B4A536943F4803343F085
:10079000040353614FF47A70FFF76CFF0446154B66
:1007A0001A681B6800233B702046BDE8F0814FF0BB
:1007B000FF33C8F800306E68D5E901321344B34204
:1007C0000AD93046FFF7BCFF4FF47A70FFF752FFAB
:1007D00050B1C8F800600446064A536923F47E739A
:1007E00023F002035361DAE70136E5E70224DBE791
:1007F0002C000020004000582DE9F04F524C0023FF
:100800004FF00F090A6832FA03F501D1BDE8F08F05
:10081000012505FA03F818EA020200F08E804E68FE
:10082000032706F003054FEA430E07FA0EFC6F1E7E
:10083000012F6FEA0C0C32D8876807EA0C0ACF68E0
:1008400007FA0EF747EA0A078760476827EA0808A9
:10085000C6F300179F4047EA08074760C76807EAE2
:100860000C088F6807FA0EF747EA0807022DC760E1
:1008700017D14FEAD30800EB880803F0070AD8F82D
:1008800020704FEA8A0A09FA0AFB27EA0B0B0F6964
:1008900007FA0AF747EA0B07C8F8207001E0032DB2
:1008A000DCD1076805FA0EF507EA0C073D4316F49C
:1008B000403F056041D023F0030707F1804707F56B
:1008C000803703F0030CBD684FEA8C0C4FF0070E25
:1008D0000EFA0CFEB0F1904F25EA0E0E2FD01B4DF4
:1008E000A8422ED005F58065A84214BF0725022531
:1008F00005FA0CF545EA0E05BD602568D74316F4E8
:10090000801F0CBF3D4015432560656816F4001F2D
:100910000CBF3D4015436560D4F8805016F4803F0D
:100920000CBF3D401543C4F88050D4F88450B60342
:1009300054BF3D401543C4F88450013362E700259D
:10094000D6E70125D4E700BF00080058000400489E
:100950000AB181617047816270470000024A1368E2
:1009600043F480731360704700040058024B18680A
:1009700000F4C060704700BF000400584FF0B0435F
:100980001868C0F3404070474FF0B0431868C0F398
:10099000400070474FF0B042536823F47F4343EA6E
:1009A0000023536070474FF0B0431868C0F34060B5
:1009B000704700007FB54FF0B0432C4AD3F80831A0
:1009C000C0F3031003F00F0352F82040284A52F8F6
:1009D0002330B4FBF3F4FFF7C9FF264B054693E839
:1009E0000700B5F5007F04AB03E9070010D0224BE8
:1009F0009C4218D303F5B70303F67F539C4229D9D1
:100A000003F5741303F510639C4225D802230BE011
:100A10001A4B9C4207D91A4B9C421BD903F537034A
:100A200003F5D853F0E7002304AA02EB830353F83D
:100A30000C4C144D2B6823F0070323432B60FFF766
:100A400071FD06462B6803F007039C4206D1002087
:100A500004B070BD0123E7E70024EAE7FFF762FD79
:100A6000801B0228EED90320F2E700BFE81300083C
:100A700028140008DC130008C0CF6A00BFEA210177
:100A80003F9334020040005870B5FFF74BFD4FF024
:100A9000B0420446136843F001031360FFF774FF8C
:100AA000002848D04FF0B0440020236823F0F00322
:100AB00043F060032360FFF76DFF636823F0FE439C
:100AC00043F080436360FFF72DFD00230546A360DC
:100AD00041F28836A36813F00C0F33D12268224B01
:100AE00013402360FFF71EFD0446FFF747FF78BB66
:100AF0004FF0B042136823F400131360FFF712FDA8
:100B00000446FFF750FF48BB4FF0B043174ADA6086
:100B10004FF0FF3298611A624FF44032C3F8082157
:100B2000134B144A1A60144B1868FFF7B3FC0038D3
:100B300018BF012005E0FFF7F5FC001B0228ADD926
:100B4000032070BDFFF7EEFC401BB042C2D9F7E7AF
:100B5000FFF7E8FC001B6428C7D9F1E7FFF7E2FCC8
:100B6000001B0A28CDD9EBE7FFF4EEFE00010422BA
:100B70000000002000093D00080000204FF0B043B5
:100B800010B59A68D96812F00C0205D00C2A4AD127
:100B900001F00303012B51D14FF0B0412B480B68FA
:100BA00013F0080306D00B6813F0080337D1D1F80F
:100BB000941007E00C68240756BFD1F894300968F8
:100BC000C3F3032350F82330002A0CBF184600203B
:100BD0004FF0B0418A6802F00C020C2A1ED1CA689C
:100BE00002F00302022A2ED0032A06D10B68184A0B
:100BF00013F4801F174B18BF13464FF0B042D06854
:100C0000D168D268C0F306205843C1F30213013300
:100C1000B0FBF3F0530F0133B0FBF3F010BD0B68E2
:100C2000C3F30313CEE7042A05D0082A06D11B68B4
:100C300013F4801305D006480023C9E700231846A3
:100C4000C6E70448C4E7024BD7E700BFE813000833
:100C50000024F4000048E80108B5FFF78FFF4FF0CB
:100C6000B043044A9B68C3F3031352F82330B0FB2C
:100C7000F3F008BD281400082DE9F04104460028CF
:100C800053D04FF0B0439D68DE6803689B0605F0C3
:100C90000C0506F0030668D5026A1DB10C2D46D17D
:100CA000012E44D1002A40D04FF0B043A16A1A6807
:100CB000170756BFD3F894301B681B0903F0F003E5
:100CC00099421FD90846FFF775FE00282DD14FF035
:100CD000B042136843F0080313601368A16A23F05D
:100CE000F0030B431360606AFFF754FEFFF7B4FF95
:100CF000AB4B1860AB4B1868FFF7CCFB002834D027
:100D0000BDE8F0814FF0B042136843F00803136070
:100D1000136823F0F0030B431360606AFFF73AFE99
:100D20000846FFF747FE0028E0D00120E8E74FF033
:100D3000B043002A54D01A6842F001021A60FFF74B
:100D4000F1FB0746FFF720FE002842D04FF0B042EB
:100D5000136843F0080313601368A16A23F0F003DB
:100D60000B431360606AFFF715FE2368D80748D469
:100D70002368990700F18C8023681E0740F1FA80F0
:100D8000A3694FF0B046002B00F0E180D6F8943014
:100D9000E16903F01002914200F0C48003F0030205
:100DA000022AC2D0D80740F1B380D6F8943023F09D
:100DB0000103C6F89430FFF7B5FB0746D6F8943028
:100DC000990740F1A580FFF7ADFBC31B112BF5D9A7
:100DD00004E0FFF7A7FBC01B0228B3D903208FE76D
:100DE0001A6822F001021A60FFF79CFB0746FFF722
:100DF000CBFD0028B9D0FFF795FBC01B0228F6D920
:100E0000ECE7082D03D00C2D05D1032E03D1636828
:100E1000002BADD189E74FF0B043A1681A6822F4E6
:100E200080120A431A606268B2F5803F10D11A68D6
:100E300042F480321A60FFF775FB0746FFF79EFD0C
:100E4000002895D1FFF76EFBC01B6428F6D9C5E7D3
:100E5000B2F5041F04D11A6842F400121A60E6E7E2
:100E6000196821F480311960196821F400111960A2
:100E7000002AE0D1FFF756FB0746FFF77FFD002869
:100E80003FF476AFFFF74EFBC01B6428F5D9A5E70A
:100E9000042D236903D00C2D0ED1022E0CD1002B72
:100EA0003FF443AF4FF0B0426169536823F0FE4313
:100EB00043EA016353605FE74FF0B046BBB133686C
:100EC00043F480733360FFF72DFB074633685A0500
:100ED00005D4FFF727FBC31B022BF7D97EE7736806
:100EE000626923F0FE4343EA0263736044E73368B8
:100EF00023F480733360FFF715FB074633685B0507
:100F00007FF53AAFFFF70EFBC31B022BF6D965E75F
:100F10004FF0B042E169D2F8943023F010030B4354
:100F2000C2F894304FF0B047D7F8943043F0010343
:100F3000C7F89430FFF7F6FA0646D7F894309A07C8
:100F400018D4FFF7EFFA831B112BF6D946E7D6F832
:100F5000943023F00103C6F89430FFF7E3FA074614
:100F6000D6F894309B0705D5FFF7DCFAC31B112B8D
:100F7000F6D933E72368580754D50B4F3B68D9059A
:100F800014D4FFF7EBFCFFF7CDFA06463B68DA0511
:100F90000CD4FFF7C7FA831B022BF7D91EE700BF5B
:100FA000000000200800002000040058E3684FF013
:100FB000B046002B58D023F08003052B02BFD6F893
:100FC000903043F00403C6F890304FF0B046FFF77E
:100FD000A9FAD6F8903043F001030746C6F89030DE
:100FE00041F28838D6F890309B0705D4FFF79AFA7B
:100FF000C31B4345F6D9F1E6E36823F00403812BD4
:101000001BD1FFF78FFAD6F8903043F08003C6F873
:10101000903007464FF0B04641F28838D6F890300D
:10102000180504D5E36A002B4AD1002068E6FFF7D3
:1010300079FAC01B4045F1D9D0E6FFF773FAD6F82C
:10104000903023F08003C6F8903007464FF0B0464A
:1010500041F28838D6F890301905E3D5FFF762FAE7
:10106000C01B4045F6D9B9E6FFF75CFAD6F89030D8
:1010700023F080030746C6F8903041F28838D6F84E
:1010800090301A0516D4FFF74DFAD6F8903023F0B9
:101090000103C6F8903007464FF0B04841F2883659
:1010A000D8F890309B07BDD5FFF73CFAC31BB3427D
:1010B000F6D993E6FFF736FAC01B4045DFD98DE637
:1010C0000C2D4ED0022B4FF0B0431A6822F08072E4
:1010D0001A6033D1FFF726FA0546FFF764FC38BBE8
:1010E000D4E90C314FF0B0420B43D0682D49014098
:1010F0000B43E16B0B43216C0B43616C0B43A16B06
:1011000043EA0123D360136843F080731360D3680C
:1011100043F08053D360FFF705FA0446FFF743FC22
:10112000002882D1FFF7FEF9001B0A28F6D955E600
:10113000FFF7F8F9401B0A28CFD94FE6FFF7F2F97D
:101140000446FFF730FC30B94FF0B042164BD1687F
:101150000B40D36069E7FFF7E5F9001B0A28F0D9D7
:101160003CE6012B3FF4E1AD4FF0B043D868236B70
:1011700000F003029A427FF4D8AD626B00F0700376
:1011800093427FF4D2ADA26B00F4FE43B3EB022F87
:101190007FF4CBAD636C00F06040C01A18BF012033
:1011A000AEE500BF8C80C111FCFFFEEE2DE9F041E1
:1011B0000D46044610B90120BDE8F081684E336841
:1011C00003F007038B4216D323689A0727D54FF005
:1011D000B047A268BB6823F0F0031343BB60FFF77E
:1011E000A1F90646BB68DB0319D4FFF79BF9831B03
:1011F000022BF7D911E0336823F007030B43336068
:10120000FFF790F90746336803F00703AB42DBD0E2
:10121000FFF788F9C01B0228F5D90320CCE7236823
:10122000580617D54FF0B0476269D7F8083123F058
:101230000F0343EA1213C7F80831FFF773F90646A4
:10124000D7F80831D90305D4FFF76CF9831B022BBB
:10125000F6D9E2E723685A0713D54FF0B047E268A2
:10126000BB6823F4E0631343BB60FFF75BF90646FA
:10127000BB689B0305D4FFF755F9831B022BF7D9F5
:10128000CBE72368180714D54FF0B0472269BB6835
:1012900023F4605343EAC203BB60FFF743F90646F9
:1012A000BB68590305D4FFF73DF9831B022BF7D91F
:1012B000B3E72368DA070FD4294C236803F0070348
:1012C000AB4239D8FFF7C8FC264B1860264BBDE867
:1012D000F0411868FFF7DEB86268022A1DD1FFF7F7
:1012E0004DFB00283FF467AF4FF0B04641F288381D
:1012F000B36823F003031343B360FFF713F9074602
:10130000B368626803F00C03B3EB820FD4D0FFF72D
:1013100009F9C01B4045F3D97FE7032A02D1FFF743
:1013200042FBDEE712B9FFF72FFBDAE74FF0B043DD
:101330001B685B05D8D43EE7236823F007032B43E3
:101340002360FFF7EFF80646236803F00703AB427C
:10135000B8D0FFF7E7F8801B0228F5D95DE700BF9A
:10136000004000580000002008000020024403460E
:10137000934200D1704703F8011BF9E770B50D4D9A
:101380000D4C641BA4100026A64209D10B4D0C4C39
:1013900000F018F8641BA4100026A64205D170BD09
:1013A00055F8043B98470136EEE755F8043B98475B
:1013B0000136F2E768140008681400086814000891
:1013C0006C140008F8B500BFF8BC08BC9E46704716
:1013D000F8B500BFF8BC08BC9E467047000000008E
:1013E0000100000002000000A0860100400D030083
:1013F000801A060000350C0040420F0080841E0059
:1014000000093D0000127A000024F40000366E014D
:101410000048E801006CDC02000000000000000051
:1014200000000000000000000100000003000000B8
:10143000050000000100000001000000060000009F
:101440000A0000002000000002000000040000006C
:1014500008000000100000004000000080000000B4
:1014600000010000000200005D01000839010008D1
:0C14700000093D00010000001000000019
:10500000000001201D740008F56C0008F76C000812
:10501000F96C0008FB6C0008FD6C00080000000043
:10502000000000000000000000000000FF6C00080D
:10503000016D000800000000036D0008056D000808
:105040006D7400086D740008096D00086D74000827
:105050006D740008156D00086D740008176D000868
:105060006D7400086D7400086D7400086D7400089C
:105070006D7400086D7400086D7400081D6D0008E3
:105080006D7400086D7400086D7400086D7400087C
:10509000000000006D7400086D7400086D74000855
:1050A0006D7400086D7400086D7400086D7400085C
:1050B0006D7400086D7400086D7400086D7400084C
:1050C0006D7400086D7400086D7400086D7400083C
:1050D0006D740008296D00086D7400086D74000877
:1050E0006D7400086D740008356D00086D7400085B
:1050F0006D74000800000000000000006D740008DE
:105100006D7400086D740008416D00086D7400082E
:105110006D7400086D7400086D7400086D740008EB
:105120006D7400086D7400086D7400086D740008DB
:085130006D7400086D740008A5
:1051400010B5054C237833B9044B13B10448AFF3C1
:1051500000800123237010BD980100200000000092
:1051600088CE010808B5034B1BB103490348AFF3D0
:10517000008008BD000000009C01002088CE0108CE
:10518000034613F8012B002AFBD1181A0138704787
:1051900001F0FF01102A2BDB10F0070F08D010F8E8
:1051A000013B013A8B422DD010F0070F42B3F6D1EC
:1051B000F0B441EA012141EA014122F007047FF005
:1051C00000070023F0E80256083C85EA010586EA5C
:1051D000010685FA47F5A3FA87F586FA47F6A5FA98
:1051E00087F68EB9EED1F0BC01F0FF0102F00702A4
:1051F00032B110F8013B013A83EA010313B1F8D14F
:105200000020704701387047002D06BF354603382F
:10521000073815F0010F07D1013015F4807F02BF68
:10522000013015F4C03F0130F0BC0138704700BFB9
:1052300081F0004102E000BF83F0004330B54FEA47
:1052400041044FEA430594EA050F08BF90EA020FB4
:105250001FBF54EA000C55EA020C7FEA645C7FEA47
:10526000655C00F0E2804FEA5454D4EB5555B8BF6A
:105270006D420CDD2C4480EA020281EA030382EADB
:10528000000083EA010180EA020281EA0303362D6D
:1052900088BF30BD11F0004F4FEA01314FF4801C40
:1052A0004CEA113102D0404261EB410113F0004F52
:1052B0004FEA03334CEA133302D0524263EB430309
:1052C00094EA050F00F0A780A4F10104D5F1200EA7
:1052D0000DDB02FA0EFC22FA05F2801841F1000102
:1052E00003FA0EF2801843FA05F359410EE0A5F1D6
:1052F00020050EF1200E012A03FA0EFC28BF4CF007
:10530000020C43FA05F3C01851EBE37101F00045BC
:1053100007D54FF0000EDCF1000C7EEB00006EEBC9
:105320000101B1F5801F1BD3B1F5001F0CD3490853
:105330005FEA30004FEA3C0C04F101044FEA4452AA
:1053400012F5800F80F09A80BCF1004F08BF5FEA31
:10535000500C50F1000041EB045141EA050130BD11
:105360005FEA4C0C404141EB0101013C28BFB1F523
:10537000801FE9D291F0000F04BF01460020B1FA6E
:1053800081F308BF2033A3F10B03B3F120020CDA41
:105390000C3208DD02F1140CC2F10C0201FA0CF01F
:1053A00021FA02F10CE002F11402D8BFC2F1200C84
:1053B00001FA02F120FA0CFCDCBF41EA0C0190403A
:1053C000E41AA2BF01EB0451294330BD6FEA040483
:1053D0001F3C1CDA0C340EDC04F11404C4F120026E
:1053E00020FA04F001FA02F340EA030021FA04F380
:1053F00045EA030130BDC4F10C04C4F1200220FAD7
:1054000002F001FA04F340EA0300294630BD21FA14
:1054100004F0294630BD94F0000F83F4801306BFDA
:1054200081F480110134013D4EE77FEA645C18BFCE
:105430007FEA655C29D094EA050F08BF90EA020F65
:1054400005D054EA000C04BF1946104630BD91EA5D
:10545000030F1EBF0021002030BD5FEA545C05D160
:105460004000494128BF41F0004130BD14F580049F
:105470003CBF01F5801130BD01F0004545F0FE4113
:1054800041F470014FF0000030BD7FEA645C1ABF48
:10549000194610467FEA655C1CBF0B46024650EA7F
:1054A000013406BF52EA033591EA030F41F40021AB
:1054B00030BD00BF90F0000F04BF0021704730B531
:1054C0004FF4806404F132044FF000054FF0000106
:1054D00050E700BF90F0000F04BF0021704730B5C7
:1054E0004FF4806404F1320410F0004548BF40429C
:1054F0004FF000013EE700BF42004FEAE2014FEAF1
:1055000031014FEA02701FBF12F07F4393F07F4FCB
:1055100081F06051704732F07F4208BF704793F0CE
:105520007F4F04BF41F40021704730B54FF46074E1
:1055300001F0004521F000411CE700BF50EA0102E4
:1055400008BF704730B54FF000050AE050EA01028D
:1055500008BF704730B511F0004502D5404261EBFD
:1055600041014FF4806404F132045FEA915C3FF43E
:10557000D8AE4FF003025FEADC0C18BF03325FEADB
:10558000DC0C18BF033202EBDC02C2F1200300FA8C
:1055900003FC20FA02F001FA03FE40EA0E0021FAB1
:1055A00002F11444BDE600BF4FF0FF3C06E000BF2F
:1055B0004FF0010C02E000BF4FF0010C4DF804CD9C
:1055C0004FEA410C7FEA6C5C4FEA430C18BF7FEA5C
:1055D0006C5C1BD001B050EA410C0CBF52EA430C8A
:1055E00091EA030F02BF90EA020F0020704710F10A
:1055F000000F91EA030F58BF994208BF90422CBF99
:10560000D8176FEAE37040F0010070474FEA410C91
:105610007FEA6C5C02D150EA013C07D14FEA430CAF
:105620007FEA6C5CD6D152EA033CD3D05DF8040B20
:10563000704700BF8446104662468C461946634652
:1056400000E000BF01B5FFF7B7FF002848BF10F129
:10565000000F01BD4DF808EDFFF7F4FF0CBF01206E
:1056600000205DF808FB00BF4DF808EDFFF7EAFFEA
:1056700034BF012000205DF808FB00BF4DF808EDA5
:10568000FFF7E0FF94BF012000205DF808FB00BF9A
:105690004DF808EDFFF7CEFF94BF012000205DF824
:1056A00008FB00BF4DF808EDFFF7C4FF34BF012031
:1056B00000205DF808FB00BF4FEA410212F500121E
:1056C00015D211D56FF47873B3EB625212D94FEA49
:1056D000C12343F0004343EA505311F0004F23FA33
:1056E00002F018BF404270474FF00000704750EA88
:1056F000013005D111F0004008BF6FF00040704745
:105700004FF00000704700BF80F0004002E000BF93
:1057100081F0004142001FBF5FEA410392EA030F9C
:105720007FEA226C7FEA236C6AD04FEA1262D2EBE6
:105730001363C1BFD218414048404140B8BF5B42EB
:10574000192B88BF704710F0004F40F4000020F084
:105750007F4018BF404211F0004F41F4000121F09A
:105760007F4118BF494292EA030F3FD0A2F10102E4
:1057700041FA03FC10EB0C00C3F1200301FA03F122
:1057800000F0004302D5494260EB4000B0F5000F45
:1057900013D3B0F1807F06D340084FEA310102F104
:1057A0000102FE2A51D2B1F1004F40EBC25008BFB6
:1057B00020F0010040EA03007047490040EB000080
:1057C000013A28BFB0F5000FEDD2B0FA80FCACF181
:1057D000080CB2EB0C0200FA0CF0AABF00EBC250AE
:1057E00052421843BCBFD0401843704792F0000F9C
:1057F00081F4000106BF80F400000132013BB5E7EF
:105800004FEA41037FEA226C18BF7FEA236C21D064
:1058100092EA030F04D092F0000F08BF08467047C9
:1058200090EA010F1CBF0020704712F07F4F04D197
:10583000400028BF40F00040704712F100723CBFAA
:1058400000F50000704700F0004343F0FE4040F4D4
:10585000000070477FEA226216BF08467FEA236392
:105860000146420206BF5FEA412390EA010F40F47D
:10587000800070474FF0000304E000BF10F00043C9
:1058800048BF40425FEA000C08BF704743F09643B0
:1058900001464FF000001CE050EA010208BF7047CB
:1058A0004FF000030AE000BF50EA010208BF704752
:1058B00011F0004302D5404261EB41015FEA010C67
:1058C00002BF84460146002043F0B64308BFA3F15F
:1058D0008053A3F50003BCFA8CF2083AA3EBC25341
:1058E00010DB01FA02FC634400FA02FCC2F1200260
:1058F000BCF1004F20FA02F243EB020008BF20F097
:105900000100704702F1200201FA02FCC2F12002FC
:1059100050EA4C0021FA02F243EB020008BF20EAF1
:10592000DC7070474FF0FF0C1CEAD0521EBF1CEA1F
:10593000D15392EA0C0F93EA0C0F6FD01A4480EA0D
:10594000010C400218BF5FEA41211ED04FF00063F6
:1059500043EA501043EA5111A0FB01310CF0004022
:10596000B1F5000F3EBF490041EAD3715B0040EA48
:10597000010062F17F02FD2A1DD8B3F1004F40EB18
:10598000C25008BF20F00100704790F0000F0CF0EB
:10599000004C08BF49024CEA502040EA51207F3AAF
:1059A000C2BFD2F1FF0340EAC250704740F400008A
:1059B0004FF00003013A5DDC12F1190FDCBF00F07B
:1059C00000407047C2F10002410021FA02F1C2F129
:1059D000200200FA02FC5FEA310040F1000053EAC5
:1059E0004C0308BF20EADC70704792F0000F00F013
:1059F000004C02BF400010F4000F013AF9D040EA19
:105A00000C0093F0000F01F0004C02BF490011F4AC
:105A1000000F013BF9D041EA0C018FE70CEAD153AA
:105A200092EA0C0F18BF93EA0C0F0AD030F0004C2A
:105A300018BF31F0004CD8D180EA010000F00040DE
:105A4000704790F0000F17BF90F0004F084691F09C
:105A5000000F91F0004F14D092EA0C0F01D14202D6
:105A60000FD193EA0C0F03D14B0218BF084608D19F
:105A700080EA010000F0004040F0FE4040F40000E9
:105A8000704740F0FE4040F4400070474FF0FF0C7C
:105A90001CEAD0521EBF1CEAD15392EA0C0F93EAC3
:105AA0000C0F69D0A2EB030280EA010C49024FEA15
:105AB000402037D04FF0805343EA111143EA1013CE
:105AC0000CF000408B4238BF5B0042F17D024FF486
:105AD000000C8B4224BF5B1A40EA0C00B3EB510F61
:105AE00024BFA3EB510340EA5C00B3EB910F24BF4A
:105AF000A3EB910340EA9C00B3EBD10F24BFA3EBCF
:105B0000D10340EADC001B0118BF5FEA1C1CE0D196
:105B1000FD2A3FF650AF8B4240EBC25008BF20F049
:105B2000010070470CF0004C4CEA50207F32C2BF9D
:105B3000D2F1FF0340EAC250704740F400004FF03A
:105B40000003013A37E792F0000F00F0004C02BF6B
:105B5000400010F4000F013AF9D040EA0C0093F035
:105B6000000F01F0004C02BF490011F4000F013B8F
:105B7000F9D041EA0C0195E70CEAD15392EA0C0FF7
:105B800008D142027FF47DAF93EA0C0F7FF470AF2F
:105B9000084676E793EA0C0F04D14B023FF44CAF72
:105BA00008466EE730F0004C18BF31F0004CCAD107
:105BB00030F000427FF45CAF31F000437FF43CAF43
:105BC0005FE700BF4FF0FF3C06E000BF4FF0010C65
:105BD00002E000BF4FF0010C4DF804CD4FEA400247
:105BE0004FEA41037FEA226C18BF7FEA236C11D091
:105BF00001B052EA530C18BF90EA010F58BFB2EB44
:105C0000030088BFC81738BF6FEAE17018BF40F0C3
:105C1000010070477FEA226C02D15FEA402C05D177
:105C20007FEA236CE4D15FEA412CE1D05DF8040BFC
:105C3000704700BF844608466146FFE70FB5FFF78F
:105C4000C9FF002848BF10F1000F0FBD4DF808ED47
:105C5000FFF7F4FF0CBF012000205DF808FB00BF38
:105C60004DF808EDFFF7EAFF34BF012000205DF892
:105C700008FB00BF4DF808EDFFF7E0FF94BF0120DF
:105C800000205DF808FB00BF4DF808EDFFF7D2FFDC
:105C900094BF012000205DF808FB00BF4DF808ED1F
:105CA000FFF7C8FF34BF012000205DF808FB00BFEC
:105CB0004FEA4002B2F1FE4F0FD34FF09E03B3EB19
:105CC00012620DD94FEA002343F0004310F0004F59
:105CD00023FA02F018BF404270474FF000007047AF
:105CE00012F1610F01D1420205D110F0004008BF4E
:105CF0006FF0004070474FF0000070477BB972B9F9
:105D00000029BEBF00204FF0004106E008BF002878
:105D10001CBF6FF000414FF0FF3000F0B5B9ADF19E
:105D2000080C6DE904CE002909DB002B1ADB00F01A
:105D30004DF8DDF804E0DDE9022304B0704740428D
:105D400061EB4101002B1BDB00F040F8DDF804E0C3
:105D5000DDE9022304B0404261EB4101524263EBB2
:105D600043037047524263EB430300F02FF8DDF822
:105D700004E0DDE9022304B0404261EB41017047D9
:105D8000524263EB430300F021F8DDF804E0DDE963
:105D9000022304B0524263EB4303704753B94AB93C
:105DA000002908BF00281CBF4FF0FF314FF0FF3023
:105DB00000F06AB9ADF1080C6DE904CE00F006F808
:105DC000DDF804E0DDE9022304B070472DE9F04777
:105DD000089D0C46002B4ED194468C458646B2FA5F
:105DE00082F262D94AB1C2F12003914020FA03F352
:105DF0000CFA02FC194300FA02FE4FEA1C471FFA94
:105E00008CF6B1FBF7F44FEA1E4307FB141143EA8B
:105E1000014304FB06F199420AD91CEB030304F188
:105E2000FF3080F01281994240F20F81023C6344BE
:105E3000591A1FFA8EF3B1FBF7F007FB101143EA72
:105E4000014300FB06F69E420AD91CEB030300F156
:105E5000FF3180F0FC809E4240F2F98063440238BA
:105E60009B1B40EA044000211DB1D3400022C5E93C
:105E70000032BDE8F0878B4205D90DB1C5E90001BC
:105E800000210846F5E7B3FA83F1002946D1A34281
:105E900002D39042C0F0F080861A64EB0303012025
:105EA000002DE6D0C5E90063E3E7002A40F09080CA
:105EB000A1EB0C044FEA1C481FFA8CF70121B4FB3C
:105EC000F8F64FEA1E4308FB164443EA044307FB77
:105ED00006F0984208D91CEB030306F1FF3402D206
:105EE000984200F2CD8026461C1A1FFA8EF3B4FBAE
:105EF000F8F008FB104443EA044300FB07F79F4215
:105F000008D91CEB030300F1FF3402D29F4200F2D8
:105F1000B0802046DB1B40EA0640A5E7C1F1200621
:105F20008B4022FA06F71F4320FA06FC04FA01F31D
:105F300043EA0C03F44000FA01F8380C4FEA134925
:105F4000B4FBF0FE1FFA87FC00FB1E4449EA044440
:105F50000EFB0CF9A14502FA01F20AD93C190EF127
:105F6000FF3A80F08480A14540F28180AEF1020EBC
:105F70003C44A4EB09041FFA83F9B4FBF0F300FBE3
:105F8000134449EA044403FB0CFCA44507D93C191B
:105F900003F1FF3067D2A44565D9023B3C4443EA94
:105FA0000E40A0FB0293A4EB0C049C42CE469C4600
:105FB00051D34ED055B1B8EB0E0364EB0C0404FA88
:105FC00006F6CB401E43CC40C5E90064002150E7F3
:105FD000C2F1200320FA03F10CFA02FC24FA03F3C5
:105FE00094400C434FEA1C4800FA02FE1FFA8CF75B
:105FF000B3FBF8F008FB1031230C43EA014300FB2C
:1060000007F1994208D91CEB030300F1FF362CD2AB
:1060100099422AD9023863445B1AA4B2B3FBF8F15F
:1060200008FB113344EA034401FB07F3A34208D9F8
:106030001CEB040401F1FF3613D2A34211D902393B
:106040006444E41A41EA004139E70446F0E60846B0
:1060500006E7C845AED2B9EB020E63EB070C013878
:10606000A8E73146EDE7034699E73046D4E7D64640
:106070007FE7634402384DE70646234608460FE7AC
:10608000023E634430E700BF704700BF30B585B0C3
:1060900000240546CDE90144039400F099FB14481F
:1060A00001F0FEFD08B100F08BFA1148039401A93C
:1060B000CDE9015401F0BEFB08B100F081FA0C48B3
:1060C00001F018FD08B100F07BFA4FF0FF310848ED
:1060D00001F052FB064801F0C5FD054801F0A6FBA2
:1060E0000446034801F068FD204605B030BD00BFFE
:1060F00098030020014B024A1A6070479803002061
:106100000024014008B50948FFF7C0FF68B1084BFB
:10611000B3F8AA304FF6FF72934216BF40F6E4423E
:10612000044B5343B3FBF0F398B208BD002000B416
:106130000075FF1FD8084C0013B50023ADF80630DA
:10614000FFF7E0FF04461948FFF7A0FF184BB3F82C
:10615000C820B3F8A8108A4204FB00F018D040F61B
:10616000E443B0FBF3F364205B1A4343521A93FBFE
:10617000F2F31E331BB2ADF80630BDF806305BB249
:106180001B02ADF80630BDF8060000B202B010BD2B
:106190004FF47A7240F6FF73B0FBF3F35343A3F569
:1061A0003923A3F50C6340F6C412E0E7001000B0F9
:1061B0000075FF1F08B502F0ADF810B16FF00400D4
:1061C00008BD064B9A6942F040429A614CF2FA329D
:1061D0001A6102F0B1F80028F2D0EFE70040005851
:1061E000F0B585B000230D4600930646A8B3FFF72F
:1061F000E1FF044670BB02F08DF888BB1A481B4AC9
:1062000002230193D0F8E01506F1784302EA8121D8
:10621000B3FBF1F701FB1733DB0A0293D0F8E0057B
:1062200005F178410139314402EA8022B1FBF2F0F4
:1062300002FB1011C3EBD1230133694601A803937C
:1062400002F000F920B1022814BF6FF0010401240C
:1062500002F072F8204605B0F0BD6FF00504F9E7D2
:106260006FF00404F6E700BF0070FF1F00FCFF039F
:10627000014B186000207047B40100202DE9F04F59
:10628000B0F1006F89B006460F469046C0F0C0805E
:10629000DFF89091644DD9F8E03505EA832303F1E6
:1062A0000063013B984200F2B380002900F0B38004
:1062B00040EA02035B0740F0AE80FFF77BFF044635
:1062C00090BB02F027F8002840F0A880D9F8E0152C
:1062D000009705EA812106F17842B2FBF1F301FB58
:1062E000132208F17843013B3344B3FBF1F001FB87
:1062F0001033DB0A01334FEAD22AA3EBD222012A60
:10630000039388BFC6F30A050AF58037C6F1080370
:106310008CBFC5F500654546FF02B3460693039B57
:106320009A4505D302F008F8204609B0BDE8F08F81
:10633000A6F10803069A1A4495421CD8009B0495BE
:106340000193CDF814B04FF00009059B09EB030150
:10635000049B99453DD3009BAB442B44A8EB05051A
:10636000B5F5006F009328BF4FF400650AF1010AEC
:1063700007F50067D3E753F8081F5A68B2F1FF3FEB
:1063800008BFB1F1FF3FD5D0284B186810B96FF0A6
:106390000504C7E727B14FF40062394614F062FBE9
:1063A000DFF888900099D9F80030CBF30A00184440
:1063B000AAB214F057FB4FF400613846FFF710FF04
:1063C00000BBD9F8003001934FF4006305970493A4
:1063D000B9E7019B07914B4402930120D3E90023C5
:1063E00001F0EAFF88B90799019BD1E9000259F849
:1063F0000310029B5B689A4208BF884205D109F1ED
:106400000809A2E76FF001048CE76FF0030489E745
:106410004FF0FF3488E76FF0050485E76FF0040460
:1064200082E700BF0070FF1F00FCFF03B4010020E3
:10643000B1F1006F70B510D30B4BD3F8E0650B4B87
:1064400003EA862303F10063013B994205D838B182
:1064500092B214F007FB002070BD4FF0FF30FBE755
:106460006FF00500F8E700BF0070FF1F00FCFF039E
:10647000B0F1006F10B40DD3084BD3F8E045084BD2
:1064800003EA842303F10063013B984202D810BC65
:10649000FFF7A6BE4FF0FF3010BC70470070FF1F23
:1064A00000FCFF034FF0B04382B0DA6C0243DA64C1
:1064B000DB6C03400193019B02B07047F0B587B0DD
:1064C0001422002101A815F007FB0220FFF7EAFFC4
:1064D000234F244E0120FFF7E5FF0420FFF7E2FFE2
:1064E0004FF48C713846002202F01AF90022602124
:1064F0004FF0904002F014F9002230464FF4005162
:1065000002F00EF9012500244FF48C7301A93846DE
:10651000CDE90135CDE9034401F0E2FF602301A993
:106520004FF09040CDE90135CDE9034401F0D8FFAB
:1065300002224FF4881301A94FF09040CDE90123C6
:10654000039501F0CDFF4FF4005301A93046CDE98A
:106550000135CDE9034401F0C3FF07B0F0BD00BF32
:1065600000040048000800484FF0B04382B0DA6CE5
:106570000243DA64DB6C03400193019B02B0704775
:106580004FF0B04307B59A6C42F004029A649A6CDB
:1065900002F004020192019A9A6C42F001029A649C
:1065A0009B6C03F001030093002202210F20009B4B
:1065B00001F014FC0F2003B05DF804EB01F040BCC7
:1065C00008B5322000F00AFDBFF34F8F0549064B96
:1065D000CA6802F4E0621343CB60BFF34F8F00BF81
:1065E000FDE700BF00ED00E00400FA0500B59BB038
:1065F0004822002108A815F06FFA1822002102A8ED
:1066000015F06AFA02F0A6F84FF0B042B021D2F8C5
:10661000903023F01803C2F89030D2F8003423F4FD
:10662000C06343F40073C2F80034D2F8003412910E
:1066300003F4C0630193019B2C230893812301225F
:106640000B9308A80023CDE91023CDE90E23139363
:1066500002F0F8F908B1FFF7B3FF4F23CDE902309C
:10666000CDE90400CDE90600022102A802F084FC75
:106670000028F0D11BB05DF804FB00007FB54C4B47
:106680004C4A9A6062B600F019FFFFF7AFFF142280
:10669000002101A815F020FA0220FFF765FF012074
:1066A000FFF762FF0420FFF75FFF4FF48C71424851
:1066B000002202F035F8002260214FF0904002F0F5
:1066C0002FF800223D484FF4005102F029F8002431
:1066D00001254FF48C73384801A9CDE90135CDE986
:1066E000034401F0FDFE602301A94FF09040CDE985
:1066F0000135CDE9034401F0F3FE4FF48813022085
:10670000CDE9010301A94FF09040039501F0E8FEA7
:106710004FF40053294801A9CDE90135CDE90344DF
:1067200001F0DEFE22462146072001F057FB07203C
:1067300001F086FBFFF724FF04F032FE2048214BD6
:10674000C0E9003402F00AFE08B1FFF739FF1E4C21
:106750001E4A20614FF4E133C4E900230C23C4E94D
:1067600005300823C4E90200C4E907006062A3629F
:1067700020464FF40043A36304F0A2FB0146002827
:10678000E3D1204604F00EFD01460028DDD120466D
:1067900004F028FD0028D8D1204604F0E8FC0028A9
:1067A000D3D1204603F030FC04F001FEFCE700BF2B
:1067B00000ED00E000500008000400480008004818
:1067C0008403002000100058AC0200200038014073
:1067D0001148124A08B54FF08043C0E90023042253
:1067E000002342610122C0E90233C0E90933C0E954
:1067F0000C33036103838376C26180F8203080F814
:106800002C30836380F83C30C36400F0B5FE08B1DF
:10681000FFF7D6FE08BD00BF98030020002401400A
:1068200030B58DB0204C2C22002101A815F054F970
:106830001E4B23601F23A3604FF0804200234FF4C0
:1068400080752046C4E90433C4E90723A361656267
:1068500002F062FF08B1FFF7B3FE204603F088F8AC
:1068600002460028F7D14FF00043089302900690AB
:106870004FF0005301A9204607930B9502F0ACFF9F
:106880000028E8D10121204603F0B0F84BF6BE65A0
:10689000A84206D001F05EFF2A460121204603F0FF
:1068A0009EF80DB030BD00BF4C0300200028004012
:1068B000044808B50823036003F0C6F808B1FFF7E1
:1068C0007FFE08BD4003002010B5144A144C4FF45D
:1068D0006133C4E90023204600230C22C4E90233BB
:1068E000C4E90523C4E90733C4E90933236104F08B
:1068F000E7FA014608B1FFF763FE204604F052FCB8
:1069000001460028F7D1204604F06CFC0028F2D1A3
:10691000204604F02CFC0028EDD110BD00440040BE
:10692000180200200648074A08B50023C0E90023E2
:1069300002F014FD18B1BDE80840FFF741BE08BDE4
:1069400084030020001000587047000008B500F0D4
:10695000D7FD044B0120C3F88800BDE8084001F0D2
:1069600051BF00BF0004005800F0D1BD08B500F0D1
:10697000CEFDBDE8084000F011BD08B500F0C0FD37
:10698000BDE808400121002001F0ECBE70474FF047
:10699000B04382B0DA6C0243DA64DB6C03400193EB
:1069A000019B02B0704708B500220520114601F096
:1069B00015FABDE80840052001F042BA30B504469A
:1069C00087B01422002101A815F086F82268154B23
:1069D0009A4225D14FF0B04302201A6E42F4007261
:1069E0001A661B6E03F400730093009BFFF7CFFF42
:1069F0000120FFF7CCFF04230DEB03010A48032518
:106A00000024CDE90135039401F06AFD4FF4806361
:106A100001A94FF09040CDE90135039401F060FDEC
:106A200007B030BD002401400004004808B50268EA
:106A30000A4B9A4211D14FF0B0420948136E23F429
:106A400000731366042101F0F7FDBDE808404FF420
:106A500080614FF0904001F0EFBD08BD002401407F
:106A60000004004810B5044690B03822002102A866
:106A700015F032F822680E4B9A4216D14FF40043BB
:106A8000029302A84FF080430E9302F099FB08B1E5
:106A9000FFF796FD4FF0B0431A6D42F480221A655D
:106AA0001B6D03F480230193019B10B010BD00BF48
:106AB000001000580268054B9A4201BF4FF0B042E7
:106AC000136D23F480231365704700BF0010005836
:106AD00010B5044690B03822002102A814F0FCFF43
:106AE0002268194B9A422CD14FF48033029302A8AA
:106AF0004FF480730F9302F063FB08B1FFF760FD62
:106B00004FF0B0430220D3F8902042F40042C3F883
:106B100090209A6D42F480629A659B6D002203F486
:106B2000806311460193019B01F058F9022001F0A6
:106B300087F900222A20114601F050F92A2001F09D
:106B40007FF910B010BD00BF002800404FF0B043E7
:106B500007B55A6E42F001025A665B6E002203F0DE
:106B60000103019311463220019B01F037F93220D5
:106B700003B05DF804EB01F063B9000070B596B0A6
:106B800006461422002103A814F0A6FF3822002193
:106B900008A814F0A1FF3368394A934226D1012492
:106BA0004FF4403308A8CDE9084302F009FB08B1CF
:106BB000FFF706FD4FF0B04302201A6E42F4804208
:106BC0001A661B6E03F480430193019BFFF7DFFEFF
:106BD000C023CDE903300023CDE90533294807233D
:106BE00003A9079301F07CFC16B070BD264A9342BE
:106BF000FAD10223089308A84FF440230A9302F025
:106C0000DFFA08B1FFF7DCFC4FF0B04301209A6DCA
:106C10001E4C42F400329A659B6D03F400330293DC
:106C2000029BFFF7B4FE0C2202230025CDE90323CB
:106C300003A907234FF090400793CDE9055501F0D4
:106C40004FFC134925621423C4E900131023C4E93F
:106C5000023520468023C4E90435C4E9065501F015
:106C600075F908B1FFF7ACFC0022F4671146252046
:106C7000A66201F0B3F8252001F0E2F8B4E700BF06
:106C8000003801400004004800440040B8010020E2
:106C9000580002400368144A934210B504460BD1D1
:106CA0004FF0B042BDE81040136E104823F480430B
:106CB0001366C02101F0C0BC0D4A934212D14FF0BF
:106CC000B0420C21936D23F4003393654FF0904054
:106CD00001F0B2FCE06F01F0ABF9BDE810402520F7
:106CE00001F0BCB810BD00BF0038014000040048EE
:106CF00000440040FEE7FEE7FEE7FEE7FEE77047E0
:106D00007047704700F0F0BB014802F057BE00BF6B
:106D10004C0300207047022001F010BD014801F033
:106D20008BBA00BFB8010020014803F029BA00BFA8
:106D300018020020014802F075BC00BF4C0300207F
:106D4000014803F064B800BF400300202DE9F04182
:106D500086B000244FF0B0430594DA6C1B4D42F02E
:106D60000402DA64DB6C039403F004030093009BD9
:106D700010270123CDE9017301A9032328460493B9
:106D80004FF4005801F0ACFB01A928468026CDF84D
:106D9000048001F0A5FB01A94FF09040019601F09D
:106DA0009FFB22464146284601F0BAFC224639465E
:106DB000284601F0B5FC224631464FF0904001F0E4
:106DC000AFFC204606B0BDE8F08100BF00080048D7
:106DD00008B5032814D8DFE800F002151D2A0022A8
:106DE00080214FF0904001F09BFC002214481021BC
:106DF00001F096FC002212484FF4005101F090FC83
:106E0000002008BD012280214FF0904001F088FC55
:106E10000122EBE7012280214FF0904001F080FC3D
:106E200001220748102101F07BFC0122E3E7012247
:106E300080214FF0904001F073FC0022F1E700BF89
:106E40000008004802207047012070470120704769
:106E5000002814BF16200F20704700000CB407B59F
:106E6000054A05AB1021019313F0EEFE03B05DF867
:106E700004EB02B0704700BF48CF010830B585B0C1
:106E8000044602A80D4613F057FEBDF90C30064A21
:106E900000931021029B2046FFF7E0FF2046FEF7FB
:106EA0006FF9288005B030BD48CF01084FF0B042DF
:106EB00010B5936823F40043936014F0B3F80E4BBD
:106EC00001241C7000F090F814F040FA0B4814F004
:106ED00057FA0B4B4FF400421A61002014F056FA97
:106EE000FFF708F900F0A6F813F066FD21462046EA
:106EF000BDE8104013F080BDFC0300207D6E00084B
:106F00000040005813F08EBD002070477FB56846E2
:106F100000F074F80198FEF7CBFE00B207B05DF800
:106F200004FB0000194A38B5D2F88035591C0446D4
:106F300019D100F0F3FA054600F0FCFA054400F020
:106F4000F3FA2B0EE3712B0CA3712B0A6371030E62
:106F5000E370C0F30742C0F307232571C0B2A270EB
:106F60006370207038BD190AC3718171190C1B0E32
:106F700041710371D2F88435C370D2F88405C0F32F
:106F80000722C0F30743000EE9E700BF0070FF1FB0
:106F900038B5094BD3F8803503600133054609D174
:106FA00000F0BCFA044600F0BFFA444000F0C2FA18
:106FB00044402C6038BD00BF0070FF1F012102203B
:106FC00013F004BD0021022013F000BD024B18781D
:106FD00008B100F0C1B87047FC03002082B00190F6
:106FE000019802B000F054B908B500F0A9FA00F019
:106FF000AFFABDE8084000F0B3BA000010B504468F
:10700000FFF79AF8074BA36040F30F20FEF736FC1A
:10701000054B064A2360064B6060C4E90323002049
:1070200010BD00BF0000484200007A440D093E0038
:10703000AB030500002070470120704708B514F02D
:10704000AFFE162303604FF0FF3008BD08B514F003
:10705000A7FE16230360FEE770B50D4614460E46E4
:10706000731B9C4201DC204670BDAFF3008006F824
:10707000010BF5E770B50D4614460E46731B9C4296
:1070800001DC204670BD16F8010BAFF30080F5E778
:107090004FF0FF3070474FF400534B6000207047B3
:1070A00001207047002070470B4A116810B5034655
:1070B00009B90A491160106809490A4C0344091BBF
:1070C0008B4206D914F06CFE0C2303604FF0FF30A6
:1070D00010BD1360FCE700BF00040020A859002089
:1070E000000001200004000070470000014B1868F8
:1070F000704700BF040400200320704708B5014614
:107100004FF47A7200238002890DFEF747FE08BD16
:107110004FF47A73A0FB0303800A40EA8350704760
:10712000034B98689A689042FBD1C043704700BFF8
:107130000028004008B5FFF7F3FF014B186008BDB9
:107140000404002008B5FFF7EBFF024B1B68C01AD0
:1071500008BD00BF04040020024B187808B1FFF7F7
:10716000DFBF70470804002010B5074B074C012211
:10717000DA654FF48071204602F01AFA4FF0FF33BF
:107180002363002010BD00BF002800404C030020F6
:1071900002460021014802F022BC00BF4C0300203F
:1071A00002460121014802F01ABC00BF4C03002036
:1071B00010B58CB02C220021044601A814F08CFCE0
:1071C000FFF7D2FF0C4B0D481B681C4400230893AB
:1071D00006934FF00053E443079301224FF480736A
:1071E00001A902940B9302F0F7FA08B1FFF7E8F94E
:1071F00000200CB010BD00BF040400204C03002090
:1072000038B50546FFF78CFF02210446074802F017
:10721000EDFBC4F309024FF47A71A2FB0121920A3B
:10722000A30A2A8043EA805038BD00BF4C030020E7
:107230000148002102F0DABB4C0300200148012183
:1072400002F0D4BB4C030020F8B50F4D2E78CEB918
:107250000E4C4FF0FF372763FFF7E2FAFFF784FF8A
:107260004FF48071204602F0A3F92046276302F014
:1072700061FB32462046022102F0B1FBFFF75AFFC4
:1072800001232B700020F8BD080400204C030020CF
:10729000014610B54FF47A7200238002890DFEF783
:1072A0007DFD0146FFF73CFF0446FFF739FF031B56
:1072B0008B4200D310BD00BFF7E713F0BBBF000047
:1072C00010B5064C0221204602F090FB0221421C20
:1072D0002046BDE8104002F082BB00BF4C030020F6
:1072E00008B50A460146024802F0AEFE002008BD7D
:1072F0001802002013B5114B114C18604FF4001305
:10730000009302AB13E90600204603F0D4FE236885
:10731000DA69D103FCD4DA695202FCD59A680848CC
:1073200042F480029A6003F00CFF064904480122EF
:1073300003F07AFE002002B010BD00BF0C04002054
:10734000180200201404002008B5074B1860FFF74E
:1073500017F9FFF7B9FA054AD2F8803043F0006315
:10736000C2F88030002008BD10040020000800583A
:1073700008B54FF0B04308489A6B42F400329A6364
:107380009A6B22F400329A63FFF784FC0F2000F01E
:1073900065FD002008BD00BF1802002008B50748A1
:1073A00003F08EFD08B1FFF70BF9054800F0CEFDA4
:1073B00018B1BDE80840FFF703B908BD1802002066
:1073C000B80100200268044B9A4203D1034B00200D
:1073D0001B681847704700BF00440040100400209D
:1073E00002680B4B9A4210B504460FD1094B1B683B
:1073F0002BB1D0F8902012B90748012198472046B8
:107400000549BDE81040012203F00EBE10BD00BFCB
:10741000004400400C040020140400200D48854660
:10742000FFF762FE0C480D490D4A002302E0D458D4
:10743000C4500433C4188C42F9D30A4A0A4C0023BE
:1074400001E013600432A242FBD314F0AFFCFFF75B
:1074500015F9FEE70000012000000020980100203F
:1074600094E5010898010020A8590020FEE70000DB
:1074700038B5104C237805460BB9012038BD01F012
:10748000D1FA22784FF47A73B3FBF2F3B0FBF3F046
:1074900000F008FD04460028EFD10F2DEDD802467C
:1074A00029464FF0FF3000F099FC034B20461D6049
:1074B000E4E700BF040000200800002010B503200E
:1074C00000F07AFC01F0AEFA064B18600F20FFF7CF
:1074D000CFFF044618B9FFF766FA204610BD012415
:1074E000FBE700BF00000020034A044B11681B7833
:1074F0000B441360704700BF1804002004000020F4
:107500004FF0E022136923F00203136170474FF03C
:10751000E022136943F0020313617047014BD3F873
:10752000900570470070FF1F014BD3F8940570471A
:107530000070FF1F014BD3F8980570470070FF1FC4
:10754000024A536823F0010353607047002004E0AF
:10755000024A536823F0020353607047002004E09E
:10756000024A536823F0040353607047002004E08C
:107570008068C0F380007047F7B50023019304468C
:10758000002800F0E980856D25B9FFF717FAE56559
:1075900084F8545023689A68D00040F1A1809A681A
:1075A000D10000F1B480A26D42F01002A265E26D3C
:1075B00042F00102E26501251846FFF7D9FFA26DEE
:1075C00002F01002024340F0C980A26D206922F44B
:1075D000817242F00202A2659A68D2075DD4226BE2
:1075E000A67E94F82CC0003A18BF01221703D4E9F4
:1075F00002120A43217E42EA8132617E42EAC132AE
:1076000042EA4632002842EA4C02B4BF20F0004170
:107610004FF400113A430A4394F82010012903D192
:10762000002E76D142F48032616A21B1A66A01F45B
:10763000E07131430A43D968E66C21F4FE3121F44C
:10764000FF711143D96094F83C206168012A01F070
:10765000404C4CEA060609D1D4E910273A4332439C
:10766000A66C324342EA0C0242F001061F693E4A10
:107670003A4032431A6121F00042B2F1804F0CD0FF
:10768000B1F1004F09D0394ED6F8082701F4701136
:1076900022F470120A43C6F808275A69666BA16B78
:1076A00022F0070232435A615A6922F0700242EA1C
:1076B00001125A61002835D19A6A62F00F029A626B
:1076C0005B6903F007039E423CD10023E365A36D91
:1076D00023F0030343F00103A365284603B0F0BD84
:1076E0009A68234922F0104222F0170242F0805299
:1076F0009A60204A1268B2FBF1F201325200019204
:10770000019A002A3FF44BAF019A013AF7E70025AE
:1077100052E7A16D41F02001A165E16D41F0010149
:10772000E16581E7B0F5001FCAD19A6AE269013AC2
:1077300092006FF00F0102F01C0201FA02F2216EBA
:107740000A43BCE7A36D23F0120343F01003A365C3
:10775000E36D43F00103E3650125BEE7A36D43F04C
:107760001003A365F8E700BF02FCFF1F00200140E3
:10777000400D030000000020F8B54569082D0446BF
:107780000E460AD00368DB68D80705D5A36D43F021
:107790002003A3650120F8BD0425FFF717FC074669
:1077A00023681A682A4220D0A26D42F40072A265B2
:1077B000DA6812F4406F14D1A27E92B91A681207E7
:1077C0000FD51846FFF7D4FE20BB5A6822F00C02F2
:1077D0005A60A26D22F4807222F0010242F001028E
:1077E000A265227EFAB10020D5E7711CD9D0FFF73F
:1077F000EDFBC01BB04201D8002ED1D123681B681D
:107800002B40CDD1A26D84F8543042F00402A26521
:107810000320C0E7A26D42F02002A265E26D42F0B3
:107820000102E265DDE70C221A60DCE70368186CF0
:1078300070470000F7B50023019390F85430012BF6
:10784000044600F0C08005680269012380F85430C6
:107850002846FFF78DFE002840F0AF80D1E90030C8
:10786000022822F004027ED0B2F1004FC3F3110EC1
:1078700035D1AA6A42EA0E02AA628A68686902EAF7
:10788000032222F07C4222F0FF0220EA03210A4375
:10789000002B6A611DDA4D4A4D4DD2F80817AB42F4
:1078A00001F0E07043D10D0213D4D2F8083723F071
:1078B000E073034343F40003C2F80837454B1A68EA
:1078C000454BB2FBF3F20C2302FB03330193019B04
:1078D00053BB0020002384F8543003B0F0BD226E67
:1078E00000F01F074FF00F0C0CFA07FC6FEA0C06B4
:1078F00022EA0C0CBEF1000F11D1C3F38462BA402E
:1079000042EA0C0222668008E26901309042B4D853
:10791000A86AC3F38362BA4006403243ACE793FAE5
:10792000A3F2B2FA82F2EAE7019B013BCEE72B4DCC
:10793000AB420BD1C901CCD4D2F8083723F0E073A5
:10794000034343F08073C2F80837C2E7244DAB42CB
:10795000BFD14B02BDD4D2F8083723F0E073034304
:1079600043F48003EFE7B2F1004F01BFAA6AC3F30B
:1079700011018A43AA62002BABDA154813498342EE
:10798000D1F8082709D1D1F8083702F0A07223F006
:10799000E0731A43C1F808279BE71048834204D1DB
:1079A000D1F8083702F44002F1E70D48834290D144
:1079B000D1F8083702F0C072E9E7A26D42F0200268
:1079C000A265184686E7022087E700BF0020014035
:1079D000001000B000000020400D0300004000B87F
:1079E000002000B4026838B504461046FFF7C0FD19
:1079F00008B9002038BD9368990707D4936823F02D
:107A0000004323F0170343F010039360FFF7DEFAFF
:107A1000054623689B685B07EBD5FFF7D7FA401B49
:107A20000228F6D923689B685A07F2D5A36D43F064
:107A30001003A365E36D43F00103E3650120D9E77B
:107A400073B50023026801939368DD07044602D5ED
:107A5000002002B070BD9168214B194209D0A36D7E
:107A600043F01003A365E36D43F00103E3650120D8
:107A7000EFE7936823F0004323F0170343F001037B
:107A80009360184BD3F8083718021CD4637E012B7F
:107A9000DED0FFF79BFA144E054622681368DB0719
:107AA000D6D49368D9075FBF9368334043F001038E
:107AB0009360FFF78BFA401B0228EED923681B68FE
:107AC000DA07EAD4CBE7094B094A1B68B3FBF2F3A8
:107AD00001330193019B002BD8D0019B013BF8E7B8
:107AE0001700008000200140E8FFFF7F0000002019
:107AF000400D030038B504460068FFF739FD054620
:107B000020BB94F85430012B20D0012384F854304A
:107B10002046FFF795FFB0B9A36D226823F4706388
:107B200023F0010343F48073A3651C23E065136015
:107B300084F85400936823F0004323F0170343F0C4
:107B40000403936038BD84F85450FBE70220F9E742
:107B5000026838B5936891680446C80701D40020CC
:107B600038BD9907FBD4936803F00503012B19D1A5
:107B7000936823F0004323F0170343F0020393605C
:107B800003231360FFF722FA054623689B68DB078F
:107B9000E5D5FFF71BFA401B0228F6D923689B683E
:107BA000DA07F2D5A36D43F01003A365E36D43F04C
:107BB0000103E3650120D3E770B5044600284BD0EC
:107BC000836D43F002038365FFF70CFF054668B938
:107BD0002046FFF7BDFF054608B90123A3652268CB
:107BE000936823F0104323F01703936023685A68C7
:107BF00022F4677222F003025A6040F29F321A6048
:107C0000D968164A0A40DA601A6922F040421A61BD
:107C10005A6922F007025A611A6A02F0F0221A62C7
:107C20005A6A02F0F0225A62DA6A02F0F022DA624C
:107C30009A6A0B4A00269E62D2F8083723F0FE7338
:107C4000C2F808372046FEF7F1FEE6652666A6650F
:107C500084F85460284670BD0125FBE700023E838E
:107C60000020014010B590F85430012B044615D087
:107C7000012380F85430FFF7B5FE58B92046FFF7CE
:107C800067FF38B9A36D23F4807323F0010343F039
:107C90000103A365002384F8543010BD0220FCE7E3
:107CA000F7B50023019390F85430012B04467FD0A0
:107CB000012380F85430FFF74BFF23689A6812F0D5
:107CC0000102054607D0A36D43F01003A36500230E
:107CD00084F854302DE0A16D364F21F4817141F0CC
:107CE0000201A165DE68D96826F4FF4626F07C060D
:107CF00021F40041360421F00301360CD96008203C
:107D00009968394041F0004199609968002913DA77
:107D10000199013101910199B1F52E3FF5D3A36D80
:107D200023F0120343F01003A365002384F85430BA
:107D30000125284603B0F0BDD3F8B410013801F096
:107D40007F010A44DCD199681A48014041F00101E1
:107D50009960D3F8B41021F07F0141EAD202C3F850
:107D6000B4209A68024042F002029A60FFF72EF9AE
:107D7000074623689A68D20708D4DA683243DA6083
:107D8000A36D23F0030343F001039FE7FFF71EF900
:107D9000C01B0228EDD923689B68D907E9D5A36DDC
:107DA00043F01003A365E36D43F00103E365BFE710
:107DB0000225BEE7E8FFFF7F0749CA6822F4E062B8
:107DC0000302120403F4E063120C134343F0BF6395
:107DD00043F40033CB60704700ED00E0164B30B544
:107DE000DC68C4F30224C4F10703251D042B28BF5B
:107DF0000423062D4FF0FF358CBF033C002405FA09
:107E000003F321EA0303A54022EA0502A340002868
:107E100043EA0203ACBF00F16040084A4FEA031393
:107E2000B8BF00F00F00DBB2AABF00F561401354E9
:107E300080F8003330BD00BF00ED00E014ED00E03D
:107E4000002807DB044A4109012300F01F0083409A
:107E500042F82130704700BF00E100E000280CDB51
:107E60004309064900F01F0020330122824041F8F7
:107E70002320BFF34F8FBFF36F8F704700E100E007
:107E8000BFF34F8F0549064BCA6802F4E062134303
:107E9000CB60BFF34F8F00BFFDE700BF00ED00E0F8
:107EA0000400FA050138B0F1807F0BD24FF0E023D7
:107EB000054A5861F02182F82310002007229861BA
:107EC0001A6170470120704700ED00E070B5D0E9FD
:107ED00013456560446D14B1D0E916456560D0E97D
:107EE000105404F01C060124B4406C600468636004
:107EF0008368102B0BBFA260A160E160E26070BDDF
:107F00000268416CD3B210B5083B1424B3FBF4F300
:107F10000B4CA24288BF0B4A21F0030199BF01F12B
:107F2000804202F50232521807338264064AC26464
:107F300003F01F03012202FA03F3036510BD00BF23
:107F4000070402401C0802408008024038B500289F
:107F50005CD002682E4B9A424FF014014AD82D4B48
:107F60001344B3FBF1F32C499B00C0E91013022327
:107F700080F825301368056923F4FF4323F070036C
:107F80001360D0E9024323432B43456911682B4317
:107F900085692B43C5692B43056A2B430B4313604B
:107FA000FFF7AEFFB4F5804F04BF00234360436882
:107FB000816C03F07F020A60D0E91314013B032BAC
:107FC0004C601ED8154B1649816513449B00012156
:107FD000013A01FA02F200214365C2651960114BB2
:107FE0005A6400230122C36380F8243080F82520DE
:107FF000184638BD0C4B1344B3FBF1F30B499B00FF
:10800000B3E70023C0E91533C365EAE70120F0E7D1
:1080100007040240F8FFFDBF000002403F8200104D
:108020004009024000090240F8FBFDBF0004024085
:1080300038B5002841D00268136823F001031360AB
:108040001F4B9A424FF0140130D81E4B1344B3FB20
:10805000F1F31D499B00C0E91013012403F01C0338
:1080600004FA03F3002515604B60FFF749FF836CAA
:1080700041681D60D0E913325A604A1E032A06D8AF
:10808000124B0B449B0094401D60114B5C64002319
:10809000C363C0E91533C0E90B33C0E90D33C365D1
:1080A00080F8253080F82430184638BD094B134439
:1080B000B3FBF1F308499B00CDE70120F5E700BFD2
:1080C00007040240F8FFFDBF000002403F8200109D
:1080D00000090240F8FBFDBF0004024070B590F8B3
:1080E0002450012D04463BD090F825600125AE4276
:1080F00080F824504FF000062CD1022580F825503E
:108100000568C6632E6826F001062E60FFF7DEFEC6
:10811000036BBBB12B6843F00E032B60A36C1A6892
:10812000D20342BF1A6842F480721A60636D1BB1B9
:108130001A6842F480721A602B6843F001032B60C6
:10814000002070BD2B6823F004032B602B6843F0E4
:108150000A03E2E78023C36380F824602846F0E73F
:108160000220EEE7034640B190F82520022A06D00F
:108170000422C263002280F8242001207047026894
:10818000806C116821F00E011160016821F480718A
:108190000160116821F001011160D3E9100202F0C1
:1081A0001C0101228A404260D3E9132151605A6DBB
:1081B00032B1116821F480711160D3E91621516048
:1081C0000122002083F8252083F82400704708B599
:1081D00090F82530022B03D00423C363012008BD8F
:1081E00003681A6822F00E021A601A6822F001026F
:1081F0001A60826C136823F480731360D0E9101343
:1082000003F01C02012393404B60D0E913325A6003
:10821000436D33B11A6822F480721A60D0E91632C5
:108220005A60012380F82530002380F82430836BC6
:1082300003B198470020D2E770B4426C046C036825
:1082400026681D6802F01C020421914031420FD0C3
:1082500015F0040F0CD01A6892065EBF1A6822F05F
:1082600004021A60036B6160002B33D070BC1847A6
:1082700002219140314217D015F0020F14D01A6834
:10828000940606D41A6822F00A021A60012280F8C5
:108290002520114A93428CBF104B114B596000238B
:1082A00080F82430C36ADFE708219140314211D0C1
:1082B00029070FD5196821F00E011960012303FA6F
:1082C00002F26260C36380F82530002380F8243016
:1082D000436BC9E770BC7047800002400004024055
:1082E000000002400A4A536943F4802330B55361C9
:1082F000EFF3108472B60023CD58C5500433B3F5A4
:10830000807FF9D11369DB03FCD484F3108830BD7E
:1083100000400058064B5A69002ABFBF054A9A60C0
:1083200002F188329A60BABF5869C00F00207047C6
:108330000040005823016745044B5A6942F000424F
:108340005A615869C043C00F704700BF00400058D1
:10835000014B5868704700BF1C04002070B50546EB
:10836000FEF734FE124E04463369D90313D4336941
:10837000DA0744BF012232614CF2FA32134011D1C4
:108380000B4E306910F480200BD0FEF71FFE001B4F
:10839000A842F6D304E0FEF719FE001BA842E3D37F
:1083A000032070BD024A1361024A01205360F8E7BE
:1083B000004000581C0400202DE9F041184D98465B
:1083C0002B78012B06460C46174626D001232B702E
:1083D0004FF47A7000236B60FFF7C0FFA0B9012E45
:1083E00016D1104A536943F0010353612760BFF36C
:1083F0006F8FC4F804804FF47A70FFF7AFFF094A1B
:10840000536923EA0603536100232B70BDE8F08112
:1084100039462046FFF766FFEDE70220F6E700BF8A
:108420001C04002000400058054A536923F47E7361
:1084300043EAC00040F4803040F0020050617047D1
:10844000004000582DE9F041234F3B78012B0546B1
:1084500088463FD001233B704FF47A7000237B6045
:10846000FFF77CFF044688B92B68042B13D11B4A05
:10847000536943F4803343F0040353614FF47A703B
:10848000FFF76CFF0446154B1A681B6800233B700E
:108490002046BDE8F0814FF0FF33C8F800306E6829
:1084A000D5E901321344B3420AD93046FFF7BCFF85
:1084B0004FF47A70FFF752FF50B1C8F800600446DD
:1084C000064A536923F47E7323F002035361DAE70B
:1084D0000136E5E70224DBE71C04002000400058D9
:1084E0002DE9F04F524C00234FF00F090A6832FA81
:1084F00003F501D1BDE8F08F012505FA03F818EA6C
:10850000020200F08E804E68032706F003054FEA52
:10851000430E07FA0EFC6F1E012F6FEA0C0C32D8C7
:10852000876807EA0C0ACF6807FA0EF747EA0A07D6
:108530008760476827EA0808C6F300179F4047EAA4
:1085400008074760C76807EA0C088F6807FA0EF744
:1085500047EA0807022DC76017D14FEAD30800EB9E
:10856000880803F0070AD8F820704FEA8A0A09FA47
:108570000AFB27EA0B0B0F6907FA0AF747EA0B0712
:10858000C8F8207001E0032DDCD1076805FA0EF56C
:1085900007EA0C073D4316F4403F056041D023F045
:1085A000030707F1804707F5803703F0030CBD6828
:1085B0004FEA8C0C4FF0070E0EFA0CFEB0F1904F04
:1085C00025EA0E0E2FD01B4DA8422ED005F5806552
:1085D000A84214BF0725022505FA0CF545EA0E0549
:1085E000BD602568D74316F4801F0CBF3D4015437E
:1085F0002560656816F4001F0CBF3D40154365609B
:10860000D4F8805016F4803F0CBF3D401543C4F8A9
:108610008050D4F88450B60354BF3D401543C4F88D
:108620008450013362E70025D6E70125D4E700BF77
:108630000008005800040048374A2DE9F04F002395
:108640004FF0010A4FF0070B4FF00F0931FA03F416
:1086500001D1BDE8F08F0AFA03FC1CEA010654D0F0
:1086600023F0030404F1804404F5803403F003078D
:10867000A568BF000BFA07F8B0F1904F08EA050EA5
:1086800045D0264DA84244D005F58065A8420CBFD0
:1086900002250725BD40754517D1D2F8805025EA3F
:1086A0000605C2F88050D2F8845025EA0605C2F8C3
:1086B0008450156825EA06051560556825EA060503
:1086C0005560A56825EA0805A560056803265C00D5
:1086D00006FA04F423FA06F6254300EB8606056045
:1086E00003F00705376AAD0009FA05F527EA050723
:1086F0003762856825EA04058560456825EA0C052A
:108700004560C56825EA0404C46001339EE700257E
:10871000C0E70125BEE700BF00080058000400487C
:108720000AB18161704781627047436901EA0302BF
:1087300021EA030141EA024181617047044AD1689C
:10874000014208B502D0D06005F0DAF908BD00BFDB
:1087500000080058024A136843F48073136070479E
:10876000000400580D4B10B55B690C4628B99A05FA
:1087700007D500F027F820B110BD9B0501D400F00B
:1087800019F8074A1369012C23F00403136101D17E
:1087900030BFF1E740BF20BF20BFEDE70004005825
:1087A00000ED00E0024B186800F4C060704700BFA5
:1087B00000040058024A136843F480431360704772
:1087C000000400580C4A136823F4804313600B4BD9
:1087D0001B6832214B430A49B3FBF1F35169890508
:1087E00000D533B9536913F4007F14BF0320002070
:1087F0007047013BF2E700BF000400580000002072
:1088000040420F000B4A136823F0070343F00203B2
:108810001360094B1A69012842F004021A6105D15C
:1088200030BF1A6922F004021A61704740BF20BFAE
:1088300020BFF6E70004005800ED00E04FF0B04321
:108840001868C0F3404070474FF0B0431868C0F359
:10885000400070474FF0B042536823F47F4343EA2F
:108860000023536070474FF0B0431868C0F3406076
:10887000704700007FB54FF0B0432C4AD3F8083161
:10888000C0F3031003F00F0352F82040284A52F8B7
:108890002330B4FBF3F4FFF785FF264B054693E83E
:1088A0000700B5F5007F04AB03E9070010D0224BA9
:1088B0009C4218D303F5B70303F67F539C4229D992
:1088C00003F5741303F510639C4225D802230BE0D3
:1088D0001A4B9C4207D91A4B9C421BD903F537030C
:1088E00003F5D853F0E7002304AA02EB830353F8FF
:1088F0000C4C144D2B6823F0070323432B60FEF729
:1089000065FB06462B6803F007039C4206D1002056
:1089100004B070BD0123E7E70024EAE7FEF756FB49
:10892000801B0228EED90320F2E700BF54CF0108D4
:10893000B4CF0108A0CE0108C0CF6A00BFEA210170
:108940003F933402004000584FF0B04310B59A688E
:10895000D96812F00C0205D00C2A4AD101F00303A9
:10896000012B51D14FF0B0412B480B6813F0080395
:1089700006D00B6813F0080337D1D1F8941007E044
:108980000C68240756BFD1F894300968C3F3032359
:1089900050F82330002A0CBF184600204FF0B04199
:1089A0008A6802F00C020C2A1ED1CA6802F0030287
:1089B000022A2ED0032A06D10B68184A13F4801F0E
:1089C000174B18BF13464FF0B042D068D168D26839
:1089D000C0F306205843C1F302130133B0FBF3F098
:1089E000530F0133B0FBF3F010BD0B68C3F3031357
:1089F000CEE7042A05D0082A06D11B6813F4801399
:108A000005D006480023C9E700231846C6E70448F6
:108A1000C4E7024BD7E700BF54CF01080024F4009D
:108A20000048E80108B5FFF78FFF4FF0B043044A54
:108A30009B68C3F3031352F82330B0FBF3F008BD77
:108A4000B4CF01082DE9F0410446002853D04FF07F
:108A5000B0439D68DE6803689B0605F00C0506F0D0
:108A6000030668D5026A1DB10C2D46D1012E44D1F2
:108A7000002A40D04FF0B043A16A1A68170756BFCA
:108A8000D3F894301B681B0903F0F00399421FD9F7
:108A90000846FFF7EFFE00282DD14FF0B0421368D3
:108AA00043F0080313601368A16A23F0F0030B433B
:108AB0001360606AFFF7CEFEFFF7B4FFAB4B1860A0
:108AC000AB4B1868FEF7D4FC002834D0BDE8F08129
:108AD0004FF0B042136843F008031360136823F0AB
:108AE000F0030B431360606AFFF7B4FE0846FFF71C
:108AF000C1FE0028E0D00120E8E74FF0B043002A93
:108B000054D01A6842F001021A60FEF75FFA074675
:108B1000FFF79AFE002842D04FF0B042136843F0AE
:108B2000080313601368A16A23F0F0030B4313607A
:108B3000606AFFF78FFE2368D80748D42368990737
:108B400000F18C8023681E0740F1FA80A3694FF082
:108B5000B046002B00F0E180D6F89430E16903F0D4
:108B60001002914200F0C48003F00302022AC2D036
:108B7000D80740F1B380D6F8943023F00103C6F84B
:108B80009430FEF723FA0746D6F89430990740F15F
:108B9000A580FEF71BFAC31B112BF5D904E0FEF7E5
:108BA00015FAC01B0228B3D903208FE71A6822F0F8
:108BB00001021A60FEF70AFA0746FFF745FE002891
:108BC000B9D0FEF703FAC01B0228F6D9ECE7082D4E
:108BD00003D00C2D05D1032E03D16368002BADD13A
:108BE00089E74FF0B043A1681A6822F480120A4363
:108BF0001A606268B2F5803F10D11A6842F4803280
:108C00001A60FEF7E3F90746FFF718FE002895D132
:108C1000FEF7DCF9C01B6428F6D9C5E7B2F5041FDE
:108C200004D11A6842F400121A60E6E7196821F4C8
:108C300080311960196821F400111960002AE0D10F
:108C4000FEF7C4F90746FFF7F9FD00283FF476AFB9
:108C5000FEF7BCF9C01B6428F5D9A5E7042D2369EC
:108C600003D00C2D0ED1022E0CD1002B3FF443AFBC
:108C70004FF0B0426169536823F0FE4343EA016359
:108C800053605FE74FF0B046BBB1336843F4807385
:108C90003360FEF79BF9074633685A0505D4FEF7A3
:108CA00095F9C31B022BF7D97EE77368626923F03D
:108CB000FE4343EA0263736044E7336823F480733E
:108CC0003360FEF783F9074633685B057FF53AAFFB
:108CD000FEF77CF9C31B022BF6D965E74FF0B042D3
:108CE000E169D2F8943023F010030B43C2F89430BA
:108CF0004FF0B047D7F8943043F00103C7F89430F1
:108D0000FEF764F90646D7F894309A0718D4FEF7B0
:108D10005DF9831B112BF6D946E7D6F8943023F082
:108D20000103C6F89430FEF751F90746D6F894309F
:108D30009B0705D5FEF74AF9C31B112BF6D933E77C
:108D40002368580754D50B4F3B68D90514D4FFF757
:108D500001FDFEF73BF906463B68DA050CD4FEF749
:108D600035F9831B022BF7D91EE700BF0000002056
:108D70000800002000040058E3684FF0B046002BC4
:108D800058D023F08003052B02BFD6F8903043F073
:108D90000403C6F890304FF0B046FEF717F9D6F846
:108DA000903043F001030746C6F8903041F288380E
:108DB000D6F890309B0705D4FEF708F9C31B43454E
:108DC000F6D9F1E6E36823F00403812B1BD1FEF70B
:108DD000FDF8D6F8903043F08003C6F8903007468F
:108DE0004FF0B04641F28838D6F89030180504D5D7
:108DF000E36A002B4AD1002068E6FEF7E7F8C01BC3
:108E00004045F1D9D0E6FEF7E1F8D6F8903023F0EE
:108E10008003C6F8903007464FF0B04641F28838DC
:108E2000D6F890301905E3D5FEF7D0F8C01B4045C1
:108E3000F6D9B9E6FEF7CAF8D6F8903023F08003E9
:108E40000746C6F8903041F28838D6F890301A05B7
:108E500016D4FEF7BBF8D6F8903023F00103C6F81D
:108E6000903007464FF0B04841F28836D8F890303D
:108E70009B07BDD5FEF7AAF8C31BB342F6D993E60C
:108E8000FEF7A4F8C01B4045DFD98DE60C2D4ED06F
:108E9000022B4FF0B0431A6822F080721A6033D16F
:108EA000FEF794F80546FFF7DEFC38BBD4E90C3139
:108EB0004FF0B0420B43D0682D4901400B43E16BAA
:108EC0000B43216C0B43616C0B43A16B43EA012301
:108ED000D360136843F080731360D36843F080530A
:108EE000D360FEF773F80446FFF7BDFC002882D17B
:108EF000FEF76CF8001B0A28F6D955E6FEF766F86F
:108F0000401B0A28CFD94FE6FEF760F80446FFF76A
:108F1000AAFC30B94FF0B042164BD1680B40D36079
:108F200069E7FEF753F8001B0A28F0D93CE6012B4D
:108F30003FF4E1AD4FF0B043D868236B00F003027B
:108F40009A427FF4D8AD626B00F0700393427FF4D5
:108F5000D2ADA26B00F4FE43B3EB022F7FF4CBAD96
:108F6000636C00F06040C01A18BF0120AEE500BF7E
:108F70008C80C111FCFFFEEE2DE9F0410D46044648
:108F800010B90120BDE8F081684E336803F0070393
:108F90008B4216D323689A0727D54FF0B047A268B3
:108FA000BB6823F0F0031343BB60FEF70FF80646DF
:108FB000BB68DB0319D4FEF709F8831B022BF7D932
:108FC00011E0336823F007030B433360FDF7FEFF26
:108FD0000746336803F00703AB42DBD0FDF7F6FF2B
:108FE000C01B0228F5D90320CCE72368580617D503
:108FF0004FF0B0476269D7F8083123F00F0343EA16
:109000001213C7F80831FDF7E1FF0646D7F808311B
:10901000D90305D4FDF7DAFF831B022BF6D9E2E76B
:1090200023685A0713D54FF0B047E268BB6823F4B2
:10903000E0631343BB60FDF7C9FF0646BB689B03B3
:1090400005D4FDF7C3FF831B022BF7D9CBE72368B9
:10905000180714D54FF0B0472269BB6823F460535A
:1090600043EAC203BB60FDF7B1FF0646BB68590384
:1090700005D4FDF7ABFF831B022BF7D9B3E72368B9
:10908000DA070FD4294C236803F00703AB4239D821
:10909000FFF7C8FC264B1860264BBDE8F041186866
:1090A000FEF7E6B96268022A1DD1FFF7C7FB002868
:1090B0003FF467AF4FF0B04641F28838B36823F011
:1090C00003031343B360FDF781FF0746B36862688B
:1090D00003F00C03B3EB820FD4D0FDF777FFC01B76
:1090E0004045F3D97FE7032A02D1FFF7BCFBDEE757
:1090F00012B9FFF7A9FBDAE74FF0B0431B685B0535
:10910000D8D43EE7236823F007032B432360FDF701
:109110005DFF0646236803F00703AB42B8D0FDF7B6
:1091200055FF801B0228F5D95DE700BF00400058BD
:10913000000000200800002008B5FFF773FC4FF086
:10914000B043044A9B68C3F3022352F82330D8404B
:1091500008BD00BF94CF010808B5FFF763FC4FF0CE
:10916000B043044A9B68C3F3C22352F82330D8406B
:1091700008BD00BF94CF01084FF0B043D3F8900072
:10918000C0F3400070474FF0B0410209D1F8883079
:1091900002F47F22000123EA020300F47F2003434C
:1091A000C1F8883070474FF0B041020CD1F88830D8
:1091B000120423EA020343EA0040C1F88800704722
:1091C0000368DA0370B5044639D5FFF7C3FAFDF733
:1091D000FDFE614E05463368DB0532D54FF0B043E6
:1091E000616BD3F8902002F4407291421DD0D3F805
:1091F0009010D3F8902042F48032C3F89020D3F836
:10920000902021F4407022F480328D07C3F8902022
:10921000C3F8900009D5FDF7D9FE41F2883605461E
:10922000FFF7AAFF012840F090804FF0B042616B39
:10923000D2F8903023F440730B43C2F890300026EC
:1092400005E0FDF7C3FE401B0228C4D903262568AC
:10925000E8070AD54FF0B0416268D1F8883023EAB8
:10926000124392B21343C1F88830A9070AD54FF0D0
:10927000B041A268D1F8883023EA124392B2134376
:10928000C1F88830AA0609D54FF0B0422169D2F85A
:10929000883023F440630B43C2F88830AB0502D515
:1092A000206AFFF780FF680502D5606AFFF77BFF41
:1092B000290502D5A06AFFF776FF6A0602D5606924
:1092C000FFF761FF2B0602D5A069FFF75CFFE805F9
:1092D00002D5E069FFF757FFE90610D54FF0B0421D
:1092E000E168D2F8883023F440730B43C2F8883029
:1092F000B1F5807F02BFD36843F08073D3602A0446
:109300000ED54FF0B042216BD2F8883023F04043A5
:109310000B43C2F8883019B9D36843F08073D36027
:109320006B0410D54FF0B042E16AD2F8883023F0D8
:1093300040530B43B1F1005FC2F8883003D1D368CA
:1093400043F48033D360304670BDFDF73FFE401BD1
:10935000B0427FF665AF79E70004005838B504469F
:1093600000283ED0437A03F0FF0213B90272FDF7E2
:1093700079FB2268616802236372136823F0040397
:109380001360136823F0804323F020030B4343F062
:10939000804313601F4B13614AF2B32313611368B8
:1093A00023F080431360FDF711FE054623681A6819
:1093B000510009D41A6842F004021A605B685A0628
:1093C00011D5042363720CE0FDF700FE401B022858
:1093D000ECD923681B685800E8D501236372022387
:1093E000E360012038BDFDF7F1FD054623685868AC
:1093F00010F0040003D101236372E060F2E7FDF78F
:10940000E5FD401B0228F1D923685B685B07EDD5B9
:109410000423E3E7BC0A591770B50446002833D08B
:109420000268136823F0804323F0200343F0804355
:109430001360136823F080431360FDF7C7FD0646F1
:1094400023681D6815F080450FD11A6822F00C02C0
:109450001A605A6822F0600220465A60FDF72AFB23
:1094600065722572E56028460FE0FDF7AFFD801BB1
:109470000228E5D923681B685B00E1D501236372EC
:109480000223E36000232372012070BD704707B5FB
:109490000023019303685A68510709D45A6822F0DF
:1094A00040025A60C36823F00803C360002018E03C
:1094B0001A6842F080421A601A6822F080421A60EC
:1094C00002220192019A013A0192019A62B90123A2
:1094D0004372C368027243F00203C360FFF7D6FF12
:1094E000012003B05DF804FB1A685200EAD45A6800
:1094F000510642BF5A6822F040025A60022201928D
:10950000019A013A0192019A002AE0D05A68520762
:10951000F6D4C7E72DE9F041037A012B04460F4644
:1095200043D0427A01239A420372D6B239D1022340
:10953000437203685D6815F0400506D00823C360D8
:10954000FFF7A5FF0128054628D0FDF73FFD80461F
:1095500023685A68D00711D59A685968226149066C
:1095600043BF0822E2605A683A6044BF22F0010219
:109570005A60012363722E4600230EE0FDF726FD9C
:10958000A0EB08000228E3D923685B6813F001030D
:10959000DED1012262720222E26023723046BDE80F
:1095A000F0810422C2601E46E6E70226F6E70000CC
:1095B00030B590F82C30012B02464FF0020022D03B
:1095C000174B82F82D00CA24012582F82C505C62CA
:1095D00053245C62B1F5807F146B996914D121F436
:1095E00088519961596C24F0010421F000415964BB
:1095F0001463DD650A4BFF2159620020012382F8C4
:109600002D3082F82C0030BD21F408519961D96CBD
:1096100024F0020421F00041D9641463D865E9E71D
:109620000028004070B50B4E036B756D1D40EA07B6
:10963000044603D50123F365FDF73FFEAB0704D5D0
:109640000223F365204600F0C9F9012384F82D3088
:1096500070BD00BF0028004038B50A4CE36823F015
