:020000040800F2
:10000000000001204D060008E9050008F105000880
:10001000F9050008010600080906000800000000B4
:1000200000000000000000000000000011060008B1
:100030001D0600080000000029060008350600081B
:100040009D0600089D0600089D0600089D06000804
:100050009D0600089D0600089D0600089D060008F4
:100060009D0600089D0600089D0600089D060008E4
:100070009D0600089D0600089D0600089D060008D4
:100080009D0600089D0600089D0600089D060008C4
:10009000000000009D0600089D0600089D0600085F
:1000A0009D0600089D0600089D0600089D060008A4
:1000B0009D0600089D0600089D0600089D06000894
:1000C0009D0600089D0600089D0600089D06000884
:1000D0009D0600089D0600089D0600089D06000874
:1000E0009D0600089D0600089D0600089D06000864
:1000F0009D06000800000000000000009D060008AA
:100100009D0600089D0600089D0600089D06000843
:100110009D0600089D0600089D0600089D06000833
:100120009D0600089D0600089D0600089D06000823
:100130009D0600089D06000810B5054C237833B9CC
:10014000044B13B10448AFF300800123237010BDAA
:100150000C000020000000001C26000808B5034B1E
:100160001BB103490348AFF3008008BD0000000045
:10017000100000201C26000880B485B000AF786015
:100180004FF0B043DA6C4FF0B0417B681343CB645F
:100190004FF0B043DA6C7B681340FB60FB6800BF34
:1001A0001437BD4680BC704780B487B000AF78601C
:1001B00039604FF0FF337B6100233B6136E07A68A2
:1001C0003B6913441B7819463B6901337A68134431
:1001D0001B781B0241EA03023B69023379680B4436
:1001E0001B781B041A433B69033379680B441B7863
:1001F0001B061343BB607A69BB6853407B610023D5
:10020000FB600DE07B69002B04DA7B695A000D4B23
:10021000534001E07B695B007B61FB680133FB605D
:10022000FB681F2BEEDD3B6904333B613B69033305
:100230003A689A42C3D87B6918461C37BD4680BCD1
:10024000704700BFB71DC10480B588B000AF7860AB
:10025000396000F01FFD194B9B69184A43F0404379
:100260009361164B4CF2FA321A6107F11003002227
:100270001A605A609A6002233B617B6803F17843FD
:10028000DB0A7B613B6803F2FF73DB0ABB6107F1AA
:100290000C0207F110031146184600F0FDFD03465D
:1002A000FB7700F019FDFB7F002B01D1002301E05B
:1002B0004FF0FF3318462037BD4680BD0040005840
:1002C000B0B588B000AFF860B9607A607B6807337A
:1002D00023F007037B6000F0DDFC1A4B9B69194A91
:1002E00043F040439361174B4CF2FA321A610023FA
:1002F000FB611BE0BA68FB6913441C685D68224619
:100300002B46C7E90423FA68FB69D118D7E904230F
:10031000012000F07BFC0346002B04D000F0DCFC45
:100320004FF0FF3309E0FB690833FB61FA697B6832
:100330009A42DFD300F0D0FC002318462037BD4698
:10034000B0BD00BF0040005880B586B000AF7860F7
:100350007B681B687B617B6804331B683B6172B6FA
:1003600000BF01F08DFA00F0AFFA0D4B00221A60C9
:100370000B4B00225A600A4B00229A60094A7B68A4
:1003800093607B69FB60FB6883F3088800BF62B6FB
:1003900000BF3B69984700BF1837BD4680BD00BF0E
:1003A00010E000E000ED00E080B586B000AF012075
:1003B000FFF7E2FE3B1D00221A605A609A60DA6085
:1003C0001A614FF488737B600123BB600023FB60DC
:1003D00000233B613B1D19464FF0904000F030FE7A
:1003E00000224FF488714FF0904000F089FF00BF69
:1003F0001837BD4680BD80B582B000AF0346396076
:10040000FB80FB88012219464FF0904000F078FFF6
:10041000386800F0F5FAFB88002219464FF090404A
:1004200000F06EFF386800F0EBFA00BF0837BD46F9
:1004300080BD80B582B000AF0346FB80FB884FF4DF
:1004400096711846FFF7D7FF00BF0837BD4680BD3D
:1004500080B584B000AF00F017FA00F067F82F4BBA
:100460007B607B681B682E4A934252D17B68DB68B5
:10047000012B4ED17B685B68B3F5E83F49D87B68B8
:100480005B6819462748FFF78FFE02467B689B682A
:100490009A423ED10023FB600023BB6023E072B68A
:1004A00000BF4FF4E8312048FFF7CEFE7B685B6861
:1004B0001A461C491C48FFF703FF386062B600BFAC
:1004C0003B68002B0CD17B685B6819461648FFF728
:1004D0006BFE02467B689B689A4201D10123FB6058
:1004E000BB680133BB60BB68022B02DCFB68002BDE
:1004F000D5D0FB68002B05D04FF400610748FFF70B
:10050000A3FE06E0FFF750FF4FF48070FFF791FF66
:10051000FAE70548FFF718FF00BFFDE700F0030802
:100520003143414D002002080050000880B59AB0C8
:1005300000AF07F1200348220021184602F042F8DC
:1005400007F1080300221A605A609A60DA601A61A3
:100550005A611E4B1B6823F4C0631C4A43F480633A
:1005600013601A4B1B6803F4C0637B607B68202315
:100570003B6201233B6400237B646023BB64002354
:10058000FB6407F12003184601F010FA0346002B24
:1005900001D000F01DF84F23BB600023FB60002357
:1005A0003B6100237B610023BB610023FB6107F1FA
:1005B00008030021184601F07BFD0346002B01D003
:1005C00000F006F800BF6837BD4680BD0004005843
:1005D00080B400AF72B600BF00BFFDE780B400AFCB
:1005E00000BFBD4680BC704780B400AF00BFFDE7D0
:1005F00080B400AF00BFFDE780B400AF00BFFDE7EF
:1006000080B400AF00BFFDE780B400AF00BFFDE7DE
:1006100080B400AF00BFBD4680BC704780B400AF5F
:1006200000BFBD4680BC704780B400AF00BFBD4670
:1006300080BC704780B500AF00F0C6F900BF80BD38
:1006400080B400AF00BFBD4680BC70470D488546F2
:10065000FFF7F6FF0C480D490D4A002302E0D4587D
:10066000C4500433C4188C42F9D30A4A0A4C0023FC
:1006700001E013600432A242FBD301F0ABFFFFF7AD
:10068000E7FEFEE700000120000000200C00002033
:10069000D82600080C00002044000020FEE780B4AB
:1006A00083B000AF78604FF0B0439A6A4FF0B0412A
:1006B0007B6813438B6200BF0C37BD4680BC70471C
:1006C00080B483B000AF78604FF0B0439A6A7B6823
:1006D000DB434FF0B04113408B6200BF0C37BD4687
:1006E00080BC704780B483B000AF78604FF0B043F7
:1006F000DA6A4FF0B0417B681343CB6200BF0C371E
:10070000BD4680BC704780B483B000AF78604FF0C6
:10071000B043DA6A7B68DB434FF0B0411340CB62F1
:1007200000BF0C37BD4680BC704780B483B000AFBB
:1007300078604FF0B0431A6B4FF0B0417B681343C1
:100740000B6300BF0C37BD4680BC704780B483B0DC
:1007500000AF78604FF0B0431A6B7B68DB434FF01B
:10076000B04113400B6300BF0C37BD4680BC7047DF
:1007700080B483B000AF78604FF0B0439A6B4FF015
:10078000B0417B6813438B6300BF0C37BD4680BC10
:10079000704780B483B000AF78604FF0B043DA6B3D
:1007A0004FF0B0417B681343CB6300BF0C37BD46AD
:1007B00080BC704780B483B000AF78604FF0B04326
:1007C0009A6B7B68DB434FF0B04113408B6300BFF3
:1007D0000C37BD4680BC704780B483B000AF7860F2
:1007E0004FF0B043DA6B7B68DB434FF0B04113400E
:1007F000CB6300BF0C37BD4680BC704780B483B06C
:1008000000AF78604FF0B0431A6C4FF0B0417B6896
:1008100013430B6400BF0C37BD4680BC704780B4E7
:1008200083B000AF78604FF0B0431A6C7B68DB4355
:100830004FF0B04113400B6400BF0C37BD4680BC85
:10084000704780B483B000AF78604FF0B0435A6C0B
:100850004FF0B0417B6813434B6400BF0C37BD467B
:1008600080BC704780B483B000AF78604FF0B04375
:100870005A6C7B68DB434FF0B04113404B6400BFC0
:100880000C37BD4680BC704780B582B000AF0023F6
:10089000FB71032000F088F901F0CEFD0346094A00
:1008A00013600F2000F056F80346002B02D00123FE
:1008B000FB7101E0FFF792FEFB7918460837BD4651
:1008C00080BD00BF0000002080B500AF4FF0FF30BA
:1008D000FFF74EFF4FF0FF30FFF75BFF4FF0FF30A9
:1008E000FFF768FF4FF0FF30FFF776FF4FF0FF3064
:1008F000FFF784FF4FF0FF30FFF791FF4FF0FF301D
:10090000FFF79FFF4FF0FF30FFF7ACFF4FF0FF30D6
:10091000FFF7C5FE4FF0FF30FFF7D2FE4FF0FF307C
:10092000FFF7E0FE4FF0FF30FFF7EDFE4FF0FF3036
:10093000FFF7FBFE4FF0FF30FFF708FF00F003F872
:100940000023184680BD80B400AF00BFBD4680BC08
:100950007047000080B584B000AF78600023FB735F
:10096000174B1B78002B24D001F066FD0246144B78
:100970001B7819464FF47A73B3FBF1F3B2FBF3F330
:10098000184600F036F90346002B0FD17B680F2B79
:1009900009D8002279684FF0FF3000F010F9094AB9
:1009A0007B68136007E00123FB7304E00123FB7302
:1009B00001E00123FB73FB7B18461037BD4680BD69
:1009C000080000200400002080B400AF054B1B7815
:1009D0001A46054B1B681344034A136000BFBD460B
:1009E00080BC7047080000202800002080B400AFC1
:1009F000024B1B681846BD4680BC7047280000208B
:100A000080B584B000AF7860FFF7F0FFB8607B6816
:100A1000FB60FB68B3F1FF3F05D00A4B1B781A4619
:100A2000FB681344FB6000BFFFF7E0FF0246BB68B2
:100A3000D31AFA689A42F7D800BF00BF1037BD46F4
:100A400080BD00BF0800002080B485B000AF786092
:100A50007B6803F00703FB600C4BDB68BB60BA6884
:100A60004FF6FF031340BB60FB681A02BB681343D9
:100A700043F0BF6343F40033BB60044ABB68D360F8
:100A800000BF1437BD4680BC704700BF00ED00E0DA
:100A900080B400AF044BDB681B0A03F00703184661
:100AA000BD4680BC704700BF00ED00E080B483B05D
:100AB00000AF03463960FB7197F90730002B0ADB62
:100AC0003B68DAB20C4997F907301201D2B20B44F5
:100AD00083F800230AE03B68DAB20849FB7903F0A7
:100AE0000F03043B1201D2B20B441A7600BF0C373D
:100AF000BD4680BC704700BF00E100E000ED00E0B3
:100B000080B489B000AFF860B9607A60FB6803F028
:100B10000703FB61FB69C3F10703042B28BF042310
:100B2000BB61FB690433062B02D9FB69033B00E080
:100B300000237B614FF0FF32BB6902FA03F3DA4313
:100B4000BB681A407B699A404FF0FF317B6901FA1C
:100B500003F3D9437B680B40134318462437BD4643
:100B600080BC704780B582B000AF78607B68013B85
:100B7000B3F1807F01D301230FE00A4A7B68013B78
:100B800053600F214FF0FF30FFF790FF054B00221D
:100B90009A60044B07221A60002318460837BD46A6
:100BA00080BD00BF10E000E080B582B000AF78608B
:100BB0007868FFF749FF00BF0837BD4680BD80B5A4
:100BC00086B000AF0346B9607A60FB73FFF760FF41
:100BD00078617A68B9687869FFF792FF024697F9F9
:100BE0000F3011461846FFF761FF00BF1837BD46AA
:100BF00080BD80B582B000AF78607868FFF7B2FF43
:100C0000034618460837BD4680BD000080B586B053
:100C100000AFF860B960C7E900231C4B1B78012BBB
:100C200001D102232DE0194B01221A70174B00222B
:100C30005A604FF47A7000F069F80346FB75FB7D4B
:100C4000002B1AD1FB68012B05D1D7E90023B86826
:100C500000F0BEF804E03B681946B86800F0DEF822
:100C60004FF47A7000F052F80346FB75084B5A694E
:100C7000FB68DB43064913404B61044B00221A70AA
:100C8000FB7D18461837BD4680BD00BF2C000020F4
:100C90000040005880B483B000AF0023FB710B4BC1
:100CA0005B69002B0BDA094B094A9A60074B094A2A
:100CB0009A60064B5B69002B01DA0123FB71FB791B
:100CC00018460C37BD4680BC704700BF0040005836
:100CD00023016745AB89EFCD80B483B000AF00231B
:100CE000FB71094B5B69084A43F000435361064BB3
:100CF0005B69002B01DB0123FB71FB7918460C3784
:100D0000BD4680BC704700BF0040005880B584B02D
:100D100000AF7860FFF76AFEF86009E0FFF766FE53
:100D20000246FB68D31A7A689A4201D8032346E048
:100D3000254B1B6903F48033B3F5803FEED0224B83
:100D40001B69BB60BB6803F00103002B02D01E4B84
:100D500001221A61BA684CF2FA331340BB60BB68D7
:100D6000B3F1804F07D3184B9A69BB6803F0404337
:100D7000154913438B61BB6823F04043002B04D01B
:100D8000114ABB6823F040431361BB68002B0ED0AF
:100D90000E4ABB685360012311E0FFF727FE0246AD
:100DA000FB68D31A7A689A4201D8032307E0064BFE
:100DB0001B6903F48023B3F5802FEED0002318467F
:100DC0001037BD4680BD00BF004000582C000020F9
:100DD00080B485B000AFF860C7E900230E4B5B69B3
:100DE0000D4A43F001035361FB683A681A60BFF390
:100DF0006F8F00BFD7E900014FF000024FF00003F2
:100E00000A000023F968043113460B6000BF143751
:100E1000BD4680BC704700BF0040005880B489B018
:100E200000AF786039604023FB777B68BB613B682B
:100E30007B61184B5B69174A43F480235361EFF3DE
:100E40001083FB60FB683B6172B600BF7B691A6868
:100E5000BB691A60BB690433BB617B6904337B6186
:100E6000FB7F013BFB77FB7F002BEFD100BF094BE2
:100E70001B6903F48033B3F5803FF8D03B69BB6056
:100E8000BB6883F3108800BF00BF2437BD4680BC19
:100E9000704700BF0040005880B584B000AF786054
:100EA0003960284B1B78012B01D1022346E0254BEA
:100EB00001221A70234B00225A604FF47A70FFF718
:100EC00025FF0346FB73FB7B002B33D17B681B683C
:100ED000042B08D100F038F84FF47A70FFF716FFB2
:100EE0000346FB7324E03B684FF0FF321A607B68D7
:100EF0005B68BB6012E0B86800F036F84FF47A70B7
:100F0000FFF704FF0346FB73FB7B002B03D03B681A
:100F1000BA681A600AE0BB680133BB607B685A6834
:100F20007B689B681344BA689A42E4D300F078F86F
:100F300000F032F8034B00221A70FB7B1846103782
:100F4000BD4680BD2C00002080B400AF054B5B691E
:100F5000044A43F4803343F00403536100BFBD46A9
:100F600080BC70470040005880B483B000AF786008
:100F7000084B5B6923F47E727B68DB001343054AF0
:100F800043F4803343F00203536100BF0C37BD4686
:100F900080BC70470040005880B400AF1F4B1B68F6
:100FA00003F40073012B17D11C4B1B681B4A23F45D
:100FB00000731360194B1B68184A43F400631360F5
:100FC000164B1B68154A23F400631360134B1B6810
:100FD000124A43F400731360104B1B6803F48063E0
:100FE000012B17D10D4B1B680C4A23F4806313604F
:100FF0000A4B1B68094A43F480531360074B1B6874
:10100000064A23F480531360044B1B68034A43F4DD
:101010008063136000BFBD4680BC7047004000582D
:1010200080B400AF054B5B69044A23F47E7323F060
:101030000203536100BFBD4680BC704700400058AA
:1010400080B487B000AF7860396000237B6140E1F5
:101050003B681A6801217B6901FA03F31340FB60C6
:10106000FB68002B00F032813B685B6803F00303F0
:10107000012B05D03B685B6803F00303022B30D1E2
:101080007B689B683B617B695B00032202FA03F388
:10109000DB433A6913403B613B68DA687B695B007C
:1010A00002FA03F33A6913433B617B683A699A6039
:1010B0007B685B683B6101227B6902FA03F3DB43D7
:1010C0003A6913403B613B685B681B0903F001020E
:1010D0007B6902FA03F33A6913433B617B683A691F
:1010E0005A603B685B6803F00303032B17D07B68EF
:1010F000DB683B617B695B00032202FA03F3DB439D
:101100003A6913403B613B689A687B695B0002FA6D
:1011100003F33A6913433B617B683A69DA603B68E1
:101120005B6803F00303022B23D17B69DA087B6839
:10113000083253F822303B617B6903F007039B00C0
:101140000F2202FA03F3DB433A6913403B613B6829
:101150001A697B6903F007039B0002FA03F33A69FB
:1011600013433B617B69DA087B680832396943F8CD
:1011700022107B681B683B617B695B00032202FADB
:1011800003F3DB433A6913403B613B685B6803F060
:1011900003027B695B0002FA03F33A6913433B6184
:1011A0007B683A691A603B685B6803F44033002B44
:1011B00000F08C804E4A7B699B08023352F8233042
:1011C0003B617B6903F003039B00072202FA03F3F0
:1011D000DB433A6913403B617B68B3F1904F0DD01C
:1011E0007B68444A934207D07B68434A934201D1CB
:1011F000022304E0072302E0012300E000237A69D0
:1012000002F00302920093403A6913433B6138496C
:101210007B699B0802333A6941F82320374B1B68EE
:101220003B61FB68DB433A6913403B613B685B68A9
:1012300003F48013002B03D03A69FB6813433B612E
:101240002E4A3B6913602D4B5B683B61FB68DB43B7
:101250003A6913403B613B685B6803F40013002B61
:1012600003D03A69FB6813433B61244A3B695360EE
:10127000224BD3F880303B61FB68DB433A69134073
:101280003B613B685B6803F48033002B03D03A6911
:10129000FB6813433B61194A3B69C2F88030174B26
:1012A000D3F884303B61FB68DB433A6913403B6110
:1012B0003B685B6803F40033002B03D03A69FB689A
:1012C00013433B610D4A3B69C2F884307B690133AB
:1012D0007B613B681A687B6922FA03F3002B7FF479
:1012E000B7AE00BF00BF1C37BD4680BC704700BF13
:1012F00000000140000400480008004800080058B1
:1013000080B483B000AF78600B467B8013467B705F
:101310007B78002B03D07A887B689A6102E07A8818
:101320007B689A6200BF0C37BD4680BC70470000E6
:1013300080B400AF044B1B68034A43F4807313600E
:1013400000BFBD4680BC70470004005880B400AFA9
:10135000034B1B6803F4C0631846BD4680BC70474E
:101360000004005880B400AF064B1B6803F4807380
:10137000B3F5807F01D1012300E000231846BD466C
:1013800080BC70470004005880B400AF4FF0B043F9
:101390001B684FF0B04243F40013136000BFBD461A
:1013A00080BC704780B400AF4FF0B0431B684FF073
:1013B000B04223F40013136000BFBD4680BC7047E9
:1013C00080B400AF4FF0B0431B6803F48013B3F553
:1013D000801F01D1012300E000231846BD4680BCD8
:1013E000704780B400AF4FF0B0431B684FF0B0427D
:1013F00043F48033136000BFBD4680BC704780B4A7
:1014000000AF4FF0B0431B684FF0B04223F480337D
:10141000136000BFBD4680BC704780B400AF4FF082
:10142000B0431B6803F40033B3F5003F01D101233F
:1014300000E000231846BD4680BC704780B400AF72
:101440004FF0B0431B684FF0B04243F48073136019
:1014500000BFBD4680BC704780B400AF4FF0B043C2
:101460001B684FF0B04223F48073136000BFBD4689
:1014700080BC704780B400AF4FF0B0431B6803F4EA
:101480008063B3F5806F01D1012300E0002318468B
:10149000BD4680BC704780B483B000AF78604FF029
:1014A000B0435B6823F0FE427B681B064FF0B041FF
:1014B00013434B6000BF0C37BD4680BC704780B4FF
:1014C00000AF4FF0B043D3F8903003F00203022B8B
:1014D00001D1012300E000231846BD4680BC7047BF
:1014E00080B400AF4FF0B043D3F894304FF0B04227
:1014F00043F00103C2F8943000BFBD4680BC704782
:1015000080B400AF4FF0B043D3F894304FF0B04206
:1015100023F00103C2F8943000BFBD4680BC704781
:1015200080B400AF4FF0B043D3F8943003F002031F
:10153000022B01D1012300E000231846BD4680BCE8
:10154000704780B400AF4FF0B0431B684FF0B0421B
:1015500043F00103136000BFBD4680BC704780B4F8
:1015600000AF4FF0B0431B684FF0B04223F00103CF
:10157000136000BFBD4680BC704780B400AF4FF021
:10158000B0431B6803F00203022B01D1012300E0EA
:1015900000231846BD4680BC704780B400AF4FF0B2
:1015A000B0431B6803F00803082B01D1012300E0BE
:1015B00000231846BD4680BC704780B483B000AF9E
:1015C00078604FF0B0431B6823F0F0024FF0B04159
:1015D0007B6813430B6000BF0C37BD4680BC70476F
:1015E00080B400AF4FF0B0431B6803F0F00318461F
:1015F000BD4680BC704780B400AF4FF0B043D3F815
:10160000943003F470631846BD4680BC704780B4C4
:1016100083B000AF78604FF0B0435B6823F47F4243
:101620007B681B024FF0B04113434B6000BF0C3787
:10163000BD4680BC704780B483B000AF78604FF087
:10164000B0439B6823F003024FF0B0417B68134323
:101650008B6000BF0C37BD4680BC704780B400AFC4
:101660004FF0B0439B6803F00C031846BD4680BCA6
:10167000704780B483B000AF78604FF0B0439B6890
:1016800023F0F0024FF0B0417B6813438B6000BF42
:101690000C37BD4680BC704780B483B000AF786023
:1016A0004FF0B043D3F8083123F00F027B681B09D9
:1016B0004FF0B0411343C1F8083100BF0C37BD46AD
:1016C00080BC704780B483B000AF78604FF0B04307
:1016D0009B6823F4E0624FF0B0417B6813438B605A
:1016E00000BF0C37BD4680BC704780B483B000AFEC
:1016F00078604FF0B0439B6823F460524FF0B041E4
:101700007B6813438B6000BF0C37BD4680BC7047BD
:1017100080B400AF4FF0B0439B6803F0F00318466D
:10172000BD4680BC704780B400AF4FF0B043D3F8E3
:1017300008311B0103F0F0031846BD4680BC70471A
:1017400080B400AF4FF0B0431B684FF0B04243F09D
:101750008073136000BFBD4680BC704780B400AF8B
:101760004FF0B0431B684FF0B04223F0807313601A
:1017700000BFBD4680BC704780B400AF4FF0B0439F
:101780001B6803F00073B3F1007F01D1012300E077
:1017900000231846BD4680BC704780B400AF4FF0B0
:1017A000B043DB681B0A03F07F031846BD4680BCCC
:1017B000704780B400AF4FF0B043DB6803F0604384
:1017C0001846BD4680BC704780B400AF4FF0B043B0
:1017D000DB6803F070031846BD4680BC704780B4D8
:1017E00000AF4FF0B043DB6803F003031846BD467B
:1017F00080BC704780B400AF4FF0B0439B6803F4E7
:101800008033B3F5803F01D1012300E00023184667
:10181000BD4680BC704780B400AF4FF0B043D3F8F2
:10182000083103F48033B3F5803F01D1012300E098
:1018300000231846BD4680BC704780B400AF4FF00F
:10184000B0439B6803F40033B3F5003F01D101239B
:1018500000E000231846BD4680BC704780B400AF4E
:101860004FF0B0439B6803F48023B3F5802F01D180
:10187000012300E000231846BD4680BC70470000ED
:1018800080B582B000AFFFF7B1F87860FFF759FE7E
:1018900008E0FFF7ABF802467B68D31A022B01D9A8
:1018A000032374E0FFF769FE0346002BF1D06020AC
:1018B000FFF783FE0020FFF7AAFE4020FFF7EBFDB5
:1018C000FFF794F878604FF0B04300229A600AE086
:1018D000FFF78CF802467B68D31A41F288329342B4
:1018E00001D9032353E0FFF7B9FE0346002BEFD1E4
:1018F0004FF0B0431A684FF0B041274B13400B60D4
:10190000FFF774F8786008E0FFF770F802467B682C
:10191000D31A642B01D9032339E0FFF77EFD034678
:10192000002BF1D1FFF73EFDFFF760F8786008E08B
:10193000FFF75CF802467B68D31A0A2B01D9032310
:1019400025E0FFF719FF0346002BF1D14FF0B0431C
:10195000124ADA604FF0B04300229A614FF0B04370
:101960004FF0FF321A624FF0B0434FF44032C3F8E9
:1019700008210B4B0B4A1A600B4B1B681846FEF7ED
:10198000E9FF0346002B01D0012300E000231846A5
:101990000837BD4680BD00BFFFF4EEFE0001042203
:1019A0000000002000093D000400002080B588B040
:1019B00000AF78607B68002B01D101236FE3FFF754
:1019C0004DFEF861FFF70BFFB8617B681B6803F001
:1019D0002003002B00F0C480FB69002B05D0FB69BD
:1019E0000C2B76D1BB69012B73D17B681B6A002B52
:1019F00001D1012353E37B689A6A4FF0B0431B681F
:101A000003F00803002B05D04FF0B0431B6803F030
:101A1000F00306E04FF0B043D3F894301B0903F015
:101A2000F003934222D27B689B6A184600F018FDAF
:101A30000346002B01D0012331E34FF0B0431B6874
:101A40004FF0B04243F0080313604FF0B0431B68FF
:101A500023F0F0027B689B6A4FF0B04113430B60A8
:101A60007B685B6A1846FFF7D2FD21E04FF0B04378
:101A70001B684FF0B04243F0080313604FF0B043CF
:101A80001B6823F0F0027B689B6A4FF0B041134360
:101A90000B607B685B6A1846FFF7B9FD7B689B6A41
:101AA000184600F0DDFC0346002B01D00123F6E2CE
:101AB00000F0C2FC0346A74A1360A74B1B681846F8
:101AC000FEF748FF0346FB74FB7C002B47D0FB7CF2
:101AD000E5E27B681B6A002B2CD0FFF732FDFEF796
:101AE00085FF786108E0FEF781FF02467B69D31A23
:101AF000022B01D90323D2E2FFF73FFD0346002B5F
:101B0000F1D04FF0B0431B684FF0B04243F00803F0
:101B100013604FF0B0431B6823F0F0027B689B6AB0
:101B20004FF0B04113430B607B685B6A1846FFF7C8
:101B30006EFD15E0FFF713FDFEF758FF786108E032
:101B4000FEF754FF02467B69D31A022B01D9032307
:101B5000A5E2FFF712FD0346002BF1D100E000BF24
:101B60007B681B6803F00103002B58D0FB69082B2E
:101B700005D0FB690C2B08D1BB69032B05D17B6811
:101B80005B68002B4BD1012389E24FF0B0431B6807
:101B900023F480127B689B684FF0B04113430B60C5
:101BA0007B685B68B3F5803F02D1FFF71AFC0DE05C
:101BB0007B685B68B3F5041F04D1FFF7E5FBFFF713
:101BC00010FC03E0FFF71BFCFFF7ECFB7B685B6896
:101BD000002B12D0FEF70AFF786108E0FEF706FF3F
:101BE00002467B69D31A642B01D9032357E2FFF71E
:101BF00014FC0346002BF1D011E0FEF7F7FE7861EC
:101C000008E0FEF7F3FE02467B69D31A642B01D984
:101C1000032344E2FFF701FC0346002BF1D17B686C
:101C20001B6803F00203002B46D0FB69042B05D090
:101C3000FB690C2B0ED1BB69022B0BD17B681B6996
:101C4000002B01D101232AE27B685B691846FFF76C
:101C500022FC31E07B681B69002B19D0FFF7EEFBFB
:101C6000FEF7C4FE786108E0FEF7C0FE02467B691D
:101C7000D31A022B01D9032311E2FFF7FBFB034622
:101C8000002BF1D07B685B691846FFF704FC13E07A
:101C9000FFF7E2FBFEF7AAFE786108E0FEF7A6FE7A
:101CA00002467B69D31A022B01D90323F7E1FFF720
:101CB000E1FB0346002BF1D17B681B6803F00803AE
:101CC000002B6ED07B689B69002B56D04FF0B04341
:101CD000D3F89430FB607B68DA69FB6803F010038B
:101CE0009A4231D0FB6803F00203002B06D0FB6858
:101CF00003F00103002B01D10123D0E1FB6803F0C5
:101D00000103002B13D0FFF7FBFBFEF76FFE78619A
:101D100008E0FEF76BFE02467B69D31A112B01D94E
:101D20000323BCE1FFF7FCFB0346002BF1D14FF08E
:101D3000B043D3F8943023F010027B68DB694FF096
:101D4000B0411343C1F89430FFF7CAFBFEF74EFED3
:101D500078610CE00000002004000020FEF746FE41
:101D600002467B69D31A112B01D9032397E1FFF7B0
:101D7000D7FB0346002BF1D013E0FFF7C1FBFEF7C2
:101D800035FE786108E0FEF731FE02467B69D31A22
:101D9000112B01D9032382E1FFF7C2FB0346002B7D
:101DA000F1D17B681B6803F00403002B00F0D8809E
:101DB000FFF7D8FA0346002B13D1FFF7B9FAFEF765
:101DC00015FE786108E0FEF711FE02467B69D31A22
:101DD000022B01D9032362E1FFF7C4FA0346002B6B
:101DE000F1D07B68DB68002B7BD07B68DB68852BC0
:101DF00003D07B68DB68052B09D14FF0B043D3F8E3
:101E000090304FF0B04243F00403C2F89030FEF738
:101E1000EDFD78614FF0B043D3F890304FF0B04211
:101E200043F00103C2F890300AE0FEF7DFFD0246FE
:101E30007B69D31A41F28832934201D903232EE100
:101E4000FFF73DFB0346002BEFD07B68DB68812B5F
:101E500003D07B68DB68852B21D1FEF7C7FD786155
:101E60004FF0B043D3F890304FF0B04243F08003CE
:101E7000C2F890300AE0FEF7B9FD02467B69D31A3A
:101E800041F28832934201D9032308E14FF0B04375
:101E9000D3F8903003F40063002BECD060E0FEF741
:101EA000A5FD78614FF0B043D3F890304FF0B042C9
:101EB00023F08003C2F890300AE0FEF797FD024657
:101EC0007B69D31A41F28832934201D90323E6E0B9
:101ED0004FF0B043D3F8903003F40063002BECD103
:101EE0003EE0FEF783FD78614FF0B043D3F89030C9
:101EF0004FF0B04223F08003C2F890300AE0FEF7C2
:101F000075FD02467B69D31A41F28832934201D9AA
:101F10000323C4E04FF0B043D3F8903003F40063E0
:101F2000002BECD1FEF762FD78614FF0B043D3F89F
:101F300090304FF0B04223F00103C2F890300AE035
:101F4000FEF754FD02467B69D31A41F28832934270
:101F500001D90323A3E0FFF7B2FA0346002BEFD128
:101F60007B68DB6A002B00F09980FB690C2B6CD03E
:101F70007B68DB6A022B4BD1FFF7F0FBFEF736FDE7
:101F8000786108E0FEF732FD02467B69D31A0A2B1E
:101F900001D9032383E0FFF7EFFB0346002BF1D1C8
:101FA0004FF0B043DA68404B13407A68116B7A689F
:101FB000526B11437A68926B120211437A68D26BAA
:101FC00011437A68126C11437A68526C0A434FF0DD
:101FD000B0411343CB60FFF7B3FB4FF0B043DB6876
:101FE0004FF0B04243F08053D360FEF7FFFC7861BE
:101FF00008E0FEF7FBFC02467B69D31A0A2B01D9E5
:1020000003234CE0FFF7B8FB0346002BF1D045E07B
:10201000FFF7A4FBFEF7EAFC786108E0FEF7E6FCB8
:1020200002467B69D31A0A2B01D9032337E0FFF755
:10203000A3FB0346002BF1D14FF0B043DA684FF019
:10204000B0411A4B1340CB6028E07B68DB6A012B60
:1020500001D1012323E04FF0B043DB68BB61BB69D2
:1020600003F003027B681B6B9A4215D1BB6903F036
:1020700070027B685B6B9A420ED1BB6903F4FE422F
:102080007B689B6B1B029A4206D1BB6903F06042DE
:102090007B685B6C9A4201D0012300E00023184664
:1020A0002037BD4680BD00BF8C80C111FCFFFEEE15
:1020B00080B584B000AF786039607B68002B01D1B7
:1020C00001230FE1894B1B6803F007033A689A422A
:1020D0001BD9864B1B6823F0070284493B681343D6
:1020E0000B60FEF783FCF86008E0FEF77FFC024619
:1020F000FB68D31A022B01D90323F3E07B4B1B6847
:1021000003F007033A689A42EFD17B681B6803F03B
:102110000203002B16D07B689B681846FFF7A9FACC
:10212000FEF764FCF86008E0FEF760FC0246FB681E
:10213000D31A022B01D90323D4E0FFF75BFB03463C
:10214000002BF1D07B681B6803F04003002B16D0F6
:102150007B685B691846FFF79FFAFEF747FCF8605B
:1021600008E0FEF743FC0246FB68D31A022B01D9B4
:102170000323B7E0FFF74FFB0346002BF1D07B684A
:102180001B6803F00403002B16D07B68DB6818463D
:10219000FFF798FAFEF72AFCF86008E0FEF726FC45
:1021A0000246FB68D31A022B01D903239AE0FFF7FA
:1021B00044FB0346002BF1D07B681B6803F0080347
:1021C000002B17D07B681B69DB001846FFF78DFAE0
:1021D000FEF70CFCF86008E0FEF708FC0246FB681E
:1021E000D31A022B01D903237CE0FFF737FB034608
:1021F000002BF1D07B681B6803F00103002B43D058
:102200007B685B68022B06D1FFF707F90346002BBA
:102210001ED1012366E07B685B68032B06D1FFF7C4
:10222000ABFA0346002B13D101235BE07B685B68AC
:10223000002B06D1FFF7A1F90346002B08D101239B
:1022400050E0FFF717F90346002B01D1012349E0C5
:102250007B685B681846FFF7EEF9FEF7C7FBF8608E
:102260000AE0FEF7C3FB0246FB68D31A41F288324C
:10227000934201D9032335E0FFF7F0F902467B686A
:102280005B689B009A42ECD1184B1B6803F0070374
:102290003A689A421BD2154B1B6823F00702134978
:1022A0003B6813430B60FEF7A1FBF86008E0FEF704
:1022B0009DFB0246FB68D31A022B01D9032311E0D0
:1022C0000A4B1B6803F007033A689A42EFD100F00B
:1022D000B3F80346064A1360064B1B681846FEF720
:1022E00039FB034618461037BD4680BD00400058F4
:1022F000000000200400002090B587B000AF00234C
:102300007B6100233B61FFF7A9F9B860FFF767FA2B
:102310007860BB68002B05D0BB680C2B39D17B687B
:10232000012B36D1FFF739F90346002B15D1FFF702
:1023300034F90346012B06D1FFF752F903461B0A75
:1023400003F00F0305E0FFF756F903461B0A03F0FD
:102350000F03364A52F8233014E0FFF71EF9034604
:10236000012B06D1FFF73CF903461B0903F00F03CD
:1023700005E0FFF740F903461B0903F00F032B4A62
:1023800052F823303B61BB68002B15D13B697B6160
:1023900012E0BB68042B02D1254B7B610CE0BB68CB
:1023A000082B09D1FFF70CF80346012B02D1204B73
:1023B0007B6101E01F4B7B61FFF750F903460C2B5B
:1023C0002FD1FFF70CFA78607B68022B03D07B6873
:1023D000032B03D00DE0164BFB600DE0FEF7F0FF82
:1023E0000346012B02D1124BFB6005E0114BFB6051
:1023F00002E03B69FB6000BFFFF7CFF90246FB68D4
:1024000003FB02F4FFF7E0F903461B090133B4FBB9
:10241000F3F4FFF7CEF903465B0F0133B4FBF3F39C
:102420007B617B6918461C37BD4690BD902600082D
:102430000024F4000048E80198B500AFFFF75CFF06
:102440000446FFF765F903461B0903F00F03034A2F
:1024500052F82330B4FBF3F3184698BD5026000819
:1024600090B585B000AF78607B681B0903F00F035F
:10247000104A52F82330FB60FFF755F903461B0959
:1024800003F00F030C4A52F82330FA68B2FBF3F35F
:10249000BB60BB68094AA2FB03239C0CFEF756FFF6
:1024A00003461946204600F00BF803461846143739
:1024B000BD4690BD902600085026000883DE1B43D1
:1024C00080B58EB000AF786039603A4A07F12003DA
:1024D00092E80300186004331980374A07F11803A3
:1024E00092E80300186004331980344A07F10C03A2
:1024F00007CA83E8070000237B633B68B3F5007FCE
:102500001BD100233B6314E03B6B5B0038333B443F
:1025100033F8183C1A467B68934207D83B6B9B0004
:1025200038333B4453F82C3C7B6321E03B6B013355
:102530003B633B6B022BE7D91AE00023FB6214E0FC
:10254000FB6A5B0038333B4433F8203C1A467B6817
:10255000934207D8FB6A9B0038333B4453F82C3C2A
:102560007B6305E0FB6A0133FB62FB6A022BE7D960
:10257000134B1B6823F0070211497B6B13430B605D
:10258000FEF734FAB86208E0FEF730FA0246BB6A9A
:10259000D31A022B01D9032307E0094B1B6803F070
:1025A00007037A6B9A42EFD1002318463837BD46AD
:1025B00080BD00BF342600083C26000844260008E1
:1025C0000040005802440346934200D1704703F88C
:1025D000011BF9E770B50D4D0D4C641BA4100026CE
:1025E000A64209D10B4D0C4C00F018F8641BA41046
:1025F0000026A64205D170BD55F8043B9847013628
:10260000EEE755F8043B98470136F2E7D02600087C
:10261000D0260008D0260008D4260008F8B500BF50
:10262000F8BC08BC9E467047F8B500BFF8BC08BCB3
:102630009E467047120024003000000006000C0087
:102640001000000000000000010000000200000077
:102650000100000003000000050000000100000070
:1026600001000000060000000A0000002000000039
:10267000020000000400000008000000100000003C
:102680004000000080000000000100000002000087
:10269000A0860100400D0300801A060000350C00E2
:1026A00040420F0080841E0000093D0000127A00A5
:1026B0000024F40000366E010048E801006CDC02E2
:1026C000000000000000000000000000000000000A
:1026D0005D0100083901000800093D0010000000FC
:0426E00001000000F5
:105000000000012025790008FD710008FF710008EB
:105010000172000803720008057200080000000019
:1050200000000000000000000000000007720008FF
:1050300009720008000000000B7200080D720008E1
:1050400075790008757900081172000875790008F3
:10505000757900081D720008757900081F72000834
:105060007579000875790008757900087579000868
:1050700075790008757900087579000825720008AF
:105080007579000875790008757900087579000848
:10509000000000007579000875790008757900082E
:1050A0007579000875790008757900087579000828
:1050B0007579000875790008757900087579000818
:1050C0007579000875790008757900087579000808
:1050D0007579000831720008757900087579000843
:1050E00075790008757900083D7200087579000827
:1050F00075790008000000000000000075790008C4
:1051000075790008757900084972000875790008FA
:1051100075790008757900087579000875790008B7
:1051200075790008757900087579000875790008A7
:0851300075790008757900088B
:1051400010B5054C237833B9044B13B10448AFF3C1
:1051500000800123237010BD980100200000000092
:10516000B8C1010808B5034B1BB103490348AFF3AD
:10517000008008BD000000009C010020B8C10108AB
:10518000034613F8012B002AFBD1181A0138704787
:1051900001F0FF01102A2BDB10F0070F08D010F8E8
:1051A000013B013A8B422DD010F0070F42B3F6D1EC
:1051B000F0B441EA012141EA014122F007047FF005
:1051C00000070023F0E80256083C85EA010586EA5C
:1051D000010685FA47F5A3FA87F586FA47F6A5FA98
:1051E00087F68EB9EED1F0BC01F0FF0102F00702A4
:1051F00032B110F8013B013A83EA010313B1F8D14F
:105200000020704701387047002D06BF354603382F
:10521000073815F0010F07D1013015F4807F02BF68
:10522000013015F4C03F0130F0BC0138704700BFB9
:1052300081F0004102E000BF83F0004330B54FEA47
:1052400041044FEA430594EA050F08BF90EA020FB4
:105250001FBF54EA000C55EA020C7FEA645C7FEA47
:10526000655C00F0E2804FEA5454D4EB5555B8BF6A
:105270006D420CDD2C4480EA020281EA030382EADB
:10528000000083EA010180EA020281EA0303362D6D
:1052900088BF30BD11F0004F4FEA01314FF4801C40
:1052A0004CEA113102D0404261EB410113F0004F52
:1052B0004FEA03334CEA133302D0524263EB430309
:1052C00094EA050F00F0A780A4F10104D5F1200EA7
:1052D0000DDB02FA0EFC22FA05F2801841F1000102
:1052E00003FA0EF2801843FA05F359410EE0A5F1D6
:1052F00020050EF1200E012A03FA0EFC28BF4CF007
:10530000020C43FA05F3C01851EBE37101F00045BC
:1053100007D54FF0000EDCF1000C7EEB00006EEBC9
:105320000101B1F5801F1BD3B1F5001F0CD3490853
:105330005FEA30004FEA3C0C04F101044FEA4452AA
:1053400012F5800F80F09A80BCF1004F08BF5FEA31
:10535000500C50F1000041EB045141EA050130BD11
:105360005FEA4C0C404141EB0101013C28BFB1F523
:10537000801FE9D291F0000F04BF01460020B1FA6E
:1053800081F308BF2033A3F10B03B3F120020CDA41
:105390000C3208DD02F1140CC2F10C0201FA0CF01F
:1053A00021FA02F10CE002F11402D8BFC2F1200C84
:1053B00001FA02F120FA0CFCDCBF41EA0C0190403A
:1053C000E41AA2BF01EB0451294330BD6FEA040483
:1053D0001F3C1CDA0C340EDC04F11404C4F120026E
:1053E00020FA04F001FA02F340EA030021FA04F380
:1053F00045EA030130BDC4F10C04C4F1200220FAD7
:1054000002F001FA04F340EA0300294630BD21FA14
:1054100004F0294630BD94F0000F83F4801306BFDA
:1054200081F480110134013D4EE77FEA645C18BFCE
:105430007FEA655C29D094EA050F08BF90EA020F65
:1054400005D054EA000C04BF1946104630BD91EA5D
:10545000030F1EBF0021002030BD5FEA545C05D160
:105460004000494128BF41F0004130BD14F580049F
:105470003CBF01F5801130BD01F0004545F0FE4113
:1054800041F470014FF0000030BD7FEA645C1ABF48
:10549000194610467FEA655C1CBF0B46024650EA7F
:1054A000013406BF52EA033591EA030F41F40021AB
:1054B00030BD00BF90F0000F04BF0021704730B531
:1054C0004FF4806404F132044FF000054FF0000106
:1054D00050E700BF90F0000F04BF0021704730B5C7
:1054E0004FF4806404F1320410F0004548BF40429C
:1054F0004FF000013EE700BF42004FEAE2014FEAF1
:1055000031014FEA02701FBF12F07F4393F07F4FCB
:1055100081F06051704732F07F4208BF704793F0CE
:105520007F4F04BF41F40021704730B54FF46074E1
:1055300001F0004521F000411CE700BF50EA0102E4
:1055400008BF704730B54FF000050AE050EA01028D
:1055500008BF704730B511F0004502D5404261EBFD
:1055600041014FF4806404F132045FEA915C3FF43E
:10557000D8AE4FF003025FEADC0C18BF03325FEADB
:10558000DC0C18BF033202EBDC02C2F1200300FA8C
:1055900003FC20FA02F001FA03FE40EA0E0021FAB1
:1055A00002F11444BDE600BF4FF0FF3C06E000BF2F
:1055B0004FF0010C02E000BF4FF0010C4DF804CD9C
:1055C0004FEA410C7FEA6C5C4FEA430C18BF7FEA5C
:1055D0006C5C1BD001B050EA410C0CBF52EA430C8A
:1055E00091EA030F02BF90EA020F0020704710F10A
:1055F000000F91EA030F58BF994208BF90422CBF99
:10560000D8176FEAE37040F0010070474FEA410C91
:105610007FEA6C5C02D150EA013C07D14FEA430CAF
:105620007FEA6C5CD6D152EA033CD3D05DF8040B20
:10563000704700BF8446104662468C461946634652
:1056400000E000BF01B5FFF7B7FF002848BF10F129
:10565000000F01BD4DF808EDFFF7F4FF0CBF01206E
:1056600000205DF808FB00BF4DF808EDFFF7EAFFEA
:1056700034BF012000205DF808FB00BF4DF808EDA5
:10568000FFF7E0FF94BF012000205DF808FB00BF9A
:105690004DF808EDFFF7CEFF94BF012000205DF824
:1056A00008FB00BF4DF808EDFFF7C4FF34BF012031
:1056B00000205DF808FB00BF4FEA410212F500121E
:1056C00015D211D56FF47873B3EB625212D94FEA49
:1056D000C12343F0004343EA505311F0004F23FA33
:1056E00002F018BF404270474FF00000704750EA88
:1056F000013005D111F0004008BF6FF00040704745
:105700004FF00000704700BF80F0004002E000BF93
:1057100081F0004142001FBF5FEA410392EA030F9C
:105720007FEA226C7FEA236C6AD04FEA1262D2EBE6
:105730001363C1BFD218414048404140B8BF5B42EB
:10574000192B88BF704710F0004F40F4000020F084
:105750007F4018BF404211F0004F41F4000121F09A
:105760007F4118BF494292EA030F3FD0A2F10102E4
:1057700041FA03FC10EB0C00C3F1200301FA03F122
:1057800000F0004302D5494260EB4000B0F5000F45
:1057900013D3B0F1807F06D340084FEA310102F104
:1057A0000102FE2A51D2B1F1004F40EBC25008BFB6
:1057B00020F0010040EA03007047490040EB000080
:1057C000013A28BFB0F5000FEDD2B0FA80FCACF181
:1057D000080CB2EB0C0200FA0CF0AABF00EBC250AE
:1057E00052421843BCBFD0401843704792F0000F9C
:1057F00081F4000106BF80F400000132013BB5E7EF
:105800004FEA41037FEA226C18BF7FEA236C21D064
:1058100092EA030F04D092F0000F08BF08467047C9
:1058200090EA010F1CBF0020704712F07F4F04D197
:10583000400028BF40F00040704712F100723CBFAA
:1058400000F50000704700F0004343F0FE4040F4D4
:10585000000070477FEA226216BF08467FEA236392
:105860000146420206BF5FEA412390EA010F40F47D
:10587000800070474FF0000304E000BF10F00043C9
:1058800048BF40425FEA000C08BF704743F09643B0
:1058900001464FF000001CE050EA010208BF7047CB
:1058A0004FF000030AE000BF50EA010208BF704752
:1058B00011F0004302D5404261EB41015FEA010C67
:1058C00002BF84460146002043F0B64308BFA3F15F
:1058D0008053A3F50003BCFA8CF2083AA3EBC25341
:1058E00010DB01FA02FC634400FA02FCC2F1200260
:1058F000BCF1004F20FA02F243EB020008BF20F097
:105900000100704702F1200201FA02FCC2F12002FC
:1059100050EA4C0021FA02F243EB020008BF20EAF1
:10592000DC7070474FF0FF0C1CEAD0521EBF1CEA1F
:10593000D15392EA0C0F93EA0C0F6FD01A4480EA0D
:10594000010C400218BF5FEA41211ED04FF00063F6
:1059500043EA501043EA5111A0FB01310CF0004022
:10596000B1F5000F3EBF490041EAD3715B0040EA48
:10597000010062F17F02FD2A1DD8B3F1004F40EB18
:10598000C25008BF20F00100704790F0000F0CF0EB
:10599000004C08BF49024CEA502040EA51207F3AAF
:1059A000C2BFD2F1FF0340EAC250704740F400008A
:1059B0004FF00003013A5DDC12F1190FDCBF00F07B
:1059C00000407047C2F10002410021FA02F1C2F129
:1059D000200200FA02FC5FEA310040F1000053EAC5
:1059E0004C0308BF20EADC70704792F0000F00F013
:1059F000004C02BF400010F4000F013AF9D040EA19
:105A00000C0093F0000F01F0004C02BF490011F4AC
:105A1000000F013BF9D041EA0C018FE70CEAD153AA
:105A200092EA0C0F18BF93EA0C0F0AD030F0004C2A
:105A300018BF31F0004CD8D180EA010000F00040DE
:105A4000704790F0000F17BF90F0004F084691F09C
:105A5000000F91F0004F14D092EA0C0F01D14202D6
:105A60000FD193EA0C0F03D14B0218BF084608D19F
:105A700080EA010000F0004040F0FE4040F40000E9
:105A8000704740F0FE4040F4400070474FF0FF0C7C
:105A90001CEAD0521EBF1CEAD15392EA0C0F93EAC3
:105AA0000C0F69D0A2EB030280EA010C49024FEA15
:105AB000402037D04FF0805343EA111143EA1013CE
:105AC0000CF000408B4238BF5B0042F17D024FF486
:105AD000000C8B4224BF5B1A40EA0C00B3EB510F61
:105AE00024BFA3EB510340EA5C00B3EB910F24BF4A
:105AF000A3EB910340EA9C00B3EBD10F24BFA3EBCF
:105B0000D10340EADC001B0118BF5FEA1C1CE0D196
:105B1000FD2A3FF650AF8B4240EBC25008BF20F049
:105B2000010070470CF0004C4CEA50207F32C2BF9D
:105B3000D2F1FF0340EAC250704740F400004FF03A
:105B40000003013A37E792F0000F00F0004C02BF6B
:105B5000400010F4000F013AF9D040EA0C0093F035
:105B6000000F01F0004C02BF490011F4000F013B8F
:105B7000F9D041EA0C0195E70CEAD15392EA0C0FF7
:105B800008D142027FF47DAF93EA0C0F7FF470AF2F
:105B9000084676E793EA0C0F04D14B023FF44CAF72
:105BA00008466EE730F0004C18BF31F0004CCAD107
:105BB00030F000427FF45CAF31F000437FF43CAF43
:105BC0005FE700BF4FF0FF3C06E000BF4FF0010C65
:105BD00002E000BF4FF0010C4DF804CD4FEA400247
:105BE0004FEA41037FEA226C18BF7FEA236C11D091
:105BF00001B052EA530C18BF90EA010F58BFB2EB44
:105C0000030088BFC81738BF6FEAE17018BF40F0C3
:105C1000010070477FEA226C02D15FEA402C05D177
:105C20007FEA236CE4D15FEA412CE1D05DF8040BFC
:105C3000704700BF844608466146FFE70FB5FFF78F
:105C4000C9FF002848BF10F1000F0FBD4DF808ED47
:105C5000FFF7F4FF0CBF012000205DF808FB00BF38
:105C60004DF808EDFFF7EAFF34BF012000205DF892
:105C700008FB00BF4DF808EDFFF7E0FF94BF0120DF
:105C800000205DF808FB00BF4DF808EDFFF7D2FFDC
:105C900094BF012000205DF808FB00BF4DF808ED1F
:105CA000FFF7C8FF34BF012000205DF808FB00BFEC
:105CB0004FEA40024FEA41037FEA226C02D15FEAD9
:105CC000402C08D17FEA236C02D15FEA412C02D13B
:105CD0004FF0000070474FF0010070474FEA40025C
:105CE000B2F1FE4F0FD34FF09E03B3EB12620DD90A
:105CF0004FEA002343F0004310F0004F23FA02F074
:105D000018BF404270474FF00000704712F1610F1A
:105D100001D1420205D110F0004008BF6FF00040F1
:105D200070474FF00000704742000ED2B2F1FE4FB4
:105D30000BD34FF09E03B3EB126209D44FEA00235A
:105D400043F0004323FA02F070474FF00000704721
:105D500012F1610F01D1420202D14FF0FF307047C2
:105D60004FF00000704700BF7BB972B90029BEBF79
:105D700000204FF0004106E008BF00281CBF6FF074
:105D800000414FF0FF3000F0B5B9ADF1080C6DE9FE
:105D900004CE002909DB002B1ADB00F04DF8DDF8FA
:105DA00004E0DDE9022304B07047404261EB4101A9
:105DB000002B1BDB00F040F8DDF804E0DDE90223F6
:105DC00004B0404261EB4101524263EB4303704730
:105DD000524263EB430300F02FF8DDF804E0DDE905
:105DE000022304B0404261EB41017047524263EB31
:105DF000430300F021F8DDF804E0DDE9022304B0FC
:105E0000524263EB4303704753B94AB9002908BFB4
:105E100000281CBF4FF0FF314FF0FF3000F06AB98F
:105E2000ADF1080C6DE904CE00F006F8DDF804E0F1
:105E3000DDE9022304B070472DE9F047089D0C46C8
:105E4000002B4ED194468C458646B2FA82F262D936
:105E50004AB1C2F12003914020FA03F30CFA02FC8C
:105E6000194300FA02FE4FEA1C471FFA8CF6B1FBF9
:105E7000F7F44FEA1E4307FB141143EA014304FB06
:105E800006F199420AD91CEB030304F1FF3080F0BC
:105E90001281994240F20F81023C6344591A1FFA61
:105EA0008EF3B1FBF7F007FB101143EA014300FB4F
:105EB00006F69E420AD91CEB030300F1FF3180F085
:105EC000FC809E4240F2F980634402389B1B40EA0A
:105ED000044000211DB1D3400022C5E90032BDE8D5
:105EE000F0878B4205D90DB1C5E9000100210846B4
:105EF000F5E7B3FA83F1002946D1A34202D39042D9
:105F0000C0F0F080861A64EB03030120002DE6D078
:105F1000C5E90063E3E7002A40F09080A1EB0C04A0
:105F20004FEA1C481FFA8CF70121B4FBF8F64FEA40
:105F30001E4308FB164443EA044307FB06F098425D
:105F400008D91CEB030306F1FF3402D2984200F299
:105F5000CD8026461C1A1FFA8EF3B4FBF8F008FB1E
:105F6000104443EA044300FB07F79F4208D91CEBA7
:105F7000030300F1FF3402D29F4200F2B0802046BA
:105F8000DB1B40EA0640A5E7C1F120068B4022FA60
:105F900006F71F4320FA06FC04FA01F343EA0C0358
:105FA000F44000FA01F8380C4FEA1349B4FBF0FE54
:105FB0001FFA87FC00FB1E4449EA04440EFB0CF95F
:105FC000A14502FA01F20AD93C190EF1FF3A80F01C
:105FD0008480A14540F28180AEF1020E3C44A4EBE6
:105FE00009041FFA83F9B4FBF0F300FB134449EAF8
:105FF000044403FB0CFCA44507D93C1903F1FF3012
:1060000067D2A44565D9023B3C4443EA0E40A0FB5D
:106010000293A4EB0C049C42CE469C4651D34ED036
:1060200055B1B8EB0E0364EB0C0404FA06F6CB4052
:106030001E43CC40C5E90064002150E7C2F12003B3
:1060400020FA03F10CFA02FC24FA03F394400C4307
:106050004FEA1C4800FA02FE1FFA8CF7B3FBF8F077
:1060600008FB1031230C43EA014300FB07F199427E
:1060700008D91CEB030300F1FF362CD299422AD930
:10608000023863445B1AA4B2B3FBF8F108FB113386
:1060900044EA034401FB07F3A34208D91CEB0404C0
:1060A00001F1FF3613D2A34211D902396444E41A34
:1060B00041EA004139E70446F0E6084606E7C845EC
:1060C000AED2B9EB020E63EB070C0138A8E73146FC
:1060D000EDE7034699E73046D4E7D6467FE76344C9
:1060E00002384DE70646234608460FE7023E634462
:1060F00030E700BF704700BF10B5064C8C20216808
:1061000005F0C4FE044B22681A6001F0E3F9034B6A
:10611000186010BDC0010020BC010020B4010020A7
:1061200008B50C4B19680C4B1868FFF7F1FA0B49CE
:1061300020F00040FFF7A8FD18B1BDE80840FFF7C8
:10614000DBBF01F0C7F9064B1B68C01A054B98422C
:10615000F3D808BDBC010020C00100200000204190
:10616000B4010020FF5B260538B58C2005F06AFEDF
:10617000114C431C0ABF0023206023602568294678
:106180002846FFF795FD48B900212846FFF768FD2E
:1061900020B90A492846FFF781FD28B100230021D4
:1061A0008C20236005F072FE054B22681A6001F016
:1061B00091F9044B186038BDC0010020007094466E
:1061C000BC010020B401002008B501F083F9014BA7
:1061D000186008BDB801002070B5044601F07AF9D6
:1061E0001D4B1B68C01AFFF745FB1C49FFF74EFC0F
:1061F0001B490546FFF78EFA1A49FFF78BFA01464D
:106200002046FFF785FA00210446FFF729FD00B17B
:1062100000241549154E2046FFF738FC1449FFF7B6
:1062200081FB1449FFF776FA0F4904462846FFF729
:106230002DFC1149FFF776FB01462046FFF76AFA6D
:106240000E49FFF767FA3168FFF764FA3060BDE87E
:106250007040FFF765BF00BFB801002000007A441E
:10626000EC51383D0AD7233E00006145C0010020B3
:106270000AD7A33C6F12033A0000824265CF0B3A63
:10628000064B0748196810B5FFF742FA002104468B
:10629000FFF7E6FC00B10024204610BDC00100203D
:1062A0000070944610B5FFF7EBFF0B49FFF7EEFBCC
:1062B0000A49FFF737FB00210446FFF7D1FC30B94C
:1062C00006492046FFF7EAFC18B9204610BD002415
:1062D000FBE7024CF9E700BF007094460000C8429B
:1062E00010B5074CFFF7C6FA0649FFF71BFB2168FC
:1062F000FFF710FA2060BDE81040FFF711BF00BFA4
:10630000C00100206F12033A38B501F0E3F8104BDA
:106310001B68C01AFFF7AEFA0E49FFF7B7FB0E492C
:106320000446FFF7BBFC00B10C4C0D490D4D204657
:10633000FFF7ACFB0C49FFF7F5FA0C49FFF7EAF958
:106340002968FFF7E7F92860BDE83840FFF7E8BEA5
:10635000B801002000007A4400002041CDCCCC3DA3
:1063600000006145C00100200000824265CF0B3A69
:1063700038B500210446FFF773FC00B10024084D36
:1063800008492046FFF782FB0749FFF7CBFA296847
:10639000FFF7C0F92860BDE83840FFF7C1BE00BF75
:1063A000C0010020000061450AD7A33C30B585B08C
:1063B00000240546CDE90144039400F0FDFA144899
:1063C00001F0F2FE08B100F06DFC1148039401A940
:1063D000CDE9015401F0B2FC08B100F063FC0C48B7
:1063E00001F00CFE08B100F05DFC4FF0FF310848F1
:1063F00001F046FC064801F0B9FE054801F09AFCA0
:106400000446034801F05CFE204605B030BD00BFE5
:10641000BC030020014B024A1A607047BC030020F5
:106420000024014008B50948FFF7C0FF68B1084BD8
:10643000B3F8AA304FF6FF72934216BF40F6E4421B
:10644000044B5343B3FBF0F398B208BD002000B4F3
:106450000075FF1FD8084C0013B50023ADF80630B7
:10646000FFF7E0FF04461948FFF7A0FF184BB3F809
:10647000C820B3F8A8108A4204FB00F018D040F6F8
:10648000E443B0FBF3F364205B1A4343521A93FBDB
:10649000F2F31E331BB2ADF80630BDF806305BB226
:1064A0001B02ADF80630BDF8060000B202B010BD08
:1064B0004FF47A7240F6FF73B0FBF3F35343A3F546
:1064C0003923A3F50C6340F6C412E0E7001000B0D6
:1064D0000075FF1F08B502F0A1F910B16FF00400BC
:1064E00008BD064B9A6942F040429A614CF2FA327A
:1064F0001A6102F0A5F90028F2D0EFE70040005839
:10650000F0B585B000230D4600930646A8B3FFF70B
:10651000E1FF044670BB02F081F988BB1A481B4AB0
:1065200002230193D0F8E01506F1784302EA8121B5
:10653000B3FBF1F701FB1733DB0A0293D0F8E00558
:1065400005F178410139314402EA8022B1FBF2F0D1
:1065500002FB1011C3EBD1230133694601A8039359
:1065600002F0F4F920B1022814BF6FF001040124F5
:1065700002F066F9204605B0F0BD6FF00504F9E7BA
:106580006FF00404F6E700BF0070FF1F00FCFF037C
:10659000014B186000207047C40100202DE9F04F26
:1065A000B0F1006F89B006460F469046C0F0C0803B
:1065B000DFF89091644DD9F8E03505EA832303F1C3
:1065C0000063013B984200F2B380002900F0B380E1
:1065D00040EA02035B0740F0AE80FFF77BFF044612
:1065E00090BB02F01BF9002840F0A880D9F8E01514
:1065F000009705EA812106F17842B2FBF1F301FB35
:10660000132208F17843013B3344B3FBF1F001FB63
:106610001033DB0A01334FEAD22AA3EBD222012A3C
:10662000039388BFC6F30A050AF58037C6F108034D
:106630008CBFC5F500654546FF02B3460693039B34
:106640009A4505D302F0FCF8204609B0BDE8F08F6A
:10665000A6F10803069A1A4495421CD8009B04959B
:106660000193CDF814B04FF00009059B09EB03012D
:10667000049B99453DD3009BAB442B44A8EB0505F7
:10668000B5F5006F009328BF4FF400650AF1010AC9
:1066900007F50067D3E753F8081F5A68B2F1FF3FC8
:1066A00008BFB1F1FF3FD5D0284B186810B96FF083
:1066B0000504C7E727B14FF40062394613F066FBC3
:1066C000DFF888900099D9F80030CBF30A0018441D
:1066D000AAB213F05BFB4FF400613846FFF710FFDE
:1066E00000BBD9F8003001934FF400630597049381
:1066F000B9E7019B07914B4402930120D3E90023A2
:1067000002F0DEF888B90799019BD1E9000259F837
:106710000310029B5B689A4208BF884205D109F1C9
:106720000809A2E76FF001048CE76FF0030489E722
:106730004FF0FF3488E76FF0050485E76FF004043D
:1067400082E700BF0070FF1F00FCFF03C4010020B0
:10675000B1F1006F70B510D30B4BD3F8E0650B4B64
:1067600003EA862303F10063013B994205D838B15F
:1067700092B213F00BFB002070BD4FF0FF30FBE72F
:106780006FF00500F8E700BF0070FF1F00FCFF037B
:10679000B0F1006F10B40DD3084BD3F8E045084BAF
:1067A00003EA842303F10063013B984202D810BC42
:1067B000FFF7A6BE4FF0FF3010BC70470070FF1F00
:1067C00000FCFF034FF0B04382B0DA6C0243DA649E
:1067D000DB6C03400193019B02B0704770B586B03B
:1067E0001422002101A814F00FFB0220FFF7EAFF9A
:1067F0000120FFF7E7FF1A4E0420FFF7E3FF48F2FE
:10680000713100224FF0904002F00EFA0022304623
:106810004FF4005102F008FA012548F271330024C8
:1068200001A94FF09040CDE90135CDE9034402F0D4
:10683000DBF802224FF4881301A94FF09040CDE914
:106840000123039502F0D0F84FF4005301A930461C
:10685000CDE90135CDE9034402F0C6F806B070BDBC
:106860000008004808B51248124A134BC0E900233B
:1068700000230122C0E90232C0E90433C0E9063333
:10688000036202F04DFB08B100F00CFA0848002149
:1068900002F0DEFC08B100F005FA0548002102F024
:1068A000FDFC18B1BDE8084000F0FCB908BD00BF10
:1068B0001C02002000540040885D80104FF0B0435F
:1068C00082B0DA6C0243DA64DB6C03400193019B13
:1068D00002B0704710B5114A114C124B2046C4E962
:1068E000002300230122C4E90232C4E90433C4E9CD
:1068F0000633236202F014FB014608B172B6FEE7CC
:10690000204602F0A5FC014608B172B6FEE720461B
:1069100002F0C4FC08B172B6FEE710BD005400409E
:106920001C0200205D3E302000B59BB048220021B3
:1069300008A814F069FA1822002102A814F064FAD9
:1069400002F0D2FC4FF0B042B021D2F8903023F0E8
:106950001803C2F89030D2F8003423F4C06343F433
:106960000073C2F80034D2F80034129103F4C0630B
:106970000193019B2C230893812301220B9308A8E8
:106980000023CDE91023CDE90E23139302F024FE5A
:1069900008B172B6FEE74F23CDE90230CDE904001D
:1069A000CDE90600022102A803F0B0F808B172B6E2
:1069B000FEE71BB05DF804FB1148124A08B54FF022
:1069C0008043C0E900230422002342610122C0E980
:1069D0000233C0E90933C0E90C33036103838376D2
:1069E000C26180F8203080F82C30836380F83C301E
:1069F000C36401F045F808B172B6FEE708BD00BFF8
:106A0000BC0300200024014030B58DB0214C2C2265
:106A1000002101A814F0F8F91F4B23601F23A36085
:106A20004FF0804200234FF480752046C4E90433C0
:106A3000C4E90723A361656203F038FC08B172B6AC
:106A4000FEE7204603F05EFD024608B172B6FEE79F
:106A50004FF000430893029006904FF0005301A9B5
:106A6000204607930B9503F081FC08B172B6FEE750
:106A70000121204603F084FD4BF6BE65A84206D0F6
:106A800002F032FC2A460121204603F072FD0DB0CF
:106A900030BD00BF7003002000280040044808B546
:106AA0000823036003F09AFD08B172B6FEE708BD43
:106AB0006403002010B5164A164C4FF46133C4E944
:106AC0000023204600230C22C4E90233C4E9052335
:106AD000C4E90733C4E90933236104F09BFF01468D
:106AE00008B172B6FEE7204605F006F9014608B186
:106AF00072B6FEE7204605F01FF908B172B6FEE750
:106B0000204605F0DEF808B172B6FEE710BD00BF02
:106B100000440040D00200204FF0B04307B59A6C0B
:106B200042F004029A649A6C02F004020192019A03
:106B30009A6C42F001029A649B6C03F0010300938B
:106B4000002202210F20009B01F0CCFB0F2003B09C
:106B50005DF804EB01F0F8BB7FB5494B494A9A60F8
:106B600062B600F02FFFFFF7DFFE1422002101A81C
:106B700014F04AF90220FFF7A1FE0120FFF79EFE64
:106B80000420FFF79BFE4FF480713F483F4D0022E9
:106B900002F04AF8002248F271314FF0904002F0C2
:106BA00043F800223A484FF40051002402F03CF828
:106BB00001264FF48073344801A9CDE90136CDE9AF
:106BC000034401F011FF48F2713301A94FF09040E6
:106BD000CDE90136CDE9034401F006FF02224FF46E
:106BE000881301A94FF09040CDE90123039601F0ED
:106BF000FBFE4FF40053264801A9CDE90136CDE94B
:106C0000034401F0F1FE22462146072001F06AFB11
:106C1000072001F099FBFFF77FFFFFF75BFE05F010
:106C200069F91C491C4B2C622846C5E90013C5E9CB
:106C30000246C5E90444C5E9064402F071F901467B
:106C400008B172B6FEE7284602F002FB014608B121
:106C500072B6FEE7284602F021FB034608B172B681
:106C6000FEE70E480E4AC0E9002303F041F908B1DF
:106C700072B6FEE7FFF72EFE05F043F9FCE700BF12
:106C800000ED00E00050000800040048C8010020AA
:106C900000080048005800405D3E3020A803002056
:106CA0000010005872B6FEE70648074A08B50023F0
:106CB000C0E9002303F01CF918B1BDE80840FFF754
:106CC000F1BF08BDA803002000100058014B0020B0
:106CD0001970704720040020F0B587B0164F8DF86A
:106CE0000F101C460A2300931546397801230DF135
:106CF0000F02064602F07EF9D0B99DF80F30E02B66
:106D000018D0F62B14BF0A20052000F0EBFB0A2355
:106D100000933978062304AA304602F001FA38B904
:106D2000BDF810305BBA2B80BDF813305BBA2380FE
:106D300007B0F0BD0220E8E72004002008B5FEF708
:106D40009DFD0549FEF7EEFD0449FEF79FFE04494F
:106D5000FEF7DEFC08BD00BF00002F4300FF7F47A9
:106D60000000344208B5FEF789FD0549FEF7DAFD5B
:106D70000449FEF78BFE0449FEF7CAFC08BD00BFBC
:106D80000000FA4200FF7F470000C04073B516467E
:106D90001D4601AA0DF10603FFF79EFF044648B900
:106DA000BDF80400FFF7CAFF3060BDF80600FFF72A
:106DB000D9FF2860204602B070BD704708B500F0CA
:106DC00023FE044B0120C3F88800BDE8084002F010
:106DD000E3BA00BF0004005800F01DBE08B500F083
:106DE0001AFEBDE8084000F05DBD08B500F00CFEDD
:106DF000BDE808400121002002F07EBA70474FF044
:106E0000B04382B0DA6C0243DA64DB6C0340019376
:106E1000019B02B070474FF0B04382B09A6D0243BD
:106E20009A659B6D03400193019B02B0704708B5C2
:106E300000220520114601F055FABDE80840052062
:106E400001F082BA30B5044687B01422002101A8AF
:106E500013F0DAFF2268154B9A4225D14FF0B04368
:106E600002201A6E42F400721A661B6E03F400735D
:106E70000093009BFFF7C3FF0120FFF7C0FF04232F
:106E80000DEB03010A4803250024CDE901350394E5
:106E900001F0AAFD4FF4806301A94FF09040CDE9C5
:106EA0000135039401F0A0FD07B030BD002401407E
:106EB0000004004808B502680A4B9A4211D14FF00D
:106EC000B0420948136E23F400731366042101F0E5
:106ED00037FEBDE808404FF480614FF0904001F06C
:106EE0002FBE08BD002401400004004810B594B036
:106EF00004461422002101A813F086FF3822002145
:106F000006A813F081FF2368244A934221D140232D
:106F1000069306A84FF440330B9302F01BFF08B111
:106F2000FFF7C0FE0220FFF76AFFC0241223CDE95D
:106F300001430023CDE903330423194805930DEBE6
:106F4000030101F051FD4FF40010FFF764FF14B08E
:106F500010BD144A9342FAD18023069306A84FF439
:106F600040230C9302F0F6FE08B1FFF79BFE0120D0
:106F7000FFF745FF4FF4C0521223CDE90123002152
:106F80000423CDE9041303900DEB03014FF090406F
:106F900001F02AFD4FF48000D7E700BF0054004005
:106FA000000400480058004008B5144A03689342A2
:106FB0000FD14FF0B0421248936D23F400134021DB
:106FC000936501F0BDFD0E488021BDE8084001F049
:106FD000B7BD0C4A934210D14FF0B0424FF400615C
:106FE000936D23F480034FF09040936501F0A8FD6A
:106FF0004FF480514FF09040E7E708BD0054004047
:10700000000400480058004010B5044690B03822F3
:10701000002102A813F0F8FE22680E4B9A4216D106
:107020004FF40043029302A84FF080430E9302F006
:1070300091FE08B1FFF736FE4FF0B0431A6D42F4EF
:1070400080221A651B6D03F480230193019B10B00D
:1070500010BD00BF001000580268054B9A4201BFE6
:107060004FF0B042136D23F480231365704700BFC7
:107070000010005810B504468EB038220021684632
:1070800013F0C2FE2268164B9A4227D14FF4803388
:10709000009368464FF480730D9302F05BFE08B1D5
:1070A000FFF700FE4FF0B0424FF48060D2F890300E
:1070B00043F40043C2F89030FFF7ADFE00221146C2
:1070C000022001F00FF9022001F03EF900222A20EF
:1070D000114601F007F92A2001F036F90EB010BD73
:1070E000002800404FF0B04307B55A6E42F001024D
:1070F0005A665B6E002203F00103019311463220B1
:10710000019B01F0EFF8322003B05DF804EB01F0D1
:107110001BB9000070B594B006461422002101A8E6
:1071200013F072FE3822002106A813F06DFE3268BB
:10713000214B9A423DD10223069306A84FF44023E7
:10714000089302F007FE08B1FFF7ACFD4FF40030E2
:10715000FFF761FE0120FFF752FE0C2202230025FB
:10716000CDE9012301A907234FF09040134C05936B
:10717000CDE9035501F038FC114925621423C4E917
:1071800000131023C4E9023520468023C4E90435E6
:10719000C4E9065501F05EF908B1FFF783FD00224E
:1071A0002520F4671146A66201F09CF8252001F025
:1071B000CBF814B070BD00BF004400407002002046
:1071C0005800024002680C4B9A4210B5044612D196
:1071D0004FF0B0420C21936D23F4003393654FF0D0
:1071E000904001F0ADFCE06F01F0A6F9BDE8104061
:1071F000252001F0B7B810BD00440040FEE7FEE7CF
:10720000FEE7FEE7FEE770477047704700F0F0BB0F
:10721000014803F09DB900BF7003002070470220B1
:1072200001F010BD014801F08BBA00BF70020020D0
:10723000014803F04FBD00BFD0020020014802F01A
:10724000BBBF00BF70030020014803F0AABB00BF12
:10725000640300202DE9F04186B000244FF0B043D4
:107260000594DA6C1B4D42F00402DA64DB6C039483
:1072700003F004030093009B10270123CDE9017361
:1072800001A90323284604934FF4005801F0ACFBF6
:1072900001A928468026CDF8048001F0A5FB01A9AC
:1072A0004FF09040019601F09FFB22464146284650
:1072B00001F0BAFC22463946284601F0B5FC2246C8
:1072C00031464FF0904001F0AFFC204606B0BDE8DB
:1072D000F08100BF0008004808B5032814D8DFE893
:1072E00000F002151D2A002280214FF0904001F08D
:1072F0009BFC00221448102101F096FC0022124849
:107300004FF4005101F090FC002008BD01228021C3
:107310004FF0904001F088FC0122EBE70122802130
:107320004FF0904001F080FC01220748102101F04D
:107330007BFC0122E3E7012280214FF0904001F025
:1073400073FC0022F1E700BF0008004802207047EC
:107350000120704701207047002814BF16200F201D
:10736000704700000CB407B5054A05AB1021019326
:1073700012F0FEFD03B05DF804EB02B0704700BFF1
:1073800078C2010830B585B0044602A80D4612F057
:1073900067FDBDF90C30064A00931021029B204680
:1073A000FFF7E0FF2046FDF7EBFE288005B030BD7B
:1073B00078C201084FF0B04210B5936823F400433F
:1073C000936012F0C3FF0E4B01241C7000F090F884
:1073D00013F054F90B4813F06BF90B4B4FF40042C8
:1073E0001A61002013F06AF9FFF714F800F0A6F80C
:1073F00012F076FC21462046BDE8104012F090BC09
:1074000021040020857300080040005812F09EBC43
:10741000FF2070477FB5684600F074F80198FEF7CA
:107420005DFC00B207B05DF804FB0000194A38B5F6
:10743000D2F88035591C044619D100F0F3FA0546FC
:1074400000F0FCFA054400F0F3FA2B0EE3712B0C6C
:10745000A3712B0A6371030EE370C0F30742C0F3FC
:1074600007232571C0B2A2706370207038BD190A5D
:10747000C3718171190C1B0E41710371D2F88435EF
:10748000C370D2F88405C0F30722C0F30743000E8F
:10749000E9E700BF0070FF1F38B5094BD3F880350E
:1074A00003600133054609D100F0BCFA044600F040
:1074B000BFFA444000F0C2FA44402C6038BD00BF1F
:1074C0000070FF1F0121022012F014BC00210220D5
:1074D00012F010BC024B187808B100F0C1B8704728
:1074E0002104002082B00190019802B000F054B94C
:1074F00008B500F0A9FA00F0AFFABDE8084000F0C6
:10750000B3BA000010B50446FEF7A6FF074BA36010
:1075100040F30F20FEF7B2F9054B064A2360064BF5
:107520006060C4E90323002010BD00BF0000484292
:1075300000007A440D093E00AB03050000207047AF
:107540000120704708B513F0C3FD162303604FF008
:10755000FF3008BD08B513F0BBFD16230360FEE73E
:1075600070B50D4614460E46731B9C4201DC204646
:1075700070BDAFF3008006F8010BF5E770B50D465E
:1075800014460E46731B9C4201DC204670BD16F863
:10759000010BAFF30080F5E74FF0FF3070474FF479
:1075A00000534B6000207047012070470020704757
:1075B0000B4A116810B5034609B90A4911601068F1
:1075C00009490A4C0344091B8B4206D913F080FD7C
:1075D0000C2303604FF0FF3010BD1360FCE700BFC9
:1075E00024040020D05800200000012000040000E6
:1075F00070470000014B1868704700BF2804002046
:107600000320704708B501464FF47A7200238002C8
:10761000890DFEF7F9FB08BD4FF47A73A0FB030355
:10762000800A40EA83507047034B98689A689042FA
:10763000FBD1C043704700BF0028004008B5FFF7EA
:10764000F3FF014B186008BD2804002008B5FFF7C0
:10765000EBFF024B1B68C01A08BD00BF28040020C6
:10766000024B187808B1FFF7DFBF70472C040020E9
:1076700010B5074B074C0122DA654FF480712046A4
:1076800002F060FD4FF0FF332363002010BD00BF08
:10769000002800407003002002460021014802F04B
:1076A00068BF00BF7003002002460121014802F0BC
:1076B00060BF00BF7003002010B58CB02C220021E9
:1076C000044601A813F0A0FBFFF7D2FF0C4B0D48B6
:1076D0001B681C440023089306934FF00053E443B7
:1076E000079301224FF4807301A902940B9302F0D7
:1076F0003DFE08B1FFF7D6FA00200CB010BD00BF68
:10770000280400207003002038B50546FFF78CFFE1
:1077100002210446074802F033FFC4F309024FF484
:107720007A71A2FB0121920AA30A2A8043EA8050BF
:1077300038BD00BF700300200148002102F020BFC7
:10774000700300200148012102F01ABF70030020DD
:10775000F8B50F4D2E78CEB90E4C4FF0FF3727639A
:10776000FFF752F9FFF784FF4FF48071204602F0D3
:10777000E9FC2046276302F0A7FE3246204602219C
:1077800002F0F7FEFFF75AFF01232B700020F8BD2F
:107790002C04002070030020014610B54FF47A72CB
:1077A00000238002890DFEF72FFB0146FFF73CFF07
:1077B0000446FFF739FF031B8B4200D310BD00BF07
:1077C000F7E712F0CFBE000010B5064C02212046AC
:1077D00002F0D6FE0221421C2046BDE8104002F015
:1077E000C8BE00BF7003002008B50A460146024823
:1077F00003F0D4F9002008BDD002002013B5114BCE
:10780000114C18604FF40013009302AB13E906000B
:10781000204604F0FAF92368DA69D103FCD4DA6966
:107820005202FCD59A68084842F480029A6004F03B
:1078300032FA06490448012204F0A0F9002002B0FF
:1078400010BD00BF30040020D0020020380400200A
:1078500008B5074B1860FFF75FF9FFF72BF9054AEA
:10786000D2F8803043F00063C2F88030002008BDB9
:10787000340400200008005808B54FF0B043084811
:107880009A6B42F400329A639A6B22F400329A6344
:10789000FFF798FC0F2000F065FD002008BD00BF39
:1078A000D002002008B5074804F0B4F808B1FFF78B
:1078B000F9F9054800F0CEFD18B1BDE80840FFF722
:1078C000F1B908BDD0020020700200200268044B0C
:1078D0009A4203D1034B00201B681847704700BF32
:1078E000004400403404002002680B4B9A4210B55B
:1078F00004460FD1094B1B682BB1D0F8902012B968
:1079000007480121984720460549BDE8104001225B
:1079100004F034B910BD00BF004400403004002022
:10792000380400200D488546FFF762FE0C480D49DB
:107930000D4A002302E0D458C4500433C4188C42CA
:10794000F9D30A4A0A4C002301E013600432A24230
:10795000FBD313F0C3FBFFF7FFF8FEE700000120A5
:10796000000000209801002094D801089801002010
:10797000D0580020FEE7000038B5104C23780546AB
:107980000BB9012038BD01F017FE22784FF47A734D
:10799000B3FBF2F3B0FBF3F000F008FD044600285F
:1079A000EFD10F2DEDD8024629464FF0FF3000F001
:1079B00099FC034B20461D60E4E700BF0400002053
:1079C0000800002010B5032000F07AFC01F0F4FD5F
:1079D000064B18600F20FFF7CFFF044618B9FFF7DA
:1079E00026FA204610BD0124FBE700BF000000205E
:1079F000034A044B11681B780B441360704700BFA7
:107A00003C040020040000204FF0E022136923F022
:107A10000203136170474FF0E022136943F0020341
:107A200013617047014BD3F8900570470070FF1F3A
:107A3000014BD3F8940570470070FF1F014BD3F83A
:107A4000980570470070FF1F024A536823F0010336
:107A500053607047002004E0024A536823F0020399
:107A600053607047002004E0024A536823F0040387
:107A700053607047002004E08068C0F380007047C6
:107A8000F7B5002301930446002800F0E980856DD6
:107A900025B9FFF7D7F9E56584F8545023689A684B
:107AA000D00040F1A1809A68D10000F1B480A26DAD
:107AB00042F01002A265E26D42F00102E26501258A
:107AC0001846FFF7D9FFA26D02F01002024340F002
:107AD000C980A26D206922F4817242F00202A2657F
:107AE0009A68D2075DD4226BA67E94F82CC0003A27
:107AF00018BF01221703D4E902120A43217E42EA89
:107B00008132617E42EAC13242EA4632002842EACC
:107B10004C02B4BF20F000414FF400113A430A4335
:107B200094F82010012903D1002E76D142F480323E
:107B3000616A21B1A66A01F4E07131430A43D96850
:107B4000E66C21F4FE3121F4FF711143D96094F801
:107B50003C206168012A01F0404C4CEA060609D13C
:107B6000D4E910273A433243A66C324342EA0C026E
:107B700042F001061F693E4A3A4032431A6121F041
:107B80000042B2F1804F0CD0B1F1004F09D0394E14
:107B9000D6F8082701F4701122F470120A43C6F8CF
:107BA00008275A69666BA16B22F0070232435A61BB
:107BB0005A6922F0700242EA01125A61002835D156
:107BC0009A6A62F00F029A625B6903F007039E42B1
:107BD0003CD10023E365A36D23F0030343F00103CD
:107BE000A365284603B0F0BD9A68234922F01042ED
:107BF00022F0170242F080529A60204A1268B2FBCB
:107C0000F1F2013252000192019A002A3FF44BAF87
:107C1000019A013AF7E7002552E7A16D41F02001F2
:107C2000A165E16D41F00101E16581E7B0F5001F5B
:107C3000CAD19A6AE269013A92006FF00F0102F02C
:107C40001C0201FA02F2216E0A43BCE7A36D23F085
:107C5000120343F01003A365E36D43F00103E365F2
:107C60000125BEE7A36D43F01003A365F8E700BF4D
:107C700002FCFF1F00200140400D03000000002017
:107C8000F8B54569082D04460E460AD00368DB683E
:107C9000D80705D5A36D43F02003A3650120F8BDE7
:107CA0000425FFF717FC074623681A682A4220D0EC
:107CB000A26D42F40072A265DA6812F4406F14D12A
:107CC000A27E92B91A6812070FD51846FFF7D4FEA4
:107CD00020BB5A6822F00C025A60A26D22F4807216
:107CE00022F0010242F00102A265227EFAB10020D8
:107CF000D5E7711CD9D0FFF7EDFBC01BB04201D80E
:107D0000002ED1D123681B682B40CDD1A26D84F801
:107D1000543042F00402A2650320C0E7A26D42F095
:107D20002002A265E26D42F00102E265DDE70C226D
:107D30001A60DCE70368186C70470000F7B5002391
:107D4000019390F85430012B044600F0C080056880
:107D50000269012380F854302846FFF78DFE002881
:107D600040F0AF80D1E90030022822F004027ED03A
:107D7000B2F1004FC3F3110E35D1AA6A42EA0E02E6
:107D8000AA628A68686902EA032222F07C4222F031
:107D9000FF0220EA03210A43002B6A611DDA4D4AE3
:107DA0004D4DD2F80817AB4201F0E07043D10D02FF
:107DB00013D4D2F8083723F0E073034343F40003ED
:107DC000C2F80837454B1A68454BB2FBF3F20C2357
:107DD00002FB03330193019B53BB0020002384F873
:107DE000543003B0F0BD226E00F01F074FF00F0CAF
:107DF0000CFA07FC6FEA0C0622EA0C0CBEF1000F2D
:107E000011D1C3F38462BA4042EA0C0222668008B0
:107E1000E26901309042B4D8A86AC3F38362BA40E1
:107E200006403243ACE793FAA3F2B2FA82F2EAE7F1
:107E3000019B013BCEE72B4DAB420BD1C901CCD40A
:107E4000D2F8083723F0E073034343F08073C2F89D
:107E50000837C2E7244DAB42BFD14B02BDD4D2F8A4
:107E6000083723F0E073034343F48003EFE7B2F1F4
:107E7000004F01BFAA6AC3F311018A43AA62002B13
:107E8000ABDA154813498342D1F8082709D1D1F854
:107E9000083702F0A07223F0E0731A43C1F80827F4
:107EA0009BE71048834204D1D1F8083702F440021E
:107EB000F1E70D48834290D1D1F8083702F0C07243
:107EC000E9E7A26D42F02002A265184686E702208B
:107ED00087E700BF00200140001000B00000002034
:107EE000400D0300004000B8002000B4026838B51F
:107EF00004461046FFF7C0FD08B9002038BD93685E
:107F0000990707D4936823F0004323F0170343F045
:107F100010039360FFF7DEFA054623689B685B0752
:107F2000EBD5FFF7D7FA401B0228F6D923689B68E8
:107F30005A07F2D5A36D43F01003A365E36D43F038
:107F40000103E3650120D9E773B5002302680193BB
:107F50009368DD07044602D5002002B070BD916829
:107F6000214B194209D0A36D43F01003A365E36DC3
:107F700043F00103E3650120EFE7936823F000433A
:107F800023F0170343F001039360184BD3F808372D
:107F900018021CD4637E012BDED0FFF79BFA144E2F
:107FA000054622681368DB07D6D49368D9075FBFFC
:107FB0009368334043F001039360FFF78BFA401B53
:107FC0000228EED923681B68DA07EAD4CBE7094B0D
:107FD000094A1B68B3FBF2F301330193019B002BA9
:107FE000D8D0019B013BF8E717000080002001403A
:107FF000E8FFFF7F00000020400D030038B5044675
:108000000068FFF739FD054620BB94F85430012B7A
:1080100020D0012384F854302046FFF795FFB0B9F3
:10802000A36D226823F4706323F0010343F480738B
:10803000A3651C23E065136084F85400936823F063
:10804000004323F0170343F00403936038BD84F822
:108050005450FBE70220F9E7026838B5936891684D
:108060000446C80701D4002038BD9907FBD49368A3
:1080700003F00503012B19D1936823F0004323F08B
:10808000170343F00203936003231360FFF722FA00
:10809000054623689B68DB07E5D5FFF71BFA401B05
:1080A0000228F6D923689B68DA07F2D5A36D43F05E
:1080B0001003A365E36D43F00103E3650120D3E7FB
:1080C00070B5044600284BD0836D43F002038365EE
:1080D000FFF70CFF054668B92046FFF7BDFF0546D0
:1080E00008B90123A3652268936823F0104323F0A5
:1080F0001703936023685A6822F4677222F0030220
:108100005A6040F29F321A60D968164A0A40DA6013
:108110001A6922F040421A615A6922F007025A6134
:108120001A6A02F0F0221A625A6A02F0F0225A62C7
:10813000DA6A02F0F022DA629A6A0B4A00269E623C
:10814000D2F8083723F0FE73C2F808372046FEF74E
:10815000B1FEE6652666A66584F85460284670BDC3
:108160000125FBE700023E830020014010B590F896
:108170005430012B044615D0012380F85430FFF70A
:10818000B5FE58B92046FFF767FF38B9A36D23F451
:10819000807323F0010343F00103A365002384F8F7
:1081A000543010BD0220FCE7F7B50023019390F88E
:1081B0005430012B04467FD0012380F85430FFF760
:1081C0004BFF23689A6812F00102054607D0A36DA1
:1081D00043F01003A365002384F854302DE0A16D13
:1081E000364F21F4817141F00201A165DE68D96842
:1081F00026F4FF4626F07C0621F40041360421F0E7
:108200000301360CD96008209968394041F00041DB
:1082100099609968002913DA019901310191019956
:10822000B1F52E3FF5D3A36D23F0120343F01003F5
:10823000A365002384F854300125284603B0F0BD1F
:10824000D3F8B410013801F07F010A44DCD19968F9
:108250001A48014041F001019960D3F8B41021F0AF
:108260007F0141EAD202C3F8B4209A68024042F08A
:1082700002029A60FFF72EF9074623689A68D20730
:1082800008D4DA683243DA60A36D23F0030343F0C5
:1082900001039FE7FFF71EF9C01B0228EDD92368F1
:1082A0009B68D907E9D5A36D43F01003A365E36D7F
:1082B00043F00103E365BFE70225BEE7E8FFFF7F68
:1082C0000749CA6822F4E0620302120403F4E0637F
:1082D000120C134343F0BF6343F40033CB60704789
:1082E00000ED00E0164B30B5DC68C4F30224C4F1A5
:1082F0000703251D042B28BF0423062D4FF0FF354F
:108300008CBF033C002405FA03F321EA0303A540D4
:1083100022EA0502A340002843EA0203ACBF00F1B1
:108320006040084A4FEA0313B8BF00F00F00DBB209
:10833000AABF00F56140135480F8003330BD00BF80
:1083400000ED00E014ED00E0002807DB044A4109DD
:10835000012300F01F00834042F82130704700BF26
:1083600000E100E000280CDB4309064900F01F0093
:1083700020330122824041F82320BFF34F8FBFF307
:108380006F8F704700E100E0BFF34F8F0549064B48
:10839000CA6802F4E0621343CB60BFF34F8F00BFA3
:1083A000FDE700BF00ED00E00400FA050138B0F180
:1083B000807F0BD24FF0E023054A5861F02182F80C
:1083C00023100020072298611A617047012070472E
:1083D00000ED00E070B5D0E913456560446D14B15F
:1083E000D0E916456560D0E9105404F01C0601245C
:1083F000B4406C60046863608368102B0BBFA2609C
